{
  "_format": "hh-sol-artifact-1",
  "contractName": "ERC20Holder",
  "sourceName": "contracts/ERC20Holder.sol",
  "abi": [
    {
      "inputs": [
        {
          "internalType": "address",
          "name": "erdstall",
          "type": "address"
        }
      ],
      "stateMutability": "nonpayable",
      "type": "constructor"
    },
    {
      "inputs": [
        {
          "internalType": "address",
          "name": "token",
          "type": "address"
        },
        {
          "internalType": "uint256",
          "name": "amount",
          "type": "uint256"
        }
      ],
      "name": "deposit",
      "outputs": [],
      "stateMutability": "nonpayable",
      "type": "function"
    },
    {
      "inputs": [],
      "name": "erdstall",
      "outputs": [
        {
          "internalType": "contract Erdstall",
          "name": "",
          "type": "address"
        }
      ],
      "stateMutability": "view",
      "type": "function"
    },
    {
      "inputs": [
        {
          "internalType": "address",
          "name": "token",
          "type": "address"
        },
        {
          "internalType": "address",
          "name": "owner",
          "type": "address"
        },
        {
          "internalType": "bytes",
          "name": "value",
          "type": "bytes"
        }
      ],
      "name": "mint",
      "outputs": [],
      "stateMutability": "nonpayable",
      "type": "function"
    },
    {
      "inputs": [
        {
          "internalType": "address",
          "name": "token",
          "type": "address"
        },
        {
          "internalType": "address",
          "name": "recipient",
          "type": "address"
        },
        {
          "internalType": "bytes",
          "name": "value",
          "type": "bytes"
        }
      ],
      "name": "transfer",
      "outputs": [],
      "stateMutability": "nonpayable",
      "type": "function"
    }
  ],
  "bytecode": "0x60a060405234801561001057600080fd5b5060405161093b38038061093b83398101604081905261002f91610044565b60601b6001600160601b031916608052610072565b600060208284031215610055578081fd5b81516001600160a01b038116811461006b578182fd5b9392505050565b60805160601c6108976100a460003960008181605601528181610273015281816102fb01526104f401526108976000f3fe608060405234801561001057600080fd5b506004361061004c5760003560e01c8063411f925c1461005157806347e7ef24146100a15780639e625f6c146100b6578063f1ddecf9146100c9575b600080fd5b6100787f000000000000000000000000000000000000000000000000000000000000000081565b60405173ffffffffffffffffffffffffffffffffffffffff909116815260200160405180910390f35b6100b46100af366004610776565b6100dc565b005b6100b46100c43660046106ed565b6102e3565b6100b46100d73660046106ed565b6104dc565b6040517f23b872dd0000000000000000000000000000000000000000000000000000000081523360048201523060248201526044810182905273ffffffffffffffffffffffffffffffffffffffff8316906323b872dd90606401602060405180830381600087803b15801561015057600080fd5b505af1158015610164573d6000803e3d6000fd5b505050506040513d601f19601f82011682018060405250810190610188919061079f565b6101f3576040517f08c379a000000000000000000000000000000000000000000000000000000000815260206004820181905260248201527f4552433230486f6c6465723a207472616e7366657246726f6d206661696c656460448201526064015b60405180910390fd5b60008160405160200161020891815260200190565b604080517fffffffffffffffffffffffffffffffffffffffffffffffffffffffffffffffe0818403018152908290527f46e6744b000000000000000000000000000000000000000000000000000000008252915073ffffffffffffffffffffffffffffffffffffffff7f000000000000000000000000000000000000000000000000000000000000000016906346e6744b906102ac903390879086906004016107c6565b600060405180830381600087803b1580156102c657600080fd5b505af11580156102da573d6000803e3d6000fd5b50505050505050565b3373ffffffffffffffffffffffffffffffffffffffff7f00000000000000000000000000000000000000000000000000000000000000001614610382576040517f08c379a000000000000000000000000000000000000000000000000000000000815260206004820152601960248201527f546f6b656e486f6c6465723a206e6f74204572647374616c6c0000000000000060448201526064016101ea565b60006103c383838080601f01602080910402602001604051908101604052809392919081815260200183838082843760009201919091525061064f92505050565b6040517fa9059cbb00000000000000000000000000000000000000000000000000000000815273ffffffffffffffffffffffffffffffffffffffff8681166004830152602482018390529192509086169063a9059cbb90604401602060405180830381600087803b15801561043757600080fd5b505af115801561044b573d6000803e3d6000fd5b505050506040513d601f19601f8201168201806040525081019061046f919061079f565b6104d5576040517f08c379a000000000000000000000000000000000000000000000000000000000815260206004820152601c60248201527f4552433230486f6c6465723a207472616e73666572206661696c65640000000060448201526064016101ea565b5050505050565b3373ffffffffffffffffffffffffffffffffffffffff7f0000000000000000000000000000000000000000000000000000000000000000161461057b576040517f08c379a000000000000000000000000000000000000000000000000000000000815260206004820152601960248201527f546f6b656e486f6c6465723a206e6f74204572647374616c6c0000000000000060448201526064016101ea565b60006105bc83838080601f01602080910402602001604051908101604052809392919081815260200183838082843760009201919091525061064f92505050565b6040517f40c10f1900000000000000000000000000000000000000000000000000000000815273ffffffffffffffffffffffffffffffffffffffff868116600483015260248201839052919250908616906340c10f1990604401600060405180830381600087803b15801561063057600080fd5b505af1158015610644573d6000803e3d6000fd5b505050505050505050565b600081516020146106bc576040517f08c379a000000000000000000000000000000000000000000000000000000000815260206004820152601460248201527f42797465733a206e6f74206c656e67746820333200000000000000000000000060448201526064016101ea565b506020015190565b803573ffffffffffffffffffffffffffffffffffffffff811681146106e857600080fd5b919050565b60008060008060608587031215610702578384fd5b61070b856106c4565b9350610719602086016106c4565b9250604085013567ffffffffffffffff80821115610735578384fd5b818701915087601f830112610748578384fd5b813581811115610756578485fd5b886020828501011115610767578485fd5b95989497505060200194505050565b60008060408385031215610788578182fd5b610791836106c4565b946020939093013593505050565b6000602082840312156107b0578081fd5b815180151581146107bf578182fd5b9392505050565b600073ffffffffffffffffffffffffffffffffffffffff80861683526020818616818501526060604085015284519150816060850152825b8281101561081a578581018201518582016080015281016107fe565b8281111561082b5783608084870101525b5050601f017fffffffffffffffffffffffffffffffffffffffffffffffffffffffffffffffe0169190910160800194935050505056fea2646970667358221220b97ed889cb965559fc31676449b14be2e820a73fd181db6b4287a59d7f0b3ee164736f6c63430008030033",
  "linkReferences": {},
  "deployedLinkReferences": {}
}