{
  "_format": "hh-sol-artifact-1",
  "contractName": "ERC721Holder",
  "sourceName": "contracts/ERC721Holder.sol",
  "abi": [
    {
      "inputs": [
        {
          "internalType": "address",
          "name": "erdstall",
          "type": "address"
        }
      ],
      "stateMutability": "nonpayable",
      "type": "constructor"
    },
    {
      "inputs": [
        {
          "internalType": "address",
          "name": "token",
          "type": "address"
        },
        {
          "internalType": "uint256[]",
          "name": "ids",
          "type": "uint256[]"
        }
      ],
      "name": "deposit",
      "outputs": [],
      "stateMutability": "nonpayable",
      "type": "function"
    },
    {
      "inputs": [],
      "name": "erdstall",
      "outputs": [
        {
          "internalType": "contract Erdstall",
          "name": "",
          "type": "address"
        }
      ],
      "stateMutability": "view",
      "type": "function"
    },
    {
      "inputs": [
        {
          "internalType": "address",
          "name": "token",
          "type": "address"
        },
        {
          "internalType": "address",
          "name": "owner",
          "type": "address"
        },
        {
          "internalType": "bytes",
          "name": "value",
          "type": "bytes"
        }
      ],
      "name": "mint",
      "outputs": [],
      "stateMutability": "nonpayable",
      "type": "function"
    },
    {
      "inputs": [
        {
          "internalType": "address",
          "name": "token",
          "type": "address"
        },
        {
          "internalType": "address",
          "name": "recipient",
          "type": "address"
        },
        {
          "internalType": "bytes",
          "name": "value",
          "type": "bytes"
        }
      ],
      "name": "transfer",
      "outputs": [],
      "stateMutability": "nonpayable",
      "type": "function"
    }
  ],
  "bytecode": "0x60a060405234801561001057600080fd5b50604051610a4c380380610a4c83398101604081905261002f91610044565b60601b6001600160601b031916608052610072565b600060208284031215610055578081fd5b81516001600160a01b038116811461006b578182fd5b9392505050565b60805160601c6109a96100a36000396000818160560152818160f40152818161026001526102e801526109a96000f3fe608060405234801561001057600080fd5b506004361061004c5760003560e01c8063411f925c146100515780639e625f6c146100a1578063a71604e8146100b6578063f1ddecf9146100c9575b600080fd5b6100787f000000000000000000000000000000000000000000000000000000000000000081565b60405173ffffffffffffffffffffffffffffffffffffffff909116815260200160405180910390f35b6100b46100af366004610662565b6100dc565b005b6100b46100c43660046106eb565b6101d6565b6100b46100d7366004610662565b6102d0565b3373ffffffffffffffffffffffffffffffffffffffff7f00000000000000000000000000000000000000000000000000000000000000001614610180576040517f08c379a000000000000000000000000000000000000000000000000000000000815260206004820152601960248201527f546f6b656e486f6c6465723a206e6f74204572647374616c6c0000000000000060448201526064015b60405180910390fd5b60006101c183838080601f0160208091040260200160405190810160405280939291908181526020018383808284376000920191909152506104a092505050565b90506101cf85308684610523565b5050505050565b6101e282333084610523565b6000816040516020016101f591906107dc565b604080517fffffffffffffffffffffffffffffffffffffffffffffffffffffffffffffffe0818403018152908290527f46e6744b000000000000000000000000000000000000000000000000000000008252915073ffffffffffffffffffffffffffffffffffffffff7f000000000000000000000000000000000000000000000000000000000000000016906346e6744b9061029990339087908690600401610812565b600060405180830381600087803b1580156102b357600080fd5b505af11580156102c7573d6000803e3d6000fd5b50505050505050565b3373ffffffffffffffffffffffffffffffffffffffff7f0000000000000000000000000000000000000000000000000000000000000000161461036f576040517f08c379a000000000000000000000000000000000000000000000000000000000815260206004820152601960248201527f546f6b656e486f6c6465723a206e6f74204572647374616c6c000000000000006044820152606401610177565b60006103b083838080601f0160208091040260200160405190810160405280939291908181526020018383808284376000920191909152506104a092505050565b90508460005b82518110156102c7578173ffffffffffffffffffffffffffffffffffffffff166340c10f1987858481518110610415577f4e487b7100000000000000000000000000000000000000000000000000000000600052603260045260246000fd5b60200260200101516040518363ffffffff1660e01b815260040161045b92919073ffffffffffffffffffffffffffffffffffffffff929092168252602082015260400190565b600060405180830381600087803b15801561047557600080fd5b505af1158015610489573d6000803e3d6000fd5b505050508080610498906108ad565b9150506103b6565b6060602082516104b0919061090b565b15610517576040517f08c379a000000000000000000000000000000000000000000000000000000000815260206004820181905260248201527f42797465733a206c656e677468206e6f74206d756c7469706c65206f662033326044820152606401610177565b50805160209004815290565b8360005b8251811015610631578173ffffffffffffffffffffffffffffffffffffffff166342842e0e8686868581518110610587577f4e487b7100000000000000000000000000000000000000000000000000000000600052603260045260246000fd5b60209081029190910101516040517fffffffff0000000000000000000000000000000000000000000000000000000060e086901b16815273ffffffffffffffffffffffffffffffffffffffff93841660048201529290911660248301526044820152606401600060405180830381600087803b15801561060657600080fd5b505af115801561061a573d6000803e3d6000fd5b505050508080610629906108ad565b915050610527565b505050505050565b803573ffffffffffffffffffffffffffffffffffffffff8116811461065d57600080fd5b919050565b60008060008060608587031215610677578384fd5b61068085610639565b935061068e60208601610639565b9250604085013567ffffffffffffffff808211156106aa578384fd5b818701915087601f8301126106bd578384fd5b8135818111156106cb578485fd5b8860208285010111156106dc578485fd5b95989497505060200194505050565b600080604083850312156106fd578182fd5b61070683610639565b915060208084013567ffffffffffffffff80821115610723578384fd5b818601915086601f830112610736578384fd5b81358181111561074857610748610944565b8060051b6040517fffffffffffffffffffffffffffffffffffffffffffffffffffffffffffffffe0603f8301168101818110858211171561078b5761078b610944565b604052828152858101935084860182860187018b10156107a9578788fd5b8795505b838610156107cb5780358552600195909501949386019386016107ad565b508096505050505050509250929050565b815160009082906020808601845b83811015610806578151855293820193908201906001016107ea565b50929695505050505050565b600073ffffffffffffffffffffffffffffffffffffffff80861683526020818616818501526060604085015284519150816060850152825b828110156108665785810182015185820160800152810161084a565b828111156108775783608084870101525b5050601f017fffffffffffffffffffffffffffffffffffffffffffffffffffffffffffffffe01691909101608001949350505050565b60007fffffffffffffffffffffffffffffffffffffffffffffffffffffffffffffffff821415610904577f4e487b710000000000000000000000000000000000000000000000000000000081526011600452602481fd5b5060010190565b60008261093f577f4e487b710000000000000000000000000000000000000000000000000000000081526012600452602481fd5b500690565b7f4e487b7100000000000000000000000000000000000000000000000000000000600052604160045260246000fdfea2646970667358221220e7b4cdea676e548bbe5ab364227c1a5f2baed8e83f19caadf452cb678852df4c64736f6c63430008030033",
  "linkReferences": {},
  "deployedLinkReferences": {}
}