{
  "_format": "hh-sol-artifact-1",
  "contractName": "Erdstall",
  "sourceName": "contracts/Erdstall.sol",
  "abi": [
    {
      "inputs": [
        {
          "internalType": "address",
          "name": "_tee",
          "type": "address"
        },
        {
          "internalType": "uint64",
          "name": "_epochDuration",
          "type": "uint64"
        }
      ],
      "stateMutability": "nonpayable",
      "type": "constructor"
    },
    {
      "anonymous": false,
      "inputs": [
        {
          "indexed": true,
          "internalType": "uint64",
          "name": "epoch",
          "type": "uint64"
        },
        {
          "indexed": true,
          "internalType": "address",
          "name": "account",
          "type": "address"
        },
        {
          "components": [
            {
              "internalType": "address",
              "name": "token",
              "type": "address"
            },
            {
              "internalType": "bytes",
              "name": "value",
              "type": "bytes"
            }
          ],
          "indexed": false,
          "internalType": "struct Erdstall.TokenValue[]",
          "name": "tokens",
          "type": "tuple[]"
        },
        {
          "indexed": false,
          "internalType": "bytes",
          "name": "sig",
          "type": "bytes"
        }
      ],
      "name": "ChallengeResponded",
      "type": "event"
    },
    {
      "anonymous": false,
      "inputs": [
        {
          "indexed": true,
          "internalType": "uint64",
          "name": "epoch",
          "type": "uint64"
        },
        {
          "indexed": true,
          "internalType": "address",
          "name": "account",
          "type": "address"
        }
      ],
      "name": "Challenged",
      "type": "event"
    },
    {
      "anonymous": false,
      "inputs": [
        {
          "indexed": true,
          "internalType": "uint64",
          "name": "epoch",
          "type": "uint64"
        },
        {
          "indexed": true,
          "internalType": "address",
          "name": "account",
          "type": "address"
        },
        {
          "indexed": false,
          "internalType": "address",
          "name": "token",
          "type": "address"
        },
        {
          "indexed": false,
          "internalType": "bytes",
          "name": "value",
          "type": "bytes"
        }
      ],
      "name": "Deposited",
      "type": "event"
    },
    {
      "anonymous": false,
      "inputs": [
        {
          "indexed": true,
          "internalType": "uint64",
          "name": "epoch",
          "type": "uint64"
        }
      ],
      "name": "Frozen",
      "type": "event"
    },
    {
      "anonymous": false,
      "inputs": [
        {
          "indexed": true,
          "internalType": "address",
          "name": "previousOwner",
          "type": "address"
        },
        {
          "indexed": true,
          "internalType": "address",
          "name": "newOwner",
          "type": "address"
        }
      ],
      "name": "OwnershipTransferred",
      "type": "event"
    },
    {
      "anonymous": false,
      "inputs": [
        {
          "indexed": true,
          "internalType": "address",
          "name": "token",
          "type": "address"
        },
        {
          "indexed": false,
          "internalType": "string",
          "name": "tokenType",
          "type": "string"
        },
        {
          "indexed": false,
          "internalType": "address",
          "name": "tokenHolder",
          "type": "address"
        }
      ],
      "name": "TokenRegistered",
      "type": "event"
    },
    {
      "anonymous": false,
      "inputs": [
        {
          "indexed": false,
          "internalType": "string",
          "name": "tokenType",
          "type": "string"
        },
        {
          "indexed": false,
          "internalType": "address",
          "name": "tokenHolder",
          "type": "address"
        }
      ],
      "name": "TokenTypeRegistered",
      "type": "event"
    },
    {
      "anonymous": false,
      "inputs": [
        {
          "indexed": true,
          "internalType": "uint64",
          "name": "epoch",
          "type": "uint64"
        },
        {
          "indexed": true,
          "internalType": "address",
          "name": "account",
          "type": "address"
        },
        {
          "components": [
            {
              "internalType": "address",
              "name": "token",
              "type": "address"
            },
            {
              "internalType": "bytes",
              "name": "value",
              "type": "bytes"
            }
          ],
          "indexed": false,
          "internalType": "struct Erdstall.TokenValue[]",
          "name": "tokens",
          "type": "tuple[]"
        }
      ],
      "name": "Withdrawn",
      "type": "event"
    },
    {
      "inputs": [],
      "name": "bigBang",
      "outputs": [
        {
          "internalType": "uint64",
          "name": "",
          "type": "uint64"
        }
      ],
      "stateMutability": "view",
      "type": "function"
    },
    {
      "inputs": [
        {
          "components": [
            {
              "internalType": "uint64",
              "name": "epoch",
              "type": "uint64"
            },
            {
              "internalType": "address",
              "name": "account",
              "type": "address"
            },
            {
              "internalType": "bool",
              "name": "exit",
              "type": "bool"
            },
            {
              "components": [
                {
                  "internalType": "address",
                  "name": "token",
                  "type": "address"
                },
                {
                  "internalType": "bytes",
                  "name": "value",
                  "type": "bytes"
                }
              ],
              "internalType": "struct Erdstall.TokenValue[]",
              "name": "tokens",
              "type": "tuple[]"
            }
          ],
          "internalType": "struct Erdstall.Balance",
          "name": "balance",
          "type": "tuple"
        },
        {
          "internalType": "bytes",
          "name": "sig",
          "type": "bytes"
        }
      ],
      "name": "challenge",
      "outputs": [],
      "stateMutability": "nonpayable",
      "type": "function"
    },
    {
      "inputs": [],
      "name": "challengeDeposit",
      "outputs": [],
      "stateMutability": "nonpayable",
      "type": "function"
    },
    {
      "inputs": [
        {
          "internalType": "uint64",
          "name": "",
          "type": "uint64"
        },
        {
          "internalType": "address",
          "name": "",
          "type": "address"
        }
      ],
      "name": "challenges",
      "outputs": [
        {
          "internalType": "bool",
          "name": "",
          "type": "bool"
        }
      ],
      "stateMutability": "view",
      "type": "function"
    },
    {
      "inputs": [
        {
          "internalType": "address",
          "name": "depositor",
          "type": "address"
        },
        {
          "internalType": "address",
          "name": "token",
          "type": "address"
        },
        {
          "internalType": "bytes",
          "name": "value",
          "type": "bytes"
        }
      ],
      "name": "deposit",
      "outputs": [],
      "stateMutability": "nonpayable",
      "type": "function"
    },
    {
      "inputs": [
        {
          "internalType": "uint64",
          "name": "",
          "type": "uint64"
        },
        {
          "internalType": "address",
          "name": "",
          "type": "address"
        },
        {
          "internalType": "uint256",
          "name": "",
          "type": "uint256"
        }
      ],
      "name": "deposits",
      "outputs": [
        {
          "internalType": "address",
          "name": "token",
          "type": "address"
        },
        {
          "internalType": "bytes",
          "name": "value",
          "type": "bytes"
        }
      ],
      "stateMutability": "view",
      "type": "function"
    },
    {
      "inputs": [
        {
          "components": [
            {
              "internalType": "uint64",
              "name": "epoch",
              "type": "uint64"
            },
            {
              "internalType": "address",
              "name": "account",
              "type": "address"
            },
            {
              "internalType": "bool",
              "name": "exit",
              "type": "bool"
            },
            {
              "components": [
                {
                  "internalType": "address",
                  "name": "token",
                  "type": "address"
                },
                {
                  "internalType": "bytes",
                  "name": "value",
                  "type": "bytes"
                }
              ],
              "internalType": "struct Erdstall.TokenValue[]",
              "name": "tokens",
              "type": "tuple[]"
            }
          ],
          "internalType": "struct Erdstall.Balance",
          "name": "balance",
          "type": "tuple"
        }
      ],
      "name": "encodeBalanceProof",
      "outputs": [
        {
          "internalType": "bytes",
          "name": "",
          "type": "bytes"
        }
      ],
      "stateMutability": "view",
      "type": "function"
    },
    {
      "inputs": [],
      "name": "ensureFrozen",
      "outputs": [],
      "stateMutability": "nonpayable",
      "type": "function"
    },
    {
      "inputs": [],
      "name": "epochDuration",
      "outputs": [
        {
          "internalType": "uint64",
          "name": "",
          "type": "uint64"
        }
      ],
      "stateMutability": "view",
      "type": "function"
    },
    {
      "inputs": [],
      "name": "frozenEpoch",
      "outputs": [
        {
          "internalType": "uint64",
          "name": "",
          "type": "uint64"
        }
      ],
      "stateMutability": "view",
      "type": "function"
    },
    {
      "inputs": [
        {
          "internalType": "uint64",
          "name": "",
          "type": "uint64"
        }
      ],
      "name": "numChallenges",
      "outputs": [
        {
          "internalType": "uint256",
          "name": "",
          "type": "uint256"
        }
      ],
      "stateMutability": "view",
      "type": "function"
    },
    {
      "inputs": [],
      "name": "owner",
      "outputs": [
        {
          "internalType": "address",
          "name": "",
          "type": "address"
        }
      ],
      "stateMutability": "view",
      "type": "function"
    },
    {
      "inputs": [
        {
          "internalType": "address",
          "name": "token",
          "type": "address"
        },
        {
          "internalType": "address",
          "name": "holder",
          "type": "address"
        }
      ],
      "name": "registerToken",
      "outputs": [],
      "stateMutability": "nonpayable",
      "type": "function"
    },
    {
      "inputs": [
        {
          "internalType": "address",
          "name": "holder",
          "type": "address"
        },
        {
          "internalType": "string",
          "name": "tokenType",
          "type": "string"
        }
      ],
      "name": "registerTokenType",
      "outputs": [],
      "stateMutability": "nonpayable",
      "type": "function"
    },
    {
      "inputs": [],
      "name": "renounceOwnership",
      "outputs": [],
      "stateMutability": "nonpayable",
      "type": "function"
    },
    {
      "inputs": [
        {
          "components": [
            {
              "internalType": "uint64",
              "name": "epoch",
              "type": "uint64"
            },
            {
              "internalType": "address",
              "name": "account",
              "type": "address"
            },
            {
              "internalType": "bool",
              "name": "exit",
              "type": "bool"
            },
            {
              "components": [
                {
                  "internalType": "address",
                  "name": "token",
                  "type": "address"
                },
                {
                  "internalType": "bytes",
                  "name": "value",
                  "type": "bytes"
                }
              ],
              "internalType": "struct Erdstall.TokenValue[]",
              "name": "tokens",
              "type": "tuple[]"
            }
          ],
          "internalType": "struct Erdstall.Balance",
          "name": "balance",
          "type": "tuple"
        },
        {
          "internalType": "bytes",
          "name": "sig",
          "type": "bytes"
        }
      ],
      "name": "respondChallenge",
      "outputs": [],
      "stateMutability": "nonpayable",
      "type": "function"
    },
    {
      "inputs": [],
      "name": "tee",
      "outputs": [
        {
          "internalType": "address",
          "name": "",
          "type": "address"
        }
      ],
      "stateMutability": "view",
      "type": "function"
    },
    {
      "inputs": [
        {
          "internalType": "address",
          "name": "",
          "type": "address"
        }
      ],
      "name": "tokenHolders",
      "outputs": [
        {
          "internalType": "contract TokenHolder",
          "name": "",
          "type": "address"
        }
      ],
      "stateMutability": "view",
      "type": "function"
    },
    {
      "inputs": [
        {
          "internalType": "address",
          "name": "",
          "type": "address"
        }
      ],
      "name": "tokenTypes",
      "outputs": [
        {
          "internalType": "string",
          "name": "",
          "type": "string"
        }
      ],
      "stateMutability": "view",
      "type": "function"
    },
    {
      "inputs": [
        {
          "internalType": "address",
          "name": "newOwner",
          "type": "address"
        }
      ],
      "name": "transferOwnership",
      "outputs": [],
      "stateMutability": "nonpayable",
      "type": "function"
    },
    {
      "inputs": [
        {
          "components": [
            {
              "internalType": "uint64",
              "name": "epoch",
              "type": "uint64"
            },
            {
              "internalType": "address",
              "name": "account",
              "type": "address"
            },
            {
              "internalType": "bool",
              "name": "exit",
              "type": "bool"
            },
            {
              "components": [
                {
                  "internalType": "address",
                  "name": "token",
                  "type": "address"
                },
                {
                  "internalType": "bytes",
                  "name": "value",
                  "type": "bytes"
                }
              ],
              "internalType": "struct Erdstall.TokenValue[]",
              "name": "tokens",
              "type": "tuple[]"
            }
          ],
          "internalType": "struct Erdstall.Balance",
          "name": "balance",
          "type": "tuple"
        },
        {
          "internalType": "bytes",
          "name": "sig",
          "type": "bytes"
        }
      ],
      "name": "verifyBalance",
      "outputs": [],
      "stateMutability": "view",
      "type": "function"
    },
    {
      "inputs": [
        {
          "components": [
            {
              "internalType": "uint64",
              "name": "epoch",
              "type": "uint64"
            },
            {
              "internalType": "address",
              "name": "account",
              "type": "address"
            },
            {
              "internalType": "bool",
              "name": "exit",
              "type": "bool"
            },
            {
              "components": [
                {
                  "internalType": "address",
                  "name": "token",
                  "type": "address"
                },
                {
                  "internalType": "bytes",
                  "name": "value",
                  "type": "bytes"
                }
              ],
              "internalType": "struct Erdstall.TokenValue[]",
              "name": "tokens",
              "type": "tuple[]"
            }
          ],
          "internalType": "struct Erdstall.Balance",
          "name": "balance",
          "type": "tuple"
        },
        {
          "internalType": "bytes",
          "name": "sig",
          "type": "bytes"
        }
      ],
      "name": "withdraw",
      "outputs": [],
      "stateMutability": "nonpayable",
      "type": "function"
    },
    {
      "inputs": [
        {
          "components": [
            {
              "internalType": "uint64",
              "name": "epoch",
              "type": "uint64"
            },
            {
              "internalType": "address",
              "name": "account",
              "type": "address"
            },
            {
              "internalType": "bool",
              "name": "exit",
              "type": "bool"
            },
            {
              "components": [
                {
                  "internalType": "address",
                  "name": "token",
                  "type": "address"
                },
                {
                  "internalType": "bytes",
                  "name": "value",
                  "type": "bytes"
                }
              ],
              "internalType": "struct Erdstall.TokenValue[]",
              "name": "tokens",
              "type": "tuple[]"
            }
          ],
          "internalType": "struct Erdstall.Balance",
          "name": "balance",
          "type": "tuple"
        },
        {
          "internalType": "bytes",
          "name": "sig",
          "type": "bytes"
        }
      ],
      "name": "withdrawFrozen",
      "outputs": [],
      "stateMutability": "nonpayable",
      "type": "function"
    },
    {
      "inputs": [],
      "name": "withdrawFrozenDeposit",
      "outputs": [],
      "stateMutability": "nonpayable",
      "type": "function"
    },
    {
      "inputs": [
        {
          "internalType": "uint64",
          "name": "",
          "type": "uint64"
        },
        {
          "internalType": "address",
          "name": "",
          "type": "address"
        }
      ],
      "name": "withdrawn",
      "outputs": [
        {
          "internalType": "bool",
          "name": "",
          "type": "bool"
        }
      ],
      "stateMutability": "view",
      "type": "function"
    }
  ],
  "bytecode": "0x60e0604052600780546001600160401b0319166002600160401b031790553480156200002a57600080fd5b5060405162003a7f38038062003a7f8339810160408190526200004d91620000c4565b600080546001600160a01b031916339081178255604051909182917f8be0079c531659141344cd1fd0a4f28419497f9722a3daafe3b4186f6b6457e0908290a3506001600160601b031960609290921b919091166080526001600160c01b03194360c090811b821660a05291821b16905262000116565b60008060408385031215620000d7578182fd5b82516001600160a01b0381168114620000ee578283fd5b60208401519092506001600160401b03811681146200010b578182fd5b809150509250929050565b60805160601c60a05160c01c60c05160c01c61391b62000164600039600081816102b40152611e1d0152600081816101ad0152611e4101526000818161035201526113e2015261391b6000f3fe608060405234801561001057600080fd5b50600436106101a35760003560e01c806367eeb62b116100ee578063abb3da1511610097578063ec7db36411610071578063ec7db3641461041c578063f29107731461042f578063f2fde38b1461045d578063f8d270fc14610470576101a3565b8063abb3da15146103e3578063b1beaa29146103f6578063b39f252d14610409576101a3565b80638da5cb5b116100c85780638da5cb5b14610384578063a33a0540146103a2578063aabc7fbb146103d0576101a3565b806367eeb62b1461034d578063715018a61461037457806384d984321461037c576101a3565b80634739f7e511610150578063585db72a1161012a578063585db72a146102d6578063638b5e53146102ea57806364c38ddd14610345576101a3565b80634739f7e51461027b5780634e9051341461028e5780634ff0876a146102af576101a3565b8063234c49a011610181578063234c49a0146102175780632b55b4dc1461025557806346e6744b14610268576101a3565b806303cf0678146101a85780630d13fd7b146101ed5780631003ac21146101f7575b600080fd5b6101cf7f000000000000000000000000000000000000000000000000000000000000000081565b60405167ffffffffffffffff90911681526020015b60405180910390f35b6101f5610483565b005b61020a6102053660046130e5565b6105a7565b6040516101e491906134e4565b61024561022536600461319b565b600560209081526000928352604080842090915290825290205460ff1681565b60405190151581526020016101e4565b6101f561026336600461301a565b6105e9565b6101f5610276366004612fbe565b61073b565b6101f5610289366004612f8c565b610a78565b6102a161029c3660046131b6565b610b88565b6040516101e4929190613359565b6101cf7f000000000000000000000000000000000000000000000000000000000000000081565b6007546101cf9067ffffffffffffffff1681565b6103206102f8366004612f6b565b60026020526000908152604090205473ffffffffffffffffffffffffffffffffffffffff1681565b60405173ffffffffffffffffffffffffffffffffffffffff90911681526020016101e4565b6101f5610c74565b6103207f000000000000000000000000000000000000000000000000000000000000000081565b6101f5610e16565b6101f5610eec565b60005473ffffffffffffffffffffffffffffffffffffffff16610320565b6102456103b036600461319b565b600460209081526000928352604080842090915290825290205460ff1681565b6101f56103de366004613085565b610fa6565b6101f56103f1366004613085565b61111b565b6101f5610404366004613120565b6113d3565b61020a610417366004612f6b565b611452565b6101f561042a366004613085565b6114ec565b61044f61043d366004613181565b60066020526000908152604090205481565b6040519081526020016101e4565b6101f561046b366004612f6b565b61195e565b6101f561047e366004613085565b611adb565b6104a160075467ffffffffffffffff1667fffffffffffffffe141590565b156104f35760405162461bcd60e51b815260206004820152600f60248201527f4572647374616c6c2066726f7a656e000000000000000000000000000000000060448201526064015b60405180910390fd5b60006104fd611e19565b905060038167ffffffffffffffff161061059a5767ffffffffffffffff7ffffffffffffffffffffffffffffffffffffffffffffffffffffffffffffffffd8201166000908152600660205260409020541561059a5760405162461bcd60e51b815260206004820152601160248201527f4572647374616c6c20667265657a696e6700000000000000000000000000000060448201526064016104ea565b6105a46000611e75565b50565b60603082600001518360200151846040015185606001516040516020016105d295949392919061361c565b60405160208183030381529060405290505b919050565b60005473ffffffffffffffffffffffffffffffffffffffff1633146106505760405162461bcd60e51b815260206004820181905260248201527f4f776e61626c653a2063616c6c6572206973206e6f7420746865206f776e657260448201526064016104ea565b73ffffffffffffffffffffffffffffffffffffffff8316600090815260016020526040902061067e90612028565b6106ca5760405162461bcd60e51b815260206004820152601d60248201527f746f6b656e207479706520616c7265616479207265676973746572656400000060448201526064016104ea565b73ffffffffffffffffffffffffffffffffffffffff831660009081526001602052604090206106fa908383612be9565b507f8a5b6f43357e19ca286ee63f93748e3699e6f0bc41d4d4d6c10dac15dc5edb8982828560405161072e939291906134f7565b60405180910390a1505050565b33600090815260016020526040902061075390612028565b156107a05760405162461bcd60e51b815260206004820152601760248201527f63616c6c6572206e6f7420746f6b656e20686f6c64657200000000000000000060448201526064016104ea565b6107be60075467ffffffffffffffff1667fffffffffffffffe141590565b1561080b5760405162461bcd60e51b815260206004820152600f60248201527f4572647374616c6c2066726f7a656e000000000000000000000000000000000060448201526064016104ea565b6000610815611e19565b905060038167ffffffffffffffff16106108b25767ffffffffffffffff7ffffffffffffffffffffffffffffffffffffffffffffffffffffffffffffffffd820116600090815260066020526040902054156108b25760405162461bcd60e51b815260206004820152601160248201527f4572647374616c6c20667265657a696e6700000000000000000000000000000060448201526064016104ea565b60006108bc611e19565b905060028167ffffffffffffffff16106109595767ffffffffffffffff7ffffffffffffffffffffffffffffffffffffffffffffffffffffffffffffffffe820116600090815260066020526040902054156109595760405162461bcd60e51b815260206004820152600f60248201527f6f70656e206368616c6c656e676573000000000000000000000000000000000060448201526064016104ea565b6000610963611e19565b67ffffffffffffffff8116600090815260036020908152604080832073ffffffffffffffffffffffffffffffffffffffff8b8116855290835281842082518084019093528a821683528284018a815281546001808201845592875295859020845160029097020180547fffffffffffffffffffffffff000000000000000000000000000000000000000016969093169590951782559351805195965091949093610a1293908501920190612c8b565b5050508573ffffffffffffffffffffffffffffffffffffffff168167ffffffffffffffff167ff2699c019a825b01743e27e575d67b6715b1d4f3916879d6b877437838fa5c298787604051610a68929190613359565b60405180910390a3505050505050565b60005473ffffffffffffffffffffffffffffffffffffffff163314610adf5760405162461bcd60e51b815260206004820181905260248201527f4f776e61626c653a2063616c6c6572206973206e6f7420746865206f776e657260448201526064016104ea565b73ffffffffffffffffffffffffffffffffffffffff8281166000908152600260205260409020541615610b7a5760405162461bcd60e51b815260206004820152602260248201527f4572647374616c6c3a20746f6b656e20686f6c64657220616c7265616479207360448201527f657400000000000000000000000000000000000000000000000000000000000060648201526084016104ea565b610b84828261203e565b5050565b60036020528260005260406000206020528160005260406000208181548110610bb057600080fd5b60009182526020909120600290910201805460018201805473ffffffffffffffffffffffffffffffffffffffff9092169550919350909150610bf190613845565b80601f0160208091040260200160405190810160405280929190818152602001828054610c1d90613845565b8015610c6a5780601f10610c3f57610100808354040283529160200191610c6a565b820191906000526020600020905b815481529060010190602001808311610c4d57829003601f168201915b5050505050905082565b610c9260075467ffffffffffffffff1667fffffffffffffffe141590565b15610c9c57610e14565b6000610ca6611e19565b905060048167ffffffffffffffff161015610d295760405162461bcd60e51b815260206004820152602160248201527f746f6f206561726c792c206e6f20667265657a6520706f737369626c6520796560448201527f740000000000000000000000000000000000000000000000000000000000000060648201526084016104ea565b6000610d366003836137ce565b67ffffffffffffffff8116600090815260066020526040902054909150610d9f5760405162461bcd60e51b815260206004820152601260248201527f6e6f206f70656e206368616c6c656e676573000000000000000000000000000060448201526064016104ea565b6000610dac6001836137ce565b600780547fffffffffffffffffffffffffffffffffffffffffffffffff00000000000000001667ffffffffffffffff8316908117909155604051919250907f5e20151a99b0432a9ac06d33b91b77d3134ce0638cc70d7df042947ca48a2caf90600090a25050505b565b60005473ffffffffffffffffffffffffffffffffffffffff163314610e7d5760405162461bcd60e51b815260206004820181905260248201527f4f776e61626c653a2063616c6c6572206973206e6f7420746865206f776e657260448201526064016104ea565b6000805460405173ffffffffffffffffffffffffffffffffffffffff909116907f8be0079c531659141344cd1fd0a4f28419497f9722a3daafe3b4186f6b6457e0908390a3600080547fffffffffffffffffffffffff0000000000000000000000000000000000000000169055565b610ef4610c74565b60408051600080825260208201909252610f3c9082610f36565b604080518082019091526000815260606020820152815260200190600190039081610f0e5790505b506120e1565b90506000815111610f8f5760405162461bcd60e51b815260206004820152601160248201527f6e6f2066726f7a656e206465706f73697400000000000000000000000000000060448201526064016104ea565b6007546105a49067ffffffffffffffff168261250c565b610fae610c74565b33610fbf6040850160208601612f6b565b73ffffffffffffffffffffffffffffffffffffffff16146110225760405162461bcd60e51b815260206004820152601c60248201527f776974686472617746726f7a656e3a2077726f6e672073656e6465720000000060448201526064016104ea565b60075467ffffffffffffffff1661103c6020850185613181565b67ffffffffffffffff16146110935760405162461bcd60e51b815260206004820152601b60248201527f776974686472617746726f7a656e3a2077726f6e672065706f6368000000000060448201526064016104ea565b6110db61109f84613804565b83838080601f0160208091040260200160405190810160405280939291908181526020018383808284376000920191909152506113d392505050565b60006110fb6110ed60608601866136a2565b6110f6916137f7565b6120e1565b6007549091506111159067ffffffffffffffff168261250c565b50505050565b61113960075467ffffffffffffffff1667fffffffffffffffe141590565b156111865760405162461bcd60e51b815260206004820152600f60248201527f4572647374616c6c2066726f7a656e000000000000000000000000000000000060448201526064016104ea565b6000611190611e19565b905060038167ffffffffffffffff161061122d5767ffffffffffffffff7ffffffffffffffffffffffffffffffffffffffffffffffffffffffffffffffffd8201166000908152600660205260409020541561122d5760405162461bcd60e51b815260206004820152601160248201527f4572647374616c6c20667265657a696e6700000000000000000000000000000060448201526064016104ea565b3361123e6040860160208701612f6b565b73ffffffffffffffffffffffffffffffffffffffff16146112a15760405162461bcd60e51b815260206004820152601760248201527f6368616c6c656e67653a2077726f6e672073656e64657200000000000000000060448201526064016104ea565b6112a9612747565b67ffffffffffffffff166112c06020860186613181565b67ffffffffffffffff16146113175760405162461bcd60e51b815260206004820152601660248201527f6368616c6c656e67653a2077726f6e672065706f63680000000000000000000060448201526064016104ea565b611327606085016040860161306b565b156113745760405162461bcd60e51b815260206004820152601560248201527f6368616c6c656e67653a20657869742070726f6f66000000000000000000000060448201526064016104ea565b6113bc61138085613804565b84848080601f0160208091040260200160405190810160405280939291908181526020018383808284376000920191909152506113d392505050565b6111156113cc60608601866136a2565b9050611e75565b6114066113df836105a7565b827f00000000000000000000000000000000000000000000000000000000000000006127d6565b610b845760405162461bcd60e51b815260206004820152601160248201527f696e76616c6964207369676e617475726500000000000000000000000000000060448201526064016104ea565b6001602052600090815260409020805461146b90613845565b80601f016020809104026020016040519081016040528092919081815260200182805461149790613845565b80156114e45780601f106114b9576101008083540402835291602001916114e4565b820191906000526020600020905b8154815290600101906020018083116114c757829003601f168201915b505050505081565b61150a60075467ffffffffffffffff1667fffffffffffffffe141590565b156115575760405162461bcd60e51b815260206004820152600f60248201527f4572647374616c6c2066726f7a656e000000000000000000000000000000000060448201526064016104ea565b6000611561611e19565b905060038167ffffffffffffffff16106115fe5767ffffffffffffffff7ffffffffffffffffffffffffffffffffffffffffffffffffffffffffffffffffd820116600090815260066020526040902054156115fe5760405162461bcd60e51b815260206004820152601160248201527f4572647374616c6c20667265657a696e6700000000000000000000000000000060448201526064016104ea565b6000600261160a611e19565b61161491906137ce565b905067ffffffffffffffff811661162e6020870187613181565b67ffffffffffffffff16148061166d575061164a81600161376f565b67ffffffffffffffff166116616020870187613181565b67ffffffffffffffff16145b6116b95760405162461bcd60e51b815260206004820152601d60248201527f726573706f6e644368616c6c656e67653a2077726f6e672065706f636800000060448201526064016104ea565b6116c9606086016040870161306b565b6117155760405162461bcd60e51b815260206004820152601f60248201527f726573706f6e644368616c6c656e67653a206e6f20657869742070726f6f660060448201526064016104ea565b61175d61172186613804565b85858080601f0160208091040260200160405190810160405280939291908181526020018383808284376000920191909152506113d392505050565b67ffffffffffffffff811660009081526005602090815260408083209291611789918901908901612f6b565b73ffffffffffffffffffffffffffffffffffffffff16815260208101919091526040016000205460ff166118255760405162461bcd60e51b815260206004820152602960248201527f726573706f6e644368616c6c656e67653a206e6f206368616c6c656e6765207260448201527f656769737465726564000000000000000000000000000000000000000000000060648201526084016104ea565b67ffffffffffffffff8116600090815260056020908152604080832091839161185391908a01908a01612f6b565b73ffffffffffffffffffffffffffffffffffffffff1681526020808201929092526040908101600090812080547fffffffffffffffffffffffffffffffffffffffffffffffffffffffffffffff00169415159490941790935567ffffffffffffffff84168352600690915281208054916118cc83613810565b909155506118e290506040860160208701612f6b565b73ffffffffffffffffffffffffffffffffffffffff166119056020870187613181565b67ffffffffffffffff167f2af08918cce0ea11f75e2fd09224252af3bcf16ef6df3377daa6ca18fab82dbc61193d60608901896136a2565b888860405161194f9493929190613388565b60405180910390a35050505050565b60005473ffffffffffffffffffffffffffffffffffffffff1633146119c55760405162461bcd60e51b815260206004820181905260248201527f4f776e61626c653a2063616c6c6572206973206e6f7420746865206f776e657260448201526064016104ea565b73ffffffffffffffffffffffffffffffffffffffff8116611a4e5760405162461bcd60e51b815260206004820152602660248201527f4f776e61626c653a206e6577206f776e657220697320746865207a65726f206160448201527f646472657373000000000000000000000000000000000000000000000000000060648201526084016104ea565b6000805460405173ffffffffffffffffffffffffffffffffffffffff808516939216917f8be0079c531659141344cd1fd0a4f28419497f9722a3daafe3b4186f6b6457e091a3600080547fffffffffffffffffffffffff00000000000000000000000000000000000000001673ffffffffffffffffffffffffffffffffffffffff92909216919091179055565b611af960075467ffffffffffffffff1667fffffffffffffffe141590565b15611b465760405162461bcd60e51b815260206004820152600f60248201527f4572647374616c6c2066726f7a656e000000000000000000000000000000000060448201526064016104ea565b6000611b50611e19565b905060038167ffffffffffffffff1610611bed5767ffffffffffffffff7ffffffffffffffffffffffffffffffffffffffffffffffffffffffffffffffffd82011660009081526006602052604090205415611bed5760405162461bcd60e51b815260206004820152601160248201527f4572647374616c6c20667265657a696e6700000000000000000000000000000060448201526064016104ea565b6000611bf7611e19565b905060028167ffffffffffffffff1610611c945767ffffffffffffffff7ffffffffffffffffffffffffffffffffffffffffffffffffffffffffffffffffe82011660009081526006602052604090205415611c945760405162461bcd60e51b815260206004820152600f60248201527f6f70656e206368616c6c656e676573000000000000000000000000000000000060448201526064016104ea565b611c9c612747565b67ffffffffffffffff16611cb36020870187613181565b67ffffffffffffffff161115611d0b5760405162461bcd60e51b815260206004820152601360248201527f77697468647261773a20746f6f206561726c790000000000000000000000000060448201526064016104ea565b33611d1c6040870160208801612f6b565b73ffffffffffffffffffffffffffffffffffffffff1614611d7f5760405162461bcd60e51b815260206004820152601660248201527f77697468647261773a2077726f6e672073656e6465720000000000000000000060448201526064016104ea565b611d8f606086016040870161306b565b611ddb5760405162461bcd60e51b815260206004820152601760248201527f77697468647261773a206e6f20657869742070726f6f6600000000000000000060448201526064016104ea565b611de761172186613804565b611e12611df76020870187613181565b611e0460608801886136a2565b611e0d916137f7565b61250c565b5050505050565b60007f0000000000000000000000000000000000000000000000000000000000000000611e667f0000000000000000000000000000000000000000000000000000000000000000436137ce565b611e70919061379b565b905090565b60006001611e81611e19565b611e8b91906137ce565b67ffffffffffffffff8116600090815260056020908152604080832033845290915290205490915060ff1615611f035760405162461bcd60e51b815260206004820152601260248201527f616c7265616479206368616c6c656e676564000000000000000000000000000060448201526064016104ea565b67ffffffffffffffff81166000908152600360209081526040808320338452909152812054611f329084613757565b905060008111611f845760405162461bcd60e51b815260206004820152601260248201527f6e6f2076616c756520696e2073797374656d000000000000000000000000000060448201526064016104ea565b67ffffffffffffffff82166000818152600560209081526040808320338452825280832080547fffffffffffffffffffffffffffffffffffffffffffffffffffffffffffffff0016600117905592825260069052908120805491611fe783613880565b9091555050604051339067ffffffffffffffff8416907f9f71686e9e2eed0a0a99340b1c3b230369f255b1d452130cead54f8308654dfd90600090a3505050565b600081805461203690613845565b159392505050565b60006120498261286c565b73ffffffffffffffffffffffffffffffffffffffff8481166000818152600260205260409081902080547fffffffffffffffffffffffff000000000000000000000000000000000000000016938716939093179092559051919250907f75fc2d3ee17fe536c24f4c1b22222cfba758ec6c58730d76004dde3343249619906120d49084908690613531565b60405180910390a2505050565b60075460609060009060039082906121049067ffffffffffffffff16600161376f565b67ffffffffffffffff90811682526020808301939093526040918201600090812033825290935290822060075490935060039183916121459116600261376f565b67ffffffffffffffff16815260208082019290925260409081016000908120338252909252812080548454875192945090916121819190613757565b61218b9190613757565b67ffffffffffffffff8111156121b157634e487b7160e01b600052604160045260246000fd5b6040519080825280602002602001820160405280156121f757816020015b6040805180820190915260008152606060208201528152602001906001900390816121cf5790505b50905060005b855181101561226c5785818151811061222657634e487b7160e01b600052603260045260246000fd5b602002602001015182828151811061224e57634e487b7160e01b600052603260045260246000fd5b6020026020010181905250808061226490613880565b9150506121fd565b5060005b83548110156123b15783818154811061229957634e487b7160e01b600052603260045260246000fd5b600091825260209182902060408051808201909152600290920201805473ffffffffffffffffffffffffffffffffffffffff16825260018101805492939192918401916122e590613845565b80601f016020809104026020016040519081016040528092919081815260200182805461231190613845565b801561235e5780601f106123335761010080835404028352916020019161235e565b820191906000526020600020905b81548152906001019060200180831161234157829003601f168201915b505050505081525050828751836123759190613757565b8151811061239357634e487b7160e01b600052603260045260246000fd5b602002602001018190525080806123a990613880565b915050612270565b5060005b8254811015612503578281815481106123de57634e487b7160e01b600052603260045260246000fd5b600091825260209182902060408051808201909152600290920201805473ffffffffffffffffffffffffffffffffffffffff168252600181018054929391929184019161242a90613845565b80601f016020809104026020016040519081016040528092919081815260200182805461245690613845565b80156124a35780601f10612478576101008083540402835291602001916124a3565b820191906000526020600020905b81548152906001019060200180831161248657829003601f168201915b505050919092525050855488518592506124bd9085613757565b6124c79190613757565b815181106124e557634e487b7160e01b600052603260045260246000fd5b602002602001018190525080806124fb90613880565b9150506123b5565b50949350505050565b67ffffffffffffffff8216600090815260046020908152604080832033845290915290205460ff16156125815760405162461bcd60e51b815260206004820152601160248201527f616c72656164792077697468647261776e00000000000000000000000000000060448201526064016104ea565b67ffffffffffffffff82166000908152600460209081526040808320338452909152812080547fffffffffffffffffffffffffffffffffffffffffffffffffffffffffffffff001660011790555b81518110156126e957600061260e8383815181106125fd57634e487b7160e01b600052603260045260246000fd5b6020026020010151600001516128ed565b90508073ffffffffffffffffffffffffffffffffffffffff16639e625f6c84848151811061264c57634e487b7160e01b600052603260045260246000fd5b6020026020010151600001513386868151811061267957634e487b7160e01b600052603260045260246000fd5b6020026020010151602001516040518463ffffffff1660e01b81526004016126a393929190613320565b600060405180830381600087803b1580156126bd57600080fd5b505af11580156126d1573d6000803e3d6000fd5b505050505080806126e190613880565b9150506125cf565b503373ffffffffffffffffffffffffffffffffffffffff168267ffffffffffffffff167fd6b76483eba16e2d86fcd5f7abf4192793840277a18766b5bc4762b4556938cf8360405161273b91906134d1565b60405180910390a35050565b600080612752611e19565b905060028167ffffffffffffffff1610156127af5760405162461bcd60e51b815260206004820152601e60248201527f746f6f206561726c792c206e6f2065706f6368207365616c656420796574000060448201526064016104ea565b7ffffffffffffffffffffffffffffffffffffffffffffffffffffffffffffffffe01905090565b60008061283785805190602001206040517f19457468657265756d205369676e6564204d6573736167653a0a3332000000006020820152603c8101829052600090605c01604051602081830303815290604052805190602001209050919050565b905060006128458286612964565b73ffffffffffffffffffffffffffffffffffffffff90811690851614925050509392505050565b73ffffffffffffffffffffffffffffffffffffffff8116600090815260016020526040812061289a81612028565b156128e75760405162461bcd60e51b815260206004820152601b60248201527f746f6b656e20686f6c646572206e6f742072656769737465726564000000000060448201526064016104ea565b92915050565b73ffffffffffffffffffffffffffffffffffffffff808216600090815260026020526040812054909116806128e75760405162461bcd60e51b815260206004820152601460248201527f746f6b656e206e6f74207265676973746572656400000000000000000000000060448201526064016104ea565b600081516041146129b75760405162461bcd60e51b815260206004820152601f60248201527f45434453413a20696e76616c6964207369676e6174757265206c656e6774680060448201526064016104ea565b60208201516040830151606084015160001a6129d5868285856129df565b9695505050505050565b60007f7fffffffffffffffffffffffffffffff5d576e7357a4501ddfe92f46681b20a0821115612a775760405162461bcd60e51b815260206004820152602260248201527f45434453413a20696e76616c6964207369676e6174757265202773272076616c60448201527f756500000000000000000000000000000000000000000000000000000000000060648201526084016104ea565b8360ff16601b1480612a8c57508360ff16601c145b612afe5760405162461bcd60e51b815260206004820152602260248201527f45434453413a20696e76616c6964207369676e6174757265202776272076616c60448201527f756500000000000000000000000000000000000000000000000000000000000060648201526084016104ea565b6040805160008082526020820180845288905260ff871692820192909252606081018590526080810184905260019060a0016020604051602081039080840390855afa158015612b52573d6000803e3d6000fd5b50506040517fffffffffffffffffffffffffffffffffffffffffffffffffffffffffffffffe0015191505073ffffffffffffffffffffffffffffffffffffffff8116612be05760405162461bcd60e51b815260206004820152601860248201527f45434453413a20696e76616c6964207369676e6174757265000000000000000060448201526064016104ea565b95945050505050565b828054612bf590613845565b90600052602060002090601f016020900481019282612c175760008555612c7b565b82601f10612c4e578280017fffffffffffffffffffffffffffffffffffffffffffffffffffffffffffffff00823516178555612c7b565b82800160010185558215612c7b579182015b82811115612c7b578235825591602001919060010190612c60565b50612c87929150612cff565b5090565b828054612c9790613845565b90600052602060002090601f016020900481019282612cb95760008555612c7b565b82601f10612cd257805160ff1916838001178555612c7b565b82800160010185558215612c7b579182015b82811115612c7b578251825591602001919060010190612ce4565b5b80821115612c875760008155600101612d00565b600067ffffffffffffffff80841115612d2f57612d2f6138cf565b6020612d3f818660051b01613708565b85815292508083018460005b87811015612db35781358701604080828c031215612d6857600080fd5b612d7181613708565b9050612d7c82612dbf565b81528582013587811115612d8f57600080fd5b612d9b8c828501612e3a565b82880152508452509183019190830190600101612d4b565b50505050509392505050565b803573ffffffffffffffffffffffffffffffffffffffff811681146105e457600080fd5b803580151581146105e457600080fd5b60008083601f840112612e04578182fd5b50813567ffffffffffffffff811115612e1b578182fd5b602083019150836020828501011115612e3357600080fd5b9250929050565b600082601f830112612e4a578081fd5b813567ffffffffffffffff811115612e6457612e646138cf565b612e9560207fffffffffffffffffffffffffffffffffffffffffffffffffffffffffffffffe0601f84011601613708565b818152846020838601011115612ea9578283fd5b816020850160208301379081016020019190915292915050565b600060808284031215612ed4578081fd5b612ede6080613708565b9050612ee982612f53565b8152612ef760208301612dbf565b6020820152612f0860408301612de3565b6040820152606082013567ffffffffffffffff811115612f2757600080fd5b8201601f81018413612f3857600080fd5b612f4784823560208401612d14565b60608301525092915050565b803567ffffffffffffffff811681146105e457600080fd5b600060208284031215612f7c578081fd5b612f8582612dbf565b9392505050565b60008060408385031215612f9e578081fd5b612fa783612dbf565b9150612fb560208401612dbf565b90509250929050565b600080600060608486031215612fd2578081fd5b612fdb84612dbf565b9250612fe960208501612dbf565b9150604084013567ffffffffffffffff811115613004578182fd5b61301086828701612e3a565b9150509250925092565b60008060006040848603121561302e578283fd5b61303784612dbf565b9250602084013567ffffffffffffffff811115613052578283fd5b61305e86828701612df3565b9497909650939450505050565b60006020828403121561307c578081fd5b612f8582612de3565b600080600060408486031215613099578283fd5b833567ffffffffffffffff808211156130b0578485fd5b90850190608082880312156130c3578485fd5b909350602085013590808211156130d8578384fd5b5061305e86828701612df3565b6000602082840312156130f6578081fd5b813567ffffffffffffffff81111561310c578182fd5b61311884828501612ec3565b949350505050565b60008060408385031215613132578182fd5b823567ffffffffffffffff80821115613149578384fd5b61315586838701612ec3565b9350602085013591508082111561316a578283fd5b5061317785828601612e3a565b9150509250929050565b600060208284031215613192578081fd5b612f8582612f53565b600080604083850312156131ad578182fd5b612fa783612f53565b6000806000606084860312156131ca578081fd5b6131d384612f53565b92506131e160208501612dbf565b9150604084013590509250925092565b600081518084526020808501808196508360051b81019150828601855b858110156132625782840389528151805173ffffffffffffffffffffffffffffffffffffffff168552850151604086860181905261324e818701836132b7565b9a87019a955050509084019060010161320e565b5091979650505050505050565b600082845282826020860137806020848601015260207fffffffffffffffffffffffffffffffffffffffffffffffffffffffffffffffe0601f85011685010190509392505050565b60008151808452815b818110156132dc576020818501810151868301820152016132c0565b818111156132ed5782602083870101525b50601f017fffffffffffffffffffffffffffffffffffffffffffffffffffffffffffffffe0169290920160200192915050565b600073ffffffffffffffffffffffffffffffffffffffff808616835280851660208401525060606040830152612be060608301846132b7565b600073ffffffffffffffffffffffffffffffffffffffff841682526040602083015261311860408301846132b7565b60408082528181018590526000906060600587901b8401810190840188845b898110156134af577fffffffffffffffffffffffffffffffffffffffffffffffffffffffffffffffa087850301835281357fffffffffffffffffffffffffffffffffffffffffffffffffffffffffffffffc18c3603018112613407578687fd5b8b0173ffffffffffffffffffffffffffffffffffffffff61342782612dbf565b1685526020808201357fffffffffffffffffffffffffffffffffffffffffffffffffffffffffffffffe183360301811261345f578889fd5b8201803567ffffffffffffffff81111561347757898afd5b80360384131561348557898afd5b88838901526134998989018285850161326f565b97505050938401939290920191506001016133a7565b50505083810360208501526134c581868861326f565b98975050505050505050565b600060208252612f8560208301846131f1565b600060208252612f8560208301846132b7565b60006040825261350b60408301858761326f565b905073ffffffffffffffffffffffffffffffffffffffff83166020830152949350505050565b60006040825280845482600182811c91508083168061355157607f831692505b602080841082141561357157634e487b7160e01b87526022600452602487fd5b604088018490526060880182801561359057600181146135bf576135e9565b7fffffffffffffffffffffffffffffffffffffffffffffffffffffffffffffff008716825282820197506135e9565b60008c815260209020895b878110156135e3578154848201529086019084016135ca565b83019850505b505085965061360f8189018a73ffffffffffffffffffffffffffffffffffffffff169052565b5050505050509392505050565b600060c08252600f60c08301527f4572647374616c6c42616c616e6365000000000000000000000000000000000060e083015261010073ffffffffffffffffffffffffffffffffffffffff808916602085015267ffffffffffffffff8816604085015280871660608501525084151560808401528060a08401526134c5818401856131f1565b60008083357fffffffffffffffffffffffffffffffffffffffffffffffffffffffffffffffe18436030181126136d6578283fd5b83018035915067ffffffffffffffff8211156136f0578283fd5b6020019150600581901b3603821315612e3357600080fd5b604051601f82017fffffffffffffffffffffffffffffffffffffffffffffffffffffffffffffffe016810167ffffffffffffffff8111828210171561374f5761374f6138cf565b604052919050565b6000821982111561376a5761376a6138b9565b500190565b600067ffffffffffffffff808316818516808303821115613792576137926138b9565b01949350505050565b600067ffffffffffffffff808416806137c257634e487b7160e01b83526012600452602483fd5b92169190910492915050565b600067ffffffffffffffff838116908316818110156137ef576137ef6138b9565b039392505050565b6000612f85368484612d14565b60006128e73683612ec3565b60008161381f5761381f6138b9565b507fffffffffffffffffffffffffffffffffffffffffffffffffffffffffffffffff0190565b600181811c9082168061385957607f821691505b6020821081141561387a57634e487b7160e01b600052602260045260246000fd5b50919050565b60007fffffffffffffffffffffffffffffffffffffffffffffffffffffffffffffffff8214156138b2576138b26138b9565b5060010190565b634e487b7160e01b600052601160045260246000fd5b634e487b7160e01b600052604160045260246000fdfea2646970667358221220856cef84516945cb54087f3ee22267cbc9db7fb8c79782525ec9adf70b786c5464736f6c63430008030033",
  "linkReferences": {},
  "deployedLinkReferences": {}
}