{
  "_format": "hh-sol-artifact-1",
  "contractName": "ERC20Holder",
  "sourceName": "contracts/ERC20Holder.sol",
  "abi": [
    {
      "inputs": [
        {
          "internalType": "address",
          "name": "erdstall",
          "type": "address"
        },
        {
          "internalType": "address",
          "name": "template",
          "type": "address"
        },
        {
          "internalType": "uint16",
          "name": "_chainID",
          "type": "uint16"
        }
      ],
      "stateMutability": "nonpayable",
      "type": "constructor"
    },
    {
      "inputs": [],
      "name": "CallerIsNotErdstall",
      "type": "error"
    },
    {
      "inputs": [],
      "name": "EmptyDeposit",
      "type": "error"
    },
    {
      "inputs": [],
      "name": "InvalidMetadataSignature",
      "type": "error"
    },
    {
      "inputs": [],
      "name": "TransferFailed",
      "type": "error"
    },
    {
      "inputs": [],
      "name": "UnknownMetadata",
      "type": "error"
    },
    {
      "anonymous": false,
      "inputs": [
        {
          "indexed": false,
          "internalType": "address",
          "name": "addr",
          "type": "address"
        },
        {
          "indexed": false,
          "internalType": "uint16",
          "name": "origin",
          "type": "uint16"
        },
        {
          "indexed": false,
          "internalType": "bytes32",
          "name": "localID",
          "type": "bytes32"
        }
      ],
      "name": "ForeignAssetContractDeployed",
      "type": "event"
    },
    {
      "inputs": [
        {
          "internalType": "uint16",
          "name": "origin_",
          "type": "uint16"
        },
        {
          "internalType": "bytes32",
          "name": "localID",
          "type": "bytes32"
        }
      ],
      "name": "deployedToken",
      "outputs": [
        {
          "internalType": "address",
          "name": "",
          "type": "address"
        }
      ],
      "stateMutability": "view",
      "type": "function"
    },
    {
      "inputs": [
        {
          "internalType": "address",
          "name": "token",
          "type": "address"
        },
        {
          "internalType": "uint256",
          "name": "amount",
          "type": "uint256"
        }
      ],
      "name": "deposit",
      "outputs": [],
      "stateMutability": "nonpayable",
      "type": "function"
    },
    {
      "inputs": [],
      "name": "erdstall",
      "outputs": [
        {
          "internalType": "contract Erdstall",
          "name": "",
          "type": "address"
        }
      ],
      "stateMutability": "view",
      "type": "function"
    },
    {
      "inputs": [
        {
          "internalType": "address",
          "name": "",
          "type": "address"
        }
      ],
      "name": "foreignAssets",
      "outputs": [
        {
          "internalType": "bytes32",
          "name": "localID",
          "type": "bytes32"
        },
        {
          "internalType": "uint16",
          "name": "origin",
          "type": "uint16"
        }
      ],
      "stateMutability": "view",
      "type": "function"
    },
    {
      "inputs": [
        {
          "internalType": "bytes32",
          "name": "assetHash",
          "type": "bytes32"
        },
        {
          "internalType": "string",
          "name": "name",
          "type": "string"
        },
        {
          "internalType": "string",
          "name": "symbol",
          "type": "string"
        },
        {
          "internalType": "uint8",
          "name": "decimals",
          "type": "uint8"
        },
        {
          "internalType": "bytes",
          "name": "sig",
          "type": "bytes"
        }
      ],
      "name": "registerMetadata",
      "outputs": [],
      "stateMutability": "nonpayable",
      "type": "function"
    },
    {
      "inputs": [],
      "name": "template",
      "outputs": [
        {
          "internalType": "address",
          "name": "",
          "type": "address"
        }
      ],
      "stateMutability": "view",
      "type": "function"
    },
    {
      "inputs": [
        {
          "internalType": "uint16",
          "name": "origin",
          "type": "uint16"
        },
        {
          "internalType": "bytes32",
          "name": "localID",
          "type": "bytes32"
        },
        {
          "internalType": "address",
          "name": "recipient",
          "type": "address"
        },
        {
          "internalType": "uint256[]",
          "name": "value",
          "type": "uint256[]"
        }
      ],
      "name": "transfer",
      "outputs": [],
      "stateMutability": "nonpayable",
      "type": "function"
    }
  ],
  "bytecode": "0x61010060405234801561001157600080fd5b506040516114cc3803806114cc83398101604081905261003091610070565b6001600160a01b03928316608052600060a052911660c05261ffff1660e0526100be565b80516001600160a01b038116811461006b57600080fd5b919050565b60008060006060848603121561008557600080fd5b61008e84610054565b925061009c60208501610054565b9150604084015161ffff811681146100b357600080fd5b809150509250925092565b60805160a05160c05160e0516113b361011960003960008181610644015261076d01526000818161018201526107ed0152600061070101526000818160f0015281816103eb0152818161058001526106d201526113b36000f3fe608060405234801561001057600080fd5b506004361061007d5760003560e01c80636968e9121161005b5780636968e912146101275780636ede62381461013a5780636f2ddd931461017d578063d1beaffa146101a457600080fd5b80632448cd0c14610082578063411f925c146100eb57806347e7ef2414610112575b600080fd5b6100c1610090366004610d52565b60009182526020908152604080832083529082905290205473ffffffffffffffffffffffffffffffffffffffff1690565b60405173ffffffffffffffffffffffffffffffffffffffff90911681526020015b60405180910390f35b6100c17f000000000000000000000000000000000000000000000000000000000000000081565b610125610120366004610da0565b6101b7565b005b610125610135366004610dfe565b6103cb565b610165610148366004610ebc565b6001602081905260009182526040909120805491015461ffff1682565b6040805192835261ffff9091166020830152016100e2565b6100c17f000000000000000000000000000000000000000000000000000000000000000081565b6101256101b2366004610ede565b610568565b806000036101f1576040517f95b66fe900000000000000000000000000000000000000000000000000000000815260040160405180910390fd5b73ffffffffffffffffffffffffffffffffffffffff82166000908152600160205260409020546102f3576040517f23b872dd0000000000000000000000000000000000000000000000000000000081523360048201523060248201526044810182905273ffffffffffffffffffffffffffffffffffffffff8316906323b872dd906064016020604051808303816000875af1158015610294573d6000803e3d6000fd5b505050506040513d601f19601f820116820180604052508101906102b89190610f7c565b6102ee576040517f90b8ec1800000000000000000000000000000000000000000000000000000000815260040160405180910390fd5b61037a565b6040517f9dc29fac0000000000000000000000000000000000000000000000000000000081523360048201526024810182905273ffffffffffffffffffffffffffffffffffffffff831690639dc29fac90604401600060405180830381600087803b15801561036157600080fd5b505af1158015610375573d6000803e3d6000fd5b505050505b6040805160018082528183019092526000916020808301908036833701905050905081816000815181106103b0576103b0610fcd565b6020026020010181815250506103c68382610614565b505050565b6000888152600260205260409020805460ff16156103e9575061055e565b7f000000000000000000000000000000000000000000000000000000000000000073ffffffffffffffffffffffffffffffffffffffff16638c2d17688a8a8a8a8a8a60405160200161044096959493929190611045565b60405160208183030381529060405285856040518463ffffffff1660e01b815260040161046f939291906110bd565b602060405180830381865afa15801561048c573d6000803e3d6000fd5b505050506040513d601f19601f820116820180604052508101906104b09190610f7c565b6104e6576040517f59bdfac200000000000000000000000000000000000000000000000000000000815260040160405180910390fd5b80547fffffffffffffffffffffffffffffffffffffffffffffffffffffffffffffff001660019081178255810161051e888a836111e3565b506002810161052e8688836111e3565b5060030180547fffffffffffffffffffffffffffffffffffffffffffffffffffffffffffffff001660ff85161790555b5050505050505050565b3373ffffffffffffffffffffffffffffffffffffffff7f000000000000000000000000000000000000000000000000000000000000000016146105d7576040517f164cbd7d00000000000000000000000000000000000000000000000000000000815260040160405180910390fd5b6000806105e48787610768565b9150915080156105ff576105fa82868686610930565b61060b565b61060b82868686610a28565b50505050505050565b73ffffffffffffffffffffffffffffffffffffffff821660009081526001602052604081208054829190610683577f0000000000000000000000000000000000000000000000000000000000000000925073ffffffffffffffffffffffffffffffffffffffff85169150610695565b6001810154815461ffff909116935091505b6040517fe83fd41100000000000000000000000000000000000000000000000000000000815273ffffffffffffffffffffffffffffffffffffffff7f0000000000000000000000000000000000000000000000000000000000000000169063e83fd4119061072f9033907f000000000000000000000000000000000000000000000000000000000000000090889088908b906004016112fd565b600060405180830381600087803b15801561074957600080fd5b505af115801561075d573d6000803e3d6000fd5b505050505050505050565b6000807f000000000000000000000000000000000000000000000000000000000000000061ffff168461ffff16036107a557508190506001610929565b600084815260208481526040808320808452918390529091205473ffffffffffffffffffffffffffffffffffffffff1680156107e8579250600091506109299050565b6108117f0000000000000000000000000000000000000000000000000000000000000000610aa5565b60008381526020818152604080832080547fffffffffffffffffffffffff00000000000000000000000000000000000000001673ffffffffffffffffffffffffffffffffffffffff8616908117909155815180830183528a815261ffff8c81168286019081529286526001948590529290942093518455519290910180547fffffffffffffffffffffffffffffffffffffffffffffffffffffffffffff0000169290911691909117905590506108c78186610b71565b6040805173ffffffffffffffffffffffffffffffffffffffff8316815261ffff881660208201529081018690527f4a5d13431938ce6a6ac4346b8066a52855a261cc4b57a83cffc41f961f9eb9519060600160405180910390a1925060009150505b9250929050565b60008282600081811061094557610945610fcd565b6040517fa9059cbb00000000000000000000000000000000000000000000000000000000815273ffffffffffffffffffffffffffffffffffffffff88811660048301526020909202939093013560248401819052935087169163a9059cbb91506044016020604051808303816000875af11580156109c7573d6000803e3d6000fd5b505050506040513d601f19601f820116820180604052508101906109eb9190610f7c565b610a21576040517f90b8ec1800000000000000000000000000000000000000000000000000000000815260040160405180910390fd5b5050505050565b600082826000818110610a3d57610a3d610fcd565b6040517f40c10f1900000000000000000000000000000000000000000000000000000000815273ffffffffffffffffffffffffffffffffffffffff8881166004830152602090920293909301356024840181905293508716916340c10f19915060440161072f565b6000763d602d80600a3d3981f3363d3d373d3d3d363d730000008260601b60e81c176000526e5af43d82803e903d91602b57fd5bf38260781b17602052603760096000f0905073ffffffffffffffffffffffffffffffffffffffff8116610b6c576040517f08c379a000000000000000000000000000000000000000000000000000000000815260206004820152601660248201527f455243313136373a20637265617465206661696c656400000000000000000000604482015260640160405180910390fd5b919050565b60008181526002602052604080822090517ff57b01820000000000000000000000000000000000000000000000000000000081526060600480830191909152601660648301527f4572647374616c6c207772617070656420746f6b656e00000000000000000000608483015260a0602483015260a48201527f655752500000000000000000000000000000000000000000000000000000000060c482015260448101929092529073ffffffffffffffffffffffffffffffffffffffff84169063f57b01829060e401600060405180830381600087803b158015610c5357600080fd5b505af1158015610c67573d6000803e3d6000fd5b505050600083815260026020526040812080547fffffffffffffffffffffffffffffffffffffffffffffffffffffffffffffff001681559150610cad6001830182610cea565b610cbb600283016000610cea565b5060030180547fffffffffffffffffffffffffffffffffffffffffffffffffffffffffffffff00169055505050565b508054610cf690611142565b6000825580601f10610d06575050565b601f016020900490600052602060002090810190610d249190610d27565b50565b5b80821115610d3c5760008155600101610d28565b5090565b803561ffff81168114610b6c57600080fd5b60008060408385031215610d6557600080fd5b610d6e83610d40565b946020939093013593505050565b803573ffffffffffffffffffffffffffffffffffffffff81168114610b6c57600080fd5b60008060408385031215610db357600080fd5b610d6e83610d7c565b60008083601f840112610dce57600080fd5b50813567ffffffffffffffff811115610de657600080fd5b60208301915083602082850101111561092957600080fd5b60008060008060008060008060a0898b031215610e1a57600080fd5b88359750602089013567ffffffffffffffff80821115610e3957600080fd5b610e458c838d01610dbc565b909950975060408b0135915080821115610e5e57600080fd5b610e6a8c838d01610dbc565b909750955060608b0135915060ff82168214610e8557600080fd5b90935060808a01359080821115610e9b57600080fd5b50610ea88b828c01610dbc565b999c989b5096995094979396929594505050565b600060208284031215610ece57600080fd5b610ed782610d7c565b9392505050565b600080600080600060808688031215610ef657600080fd5b610eff86610d40565b945060208601359350610f1460408701610d7c565b9250606086013567ffffffffffffffff80821115610f3157600080fd5b818801915088601f830112610f4557600080fd5b813581811115610f5457600080fd5b8960208260051b8501011115610f6957600080fd5b9699959850939650602001949392505050565b600060208284031215610f8e57600080fd5b81518015158114610ed757600080fd5b7f4e487b7100000000000000000000000000000000000000000000000000000000600052604160045260246000fd5b7f4e487b7100000000000000000000000000000000000000000000000000000000600052603260045260246000fd5b8183528181602085013750600060208284010152600060207fffffffffffffffffffffffffffffffffffffffffffffffffffffffffffffffe0601f840116840101905092915050565b60a08152601060a08201527f46756e6769626c654d657461646174610000000000000000000000000000000060c082015286602082015260e06040820152600061109360e083018789610ffc565b82810360608401526110a6818688610ffc565b91505060ff83166080830152979650505050505050565b604081526000845180604084015260005b818110156110eb57602081880181015160608684010152016110ce565b506000606082850101527fffffffffffffffffffffffffffffffffffffffffffffffffffffffffffffffe0601f820116830190506060838203016020840152611138606082018587610ffc565b9695505050505050565b600181811c9082168061115657607f821691505b60208210810361118f577f4e487b7100000000000000000000000000000000000000000000000000000000600052602260045260246000fd5b50919050565b601f8211156103c657600081815260208120601f850160051c810160208610156111bc5750805b601f850160051c820191505b818110156111db578281556001016111c8565b505050505050565b67ffffffffffffffff8311156111fb576111fb610f9e565b61120f836112098354611142565b83611195565b6000601f841160018114611261576000851561122b5750838201355b7fffffffffffffffffffffffffffffffffffffffffffffffffffffffffffffffff600387901b1c1916600186901b178355610a21565b6000838152602090207fffffffffffffffffffffffffffffffffffffffffffffffffffffffffffffffe0861690835b828110156112b05786850135825560209485019460019092019101611290565b50868210156112eb577fffffffffffffffffffffffffffffffffffffffffffffffffffffffffffffffff60f88860031b161c19848701351681555b505060018560011b0183555050505050565b600060a0820173ffffffffffffffffffffffffffffffffffffffff88168352602060ff88168185015261ffff8716604085015285606085015260a0608085015281855180845260c086019150828701935060005b8181101561136d57845183529383019391830191600101611351565b50909a995050505050505050505056fea2646970667358221220f0c3456220b43182292930e3d6acaf2659d6086bcdd9b9b0e8466f240ad137f664736f6c63430008130033",
  "linkReferences": {},
  "deployedLinkReferences": {}
}