{
  "_format": "hh-sol-artifact-1",
  "contractName": "ERC721MintableHolder",
  "sourceName": "contracts/ERC721Holder.sol",
  "abi": [
    {
      "inputs": [
        {
          "internalType": "address",
          "name": "erdstall",
          "type": "address"
        }
      ],
      "stateMutability": "nonpayable",
      "type": "constructor"
    },
    {
      "inputs": [
        {
          "internalType": "address",
          "name": "token",
          "type": "address"
        },
        {
          "internalType": "uint256[]",
          "name": "ids",
          "type": "uint256[]"
        }
      ],
      "name": "deposit",
      "outputs": [],
      "stateMutability": "nonpayable",
      "type": "function"
    },
    {
      "inputs": [],
      "name": "erdstall",
      "outputs": [
        {
          "internalType": "contract Erdstall",
          "name": "",
          "type": "address"
        }
      ],
      "stateMutability": "view",
      "type": "function"
    },
    {
      "inputs": [
        {
          "internalType": "address",
          "name": "_token",
          "type": "address"
        },
        {
          "internalType": "address",
          "name": "recipient",
          "type": "address"
        },
        {
          "internalType": "bytes",
          "name": "value",
          "type": "bytes"
        }
      ],
      "name": "transfer",
      "outputs": [],
      "stateMutability": "nonpayable",
      "type": "function"
    }
  ],
  "bytecode": "0x60a060405234801561001057600080fd5b50604051610bae380380610bae83398101604081905261002f91610044565b60601b6001600160601b031916608052610072565b600060208284031215610055578081fd5b81516001600160a01b038116811461006b578182fd5b9392505050565b60805160601c610b1261009c60003960008181604b0152818160d601526102a60152610b126000f3fe608060405234801561001057600080fd5b50600436106100415760003560e01c8063411f925c146100465780639e625f6c14610096578063a71604e8146100ab575b600080fd5b61006d7f000000000000000000000000000000000000000000000000000000000000000081565b60405173ffffffffffffffffffffffffffffffffffffffff909116815260200160405180910390f35b6100a96100a43660046106c9565b6100be565b005b6100a96100b9366004610756565b61021c565b3373ffffffffffffffffffffffffffffffffffffffff7f00000000000000000000000000000000000000000000000000000000000000001614610162576040517f08c379a000000000000000000000000000000000000000000000000000000000815260206004820152601960248201527f546f6b656e486f6c6465723a206e6f74204572647374616c6c0000000000000060448201526064015b60405180910390fd5b600084905060006101a884848080601f01602080910402602001604051908101604052809392919081815260200183838082843760009201919091525061030d92505050565b905060005b81518110156102135761020183878484815181106101f4577f4e487b7100000000000000000000000000000000000000000000000000000000600052603260045260246000fd5b6020026020010151610390565b8061020b81610931565b9150506101ad565b50505050505050565b61022882333084610590565b60008160405160200161023b9190610815565b604080517fffffffffffffffffffffffffffffffffffffffffffffffffffffffffffffffe0818403018152908290527f46e6744b000000000000000000000000000000000000000000000000000000008252915073ffffffffffffffffffffffffffffffffffffffff7f000000000000000000000000000000000000000000000000000000000000000016906346e6744b906102df9033908790869060040161084b565b600060405180830381600087803b1580156102f957600080fd5b505af1158015610213573d6000803e3d6000fd5b60606020825161031d919061098f565b15610384576040517f08c379a000000000000000000000000000000000000000000000000000000000815260206004820181905260248201527f42797465733a206c656e677468206e6f74206d756c7469706c65206f662033326044820152606401610159565b50805160209004815290565b6040517f6352211e0000000000000000000000000000000000000000000000000000000081526004810182905273ffffffffffffffffffffffffffffffffffffffff841690636352211e9060240160206040518083038186803b1580156103f657600080fd5b505afa925050508015610444575060408051601f3d9081017fffffffffffffffffffffffffffffffffffffffffffffffffffffffffffffffe0168201909252610441918101906106a6565b60015b61050b576104506109f7565b806308c379a014156104ff5750610465610a0f565b806104705750610501565b6040517f40c10f1900000000000000000000000000000000000000000000000000000000815273ffffffffffffffffffffffffffffffffffffffff8481166004830152602482018490528516906340c10f19906044015b600060405180830381600087803b1580156104e157600080fd5b505af11580156104f5573d6000803e3d6000fd5b5050505050505050565b505b3d6000803e3d6000fd5b73ffffffffffffffffffffffffffffffffffffffff811630141561058a576040517f23b872dd00000000000000000000000000000000000000000000000000000000815230600482015273ffffffffffffffffffffffffffffffffffffffff8481166024830152604482018490528516906323b872dd906064016104c7565b50505050565b8360005b825181101561069e578173ffffffffffffffffffffffffffffffffffffffff166323b872dd86868685815181106105f4577f4e487b7100000000000000000000000000000000000000000000000000000000600052603260045260246000fd5b60209081029190910101516040517fffffffff0000000000000000000000000000000000000000000000000000000060e086901b16815273ffffffffffffffffffffffffffffffffffffffff93841660048201529290911660248301526044820152606401600060405180830381600087803b15801561067357600080fd5b505af1158015610687573d6000803e3d6000fd5b50505050808061069690610931565b915050610594565b505050505050565b6000602082840312156106b7578081fd5b81516106c281610ab7565b9392505050565b600080600080606085870312156106de578283fd5b84356106e981610ab7565b935060208501356106f981610ab7565b9250604085013567ffffffffffffffff80821115610715578384fd5b818701915087601f830112610728578384fd5b813581811115610736578485fd5b886020828501011115610747578485fd5b95989497505060200194505050565b60008060408385031215610768578182fd5b823561077381610ab7565b915060208381013567ffffffffffffffff80821115610790578384fd5b818601915086601f8301126107a3578384fd5b8135818111156107b5576107b56109c8565b8060051b91506040516107ca858401826108e6565b81815284810184860184860187018b10156107e3578788fd5b8795505b838610156108055780358252600195909501949086019086016107e7565b5096999098509650505050505050565b815160009082906020808601845b8381101561083f57815185529382019390820190600101610823565b50929695505050505050565b600073ffffffffffffffffffffffffffffffffffffffff80861683526020818616818501526060604085015284519150816060850152825b8281101561089f57858101820151858201608001528101610883565b828111156108b05783608084870101525b5050601f017fffffffffffffffffffffffffffffffffffffffffffffffffffffffffffffffe01691909101608001949350505050565b7fffffffffffffffffffffffffffffffffffffffffffffffffffffffffffffffe0601f830116810181811067ffffffffffffffff8211171561092a5761092a6109c8565b6040525050565b60007fffffffffffffffffffffffffffffffffffffffffffffffffffffffffffffffff821415610988577f4e487b710000000000000000000000000000000000000000000000000000000081526011600452602481fd5b5060010190565b6000826109c3577f4e487b710000000000000000000000000000000000000000000000000000000081526012600452602481fd5b500690565b7f4e487b7100000000000000000000000000000000000000000000000000000000600052604160045260246000fd5b600060033d1115610a0c57600481823e5160e01c5b90565b600060443d1015610a1d5790565b6040517ffffffffffffffffffffffffffffffffffffffffffffffffffffffffffffffffc803d016004833e81513d67ffffffffffffffff8160248401118184111715610a6b57505050505090565b8285019150815181811115610a835750505050505090565b843d8701016020828501011115610a9d5750505050505090565b610aac602082860101876108e6565b509095945050505050565b73ffffffffffffffffffffffffffffffffffffffff81168114610ad957600080fd5b5056fea2646970667358221220cbc6148e79198833d7c1b5bbef3add58ad5ab08c5fdb067d6a864b263b5a8fce64736f6c63430008040033",
  "linkReferences": {},
  "deployedLinkReferences": {}
}