{
  "_format": "hh-sol-artifact-1",
  "contractName": "ERC721Holder",
  "sourceName": "contracts/ERC721Holder.sol",
  "abi": [
    {
      "inputs": [
        {
          "internalType": "address",
          "name": "erdstall",
          "type": "address"
        },
        {
          "internalType": "address",
          "name": "template",
          "type": "address"
        },
        {
          "internalType": "uint16",
          "name": "_chainID",
          "type": "uint16"
        }
      ],
      "stateMutability": "nonpayable",
      "type": "constructor"
    },
    {
      "inputs": [],
      "name": "CallerIsNotErdstall",
      "type": "error"
    },
    {
      "inputs": [],
      "name": "EmptyDeposit",
      "type": "error"
    },
    {
      "inputs": [],
      "name": "InvalidMetadataSignature",
      "type": "error"
    },
    {
      "inputs": [],
      "name": "UnknownMetadata",
      "type": "error"
    },
    {
      "anonymous": false,
      "inputs": [
        {
          "indexed": false,
          "internalType": "address",
          "name": "addr",
          "type": "address"
        },
        {
          "indexed": false,
          "internalType": "uint16",
          "name": "origin",
          "type": "uint16"
        },
        {
          "indexed": false,
          "internalType": "bytes32",
          "name": "localID",
          "type": "bytes32"
        }
      ],
      "name": "ForeignAssetContractDeployed",
      "type": "event"
    },
    {
      "inputs": [
        {
          "internalType": "uint16",
          "name": "origin_",
          "type": "uint16"
        },
        {
          "internalType": "bytes32",
          "name": "localID",
          "type": "bytes32"
        }
      ],
      "name": "deployedToken",
      "outputs": [
        {
          "internalType": "address",
          "name": "",
          "type": "address"
        }
      ],
      "stateMutability": "view",
      "type": "function"
    },
    {
      "inputs": [
        {
          "internalType": "address",
          "name": "token",
          "type": "address"
        },
        {
          "internalType": "uint256[]",
          "name": "ids",
          "type": "uint256[]"
        }
      ],
      "name": "deposit",
      "outputs": [],
      "stateMutability": "nonpayable",
      "type": "function"
    },
    {
      "inputs": [],
      "name": "erdstall",
      "outputs": [
        {
          "internalType": "contract Erdstall",
          "name": "",
          "type": "address"
        }
      ],
      "stateMutability": "view",
      "type": "function"
    },
    {
      "inputs": [
        {
          "internalType": "address",
          "name": "",
          "type": "address"
        }
      ],
      "name": "foreignAssets",
      "outputs": [
        {
          "internalType": "bytes32",
          "name": "localID",
          "type": "bytes32"
        },
        {
          "internalType": "uint16",
          "name": "origin",
          "type": "uint16"
        }
      ],
      "stateMutability": "view",
      "type": "function"
    },
    {
      "inputs": [
        {
          "internalType": "bytes32",
          "name": "assetHash",
          "type": "bytes32"
        },
        {
          "internalType": "string",
          "name": "name",
          "type": "string"
        },
        {
          "internalType": "string",
          "name": "symbol",
          "type": "string"
        },
        {
          "internalType": "string",
          "name": "baseURI",
          "type": "string"
        },
        {
          "internalType": "bytes",
          "name": "sig",
          "type": "bytes"
        }
      ],
      "name": "registerMetadata",
      "outputs": [],
      "stateMutability": "nonpayable",
      "type": "function"
    },
    {
      "inputs": [],
      "name": "template",
      "outputs": [
        {
          "internalType": "address",
          "name": "",
          "type": "address"
        }
      ],
      "stateMutability": "view",
      "type": "function"
    },
    {
      "inputs": [
        {
          "internalType": "uint16",
          "name": "origin",
          "type": "uint16"
        },
        {
          "internalType": "bytes32",
          "name": "localID",
          "type": "bytes32"
        },
        {
          "internalType": "address",
          "name": "recipient",
          "type": "address"
        },
        {
          "internalType": "uint256[]",
          "name": "value",
          "type": "uint256[]"
        }
      ],
      "name": "transfer",
      "outputs": [],
      "stateMutability": "nonpayable",
      "type": "function"
    }
  ],
  "bytecode": "0x61010060405234801561001157600080fd5b50604051620016153803806200161583398101604081905261003291610072565b6001600160a01b03928316608052600160a052911660c05261ffff1660e0526100c0565b80516001600160a01b038116811461006d57600080fd5b919050565b60008060006060848603121561008757600080fd5b61009084610056565b925061009e60208501610056565b9150604084015161ffff811681146100b557600080fd5b809150509250925092565b60805160a05160c05160e0516114f96200011c60003960008181610642015261076001526000818161015a01526107e0015260006106ff01526000818160f001528181610311015281816103c501526106d001526114f96000f3fe608060405234801561001057600080fd5b506004361061007d5760003560e01c80636f2ddd931161005b5780636f2ddd9314610155578063a71604e81461017c578063d1beaffa14610191578063e98aed34146101a457600080fd5b80632448cd0c14610082578063411f925c146100eb5780636ede623814610112575b600080fd5b6100c1610090366004610d67565b60009182526020908152604080832083529082905290205473ffffffffffffffffffffffffffffffffffffffff1690565b60405173ffffffffffffffffffffffffffffffffffffffff90911681526020015b60405180910390f35b6100c17f000000000000000000000000000000000000000000000000000000000000000081565b61013d610120366004610db5565b6001602081905260009182526040909120805491015461ffff1682565b6040805192835261ffff9091166020830152016100e2565b6100c17f000000000000000000000000000000000000000000000000000000000000000081565b61018f61018a366004610e1c565b6101b7565b005b61018f61019f366004610e6f565b6102f9565b61018f6101b2366004610f20565b6103a5565b60008190036101f2576040517f95b66fe900000000000000000000000000000000000000000000000000000000815260040160405180910390fd5b73ffffffffffffffffffffffffffffffffffffffff831660009081526001602052604090205461022e576102298333308585610528565b6102b7565b6040517f8a3a4c7c00000000000000000000000000000000000000000000000000000000815273ffffffffffffffffffffffffffffffffffffffff841690638a3a4c7c9061028490339086908690600401610ff0565b600060405180830381600087803b15801561029e57600080fd5b505af11580156102b2573d6000803e3d6000fd5b505050505b6102f48383838080602002602001604051908101604052809392919081815260200183836020028082843760009201919091525061061292505050565b505050565b3373ffffffffffffffffffffffffffffffffffffffff7f00000000000000000000000000000000000000000000000000000000000000001614610368576040517f164cbd7d00000000000000000000000000000000000000000000000000000000815260040160405180910390fd5b600080610375878761075b565b9150915080156103905761038b82868686610923565b61039c565b61039c82868686610936565b50505050505050565b6000898152600260205260409020805460ff16156103c3575061051d565b7f000000000000000000000000000000000000000000000000000000000000000073ffffffffffffffffffffffffffffffffffffffff16638c2d17688b8b8b8b8b8b8b60405160200161041c97969594939291906110a8565b60405160208183030381529060405285856040518463ffffffff1660e01b815260040161044b9392919061112c565b602060405180830381865afa158015610468573d6000803e3d6000fd5b505050506040513d601f19601f8201168201806040525081019061048c91906111b1565b6104c2576040517f59bdfac200000000000000000000000000000000000000000000000000000000815260040160405180910390fd5b80547fffffffffffffffffffffffffffffffffffffffffffffffffffffffffffffff00166001908117825581016104fa898b8361129b565b506002810161050a87898361129b565b506003810161051a85878361129b565b50505b505050505050505050565b60005b8181101561060a578573ffffffffffffffffffffffffffffffffffffffff166323b872dd8686868686818110610563576105636113b5565b6040517fffffffff0000000000000000000000000000000000000000000000000000000060e088901b16815273ffffffffffffffffffffffffffffffffffffffff958616600482015294909316602485015250602090910201356044820152606401600060405180830381600087803b1580156105df57600080fd5b505af11580156105f3573d6000803e3d6000fd5b505050508080610602906113e4565b91505061052b565b505050505050565b73ffffffffffffffffffffffffffffffffffffffff821660009081526001602052604081208054829190610681577f0000000000000000000000000000000000000000000000000000000000000000925073ffffffffffffffffffffffffffffffffffffffff85169150610693565b6001810154815461ffff909116935091505b6040517fe83fd41100000000000000000000000000000000000000000000000000000000815273ffffffffffffffffffffffffffffffffffffffff7f0000000000000000000000000000000000000000000000000000000000000000169063e83fd4119061072d9033907f000000000000000000000000000000000000000000000000000000000000000090889088908b90600401611443565b600060405180830381600087803b15801561074757600080fd5b505af115801561051d573d6000803e3d6000fd5b6000807f000000000000000000000000000000000000000000000000000000000000000061ffff168461ffff16036107985750819050600161091c565b600084815260208481526040808320808452918390529091205473ffffffffffffffffffffffffffffffffffffffff1680156107db5792506000915061091c9050565b6108047f00000000000000000000000000000000000000000000000000000000000000006109c4565b60008381526020818152604080832080547fffffffffffffffffffffffff00000000000000000000000000000000000000001673ffffffffffffffffffffffffffffffffffffffff8616908117909155815180830183528a815261ffff8c81168286019081529286526001948590529290942093518455519290910180547fffffffffffffffffffffffffffffffffffffffffffffffffffffffffffff0000169290911691909117905590506108ba8186610a90565b6040805173ffffffffffffffffffffffffffffffffffffffff8316815261ffff881660208201529081018690527f4a5d13431938ce6a6ac4346b8066a52855a261cc4b57a83cffc41f961f9eb9519060600160405180910390a1925060009150505b9250929050565b6109308430858585610c1d565b50505050565b6040517fa184e9a500000000000000000000000000000000000000000000000000000000815273ffffffffffffffffffffffffffffffffffffffff85169063a184e9a59061098c90869086908690600401610ff0565b600060405180830381600087803b1580156109a657600080fd5b505af11580156109ba573d6000803e3d6000fd5b5050505050505050565b6000763d602d80600a3d3981f3363d3d373d3d3d363d730000008260601b60e81c176000526e5af43d82803e903d91602b57fd5bf38260781b17602052603760096000f0905073ffffffffffffffffffffffffffffffffffffffff8116610a8b576040517f08c379a000000000000000000000000000000000000000000000000000000000815260206004820152601660248201527f455243313136373a20637265617465206661696c656400000000000000000000604482015260640160405180910390fd5b919050565b6000818152600260205260409081902090517f41e461a00000000000000000000000000000000000000000000000000000000081526060600480830191909152601460648301527f4572647374616c6c2077726170706564204e4654000000000000000000000000608483015260a0602483015260a48201527f655752500000000000000000000000000000000000000000000000000000000060c482015260e06044820152601e60e48201527f68747470733a2f2f6d657461646174612e6572647374616c6c2e6465762f000061010482015273ffffffffffffffffffffffffffffffffffffffff8416906341e461a09061012401600060405180830381600087803b158015610ba057600080fd5b505af1158015610bb4573d6000803e3d6000fd5b505050600083815260026020526040812080547fffffffffffffffffffffffffffffffffffffffffffffffffffffffffffffff001681559150610bfa6001830182610cff565b610c08600283016000610cff565b610c16600383016000610cff565b5050505050565b60005b8181101561060a578573ffffffffffffffffffffffffffffffffffffffff166342842e0e8686868686818110610c5857610c586113b5565b6040517fffffffff0000000000000000000000000000000000000000000000000000000060e088901b16815273ffffffffffffffffffffffffffffffffffffffff958616600482015294909316602485015250602090910201356044820152606401600060405180830381600087803b158015610cd457600080fd5b505af1158015610ce8573d6000803e3d6000fd5b505050508080610cf7906113e4565b915050610c20565b508054610d0b90611202565b6000825580601f10610d1b575050565b601f016020900490600052602060002090810190610d399190610d3c565b50565b5b80821115610d515760008155600101610d3d565b5090565b803561ffff81168114610a8b57600080fd5b60008060408385031215610d7a57600080fd5b610d8383610d55565b946020939093013593505050565b803573ffffffffffffffffffffffffffffffffffffffff81168114610a8b57600080fd5b600060208284031215610dc757600080fd5b610dd082610d91565b9392505050565b60008083601f840112610de957600080fd5b50813567ffffffffffffffff811115610e0157600080fd5b6020830191508360208260051b850101111561091c57600080fd5b600080600060408486031215610e3157600080fd5b610e3a84610d91565b9250602084013567ffffffffffffffff811115610e5657600080fd5b610e6286828701610dd7565b9497909650939450505050565b600080600080600060808688031215610e8757600080fd5b610e9086610d55565b945060208601359350610ea560408701610d91565b9250606086013567ffffffffffffffff811115610ec157600080fd5b610ecd88828901610dd7565b969995985093965092949392505050565b60008083601f840112610ef057600080fd5b50813567ffffffffffffffff811115610f0857600080fd5b60208301915083602082850101111561091c57600080fd5b600080600080600080600080600060a08a8c031215610f3e57600080fd5b8935985060208a013567ffffffffffffffff80821115610f5d57600080fd5b610f698d838e01610ede565b909a50985060408c0135915080821115610f8257600080fd5b610f8e8d838e01610ede565b909850965060608c0135915080821115610fa757600080fd5b610fb38d838e01610ede565b909650945060808c0135915080821115610fcc57600080fd5b50610fd98c828d01610ede565b915080935050809150509295985092959850929598565b73ffffffffffffffffffffffffffffffffffffffff841681526040602082015281604082015260007f07ffffffffffffffffffffffffffffffffffffffffffffffffffffffffffffff83111561104557600080fd5b8260051b8085606085013791909101606001949350505050565b8183528181602085013750600060208284010152600060207fffffffffffffffffffffffffffffffffffffffffffffffffffffffffffffffe0601f840116840101905092915050565b60a08152600b60a08201527f4e46544d6574616461746100000000000000000000000000000000000000000060c082015287602082015260e0604082015260006110f660e08301888a61105f565b828103606084015261110981878961105f565b9050828103608084015261111e81858761105f565b9a9950505050505050505050565b604081526000845180604084015260005b8181101561115a576020818801810151606086840101520161113d565b506000606082850101527fffffffffffffffffffffffffffffffffffffffffffffffffffffffffffffffe0601f8201168301905060608382030160208401526111a760608201858761105f565b9695505050505050565b6000602082840312156111c357600080fd5b81518015158114610dd057600080fd5b7f4e487b7100000000000000000000000000000000000000000000000000000000600052604160045260246000fd5b600181811c9082168061121657607f821691505b60208210810361124f577f4e487b7100000000000000000000000000000000000000000000000000000000600052602260045260246000fd5b50919050565b601f8211156102f457600081815260208120601f850160051c8101602086101561127c5750805b601f850160051c820191505b8181101561060a57828155600101611288565b67ffffffffffffffff8311156112b3576112b36111d3565b6112c7836112c18354611202565b83611255565b6000601f84116001811461131957600085156112e35750838201355b7fffffffffffffffffffffffffffffffffffffffffffffffffffffffffffffffff600387901b1c1916600186901b178355610c16565b6000838152602090207fffffffffffffffffffffffffffffffffffffffffffffffffffffffffffffffe0861690835b828110156113685786850135825560209485019460019092019101611348565b50868210156113a3577fffffffffffffffffffffffffffffffffffffffffffffffffffffffffffffffff60f88860031b161c19848701351681555b505060018560011b0183555050505050565b7f4e487b7100000000000000000000000000000000000000000000000000000000600052603260045260246000fd5b60007fffffffffffffffffffffffffffffffffffffffffffffffffffffffffffffffff820361143c577f4e487b7100000000000000000000000000000000000000000000000000000000600052601160045260246000fd5b5060010190565b600060a0820173ffffffffffffffffffffffffffffffffffffffff88168352602060ff88168185015261ffff8716604085015285606085015260a0608085015281855180845260c086019150828701935060005b818110156114b357845183529383019391830191600101611497565b50909a995050505050505050505056fea2646970667358221220c896d4325a97e38b03f9648bb6d325815042fe7b5fb40db1ff0dc29079129f1e64736f6c63430008130033",
  "linkReferences": {},
  "deployedLinkReferences": {}
}