{
  "_format": "hh-sol-artifact-1",
  "contractName": "ERC721Holder",
  "sourceName": "contracts/ERC721Holder.sol",
  "abi": [
    {
      "inputs": [
        {
          "internalType": "address",
          "name": "erdstall",
          "type": "address"
        },
        {
          "internalType": "address",
          "name": "template",
          "type": "address"
        },
        {
          "internalType": "uint16",
          "name": "_chainID",
          "type": "uint16"
        }
      ],
      "stateMutability": "nonpayable",
      "type": "constructor"
    },
    {
      "inputs": [],
      "name": "CallerIsNotErdstall",
      "type": "error"
    },
    {
      "inputs": [],
      "name": "ECDSAInvalidSignature",
      "type": "error"
    },
    {
      "inputs": [
        {
          "internalType": "uint256",
          "name": "length",
          "type": "uint256"
        }
      ],
      "name": "ECDSAInvalidSignatureLength",
      "type": "error"
    },
    {
      "inputs": [
        {
          "internalType": "bytes32",
          "name": "s",
          "type": "bytes32"
        }
      ],
      "name": "ECDSAInvalidSignatureS",
      "type": "error"
    },
    {
      "inputs": [],
      "name": "EmptyDeposit",
      "type": "error"
    },
    {
      "inputs": [],
      "name": "FailedDeployment",
      "type": "error"
    },
    {
      "inputs": [
        {
          "internalType": "uint256",
          "name": "balance",
          "type": "uint256"
        },
        {
          "internalType": "uint256",
          "name": "needed",
          "type": "uint256"
        }
      ],
      "name": "InsufficientBalance",
      "type": "error"
    },
    {
      "inputs": [],
      "name": "InvalidMetadataSignature",
      "type": "error"
    },
    {
      "anonymous": false,
      "inputs": [
        {
          "indexed": false,
          "internalType": "address",
          "name": "addr",
          "type": "address"
        },
        {
          "indexed": false,
          "internalType": "uint16",
          "name": "origin",
          "type": "uint16"
        },
        {
          "indexed": false,
          "internalType": "bytes32",
          "name": "localID",
          "type": "bytes32"
        }
      ],
      "name": "ForeignAssetContractDeployed",
      "type": "event"
    },
    {
      "inputs": [
        {
          "internalType": "uint16",
          "name": "origin_",
          "type": "uint16"
        },
        {
          "internalType": "bytes32",
          "name": "localID",
          "type": "bytes32"
        }
      ],
      "name": "deployedToken",
      "outputs": [
        {
          "internalType": "address",
          "name": "",
          "type": "address"
        }
      ],
      "stateMutability": "view",
      "type": "function"
    },
    {
      "inputs": [
        {
          "internalType": "address",
          "name": "token",
          "type": "address"
        },
        {
          "internalType": "uint256[]",
          "name": "ids",
          "type": "uint256[]"
        }
      ],
      "name": "deposit",
      "outputs": [],
      "stateMutability": "nonpayable",
      "type": "function"
    },
    {
      "inputs": [],
      "name": "erdstall",
      "outputs": [
        {
          "internalType": "contract Erdstall",
          "name": "",
          "type": "address"
        }
      ],
      "stateMutability": "view",
      "type": "function"
    },
    {
      "inputs": [
        {
          "internalType": "address",
          "name": "",
          "type": "address"
        }
      ],
      "name": "foreignAssets",
      "outputs": [
        {
          "internalType": "uint16",
          "name": "origin",
          "type": "uint16"
        },
        {
          "internalType": "bool",
          "name": "exists",
          "type": "bool"
        },
        {
          "internalType": "bytes32",
          "name": "localID",
          "type": "bytes32"
        }
      ],
      "stateMutability": "view",
      "type": "function"
    },
    {
      "inputs": [
        {
          "internalType": "bytes32",
          "name": "assetHash",
          "type": "bytes32"
        },
        {
          "internalType": "string",
          "name": "name",
          "type": "string"
        },
        {
          "internalType": "string",
          "name": "symbol",
          "type": "string"
        },
        {
          "internalType": "string",
          "name": "baseURI",
          "type": "string"
        },
        {
          "internalType": "bytes",
          "name": "sig",
          "type": "bytes"
        },
        {
          "internalType": "bytes",
          "name": "certificate",
          "type": "bytes"
        }
      ],
      "name": "registerMetadata",
      "outputs": [],
      "stateMutability": "nonpayable",
      "type": "function"
    },
    {
      "inputs": [
        {
          "internalType": "bytes32",
          "name": "assetHash",
          "type": "bytes32"
        },
        {
          "internalType": "uint256",
          "name": "id",
          "type": "uint256"
        },
        {
          "internalType": "string",
          "name": "uri",
          "type": "string"
        },
        {
          "internalType": "bytes",
          "name": "sig",
          "type": "bytes"
        },
        {
          "internalType": "bytes",
          "name": "certificate",
          "type": "bytes"
        }
      ],
      "name": "setCustomURI",
      "outputs": [],
      "stateMutability": "nonpayable",
      "type": "function"
    },
    {
      "inputs": [],
      "name": "template",
      "outputs": [
        {
          "internalType": "address",
          "name": "",
          "type": "address"
        }
      ],
      "stateMutability": "view",
      "type": "function"
    },
    {
      "inputs": [
        {
          "internalType": "uint16",
          "name": "origin",
          "type": "uint16"
        },
        {
          "internalType": "bytes32",
          "name": "localID",
          "type": "bytes32"
        },
        {
          "internalType": "address",
          "name": "recipient",
          "type": "address"
        },
        {
          "internalType": "uint256[]",
          "name": "value",
          "type": "uint256[]"
        }
      ],
      "name": "transfer",
      "outputs": [],
      "stateMutability": "nonpayable",
      "type": "function"
    }
  ],
  "bytecode": "0x61010060405234801561001157600080fd5b50604051611a1a380380611a1a83398101604081905261003091610070565b6001600160a01b03928316608052600160a052911660c05261ffff1660e0526100be565b80516001600160a01b038116811461006b57600080fd5b919050565b60008060006060848603121561008557600080fd5b61008e84610054565b925061009c60208501610054565b9150604084015161ffff811681146100b357600080fd5b809150509250925092565b60805160a05160c05160e0516118fa610120600039600081816107a801526108b7015260008181610140015261092a0152600061084b01526000818160c201528181610314015281816103c8015281816105a5015261081c01526118fa6000f3fe608060405234801561001057600080fd5b50600436106100885760003560e01c8063a71604e81161005b578063a71604e814610162578063d1beaffa14610177578063e00e05871461018a578063f53ca6711461019d57600080fd5b80632448cd0c1461008d578063411f925c146100bd5780636ede6238146100e45780636f2ddd931461013b575b600080fd5b6100a061009b36600461109b565b6101b0565b6040516001600160a01b0390911681526020015b60405180910390f35b6100a07f000000000000000000000000000000000000000000000000000000000000000081565b61011b6100f23660046110dc565b6001602081905260009182526040909120805491015461ffff82169162010000900460ff169083565b6040805161ffff90941684529115156020840152908201526060016100b4565b6100a07f000000000000000000000000000000000000000000000000000000000000000081565b610175610170366004611143565b6101d8565b005b610175610185366004611196565b610309565b610175610198366004611247565b6103a8565b6101756101ab36600461135c565b610581565b6000828152602082815260408083208352908290529020546001600160a01b03165b92915050565b6000819003610213576040517f95b66fe900000000000000000000000000000000000000000000000000000000815260040160405180910390fd5b6001600160a01b03831660009081526001602052604090205462010000900460ff1661024b5761024683333085856106b3565b6102c7565b6040517f8a3a4c7c0000000000000000000000000000000000000000000000000000000081526001600160a01b03841690638a3a4c7c9061029490339086908690600401611415565b600060405180830381600087803b1580156102ae57600080fd5b505af11580156102c2573d6000803e3d6000fd5b505050505b6103048383838080602002602001604051908101604052809392919081815260200183836020028082843760009201919091525061077c92505050565b505050565b336001600160a01b037f0000000000000000000000000000000000000000000000000000000000000000161461036b576040517f164cbd7d00000000000000000000000000000000000000000000000000000000815260040160405180910390fd5b60008061037887876108b2565b9150915080156103935761038e82868686610a49565b61039f565b61039f82868686610a5c565b50505050505050565b60008b8152600260205260409020805460ff16156103c65750610574565b7f00000000000000000000000000000000000000000000000000000000000000006001600160a01b0316630a8a0c7e6104598e8e8e8e8e8e8e60405160200161041597969594939291906114a0565b60408051601f198184030181526020601f8b0181900481028401810190925289835291908a908a9081908401838280828437600092019190915250610add92505050565b85856040518463ffffffff1660e01b815260040161047993929190611524565b60006040518083038186803b15801561049157600080fd5b505afa1580156104a5573d6000803e3d6000fd5b50505060008d8152602081905260409020546001600160a01b03169050801561053557604051630224360360e21b81526001600160a01b03821690630890d80c906104fe908f908f908f908f908f908f90600401611550565b600060405180830381600087803b15801561051857600080fd5b505af115801561052c573d6000803e3d6000fd5b50505050610571565b815460ff191660019081178355820161054f8c8e83611630565b506002820161055f8a8c83611630565b506003820161056f888a83611630565b505b50505b5050505050505050505050565b6000888152602081905260409020546001600160a01b0316806105a357600080fd5b7f00000000000000000000000000000000000000000000000000000000000000006001600160a01b0316630a8a0c7e6105ec8b8b8b8b60405160200161041594939291906116f0565b85856040518463ffffffff1660e01b815260040161060c93929190611524565b60006040518083038186803b15801561062457600080fd5b505afa158015610638573d6000803e3d6000fd5b50506040517f3adf80b40000000000000000000000000000000000000000000000000000000081526001600160a01b0384169250633adf80b49150610685908b908b908b9060040161174e565b600060405180830381600087803b15801561069f57600080fd5b505af1158015610571573d6000803e3d6000fd5b60005b8181101561077457856001600160a01b03166323b872dd86868686868181106106e1576106e1611768565b6040517fffffffff0000000000000000000000000000000000000000000000000000000060e088901b1681526001600160a01b03958616600482015294909316602485015250602090910201356044820152606401600060405180830381600087803b15801561075057600080fd5b505af1158015610764573d6000803e3d6000fd5b5050600190920191506106b69050565b505050505050565b6001600160a01b0382166000908152600160205260408120805482919062010000900460ff166107da577f000000000000000000000000000000000000000000000000000000000000000092506001600160a01b03851691506107ec565b8054600182015461ffff909116935091505b6040517fe83fd4110000000000000000000000000000000000000000000000000000000081526001600160a01b037f0000000000000000000000000000000000000000000000000000000000000000169063e83fd411906108799033907f000000000000000000000000000000000000000000000000000000000000000090889088908b9060040161177e565b600060405180830381600087803b15801561089357600080fd5b505af11580156108a7573d6000803e3d6000fd5b505050505050505050565b6000807f000000000000000000000000000000000000000000000000000000000000000061ffff168461ffff16036108ef57508190506001610a42565b60008481526020848152604080832080845291839052909120546001600160a01b0316801561092557925060009150610a429050565b61094e7f0000000000000000000000000000000000000000000000000000000000000000610b26565b60008381526020818152604080832080546001600160a01b0386167fffffffffffffffffffffffff00000000000000000000000000000000000000009091168117909155815160608101835261ffff808d16825260018286018181528386018e815294885295819052939095209051815494511515620100000262ffffff19909516951694909417929092178355905191015590506109ed8186610b33565b604080516001600160a01b038316815261ffff881660208201529081018690527f4a5d13431938ce6a6ac4346b8066a52855a261cc4b57a83cffc41f961f9eb9519060600160405180910390a1925060009150505b9250929050565b610a568430858585610c52565b50505050565b6040517fa184e9a50000000000000000000000000000000000000000000000000000000081526001600160a01b0385169063a184e9a590610aa590869086908690600401611415565b600060405180830381600087803b158015610abf57600080fd5b505af1158015610ad3573d6000803e3d6000fd5b5050505050505050565b815160208301207f19457468657265756d205369676e6564204d6573736167653a0a3332000000006000908152601c91909152603c8120610b1e8184610d13565b949350505050565b60006101d2826000610d3d565b816001600160a01b031663e1c7392a6040518163ffffffff1660e01b8152600401600060405180830381600087803b158015610b6e57600080fd5b505af1158015610b82573d6000803e3d6000fd5b5050506000828152600260205260409020805490915060ff161561030457604051630224360360e21b81526001600160a01b03841690630890d80c90610bd990600185019060028601906003870190600401611875565b600060405180830381600087803b158015610bf357600080fd5b505af1158015610c07573d6000803e3d6000fd5b5050506000838152600260205260408120805460ff191681559150610c2f600183018261102e565b610c3d60028301600061102e565b610c4b60038301600061102e565b5050505050565b60005b8181101561077457856001600160a01b03166342842e0e8686868686818110610c8057610c80611768565b6040517fffffffff0000000000000000000000000000000000000000000000000000000060e088901b1681526001600160a01b03958616600482015294909316602485015250602090910201356044820152606401600060405180830381600087803b158015610cef57600080fd5b505af1158015610d03573d6000803e3d6000fd5b505060019092019150610c559050565b600080600080610d238686610e0a565b925092509250610d338282610e57565b5090949350505050565b600081471015610d87576040517fcf479181000000000000000000000000000000000000000000000000000000008152476004820152602481018390526044015b60405180910390fd5b763d602d80600a3d3981f3363d3d373d3d3d363d730000008360601b60e81c176000526e5af43d82803e903d91602b57fd5bf38360781b176020526037600983f090506001600160a01b0381166101d2576040517fb06ebf3d00000000000000000000000000000000000000000000000000000000815260040160405180910390fd5b60008060008351604103610e445760208401516040850151606086015160001a610e3688828585610f5f565b955095509550505050610e50565b50508151600091506002905b9250925092565b6000826003811115610e6b57610e6b6118ae565b03610e74575050565b6001826003811115610e8857610e886118ae565b03610ebf576040517ff645eedf00000000000000000000000000000000000000000000000000000000815260040160405180910390fd5b6002826003811115610ed357610ed36118ae565b03610f0d576040517ffce698f700000000000000000000000000000000000000000000000000000000815260048101829052602401610d7e565b6003826003811115610f2157610f216118ae565b03610f5b576040517fd78bce0c00000000000000000000000000000000000000000000000000000000815260048101829052602401610d7e565b5050565b600080807f7fffffffffffffffffffffffffffffff5d576e7357a4501ddfe92f46681b20a0841115610f9a5750600091506003905082611024565b604080516000808252602082018084528a905260ff891692820192909252606081018790526080810186905260019060a0016020604051602081039080840390855afa158015610fee573d6000803e3d6000fd5b5050604051601f1901519150506001600160a01b03811661101a57506000925060019150829050611024565b9250600091508190505b9450945094915050565b50805461103a906115af565b6000825580601f1061104a575050565b601f016020900490600052602060002090810190611068919061106b565b50565b5b80821115611080576000815560010161106c565b5090565b803561ffff8116811461109657600080fd5b919050565b600080604083850312156110ae57600080fd5b6110b783611084565b946020939093013593505050565b80356001600160a01b038116811461109657600080fd5b6000602082840312156110ee57600080fd5b6110f7826110c5565b9392505050565b60008083601f84011261111057600080fd5b50813567ffffffffffffffff81111561112857600080fd5b6020830191508360208260051b8501011115610a4257600080fd5b60008060006040848603121561115857600080fd5b611161846110c5565b9250602084013567ffffffffffffffff81111561117d57600080fd5b611189868287016110fe565b9497909650939450505050565b6000806000806000608086880312156111ae57600080fd5b6111b786611084565b9450602086013593506111cc604087016110c5565b9250606086013567ffffffffffffffff8111156111e857600080fd5b6111f4888289016110fe565b969995985093965092949392505050565b60008083601f84011261121757600080fd5b50813567ffffffffffffffff81111561122f57600080fd5b602083019150836020828501011115610a4257600080fd5b600080600080600080600080600080600060c08c8e03121561126857600080fd5b8b359a5060208c013567ffffffffffffffff81111561128657600080fd5b6112928e828f01611205565b909b5099505060408c013567ffffffffffffffff8111156112b257600080fd5b6112be8e828f01611205565b90995097505060608c013567ffffffffffffffff8111156112de57600080fd5b6112ea8e828f01611205565b90975095505060808c013567ffffffffffffffff81111561130a57600080fd5b6113168e828f01611205565b90955093505060a08c013567ffffffffffffffff81111561133657600080fd5b6113428e828f01611205565b915080935050809150509295989b509295989b9093969950565b60008060008060008060008060a0898b03121561137857600080fd5b8835975060208901359650604089013567ffffffffffffffff81111561139d57600080fd5b6113a98b828c01611205565b909750955050606089013567ffffffffffffffff8111156113c957600080fd5b6113d58b828c01611205565b909550935050608089013567ffffffffffffffff8111156113f557600080fd5b6114018b828c01611205565b999c989b5096995094979396929594505050565b6001600160a01b03841681526040602082015281604082015260007f07ffffffffffffffffffffffffffffffffffffffffffffffffffffffffffffff83111561145d57600080fd5b8260051b8085606085013791909101606001949350505050565b81835281816020850137506000828201602090810191909152601f909101601f19169091010190565b60a08152601360a08201527f4572647374616c6c4e46544d657461646174610000000000000000000000000060c082015287602082015260e0604082015260006114ee60e08301888a611477565b8281036060840152611501818789611477565b90508281036080840152611516818587611477565b9a9950505050505050505050565b6001600160a01b0384168152604060208201526000611547604083018486611477565b95945050505050565b60608152600061156460608301888a611477565b8281036020840152611577818789611477565b9050828103604084015261158c818587611477565b9998505050505050505050565b634e487b7160e01b600052604160045260246000fd5b600181811c908216806115c357607f821691505b6020821081036115e357634e487b7160e01b600052602260045260246000fd5b50919050565b601f82111561030457806000526020600020601f840160051c810160208510156116105750805b601f840160051c820191505b81811015610c4b576000815560010161161c565b67ffffffffffffffff83111561164857611648611599565b61165c8361165683546115af565b836115e9565b6000601f84116001811461169057600085156116785750838201355b600019600387901b1c1916600186901b178355610c4b565b600083815260209020601f19861690835b828110156116c157868501358255602094850194600190920191016116a1565b50868210156116de5760001960f88860031b161c19848701351681555b505060018560011b0183555050505050565b60808152601660808201527f4572647374616c6c4e46544d657461646174615552490000000000000000000060a082015284602082015283604082015260c06060820152600061174460c083018486611477565b9695505050505050565b838152604060208201526000611547604083018486611477565b634e487b7160e01b600052603260045260246000fd5b600060a082016001600160a01b038816835260ff8716602084015261ffff8616604084015284606084015260a0608084015280845180835260c08501915060208601925060005b818110156117e35783518352602093840193909201916001016117c5565b50909998505050505050505050565b600081546117ff816115af565b80855260018216801561181957600181146118355761186c565b60ff1983166020870152602082151560051b870101935061186c565b84600052602060002060005b838110156118635781546020828a010152600182019150602081019050611841565b87016020019450505b50505092915050565b60608152600061188860608301866117f2565b828103602084015261189a81866117f2565b9050828103604084015261174481856117f2565b634e487b7160e01b600052602160045260246000fdfea2646970667358221220a21fd805a9483a178cbb4e7c5fd66e2170d122a09012504bad6191b8bcb3d18764736f6c634300081b0033",
  "linkReferences": {},
  "deployedLinkReferences": {}
}