{
  "_format": "hh-sol-artifact-1",
  "contractName": "ERC721Holder",
  "sourceName": "contracts/ERC721Holder.sol",
  "abi": [
    {
      "inputs": [
        {
          "internalType": "address",
          "name": "erdstall",
          "type": "address"
        },
        {
          "internalType": "address",
          "name": "template",
          "type": "address"
        },
        {
          "internalType": "uint16",
          "name": "_chainID",
          "type": "uint16"
        }
      ],
      "stateMutability": "nonpayable",
      "type": "constructor"
    },
    {
      "inputs": [],
      "name": "CallerIsNotErdstall",
      "type": "error"
    },
    {
      "inputs": [],
      "name": "EmptyDeposit",
      "type": "error"
    },
    {
      "anonymous": false,
      "inputs": [
        {
          "indexed": false,
          "internalType": "address",
          "name": "addr",
          "type": "address"
        },
        {
          "indexed": false,
          "internalType": "uint16",
          "name": "origin",
          "type": "uint16"
        },
        {
          "indexed": false,
          "internalType": "bytes32",
          "name": "localID",
          "type": "bytes32"
        }
      ],
      "name": "ForeignAssetContractDeployed",
      "type": "event"
    },
    {
      "inputs": [
        {
          "internalType": "uint16",
          "name": "origin_",
          "type": "uint16"
        },
        {
          "internalType": "bytes32",
          "name": "localID",
          "type": "bytes32"
        }
      ],
      "name": "deployedToken",
      "outputs": [
        {
          "internalType": "address",
          "name": "",
          "type": "address"
        }
      ],
      "stateMutability": "view",
      "type": "function"
    },
    {
      "inputs": [
        {
          "internalType": "address",
          "name": "token",
          "type": "address"
        },
        {
          "internalType": "uint256[]",
          "name": "ids",
          "type": "uint256[]"
        }
      ],
      "name": "deposit",
      "outputs": [],
      "stateMutability": "nonpayable",
      "type": "function"
    },
    {
      "inputs": [],
      "name": "erdstall",
      "outputs": [
        {
          "internalType": "contract Erdstall",
          "name": "",
          "type": "address"
        }
      ],
      "stateMutability": "view",
      "type": "function"
    },
    {
      "inputs": [
        {
          "internalType": "address",
          "name": "",
          "type": "address"
        }
      ],
      "name": "foreignAssets",
      "outputs": [
        {
          "internalType": "bytes32",
          "name": "localID",
          "type": "bytes32"
        },
        {
          "internalType": "uint16",
          "name": "origin",
          "type": "uint16"
        }
      ],
      "stateMutability": "view",
      "type": "function"
    },
    {
      "inputs": [
        {
          "internalType": "uint16",
          "name": "origin",
          "type": "uint16"
        },
        {
          "internalType": "bytes32",
          "name": "localID",
          "type": "bytes32"
        },
        {
          "internalType": "address",
          "name": "recipient",
          "type": "address"
        },
        {
          "internalType": "uint256[]",
          "name": "value",
          "type": "uint256[]"
        }
      ],
      "name": "transfer",
      "outputs": [],
      "stateMutability": "nonpayable",
      "type": "function"
    }
  ],
  "bytecode": "0x61010060405234801561001157600080fd5b50604051610eb8380380610eb883398101604081905261003091610085565b606092831b6001600160601b0319908116608052600160f81b60a0529190921b1660c05260f01b6001600160f01b03191660e0526100d3565b80516001600160a01b038116811461008057600080fd5b919050565b60008060006060848603121561009a57600080fd5b6100a384610069565b92506100b160208501610069565b9150604084015161ffff811681146100c857600080fd5b809150509250925092565b60805160601c60a05160f81c60c05160601c60e05160f01c610d8c61012c6000396000818161046b0152610594015260006106150152600061052801526000818160da015281816102bd01526104f90152610d8c6000f3fe608060405234801561001057600080fd5b50600436106100675760003560e01c80636ede6238116100505780636ede6238146100fc578063a71604e81461013f578063d1beaffa1461015457600080fd5b80632448cd0c1461006c578063411f925c146100d5575b600080fd5b6100ab61007a366004610b3c565b60009182526020908152604080832083529082905290205473ffffffffffffffffffffffffffffffffffffffff1690565b60405173ffffffffffffffffffffffffffffffffffffffff90911681526020015b60405180910390f35b6100ab7f000000000000000000000000000000000000000000000000000000000000000081565b61012761010a366004610ac7565b6001602081905260009182526040909120805491015461ffff1682565b6040805192835261ffff9091166020830152016100cc565b61015261014d366004610ae9565b610167565b005b610152610162366004610b66565b6102a5565b8061019e576040517f95b66fe900000000000000000000000000000000000000000000000000000000815260040160405180910390fd5b73ffffffffffffffffffffffffffffffffffffffff83166000908152600160205260409020546101da576101d58333308585610351565b610263565b6040517f8a3a4c7c00000000000000000000000000000000000000000000000000000000815273ffffffffffffffffffffffffffffffffffffffff841690638a3a4c7c9061023090339086908690600401610bd5565b600060405180830381600087803b15801561024a57600080fd5b505af115801561025e573d6000803e3d6000fd5b505050505b6102a08383838080602002602001604051908101604052809392919081815260200183836020028082843760009201919091525061043b92505050565b505050565b3373ffffffffffffffffffffffffffffffffffffffff7f00000000000000000000000000000000000000000000000000000000000000001614610314576040517f164cbd7d00000000000000000000000000000000000000000000000000000000815260040160405180910390fd5b600080610321878761058f565b91509150801561033c5761033782868686610757565b610348565b6103488286868661076a565b50505050505050565b60005b81811015610433578573ffffffffffffffffffffffffffffffffffffffff166323b872dd868686868681811061038c5761038c610d27565b6040517fffffffff0000000000000000000000000000000000000000000000000000000060e088901b16815273ffffffffffffffffffffffffffffffffffffffff958616600482015294909316602485015250602090910201356044820152606401600060405180830381600087803b15801561040857600080fd5b505af115801561041c573d6000803e3d6000fd5b50505050808061042b90610cc7565b915050610354565b505050505050565b73ffffffffffffffffffffffffffffffffffffffff8216600090815260016020526040812080548291906104aa577f0000000000000000000000000000000000000000000000000000000000000000925073ffffffffffffffffffffffffffffffffffffffff851691506104bc565b6001810154815461ffff909116935091505b6040517fe83fd41100000000000000000000000000000000000000000000000000000000815273ffffffffffffffffffffffffffffffffffffffff7f0000000000000000000000000000000000000000000000000000000000000000169063e83fd411906105569033907f000000000000000000000000000000000000000000000000000000000000000090889088908b90600401610c47565b600060405180830381600087803b15801561057057600080fd5b505af1158015610584573d6000803e3d6000fd5b505050505050505050565b6000807f000000000000000000000000000000000000000000000000000000000000000061ffff168461ffff1614156105cd57508190506001610750565b600084815260208481526040808320808452918390529091205473ffffffffffffffffffffffffffffffffffffffff168015610610579250600091506107509050565b6106397f00000000000000000000000000000000000000000000000000000000000000006107f8565b60008381526020818152604080832080547fffffffffffffffffffffffff00000000000000000000000000000000000000001673ffffffffffffffffffffffffffffffffffffffff8616908117909155815180830183528a815261ffff8c81168286019081529286526001948590529290942093518455519290910180547fffffffffffffffffffffffffffffffffffffffffffffffffffffffffffff0000169290911691909117905590506106ee816108c4565b6040805173ffffffffffffffffffffffffffffffffffffffff8316815261ffff881660208201529081018690527f4a5d13431938ce6a6ac4346b8066a52855a261cc4b57a83cffc41f961f9eb9519060600160405180910390a1925060009150505b9250929050565b610764843085858561096a565b50505050565b6040517fa184e9a500000000000000000000000000000000000000000000000000000000815273ffffffffffffffffffffffffffffffffffffffff85169063a184e9a5906107c090869086908690600401610bd5565b600060405180830381600087803b1580156107da57600080fd5b505af11580156107ee573d6000803e3d6000fd5b5050505050505050565b6000763d602d80600a3d3981f3363d3d373d3d3d363d730000008260601b60e81c176000526e5af43d82803e903d91602b57fd5bf38260781b17602052603760096000f0905073ffffffffffffffffffffffffffffffffffffffff81166108bf576040517f08c379a000000000000000000000000000000000000000000000000000000000815260206004820152601660248201527f455243313136373a20637265617465206661696c656400000000000000000000604482015260640160405180910390fd5b919050565b6040517f41e461a000000000000000000000000000000000000000000000000000000000815260606004820152600060648201819052608060248301526084820181905260a0604483015260a482015273ffffffffffffffffffffffffffffffffffffffff8216906341e461a09060c401600060405180830381600087803b15801561094f57600080fd5b505af1158015610963573d6000803e3d6000fd5b5050505050565b60005b81811015610433578573ffffffffffffffffffffffffffffffffffffffff166342842e0e86868686868181106109a5576109a5610d27565b6040517fffffffff0000000000000000000000000000000000000000000000000000000060e088901b16815273ffffffffffffffffffffffffffffffffffffffff958616600482015294909316602485015250602090910201356044820152606401600060405180830381600087803b158015610a2157600080fd5b505af1158015610a35573d6000803e3d6000fd5b505050508080610a4490610cc7565b91505061096d565b803573ffffffffffffffffffffffffffffffffffffffff811681146108bf57600080fd5b60008083601f840112610a8257600080fd5b50813567ffffffffffffffff811115610a9a57600080fd5b6020830191508360208260051b850101111561075057600080fd5b803561ffff811681146108bf57600080fd5b600060208284031215610ad957600080fd5b610ae282610a4c565b9392505050565b600080600060408486031215610afe57600080fd5b610b0784610a4c565b9250602084013567ffffffffffffffff811115610b2357600080fd5b610b2f86828701610a70565b9497909650939450505050565b60008060408385031215610b4f57600080fd5b610b5883610ab5565b946020939093013593505050565b600080600080600060808688031215610b7e57600080fd5b610b8786610ab5565b945060208601359350610b9c60408701610a4c565b9250606086013567ffffffffffffffff811115610bb857600080fd5b610bc488828901610a70565b969995985093965092949392505050565b73ffffffffffffffffffffffffffffffffffffffff841681526040602082015281604082015260007f07ffffffffffffffffffffffffffffffffffffffffffffffffffffffffffffff831115610c2a57600080fd5b8260051b8085606085013760009201606001918252509392505050565b600060a0820173ffffffffffffffffffffffffffffffffffffffff88168352602060ff88168185015261ffff8716604085015285606085015260a0608085015281855180845260c086019150828701935060005b81811015610cb757845183529383019391830191600101610c9b565b50909a9950505050505050505050565b60007fffffffffffffffffffffffffffffffffffffffffffffffffffffffffffffffff821415610d20577f4e487b7100000000000000000000000000000000000000000000000000000000600052601160045260246000fd5b5060010190565b7f4e487b7100000000000000000000000000000000000000000000000000000000600052603260045260246000fdfea26469706673582212206fb4f0d3b67ddc55c971855d70f709ec43bfe124cff66e1aff30c6d1fc6cdef864736f6c63430008060033",
  "linkReferences": {},
  "deployedLinkReferences": {}
}