{
  "_format": "hh-sol-artifact-1",
  "contractName": "Erdstall",
  "sourceName": "contracts/Erdstall.sol",
  "abi": [
    {
      "inputs": [
        {
          "internalType": "address",
          "name": "_tee",
          "type": "address"
        },
        {
          "internalType": "uint64",
          "name": "genesis",
          "type": "uint64"
        },
        {
          "internalType": "uint64",
          "name": "_epochDuration",
          "type": "uint64"
        },
        {
          "internalType": "uint16",
          "name": "_chainID",
          "type": "uint16"
        },
        {
          "internalType": "uint64",
          "name": "_registerDuration",
          "type": "uint64"
        }
      ],
      "stateMutability": "nonpayable",
      "type": "constructor"
    },
    {
      "inputs": [],
      "name": "AlreadyHalted",
      "type": "error"
    },
    {
      "inputs": [],
      "name": "AlreadyWithdrawn",
      "type": "error"
    },
    {
      "inputs": [],
      "name": "CallerHasAlreadyChallengedThisEpoch",
      "type": "error"
    },
    {
      "inputs": [],
      "name": "CallerIsNotTokenHolder",
      "type": "error"
    },
    {
      "inputs": [],
      "name": "ECDSAInvalidSignature",
      "type": "error"
    },
    {
      "inputs": [
        {
          "internalType": "uint256",
          "name": "length",
          "type": "uint256"
        }
      ],
      "name": "ECDSAInvalidSignatureLength",
      "type": "error"
    },
    {
      "inputs": [
        {
          "internalType": "bytes32",
          "name": "s",
          "type": "bytes32"
        }
      ],
      "name": "ECDSAInvalidSignatureS",
      "type": "error"
    },
    {
      "inputs": [],
      "name": "EmptyBalanceProof",
      "type": "error"
    },
    {
      "inputs": [],
      "name": "EpochWasReverted",
      "type": "error"
    },
    {
      "inputs": [],
      "name": "InvalidSignature",
      "type": "error"
    },
    {
      "inputs": [],
      "name": "IsRecovering",
      "type": "error"
    },
    {
      "inputs": [],
      "name": "NoChallengeRegistered",
      "type": "error"
    },
    {
      "inputs": [],
      "name": "NoEnclave",
      "type": "error"
    },
    {
      "inputs": [],
      "name": "NoPendingRegistration",
      "type": "error"
    },
    {
      "inputs": [],
      "name": "NotActive",
      "type": "error"
    },
    {
      "inputs": [],
      "name": "NotHalted",
      "type": "error"
    },
    {
      "inputs": [],
      "name": "NotImplemented",
      "type": "error"
    },
    {
      "inputs": [],
      "name": "OldEnclavesAlreadyContainsThisEpoch",
      "type": "error"
    },
    {
      "inputs": [
        {
          "internalType": "address",
          "name": "owner",
          "type": "address"
        }
      ],
      "name": "OwnableInvalidOwner",
      "type": "error"
    },
    {
      "inputs": [
        {
          "internalType": "address",
          "name": "account",
          "type": "address"
        }
      ],
      "name": "OwnableUnauthorizedAccount",
      "type": "error"
    },
    {
      "inputs": [],
      "name": "PreGenesis",
      "type": "error"
    },
    {
      "inputs": [],
      "name": "RegisteredTokenTypeMismatch",
      "type": "error"
    },
    {
      "inputs": [],
      "name": "TokenTypeNotRegistered",
      "type": "error"
    },
    {
      "inputs": [],
      "name": "TooEarly",
      "type": "error"
    },
    {
      "inputs": [],
      "name": "UnresolvedChallengeInEarlierEpoch",
      "type": "error"
    },
    {
      "inputs": [],
      "name": "WrongBalanceChunk",
      "type": "error"
    },
    {
      "inputs": [],
      "name": "WrongChain",
      "type": "error"
    },
    {
      "inputs": [],
      "name": "WrongEpoch",
      "type": "error"
    },
    {
      "inputs": [],
      "name": "WrongSender",
      "type": "error"
    },
    {
      "anonymous": false,
      "inputs": [
        {
          "indexed": true,
          "internalType": "uint64",
          "name": "epoch",
          "type": "uint64"
        },
        {
          "indexed": true,
          "internalType": "address",
          "name": "account",
          "type": "address"
        },
        {
          "indexed": false,
          "internalType": "uint32",
          "name": "id",
          "type": "uint32"
        },
        {
          "indexed": false,
          "internalType": "uint32",
          "name": "count",
          "type": "uint32"
        },
        {
          "components": [
            {
              "components": [
                {
                  "internalType": "uint16",
                  "name": "origin",
                  "type": "uint16"
                },
                {
                  "internalType": "uint8",
                  "name": "assetType",
                  "type": "uint8"
                },
                {
                  "internalType": "bytes32",
                  "name": "localID",
                  "type": "bytes32"
                }
              ],
              "internalType": "struct Erdstall.Asset",
              "name": "asset",
              "type": "tuple"
            },
            {
              "internalType": "uint256[]",
              "name": "value",
              "type": "uint256[]"
            }
          ],
          "indexed": false,
          "internalType": "struct Erdstall.TokenValue[]",
          "name": "tokens",
          "type": "tuple[]"
        },
        {
          "indexed": false,
          "internalType": "bool",
          "name": "exit",
          "type": "bool"
        },
        {
          "indexed": false,
          "internalType": "bytes",
          "name": "sig",
          "type": "bytes"
        }
      ],
      "name": "ChallengeResponded",
      "type": "event"
    },
    {
      "anonymous": false,
      "inputs": [
        {
          "indexed": true,
          "internalType": "uint64",
          "name": "epoch",
          "type": "uint64"
        },
        {
          "indexed": true,
          "internalType": "address",
          "name": "account",
          "type": "address"
        }
      ],
      "name": "Challenged",
      "type": "event"
    },
    {
      "anonymous": false,
      "inputs": [
        {
          "indexed": true,
          "internalType": "uint64",
          "name": "epoch",
          "type": "uint64"
        },
        {
          "indexed": true,
          "internalType": "address",
          "name": "account",
          "type": "address"
        },
        {
          "components": [
            {
              "components": [
                {
                  "internalType": "uint16",
                  "name": "origin",
                  "type": "uint16"
                },
                {
                  "internalType": "uint8",
                  "name": "assetType",
                  "type": "uint8"
                },
                {
                  "internalType": "bytes32",
                  "name": "localID",
                  "type": "bytes32"
                }
              ],
              "internalType": "struct Erdstall.Asset",
              "name": "asset",
              "type": "tuple"
            },
            {
              "internalType": "uint256[]",
              "name": "value",
              "type": "uint256[]"
            }
          ],
          "indexed": false,
          "internalType": "struct Erdstall.TokenValue",
          "name": "value",
          "type": "tuple"
        }
      ],
      "name": "Deposited",
      "type": "event"
    },
    {
      "anonymous": false,
      "inputs": [
        {
          "indexed": false,
          "internalType": "bytes32",
          "name": "localID",
          "type": "bytes32"
        },
        {
          "indexed": false,
          "internalType": "string",
          "name": "name",
          "type": "string"
        },
        {
          "indexed": false,
          "internalType": "string",
          "name": "symbol",
          "type": "string"
        },
        {
          "indexed": false,
          "internalType": "uint8",
          "name": "decimals",
          "type": "uint8"
        }
      ],
      "name": "FirstTimeFungible",
      "type": "event"
    },
    {
      "anonymous": false,
      "inputs": [
        {
          "indexed": false,
          "internalType": "bytes32",
          "name": "localID",
          "type": "bytes32"
        },
        {
          "indexed": false,
          "internalType": "string",
          "name": "name",
          "type": "string"
        },
        {
          "indexed": false,
          "internalType": "string",
          "name": "symbol",
          "type": "string"
        },
        {
          "indexed": false,
          "internalType": "string",
          "name": "sampleURI",
          "type": "string"
        }
      ],
      "name": "FirstTimeNFT",
      "type": "event"
    },
    {
      "anonymous": false,
      "inputs": [
        {
          "indexed": true,
          "internalType": "uint64",
          "name": "epoch",
          "type": "uint64"
        }
      ],
      "name": "Frozen",
      "type": "event"
    },
    {
      "anonymous": false,
      "inputs": [
        {
          "indexed": true,
          "internalType": "address",
          "name": "previousOwner",
          "type": "address"
        },
        {
          "indexed": true,
          "internalType": "address",
          "name": "newOwner",
          "type": "address"
        }
      ],
      "name": "OwnershipTransferred",
      "type": "event"
    },
    {
      "anonymous": false,
      "inputs": [
        {
          "indexed": false,
          "internalType": "enum Erdstall.State",
          "name": "state",
          "type": "uint8"
        }
      ],
      "name": "StateChange",
      "type": "event"
    },
    {
      "anonymous": false,
      "inputs": [
        {
          "indexed": false,
          "internalType": "bytes32",
          "name": "lifetime_uid",
          "type": "bytes32"
        },
        {
          "indexed": false,
          "internalType": "uint64",
          "name": "epoch_to_restore_from",
          "type": "uint64"
        }
      ],
      "name": "TEELifetime",
      "type": "event"
    },
    {
      "anonymous": false,
      "inputs": [
        {
          "indexed": false,
          "internalType": "uint8",
          "name": "assetType",
          "type": "uint8"
        },
        {
          "indexed": false,
          "internalType": "address",
          "name": "tokenHolder",
          "type": "address"
        }
      ],
      "name": "TokenTypeRegistered",
      "type": "event"
    },
    {
      "anonymous": false,
      "inputs": [
        {
          "indexed": true,
          "internalType": "uint64",
          "name": "epoch",
          "type": "uint64"
        },
        {
          "indexed": true,
          "internalType": "address",
          "name": "account",
          "type": "address"
        },
        {
          "components": [
            {
              "components": [
                {
                  "internalType": "uint16",
                  "name": "origin",
                  "type": "uint16"
                },
                {
                  "internalType": "uint8",
                  "name": "assetType",
                  "type": "uint8"
                },
                {
                  "internalType": "bytes32",
                  "name": "localID",
                  "type": "bytes32"
                }
              ],
              "internalType": "struct Erdstall.Asset",
              "name": "asset",
              "type": "tuple"
            },
            {
              "internalType": "uint256[]",
              "name": "value",
              "type": "uint256[]"
            }
          ],
          "indexed": true,
          "internalType": "struct Erdstall.TokenValue",
          "name": "token",
          "type": "tuple"
        },
        {
          "indexed": false,
          "internalType": "bytes",
          "name": "error",
          "type": "bytes"
        }
      ],
      "name": "WithdrawalException",
      "type": "event"
    },
    {
      "anonymous": false,
      "inputs": [
        {
          "indexed": true,
          "internalType": "uint64",
          "name": "epoch",
          "type": "uint64"
        },
        {
          "indexed": true,
          "internalType": "address",
          "name": "account",
          "type": "address"
        },
        {
          "components": [
            {
              "components": [
                {
                  "internalType": "uint16",
                  "name": "origin",
                  "type": "uint16"
                },
                {
                  "internalType": "uint8",
                  "name": "assetType",
                  "type": "uint8"
                },
                {
                  "internalType": "bytes32",
                  "name": "localID",
                  "type": "bytes32"
                }
              ],
              "internalType": "struct Erdstall.Asset",
              "name": "asset",
              "type": "tuple"
            },
            {
              "internalType": "uint256[]",
              "name": "value",
              "type": "uint256[]"
            }
          ],
          "indexed": false,
          "internalType": "struct Erdstall.TokenValue[]",
          "name": "tokens",
          "type": "tuple[]"
        }
      ],
      "name": "Withdrawn",
      "type": "event"
    },
    {
      "anonymous": false,
      "inputs": [
        {
          "indexed": true,
          "internalType": "uint64",
          "name": "epoch",
          "type": "uint64"
        },
        {
          "indexed": true,
          "internalType": "address",
          "name": "account",
          "type": "address"
        }
      ],
      "name": "ZeroResponded",
      "type": "event"
    },
    {
      "inputs": [],
      "name": "abort",
      "outputs": [],
      "stateMutability": "nonpayable",
      "type": "function"
    },
    {
      "inputs": [
        {
          "internalType": "bytes32",
          "name": "lifetime_uid",
          "type": "bytes32"
        }
      ],
      "name": "announceTEELifetime",
      "outputs": [],
      "stateMutability": "nonpayable",
      "type": "function"
    },
    {
      "inputs": [],
      "name": "chainID",
      "outputs": [
        {
          "internalType": "uint16",
          "name": "",
          "type": "uint16"
        }
      ],
      "stateMutability": "view",
      "type": "function"
    },
    {
      "inputs": [],
      "name": "challenge",
      "outputs": [],
      "stateMutability": "nonpayable",
      "type": "function"
    },
    {
      "inputs": [],
      "name": "challengesLen",
      "outputs": [
        {
          "internalType": "uint8",
          "name": "",
          "type": "uint8"
        }
      ],
      "stateMutability": "view",
      "type": "function"
    },
    {
      "inputs": [],
      "name": "challengesStart",
      "outputs": [
        {
          "internalType": "uint8",
          "name": "",
          "type": "uint8"
        }
      ],
      "stateMutability": "view",
      "type": "function"
    },
    {
      "inputs": [],
      "name": "currentEnclave",
      "outputs": [
        {
          "internalType": "address",
          "name": "",
          "type": "address"
        }
      ],
      "stateMutability": "view",
      "type": "function"
    },
    {
      "inputs": [],
      "name": "currentEpoch",
      "outputs": [
        {
          "internalType": "uint64",
          "name": "",
          "type": "uint64"
        }
      ],
      "stateMutability": "view",
      "type": "function"
    },
    {
      "inputs": [],
      "name": "deployBlockNum",
      "outputs": [
        {
          "internalType": "uint64",
          "name": "",
          "type": "uint64"
        }
      ],
      "stateMutability": "view",
      "type": "function"
    },
    {
      "inputs": [
        {
          "internalType": "address",
          "name": "depositor",
          "type": "address"
        },
        {
          "internalType": "uint8",
          "name": "assetType",
          "type": "uint8"
        },
        {
          "internalType": "uint16",
          "name": "origin",
          "type": "uint16"
        },
        {
          "internalType": "bytes32",
          "name": "token",
          "type": "bytes32"
        },
        {
          "internalType": "uint256[]",
          "name": "value",
          "type": "uint256[]"
        }
      ],
      "name": "deposit",
      "outputs": [],
      "stateMutability": "nonpayable",
      "type": "function"
    },
    {
      "inputs": [
        {
          "internalType": "uint64",
          "name": "",
          "type": "uint64"
        },
        {
          "internalType": "address",
          "name": "",
          "type": "address"
        },
        {
          "internalType": "uint256",
          "name": "",
          "type": "uint256"
        }
      ],
      "name": "deposits",
      "outputs": [
        {
          "components": [
            {
              "internalType": "uint16",
              "name": "origin",
              "type": "uint16"
            },
            {
              "internalType": "uint8",
              "name": "assetType",
              "type": "uint8"
            },
            {
              "internalType": "bytes32",
              "name": "localID",
              "type": "bytes32"
            }
          ],
          "internalType": "struct Erdstall.Asset",
          "name": "asset",
          "type": "tuple"
        }
      ],
      "stateMutability": "view",
      "type": "function"
    },
    {
      "inputs": [
        {
          "components": [
            {
              "internalType": "uint64",
              "name": "epoch",
              "type": "uint64"
            },
            {
              "internalType": "uint32",
              "name": "id",
              "type": "uint32"
            },
            {
              "internalType": "uint32",
              "name": "count",
              "type": "uint32"
            },
            {
              "internalType": "uint16",
              "name": "chain",
              "type": "uint16"
            },
            {
              "internalType": "address",
              "name": "account",
              "type": "address"
            },
            {
              "internalType": "bool",
              "name": "exit",
              "type": "bool"
            },
            {
              "components": [
                {
                  "components": [
                    {
                      "internalType": "uint16",
                      "name": "origin",
                      "type": "uint16"
                    },
                    {
                      "internalType": "uint8",
                      "name": "assetType",
                      "type": "uint8"
                    },
                    {
                      "internalType": "bytes32",
                      "name": "localID",
                      "type": "bytes32"
                    }
                  ],
                  "internalType": "struct Erdstall.Asset",
                  "name": "asset",
                  "type": "tuple"
                },
                {
                  "internalType": "uint256[]",
                  "name": "value",
                  "type": "uint256[]"
                }
              ],
              "internalType": "struct Erdstall.TokenValue[]",
              "name": "tokens",
              "type": "tuple[]"
            }
          ],
          "internalType": "struct Erdstall.BalanceChunk",
          "name": "balance",
          "type": "tuple"
        }
      ],
      "name": "encodeBalanceProof",
      "outputs": [
        {
          "internalType": "bytes",
          "name": "",
          "type": "bytes"
        }
      ],
      "stateMutability": "pure",
      "type": "function"
    },
    {
      "inputs": [],
      "name": "epochDuration",
      "outputs": [
        {
          "internalType": "uint64",
          "name": "",
          "type": "uint64"
        }
      ],
      "stateMutability": "view",
      "type": "function"
    },
    {
      "inputs": [],
      "name": "hasPendingFreeze",
      "outputs": [
        {
          "internalType": "bool",
          "name": "",
          "type": "bool"
        }
      ],
      "stateMutability": "view",
      "type": "function"
    },
    {
      "inputs": [
        {
          "internalType": "address",
          "name": "",
          "type": "address"
        }
      ],
      "name": "holderTypes",
      "outputs": [
        {
          "internalType": "uint8",
          "name": "",
          "type": "uint8"
        }
      ],
      "stateMutability": "view",
      "type": "function"
    },
    {
      "inputs": [],
      "name": "lastOldEnclaveEpoch",
      "outputs": [
        {
          "internalType": "uint64",
          "name": "",
          "type": "uint64"
        }
      ],
      "stateMutability": "view",
      "type": "function"
    },
    {
      "inputs": [
        {
          "internalType": "address",
          "name": "",
          "type": "address"
        }
      ],
      "name": "metadataWasHandled",
      "outputs": [
        {
          "internalType": "bool",
          "name": "",
          "type": "bool"
        }
      ],
      "stateMutability": "view",
      "type": "function"
    },
    {
      "inputs": [
        {
          "internalType": "uint256",
          "name": "",
          "type": "uint256"
        }
      ],
      "name": "oldEnclaves",
      "outputs": [
        {
          "internalType": "uint64",
          "name": "last_epoch",
          "type": "uint64"
        },
        {
          "internalType": "address",
          "name": "enclave",
          "type": "address"
        }
      ],
      "stateMutability": "view",
      "type": "function"
    },
    {
      "inputs": [],
      "name": "owner",
      "outputs": [
        {
          "internalType": "address",
          "name": "",
          "type": "address"
        }
      ],
      "stateMutability": "view",
      "type": "function"
    },
    {
      "inputs": [],
      "name": "recover",
      "outputs": [],
      "stateMutability": "nonpayable",
      "type": "function"
    },
    {
      "inputs": [],
      "name": "recoveringEnclave",
      "outputs": [
        {
          "internalType": "address",
          "name": "",
          "type": "address"
        }
      ],
      "stateMutability": "view",
      "type": "function"
    },
    {
      "inputs": [],
      "name": "recoveringEndEpoch",
      "outputs": [
        {
          "internalType": "uint64",
          "name": "",
          "type": "uint64"
        }
      ],
      "stateMutability": "view",
      "type": "function"
    },
    {
      "inputs": [
        {
          "internalType": "address",
          "name": "enclave",
          "type": "address"
        }
      ],
      "name": "register",
      "outputs": [],
      "stateMutability": "nonpayable",
      "type": "function"
    },
    {
      "inputs": [],
      "name": "registerDuration",
      "outputs": [
        {
          "internalType": "uint64",
          "name": "",
          "type": "uint64"
        }
      ],
      "stateMutability": "view",
      "type": "function"
    },
    {
      "inputs": [
        {
          "internalType": "address",
          "name": "holder",
          "type": "address"
        },
        {
          "internalType": "uint8",
          "name": "localTokenType",
          "type": "uint8"
        }
      ],
      "name": "registerTokenType",
      "outputs": [],
      "stateMutability": "nonpayable",
      "type": "function"
    },
    {
      "inputs": [],
      "name": "registeredEnclave",
      "outputs": [
        {
          "internalType": "address",
          "name": "",
          "type": "address"
        }
      ],
      "stateMutability": "view",
      "type": "function"
    },
    {
      "inputs": [],
      "name": "registeredEndTime",
      "outputs": [
        {
          "internalType": "uint256",
          "name": "",
          "type": "uint256"
        }
      ],
      "stateMutability": "view",
      "type": "function"
    },
    {
      "inputs": [],
      "name": "renounceOwnership",
      "outputs": [],
      "stateMutability": "nonpayable",
      "type": "function"
    },
    {
      "inputs": [
        {
          "components": [
            {
              "internalType": "uint64",
              "name": "epoch",
              "type": "uint64"
            },
            {
              "internalType": "uint32",
              "name": "id",
              "type": "uint32"
            },
            {
              "internalType": "uint32",
              "name": "count",
              "type": "uint32"
            },
            {
              "internalType": "uint16",
              "name": "chain",
              "type": "uint16"
            },
            {
              "internalType": "address",
              "name": "account",
              "type": "address"
            },
            {
              "internalType": "bool",
              "name": "exit",
              "type": "bool"
            },
            {
              "components": [
                {
                  "components": [
                    {
                      "internalType": "uint16",
                      "name": "origin",
                      "type": "uint16"
                    },
                    {
                      "internalType": "uint8",
                      "name": "assetType",
                      "type": "uint8"
                    },
                    {
                      "internalType": "bytes32",
                      "name": "localID",
                      "type": "bytes32"
                    }
                  ],
                  "internalType": "struct Erdstall.Asset",
                  "name": "asset",
                  "type": "tuple"
                },
                {
                  "internalType": "uint256[]",
                  "name": "value",
                  "type": "uint256[]"
                }
              ],
              "internalType": "struct Erdstall.TokenValue[]",
              "name": "tokens",
              "type": "tuple[]"
            }
          ],
          "internalType": "struct Erdstall.BalanceChunk",
          "name": "balance",
          "type": "tuple"
        },
        {
          "internalType": "bytes",
          "name": "sig",
          "type": "bytes"
        }
      ],
      "name": "respondChallenge",
      "outputs": [],
      "stateMutability": "nonpayable",
      "type": "function"
    },
    {
      "inputs": [
        {
          "components": [
            {
              "internalType": "uint64",
              "name": "epoch",
              "type": "uint64"
            },
            {
              "internalType": "uint16",
              "name": "chain",
              "type": "uint16"
            },
            {
              "internalType": "address",
              "name": "account",
              "type": "address"
            }
          ],
          "internalType": "struct Erdstall.ZeroBalanceProof",
          "name": "proof",
          "type": "tuple"
        },
        {
          "internalType": "bytes",
          "name": "sig",
          "type": "bytes"
        }
      ],
      "name": "respondZero",
      "outputs": [],
      "stateMutability": "nonpayable",
      "type": "function"
    },
    {
      "inputs": [],
      "name": "startTime",
      "outputs": [
        {
          "internalType": "uint256",
          "name": "",
          "type": "uint256"
        }
      ],
      "stateMutability": "view",
      "type": "function"
    },
    {
      "inputs": [],
      "name": "state",
      "outputs": [
        {
          "internalType": "enum Erdstall.State",
          "name": "",
          "type": "uint8"
        }
      ],
      "stateMutability": "view",
      "type": "function"
    },
    {
      "inputs": [
        {
          "components": [
            {
              "internalType": "uint16",
              "name": "chain",
              "type": "uint16"
            },
            {
              "internalType": "uint64",
              "name": "block",
              "type": "uint64"
            },
            {
              "internalType": "uint64",
              "name": "epoch",
              "type": "uint64"
            }
          ],
          "internalType": "struct Erdstall.FreezeProof",
          "name": "proof",
          "type": "tuple"
        },
        {
          "internalType": "bytes",
          "name": "sig",
          "type": "bytes"
        },
        {
          "internalType": "bytes",
          "name": "certificate",
          "type": "bytes"
        }
      ],
      "name": "submitFreezeProof",
      "outputs": [],
      "stateMutability": "nonpayable",
      "type": "function"
    },
    {
      "inputs": [],
      "name": "switchEnclave",
      "outputs": [],
      "stateMutability": "nonpayable",
      "type": "function"
    },
    {
      "inputs": [
        {
          "internalType": "uint8",
          "name": "",
          "type": "uint8"
        }
      ],
      "name": "tokenHolders",
      "outputs": [
        {
          "internalType": "contract TokenHolder",
          "name": "",
          "type": "address"
        }
      ],
      "stateMutability": "view",
      "type": "function"
    },
    {
      "inputs": [
        {
          "internalType": "address",
          "name": "newOwner",
          "type": "address"
        }
      ],
      "name": "transferOwnership",
      "outputs": [],
      "stateMutability": "nonpayable",
      "type": "function"
    },
    {
      "inputs": [],
      "name": "update",
      "outputs": [],
      "stateMutability": "nonpayable",
      "type": "function"
    },
    {
      "inputs": [
        {
          "components": [
            {
              "internalType": "uint64",
              "name": "epoch",
              "type": "uint64"
            },
            {
              "internalType": "uint32",
              "name": "id",
              "type": "uint32"
            },
            {
              "internalType": "uint32",
              "name": "count",
              "type": "uint32"
            },
            {
              "internalType": "uint16",
              "name": "chain",
              "type": "uint16"
            },
            {
              "internalType": "address",
              "name": "account",
              "type": "address"
            },
            {
              "internalType": "bool",
              "name": "exit",
              "type": "bool"
            },
            {
              "components": [
                {
                  "components": [
                    {
                      "internalType": "uint16",
                      "name": "origin",
                      "type": "uint16"
                    },
                    {
                      "internalType": "uint8",
                      "name": "assetType",
                      "type": "uint8"
                    },
                    {
                      "internalType": "bytes32",
                      "name": "localID",
                      "type": "bytes32"
                    }
                  ],
                  "internalType": "struct Erdstall.Asset",
                  "name": "asset",
                  "type": "tuple"
                },
                {
                  "internalType": "uint256[]",
                  "name": "value",
                  "type": "uint256[]"
                }
              ],
              "internalType": "struct Erdstall.TokenValue[]",
              "name": "tokens",
              "type": "tuple[]"
            }
          ],
          "internalType": "struct Erdstall.BalanceChunk",
          "name": "balance",
          "type": "tuple"
        },
        {
          "internalType": "bytes",
          "name": "sig",
          "type": "bytes"
        }
      ],
      "name": "verifyBalance",
      "outputs": [],
      "stateMutability": "view",
      "type": "function"
    },
    {
      "inputs": [
        {
          "internalType": "address",
          "name": "lightClient",
          "type": "address"
        },
        {
          "internalType": "bytes",
          "name": "certificate",
          "type": "bytes"
        }
      ],
      "name": "verifyLightClientCert",
      "outputs": [],
      "stateMutability": "view",
      "type": "function"
    },
    {
      "inputs": [
        {
          "internalType": "bytes",
          "name": "abiCode",
          "type": "bytes"
        },
        {
          "internalType": "bytes",
          "name": "sig",
          "type": "bytes"
        },
        {
          "internalType": "uint64",
          "name": "epoch",
          "type": "uint64"
        }
      ],
      "name": "verifyTeeSig",
      "outputs": [
        {
          "internalType": "bool",
          "name": "",
          "type": "bool"
        }
      ],
      "stateMutability": "view",
      "type": "function"
    },
    {
      "inputs": [
        {
          "components": [
            {
              "internalType": "uint64",
              "name": "epoch",
              "type": "uint64"
            },
            {
              "internalType": "uint16",
              "name": "chain",
              "type": "uint16"
            },
            {
              "internalType": "address",
              "name": "account",
              "type": "address"
            }
          ],
          "internalType": "struct Erdstall.ZeroBalanceProof",
          "name": "proof",
          "type": "tuple"
        },
        {
          "internalType": "bytes",
          "name": "sig",
          "type": "bytes"
        }
      ],
      "name": "verifyZeroBalanceProof",
      "outputs": [],
      "stateMutability": "view",
      "type": "function"
    },
    {
      "inputs": [
        {
          "components": [
            {
              "internalType": "uint64",
              "name": "epoch",
              "type": "uint64"
            },
            {
              "internalType": "uint32",
              "name": "id",
              "type": "uint32"
            },
            {
              "internalType": "uint32",
              "name": "count",
              "type": "uint32"
            },
            {
              "internalType": "uint16",
              "name": "chain",
              "type": "uint16"
            },
            {
              "internalType": "address",
              "name": "account",
              "type": "address"
            },
            {
              "internalType": "bool",
              "name": "exit",
              "type": "bool"
            },
            {
              "components": [
                {
                  "components": [
                    {
                      "internalType": "uint16",
                      "name": "origin",
                      "type": "uint16"
                    },
                    {
                      "internalType": "uint8",
                      "name": "assetType",
                      "type": "uint8"
                    },
                    {
                      "internalType": "bytes32",
                      "name": "localID",
                      "type": "bytes32"
                    }
                  ],
                  "internalType": "struct Erdstall.Asset",
                  "name": "asset",
                  "type": "tuple"
                },
                {
                  "internalType": "uint256[]",
                  "name": "value",
                  "type": "uint256[]"
                }
              ],
              "internalType": "struct Erdstall.TokenValue[]",
              "name": "tokens",
              "type": "tuple[]"
            }
          ],
          "internalType": "struct Erdstall.BalanceChunk",
          "name": "balance",
          "type": "tuple"
        },
        {
          "internalType": "bytes",
          "name": "sig",
          "type": "bytes"
        }
      ],
      "name": "withdraw",
      "outputs": [],
      "stateMutability": "nonpayable",
      "type": "function"
    },
    {
      "inputs": [],
      "name": "withdrawFrozenDeposit",
      "outputs": [],
      "stateMutability": "nonpayable",
      "type": "function"
    },
    {
      "inputs": [
        {
          "internalType": "uint64",
          "name": "",
          "type": "uint64"
        },
        {
          "internalType": "address",
          "name": "",
          "type": "address"
        }
      ],
      "name": "withdrawn",
      "outputs": [
        {
          "internalType": "bool",
          "name": "",
          "type": "bool"
        }
      ],
      "stateMutability": "view",
      "type": "function"
    }
  ],
  "bytecode": "0x61012060405234801561001157600080fd5b50604051615e72380380615e728339810160408190526100309161012c565b338061005657604051631e4fbdf760e01b81526000600482015260240160405180910390fd5b61005f816100c0565b506005805460016001600160a01b03979097166c0100000000000000000000000002610100600160601b0390911617959095179094556001600160401b0343811660805292831660a05290821660c05261ffff1660e05216610100526101a8565b600080546001600160a01b038381166001600160a01b0319831681178455604051919092169283917f8be0079c531659141344cd1fd0a4f28419497f9722a3daafe3b4186f6b6457e09190a35050565b80516001600160401b038116811461012757600080fd5b919050565b600080600080600060a0868803121561014457600080fd5b85516001600160a01b038116811461015b57600080fd5b945061016960208701610110565b935061017760408701610110565b9250606086015161ffff8116811461018e57600080fd5b915061019c60808701610110565b90509295509295909350565b60805160a05160c05160e05161010051615bec610286600039600081816104e00152610e5401526000818161064c0152818161116c0152818161176901528181611ce301528181613021015261475501526000818161044f0152613bed01526000818161050f0152818161092001528181610bbc01528181610cfc01528181610e8b015281816113af015281816115e601528181611a1201528181612037015281816121710152818161239401528181612560015281816128b2015281816129f801528181612cb00152613c12015260006104b10152615bec6000f3fe608060405234801561001057600080fd5b50600436106102f45760003560e01c80638da5cb5b11610191578063ce746024116100e3578063dbe027d811610097578063e83fd41111610071578063e83fd41114610722578063f2fde38b14610735578063f77275121461074857600080fd5b8063dbe027d8146106f5578063e0f0efe714610708578063e4b8db7e1461071057600080fd5b8063d2ef7398116100c8578063d2ef7398146106d1578063d306a7b0146106d9578063d30cd768146106ec57600080fd5b8063ce746024146106c1578063d04166bd146106c957600080fd5b8063a53d2a5411610145578063b05f62071161011f578063b05f620714610681578063ba48747314610694578063c19d93fb146106a757600080fd5b8063a53d2a5414610610578063ab4f4bce14610634578063adc879e91461064757600080fd5b8063a257279c11610176578063a257279c146105a0578063a2e62045146105da578063a33a0540146105e257600080fd5b80638da5cb5b146105755780639f40a5351461058657600080fd5b80634e9051341161024a57806375a5b1ab116101fe5780637aca9c69116101d85780637aca9c691461053f57806384d9843214610552578063895262771461055a57600080fd5b806375a5b1ab146104db578063766718081461050257806378e979251461050a57600080fd5b806350f742301161022f57806350f742301461048957806364632877146104ac578063715018a6146104d357600080fd5b80634e9051341461042a5780634ff0876a1461044a57600080fd5b8063207de651116102ac5780634420e486116102865780634420e486146103e1578063495c41c0146103f45780634a9527a81461040757600080fd5b8063207de6511461039a5780632227289e146103bf57806335a063b4146103d957600080fd5b80630a8a0c7e116102dd5780630a8a0c7e146103545780630ee6f6dd1461036757806310fb10751461037a57600080fd5b8063072f8cca146102f9578063086ed8ce1461033f575b600080fd5b610322610307366004614b03565b6002602052600090815260409020546001600160a01b031681565b6040516001600160a01b0390911681526020015b60405180910390f35b61035261034d366004614b80565b61075b565b005b610352610362366004614bea565b61086e565b610352610375366004614c23565b610916565b61038d610388366004614f84565b610b61565b6040516103369190615008565b6005546103ad9062010000900460ff1681565b60405160ff9091168152602001610336565b60055461032290600160601b90046001600160a01b031681565b610352610bb2565b6103526103ef36600461501b565b610cf2565b610352610402366004614b80565b610e89565b6103ad61041536600461501b565b60016020526000908152604090205460ff1681565b61043d610438366004615036565b61126c565b6040516103369190615073565b6104717f000000000000000000000000000000000000000000000000000000000000000081565b6040516001600160401b039091168152602001610336565b61049c610497366004615113565b6112e0565b6040519015158152602001610336565b6104717f000000000000000000000000000000000000000000000000000000000000000081565b61035261134b565b6104717f000000000000000000000000000000000000000000000000000000000000000081565b61047161135f565b6105317f000000000000000000000000000000000000000000000000000000000000000081565b604051908152602001610336565b61035261054d36600461518a565b61136f565b6103526113ad565b6005546104719064010000000090046001600160401b031681565b6000546001600160a01b0316610322565b60065461047190600160a01b90046001600160401b031681565b6105b36105ae366004614c23565b6115a9565b604080516001600160401b0390931683526001600160a01b03909116602083015201610336565b610352610bba565b61049c6105f03660046151f1565b600460209081526000928352604080842090915290825290205460ff1681565b61049c61061e36600461501b565b61020a6020526000908152604090205460ff1681565b610352610642366004615224565b6115e4565b61066e7f000000000000000000000000000000000000000000000000000000000000000081565b60405161ffff9091168152602001610336565b61035261068f366004615224565b611a10565b6103526106a2366004615261565b611f35565b6005546106b49060ff1681565b60405161033691906152ae565b61035261202d565b61049c6122ad565b610352612392565b6103526106e73660046152d6565b61255e565b61053160085481565b600754610322906001600160a01b031681565b6103526128a8565b6005546103ad90610100900460ff1681565b61035261073036600461535b565b612c63565b61035261074336600461501b565b6134bb565b600654610322906001600160a01b031681565b600061076a602085018561540e565b61077a6040860160208701615429565b61078a606087016040880161501b565b6040516020016107f99392919060808082526010908201527f5a65726f42616c616e636550726f6f660000000000000000000000000000000060a08201526001600160401b0393909316602084015261ffff9190911660408301526001600160a01b0316606082015260c00190565b60408051601f198184030181526020601f8601819004810284018101909252848352925061084b918391869086908190840183828082843760009201919091525061049792505050602088018861540e565b61086857604051638baa579f60e01b815260040160405180910390fd5b50505050565b604080516020808201839052601760608301527f4572647374616c6c4c69676874436c69656e74436572740000000000000000006080808401919091526001600160a01b038716838501528351808403909101815260c0601f86018390049092028301820190935260a0820184815261084b9284928791879182910183828082843760009201919091525050600554600160601b90046001600160a01b031691506135149050565b61091e613571565b7f000000000000000000000000000000000000000000000000000000000000000042101561095f5760405163ba2b1fcb60e01b815260040160405180910390fd5b600061096961135f565b9050600260055460ff16600281111561098457610984615298565b03610a07576006546001600160401b03600160a01b909104811690821610610a025760058054600654600160601b6001600160a01b03909116026bffffffffffffffffffffff0090911681176001908117909255604051600080516020615b97833981519152926109f99260ff1617906152ae565b60405180910390a15b610a75565b600160055460ff166002811115610a2057610a20615298565b03610a7557610a2d6122ad565b15610a7557600554610a7590600190600a9060ff6101009182900416908110610a5857610a58615444565b6002020154610a7091906001600160401b0316615470565b6135b7565b6000600160055460ff166002811115610a9057610a90615298565b03610ab0576001610a9f61135f565b610aa99190615470565b9050610b1a565b600060055460ff166002811115610ac957610ac9615298565b03610ae8575060055464010000000090046001600160401b0316610b1a565b6040517fd623472500000000000000000000000000000000000000000000000000000000815260040160405180910390fd5b604080518481526001600160401b03831660208201527f42c7dc4a39f3996a7663c73044dee3a506f11cd6fbaa04f77ba3d5e0eb6d764091015b60405180910390a1505050565b6060816000015182602001518360400151846060015185608001518660a001518760c00151604051602001610b9c9796959493929190615568565b6040516020818303038152906040529050919050565b610bba613571565b7f0000000000000000000000000000000000000000000000000000000000000000421015610bfb5760405163ba2b1fcb60e01b815260040160405180910390fd5b6000610c0561135f565b9050600260055460ff166002811115610c2057610c20615298565b03610ca1576006546001600160401b03600160a01b909104811690821610610c9e5760058054600654600160601b6001600160a01b03909116026bffffffffffffffffffffff0090911681176001908117909255604051600080516020615b9783398151915292610c959260ff1617906152ae565b60405180910390a15b50565b600160055460ff166002811115610cba57610cba615298565b03610c9e57610cc76122ad565b15610c9e57600554610c9e90600190600a9060ff6101009182900416908110610a5857610a58615444565b610cfa613571565b7f0000000000000000000000000000000000000000000000000000000000000000421015610d3b5760405163ba2b1fcb60e01b815260040160405180910390fd5b6000610d4561135f565b9050600260055460ff166002811115610d6057610d60615298565b03610de3576006546001600160401b03600160a01b909104811690821610610dde5760058054600654600160601b6001600160a01b03909116026bffffffffffffffffffffff0090911681176001908117909255604051600080516020615b9783398151915292610dd59260ff1617906152ae565b60405180910390a15b610e34565b600160055460ff166002811115610dfc57610dfc615298565b03610e3457610e096122ad565b15610e3457600554610e3490600190600a9060ff6101009182900416908110610a5857610a58615444565b600780546001600160a01b0319166001600160a01b038416179055610e827f00000000000000000000000000000000000000000000000000000000000000006001600160401b03164261560f565b6008555050565b7f0000000000000000000000000000000000000000000000000000000000000000421015610eca5760405163ba2b1fcb60e01b815260040160405180910390fd5b6000610ed461135f565b9050600260055460ff166002811115610eef57610eef615298565b03610f72576006546001600160401b03600160a01b909104811690821610610f6d5760058054600654600160601b6001600160a01b03909116026bffffffffffffffffffffff0090911681176001908117909255604051600080516020615b9783398151915292610f649260ff1617906152ae565b60405180910390a15b610fc3565b600160055460ff166002811115610f8b57610f8b615298565b03610fc357610f986122ad565b15610fc357600554610fc390600190600a9060ff6101009182900416908110610a5857610a58615444565b600160055460ff166002811115610fdc57610fdc615298565b14610ffa57604051634065aaf160e11b815260040160405180910390fd5b60055462010000900460ff16611023576040516306731f0360e11b815260040160405180910390fd5b600554600090600a9060ff610100918290041690811061104557611045615444565b6002020190506000611070611060606088016040890161501b565b83546001600160401b03166137f8565b6000818152600180850160205260409091205491925063ffffffff909116906110999080615622565b6110a161135f565b6110ab9190615470565b6001600160401b03166110c1602089018961540e565b6001600160401b0316146110e8576040516312a7b55960e11b815260040160405180910390fd5b82546001600160401b0316611100602089018961540e565b6001600160401b03161015611128576040516306731f0360e11b815260040160405180910390fd5b82546001600160401b0316611140602089018961540e565b6001600160401b03161461116757604051639921d37f60e01b815260040160405180910390fd5b61ffff7f00000000000000000000000000000000000000000000000000000000000000001661119c6040890160208a01615429565b61ffff16146111be576040516310dfc03360e01b815260040160405180910390fd5b8063ffffffff166000036111e5576040516306731f0360e11b815260040160405180910390fd5b6111f087878761075b565b6112086112036060890160408a0161501b565b61382d565b611218606088016040890161501b565b6001600160a01b031661122e602089018961540e565b6001600160401b03167f30436af0322d2ca90ab0328d09dd29efadf838a340775b73caf1e2a6894a886f60405160405180910390a350505050505050565b6003602052826000526040600020602052816000526040600020818154811061129457600080fd5b6000918252602091829020604080516060810182526003909302909101805461ffff8116845260ff62010000909104169383019390935260019092015491810191909152925083915050565b6000806112f5836001600160401b0316613998565b90506001600160a01b038116611337576040517f175958af00000000000000000000000000000000000000000000000000000000815260040160405180910390fd5b611342858583613514565b95945050505050565b611353613571565b61135d6000613b91565b565b600061136a42613be1565b905090565b600061137a83610b61565b905061138b818385600001516112e0565b6113a857604051638baa579f60e01b815260040160405180910390fd5b505050565b7f00000000000000000000000000000000000000000000000000000000000000004210156113ee5760405163ba2b1fcb60e01b815260040160405180910390fd5b60006113f861135f565b9050600260055460ff16600281111561141357611413615298565b03611496576006546001600160401b03600160a01b9091048116908216106114915760058054600654600160601b6001600160a01b03909116026bffffffffffffffffffffff0090911681176001908117909255604051600080516020615b97833981519152926114889260ff1617906152ae565b60405180910390a15b6114e7565b600160055460ff1660028111156114af576114af615298565b036114e7576114bc6122ad565b156114e7576005546114e790600190600a9060ff6101009182900416908110610a5857610a58615444565b600060055460ff16600281111561150057611500615298565b1461151e57604051633c58cf5960e11b815260040160405180910390fd5b6040805160008082526020820190925261157d9082611577565b6040805160a081018252600091810182815260608083018490526080830193909352815260208101919091528152602001906001900390816115385790505b50613c41565b8051909150156115a5576005546115a59064010000000090046001600160401b0316826141e7565b5050565b600981815481106115b957600080fd5b6000918252602090912001546001600160401b0381169150600160401b90046001600160a01b031682565b7f00000000000000000000000000000000000000000000000000000000000000004210156116255760405163ba2b1fcb60e01b815260040160405180910390fd5b600061162f61135f565b9050600260055460ff16600281111561164a5761164a615298565b036116cd576006546001600160401b03600160a01b9091048116908216106116c85760058054600654600160601b6001600160a01b03909116026bffffffffffffffffffffff0090911681176001908117909255604051600080516020615b97833981519152926116bf9260ff1617906152ae565b60405180910390a15b61171e565b600160055460ff1660028111156116e6576116e6615298565b0361171e576116f36122ad565b1561171e5760055461171e90600190600a9060ff6101009182900416908110610a5857610a58615444565b61172661445a565b6001600160401b031661173c602086018661540e565b6001600160401b031611156117645760405163085de62560e01b815260040160405180910390fd5b61ffff7f0000000000000000000000000000000000000000000000000000000000000000166117996080860160608701615429565b61ffff16146117bb576040516310dfc03360e01b815260040160405180910390fd5b336117cc60a086016080870161501b565b6001600160a01b03161461180c576040517f4e6a565c00000000000000000000000000000000000000000000000000000000815260040160405180910390fd5b600060055460ff16600281111561182557611825615298565b0361188c5760055464010000000090046001600160401b031661184b602086018661540e565b6001600160401b0316111561188c576040517f0de3858000000000000000000000000000000000000000000000000000000000815260040160405180910390fd5b61189c60c0850160a08601615641565b61195657600260055460ff1660028111156118b9576118b9615298565b036118d757604051636ed5f1bf60e01b815260040160405180910390fd5b600060055460ff1660028111156118f0576118f0615298565b1461190e57604051633c58cf5960e11b815260040160405180910390fd5b60055464010000000090046001600160401b031661192f602086018661540e565b6001600160401b031614611956576040516312a7b55960e11b815260040160405180910390fd5b61199e6119628561565c565b84848080601f01602080910402602001604051908101604052809392919081815260200183838082843760009201919091525061136f92505050565b60606119b060c0860160a08701615641565b156119d2576119c260c0860186615668565b6119cb916156b1565b90506119f3565b6119f06119e260c0870187615668565b6119eb916156b1565b613c41565b90505b611a09611a03602087018761540e565b826141e7565b5050505050565b7f0000000000000000000000000000000000000000000000000000000000000000421015611a515760405163ba2b1fcb60e01b815260040160405180910390fd5b6000611a5b61135f565b9050600260055460ff166002811115611a7657611a76615298565b03611af9576006546001600160401b03600160a01b909104811690821610611af45760058054600654600160601b6001600160a01b03909116026bffffffffffffffffffffff0090911681176001908117909255604051600080516020615b9783398151915292611aeb9260ff1617906152ae565b60405180910390a15b611b4a565b600160055460ff166002811115611b1257611b12615298565b03611b4a57611b1f6122ad565b15611b4a57600554611b4a90600190600a9060ff6101009182900416908110610a5857610a58615444565b600160055460ff166002811115611b6357611b63615298565b14611b8157604051634065aaf160e11b815260040160405180910390fd5b60055462010000900460ff16611baa576040516306731f0360e11b815260040160405180910390fd5b600554600090600a9060ff6101009182900416908110611bcc57611bcc615444565b6002020190506000611be761106060a088016080890161501b565b6000818152600180850160205260409091205491925063ffffffff90911690611c109080615622565b611c1861135f565b611c229190615470565b6001600160401b0316611c38602089018961540e565b6001600160401b031614611c5f576040516312a7b55960e11b815260040160405180910390fd5b82546001600160401b0316611c77602089018961540e565b6001600160401b03161015611c9f576040516306731f0360e11b815260040160405180910390fd5b82546001600160401b0316611cb7602089018961540e565b6001600160401b031614611cde57604051639921d37f60e01b815260040160405180910390fd5b61ffff7f000000000000000000000000000000000000000000000000000000000000000016611d136080890160608a01615429565b61ffff1614611d35576040516310dfc03360e01b815260040160405180910390fd5b8063ffffffff16600003611d5c576040516306731f0360e11b815260040160405180910390fd5b63ffffffff8116611d736040890160208a016156be565b611d7e9060016156d9565b63ffffffff1614611dbb576040517f38ee6b3700000000000000000000000000000000000000000000000000000000815260040160405180910390fd5b611e03611dc78861565c565b87878080601f01602080910402602001604051908101604052809392919081815260200183838082843760009201919091525061136f92505050565b611e1360608801604089016156be565b63ffffffff168163ffffffff1603611e3d57611e3861120360a0890160808a0161501b565b611e7f565b60008281526001840160205260408120805463ffffffff1691611e5f836156f5565b91906101000a81548163ffffffff021916908363ffffffff160217905550505b611e8f60a088016080890161501b565b6001600160a01b0316611ea5602089018961540e565b6001600160401b03167f5c48277659215aaf0facef5d08697306e1cd011dcdb5e7455f5d4c31d3dcddbc611edf60408b0160208c016156be565b611eef60608c0160408d016156be565b611efc60c08d018d615668565b8d60a0016020810190611f0f9190615641565b8d8d604051611f24979695949392919061578e565b60405180910390a350505050505050565b611f3d613571565b6001600160a01b03821660009081526001602052604090205460ff168015611fa857611f6a8260016158ba565b60ff168160ff16146113a8576040517fc081a4b800000000000000000000000000000000000000000000000000000000815260040160405180910390fd5b611fb38260016158ba565b6001600160a01b0384166000818152600160209081526040808320805460ff191660ff968716179055938616808352600282529184902080546001600160a01b0319168417905583519182528101919091527fa67714b04395227af4e4053e2f5b91c09833fa91968bef5e1e3190437ac329c59101610b54565b612035613571565b7f00000000000000000000000000000000000000000000000000000000000000004210156120765760405163ba2b1fcb60e01b815260040160405180910390fd5b600061208061135f565b9050600260055460ff16600281111561209b5761209b615298565b0361211e576006546001600160401b03600160a01b9091048116908216106121195760058054600654600160601b6001600160a01b03909116026bffffffffffffffffffffff0090911681176001908117909255604051600080516020615b97833981519152926121109260ff1617906152ae565b60405180910390a15b61216f565b600160055460ff16600281111561213757612137615298565b0361216f576121446122ad565b1561216f5760055461216f90600190600a9060ff6101009182900416908110610a5857610a58615444565b7f00000000000000000000000000000000000000000000000000000000000000004210156121b05760405163085de62560e01b815260040160405180910390fd5b600060055460ff1660028111156121c9576121c9615298565b146121e757604051633c58cf5960e11b815260040160405180910390fd5b60006121f161135f565b6005805491925060029160ff1916600183021790555060055460068054600160601b9092046001600160a01b03166001600160a01b031990921691909117905561223c816002615622565b600680546001600160401b0392909216600160a01b027fffffffff0000000000000000ffffffffffffffffffffffffffffffffffffffff909216919091179055600554604051600080516020615b97833981519152916122a19160ff909116906152ae565b60405180910390a15050565b6000806122b861135f565b9050600160055460ff1660028111156122d3576122d3615298565b146122e057600091505090565b6122eb600180615622565b6122f6906001615622565b6001600160401b0316816001600160401b0316101561231757600091505090565b60055462010000900460ff161580159061238c5750612337600180615622565b612342906001615622565b61234c9082615470565b6001600160401b0316600a600560019054906101000a900460ff1660ff16610100811061237b5761237b615444565b60020201546001600160401b031611155b91505090565b7f00000000000000000000000000000000000000000000000000000000000000004210156123d35760405163ba2b1fcb60e01b815260040160405180910390fd5b60006123dd61135f565b9050600260055460ff1660028111156123f8576123f8615298565b0361247b576006546001600160401b03600160a01b9091048116908216106124765760058054600654600160601b6001600160a01b03909116026bffffffffffffffffffffff0090911681176001908117909255604051600080516020615b978339815191529261246d9260ff1617906152ae565b60405180910390a15b6124cc565b600160055460ff16600281111561249457612494615298565b036124cc576124a16122ad565b156124cc576005546124cc90600190600a9060ff6101009182900416908110610a5857610a58615444565b600160055460ff1660028111156124e5576124e5615298565b1461250357604051634065aaf160e11b815260040160405180910390fd5b6000600161250f61135f565b6125199190615470565b9050612524816144c3565b60405133906001600160401b038316907f9f71686e9e2eed0a0a99340b1c3b230369f255b1d452130cead54f8308654dfd90600090a35050565b7f000000000000000000000000000000000000000000000000000000000000000042101561259f5760405163ba2b1fcb60e01b815260040160405180910390fd5b60006125a961135f565b9050600260055460ff1660028111156125c4576125c4615298565b03612647576006546001600160401b03600160a01b9091048116908216106126425760058054600654600160601b6001600160a01b03909116026bffffffffffffffffffffff0090911681176001908117909255604051600080516020615b97833981519152926126399260ff1617906152ae565b60405180910390a15b612698565b600160055460ff16600281111561266057612660615298565b036126985761266d6122ad565b156126985760055461269890600190600a9060ff6101009182900416908110610a5857610a58615444565b600060055460ff1660028111156126b1576126b1615298565b036126e8576040517fd6c912e600000000000000000000000000000000000000000000000000000000815260040160405180910390fd5b6126f3600180615622565b6126fe906001615622565b612709906001615622565b612719606088016040890161540e565b6127239190615622565b6001600160401b031661273461135f565b6001600160401b03161461275b576040516312a7b55960e11b815260040160405180910390fd5b30630a8a0c7e61283b61277160208a018a615429565b61278160408b0160208c0161540e565b61279160608c0160408d0161540e565b6040516020016127f79392919060808082526013908201527f4572647374616c6c467265657a6550726f6f660000000000000000000000000060a082015261ffff9390931660208401526001600160401b03918216604084015216606082015260c00190565b60408051601f198184030181526020601f8b0181900481028401810190925289835291908a908a90819084018382808284376000920191909152506146d692505050565b85856040518463ffffffff1660e01b815260040161285b939291906158d3565b60006040518083038186803b15801561287357600080fd5b505afa158015612887573d6000803e3d6000fd5b506128a09250610a70915050606088016040890161540e565b505050505050565b6128b0613571565b7f00000000000000000000000000000000000000000000000000000000000000004210156128f15760405163ba2b1fcb60e01b815260040160405180910390fd5b60006128fb61135f565b9050600260055460ff16600281111561291657612916615298565b03612999576006546001600160401b03600160a01b9091048116908216106129945760058054600654600160601b6001600160a01b03909116026bffffffffffffffffffffff0090911681176001908117909255604051600080516020615b978339815191529261298b9260ff1617906152ae565b60405180910390a15b6129ea565b600160055460ff1660028111156129b2576129b2615298565b036129ea576129bf6122ad565b156129ea576005546129ea90600190600a9060ff6101009182900416908110610a5857610a58615444565b60006129f461135f565b90507f0000000000000000000000000000000000000000000000000000000000000000421015612a375760405163085de62560e01b815260040160405180910390fd5b6007546001600160a01b0316612a79576040517f27d1560500000000000000000000000000000000000000000000000000000000815260040160405180910390fd5b600854421015612a9c5760405163085de62560e01b815260040160405180910390fd5b600260055460ff166002811115612ab557612ab5615298565b03612ad357604051636ed5f1bf60e01b815260040160405180910390fd5b600060055460ff166002811115612aec57612aec615298565b03612b3257600580546002919060ff19166001830217905550600754600680546001600160a01b0319166001600160a01b0390921691909117905561223c816002615622565b6005546001600160401b038083166401000000009092041603612b81576040517fdb4b61f600000000000000000000000000000000000000000000000000000000815260040160405180910390fd5b604080518082019091526001600160401b03918216808252600580546001600160a01b03600160601b918290048116602086019081526009805460018101825560009190915295517f6e1540171b6c0c960b71a7020d9f60077f6af931a8bbf590da0223dacf75c7af909601805491518316600160401b027fffffffff0000000000000000000000000000000000000000000000000000000090921696909716959095179490941790945580546007549093169093026bffffffffffffffffffffffff6401000000009092029190911663ffffffff9092169190911717905550565b3360009081526001602052604081205460ff169003612cae576040517f0c4abd2a00000000000000000000000000000000000000000000000000000000815260040160405180910390fd5b7f0000000000000000000000000000000000000000000000000000000000000000421015612cef5760405163ba2b1fcb60e01b815260040160405180910390fd5b6000612cf961135f565b9050600260055460ff166002811115612d1457612d14615298565b03612d97576006546001600160401b03600160a01b909104811690821610612d925760058054600654600160601b6001600160a01b03909116026bffffffffffffffffffffff0090911681176001908117909255604051600080516020615b9783398151915292612d899260ff1617906152ae565b60405180910390a15b612de8565b600160055460ff166002811115612db057612db0615298565b03612de857612dbd6122ad565b15612de857600554612de890600190600a9060ff6101009182900416908110610a5857610a58615444565b600160055460ff166002811115612e0157612e01615298565b14612e1f57604051634065aaf160e11b815260040160405180910390fd5b6000612e2961135f565b60ff88166000908152600260205260409020549091506001600160a01b0316612e6f5760ff8716600090815260026020526040902080546001600160a01b031916331790555b6000604051806040016040528060405180606001604052808a61ffff1681526020018b60ff168152602001898152508152602001868680806020026020016040519081016040528093929190818152602001838360200280828437600081840152601f19601f82011690508083019250505050505050815250905060036000836001600160401b03166001600160401b0316815260200190815260200160002060008a6001600160a01b03166001600160a01b0316815260200190815260200160002081908060018154018082558091505060019003906000526020600020906003020160009091909190915060008201518160000160008201518160000160006101000a81548161ffff021916908361ffff16021790555060208201518160000160026101000a81548160ff021916908360ff1602179055506040820151816001015550506020820151816002019080519060200190612fd1929190614a24565b505050886001600160a01b0316826001600160401b03167feb3100c7367bb9282fc3c80cba98d82025422adc0f72a4e137d0acc3757f84928360405161301791906158f6565b60405180910390a37f000000000000000000000000000000000000000000000000000000000000000061ffff168761ffff16146130555750506134b2565b6001600160a01b038616600090815261020a6020526040902054869060ff166134ae576001600160a01b038116600081815261020a60205260409020805460ff1916600117905561314c57604080518881526080602082018190526005908201527f457468657200000000000000000000000000000000000000000000000000000060a082015260c08183018190526003908201527f455448000000000000000000000000000000000000000000000000000000000060e08201526012606082015290517fb1e1d22424bcf87c08b3dab1ba6e7b5fdfbae1cebde669d3ac99811cdba3ccc0918190036101000190a15050506134b2565b6060816001600160a01b03166306fdde036040518163ffffffff1660e01b8152600401600060405180830381865afa9250505080156131ad57506040513d6000823e601f3d908101601f191682016040526131aa9190810190615909565b60015b6131f9573d8080156131db576040519150601f19603f3d011682016040523d82523d6000602084013e6131e0565b606091505b50604051806020016040528060008152509150506131fc565b90505b6060826001600160a01b03166395d89b416040518163ffffffff1660e01b8152600401600060405180830381865afa92505050801561325d57506040513d6000823e601f3d908101601f1916820160405261325a9190810190615909565b60015b6132a9573d80801561328b576040519150601f19603f3d011682016040523d82523d6000602084013e613290565b606091505b50604051806020016040528060008152509150506132ac565b90505b60ff8b16613394576000836001600160a01b031663313ce5676040518163ffffffff1660e01b8152600401602060405180830381865afa925050508015613310575060408051601f3d908101601f1916820190925261330d91810190615976565b60015b61334e573d80801561333e576040519150601f19603f3d011682016040523d82523d6000602084013e613343565b606091505b506000915050613351565b90505b7fb1e1d22424bcf87c08b3dab1ba6e7b5fdfbae1cebde669d3ac99811cdba3ccc08a8484846040516133869493929190615993565b60405180910390a1506134ab565b60001960ff8c1601610ae8576060836001600160a01b031663c87b56dd8a8a60008181106133c4576133c4615444565b905060200201356040518263ffffffff1660e01b81526004016133e991815260200190565b600060405180830381865afa92505050801561342757506040513d6000823e601f3d908101601f191682016040526134249190810190615909565b60015b613473573d808015613455576040519150601f19603f3d011682016040523d82523d6000602084013e61345a565b606091505b5060405180602001604052806000815250915050613476565b90505b7f59a3797aef1d99d386b9b3e9b8aff1f784aba7b9e43435540cb12727d38e7fc08a84848460405161338694939291906159d3565b50505b5050505b50505050505050565b6134c3613571565b6001600160a01b03811661350b576040517f1e4fbdf7000000000000000000000000000000000000000000000000000000008152600060048201526024015b60405180910390fd5b610c9e81613b91565b825160208401207f19457468657265756d205369676e6564204d6573736167653a0a3332000000006000908152601c91909152603c81206000613557828661471f565b6001600160a01b0390811690851614925050509392505050565b6000546001600160a01b0316331461135d576040517f118cdaa7000000000000000000000000000000000000000000000000000000008152336004820152602401613502565b6005805462ffffff19169055604051600080516020615b97833981519152906135e2906000906152ae565b60405180910390a16005546001600160401b038083166401000000009092041610613708575b600954158015906136585750600980546001600160401b038316919061363090600190615a1d565b8154811061364057613640615444565b6000918252602090912001546001600160401b031610155b15613708576009805461366d90600190615a1d565b8154811061367d5761367d615444565b600091825260209091200154600580546bffffffffffffffffffffffff16600160401b9092046001600160a01b0316600160601b0291909117905560098054806136c9576136c9615a30565b600082815260209020810160001990810180547fffffffff00000000000000000000000000000000000000000000000000000000169055019055613608565b6040805180820182526001600160401b0383811680835260058054600160601b90046001600160a01b039081166020860190815260098054600181018255600091825296517f6e1540171b6c0c960b71a7020d9f60077f6af931a8bbf590da0223dacf75c7af90970180549251979096167fffffffff0000000000000000000000000000000000000000000000000000000090921691909117600160401b96909216959095021790925581546bffffffffffffffff00000000191664010000000082021790915591517f5e20151a99b0432a9ac06d33b91b77d3134ce0638cc70d7df042947ca48a2caf9190a250565b6001600160a01b0382167bffffffffffffffff000000000000000000000000000000000000000060a083901b16175b92915050565b600554600090600a9060ff610100918290041690811061384f5761384f615444565b60020201805490915060009061386f9084906001600160401b03166137f8565b600081815260018481016020526040909120805463ffffffff191690558354919250600160401b9091046001600160401b0316900361395057600554600a9060ff61010091829004169081106138c7576138c7615444565b6002020180546fffffffffffffffffffffffffffffffff1916905560058054610100900460ff169060016138fa83615a46565b91906101000a81548160ff021916908360ff160217905550506005600281819054906101000a900460ff168092919061393290615a5c565b91906101000a81548160ff021916908360ff16021790555050505050565b8154600160401b90046001600160401b031682600861396e83615a79565b91906101000a8154816001600160401b0302191690836001600160401b0316021790555050505050565b60055460009064010000000090046001600160401b03168211156139f457600160055460ff1660028111156139cf576139cf615298565b036139ec575050600554600160601b90046001600160a01b031690565b506000919050565b60055464010000000090046001600160401b03168203613a8657600060055460ff166002811115613a2757613a27615298565b03613a44575050600554600160601b90046001600160a01b031690565b60098054613a5490600190615a1d565b81548110613a6457613a64615444565b600091825260209091200154600160401b90046001600160a01b031692915050565b6009546000905b808214613b555760006002613aa2838561560f565b613aac9190615a92565b905060098181548110613ac157613ac1615444565b6000918252602090912001546001600160401b0316851115613ae557809250613b4f565b60098181548110613af857613af8615444565b6000918252602090912001546001600160401b03168503613b4b5760098181548110613b2657613b26615444565b600091825260209091200154600160401b90046001600160a01b031695945050505050565b8091505b50613a8d565b60098281548110613b6857613b68615444565b600091825260209091200154600160401b90046001600160a01b0316949350505050565b919050565b600080546001600160a01b038381166001600160a01b0319831681178455604051919092169283917f8be0079c531659141344cd1fd0a4f28419497f9722a3daafe3b4186f6b6457e09190a35050565b60006001600160401b037f000000000000000000000000000000000000000000000000000000000000000016613c377f000000000000000000000000000000000000000000000000000000000000000084615a1d565b6138279190615a92565b6060600060036000600560049054906101000a90046001600160401b03166001613c6b9190615622565b6001600160401b039081168252602080830193909352604091820160009081203382529093529082206005549093506003918391613cb491640100000000909104166002615622565b6001600160401b039081168252602080830193909352604091820160009081203382529093529082206005549093506003918391613cfc916401000000009091041683615622565b6001600160401b03168152602080820192909252604090810160009081203382529092528120805484548654895193955091929091613d3a9161560f565b613d44919061560f565b613d4e919061560f565b6001600160401b03811115613d6557613d65614c3c565b604051908082528060200260200182016040528015613dc257816020015b6040805160a08101825260009181018281526060808301849052608083019390935281526020810191909152815260200190600190039081613d835790505b5090506000805b8751811015613e1d57878181518110613de457613de4615444565b6020026020010151838380613df890615ab4565b945081518110613e0a57613e0a615444565b6020908102919091010152600101613dc9565b5060005b8554811015613f0957858181548110613e3c57613e3c615444565b60009182526020918290206040805160a081018252600393909302909101805461ffff81168484019081526201000090910460ff166060850152600182015460808501528352600281018054835181870281018701909452808452939491938583019392830182828015613ecf57602002820191906000526020600020905b815481526020019060010190808311613ebb575b505050505081525050838380613ee490615ab4565b945081518110613ef657613ef6615444565b6020908102919091010152600101613e21565b5060005b8454811015613ff557848181548110613f2857613f28615444565b60009182526020918290206040805160a081018252600393909302909101805461ffff81168484019081526201000090910460ff166060850152600182015460808501528352600281018054835181870281018701909452808452939491938583019392830182828015613fbb57602002820191906000526020600020905b815481526020019060010190808311613fa7575b505050505081525050838380613fd090615ab4565b945081518110613fe257613fe2615444565b6020908102919091010152600101613f0d565b5060005b83548110156140e15783818154811061401457614014615444565b60009182526020918290206040805160a081018252600393909302909101805461ffff81168484019081526201000090910460ff1660608501526001820154608085015283526002810180548351818702810187019094528084529394919385830193928301828280156140a757602002820191906000526020600020905b815481526020019060010190808311614093575b5050505050815250508383806140bc90615ab4565b9450815181106140ce576140ce615444565b6020908102919091010152600101613ff9565b506005546003906000906141079064010000000090046001600160401b03166001615622565b6001600160401b0316815260208082019290925260409081016000908120338252909252812061413691614a6f565b60055460039060009061415b9064010000000090046001600160401b03166002615622565b6001600160401b0316815260208082019290925260409081016000908120338252909252812061418a91614a6f565b6005546003906000906141ae9064010000000090046001600160401b031683615622565b6001600160401b031681526020808201929092526040908101600090812033825290925281206141dd91614a6f565b5095945050505050565b6001600160401b038216600090815260046020908152604080832033845290915290205460ff1615614245576040517f6507689f00000000000000000000000000000000000000000000000000000000815260040160405180910390fd5b6000815111614280576040517feae9756900000000000000000000000000000000000000000000000000000000815260040160405180910390fd5b6001600160401b03821660009081526004602090815260408083203384529091528120805460ff191660011790555b815181101561440a5760008282815181106142cc576142cc615444565b6020026020010151905060006142e58260000151614749565b82518051604091820151602086015192517fd1beaffa0000000000000000000000000000000000000000000000000000000081529394506001600160a01b0385169363d1beaffa9361433e939291339190600401615acd565b600060405180830381600087803b15801561435857600080fd5b505af1925050508015614369575060015b614400573d808015614397576040519150601f19603f3d011682016040523d82523d6000602084013e61439c565b606091505b50826040516143ab9190615b09565b6040518091039020336001600160a01b0316876001600160401b03167f17c878afc06be2054e373e11d19bd490c8a7957085244d6154d1c9f7f7799d66846040516143f69190615008565b60405180910390a4505b50506001016142af565b50336001600160a01b0316826001600160401b03167fc28beb9414af60e5f13561f08a5f1b5719d8bd778c3159c33c9cf261d7fb89848360405161444e9190615b6a565b60405180910390a35050565b60008061446561135f565b9050614472600180615622565b61447d906001615622565b614488906001615622565b6001600160401b0316816001600160401b031610156144ba5760405163085de62560e01b815260040160405180910390fd5b60031901919050565b60055460ff620100009091048116106144db57600080fd5b60006144e733836137f8565b60055490915060009062010000900460ff161561461357600554600a906001906145219060ff6201000082048116916101009004166158ba565b61452b9190615b7d565b60ff16610100811061453f5761453f615444565b6002020180549091506001600160401b0380851691160361461357600082815260018201602052604090205463ffffffff16156145a8576040517f860ec9c300000000000000000000000000000000000000000000000000000000815260040160405180910390fd5b805460019082906008906145cd908490600160401b90046001600160401b0316615622565b82546001600160401b039182166101009390930a928302919092021990911617905550600091825260019081016020526040909120805463ffffffff1916909117905550565b600554600a906146339060ff6201000082048116916101009004166158ba565b60ff16610100811061464757614647615444565b6002020190506001600560028282829054906101000a900460ff1661466c91906158ba565b825460ff9182166101009390930a92830291909202199091161790555080546fffffffffffffffffffffffffffffffff19166001600160401b0390931692909217600160401b1782556000908152600191820160205260409020805463ffffffff19169091179055565b815160208301207f19457468657265756d205369676e6564204d6573736167653a0a3332000000006000908152601c91909152603c8120614717818461471f565b949350505050565b60008060008061472f8686614804565b92509250925061473f8282614851565b5090949350505050565b600080826020015190507f000000000000000000000000000000000000000000000000000000000000000061ffff16836000015161ffff161480156147935750602083015160ff16155b80156147a157506040830151155b156147aa575060025b60ff81166000908152600260205260409020546001600160a01b0316806147fd576040517fc9adea7a00000000000000000000000000000000000000000000000000000000815260040160405180910390fd5b9392505050565b6000806000835160410361483e5760208401516040850151606086015160001a61483088828585614955565b95509550955050505061484a565b50508151600091506002905b9250925092565b600082600381111561486557614865615298565b0361486e575050565b600182600381111561488257614882615298565b036148b9576040517ff645eedf00000000000000000000000000000000000000000000000000000000815260040160405180910390fd5b60028260038111156148cd576148cd615298565b03614907576040517ffce698f700000000000000000000000000000000000000000000000000000000815260048101829052602401613502565b600382600381111561491b5761491b615298565b036115a5576040517fd78bce0c00000000000000000000000000000000000000000000000000000000815260048101829052602401613502565b600080807f7fffffffffffffffffffffffffffffff5d576e7357a4501ddfe92f46681b20a08411156149905750600091506003905082614a1a565b604080516000808252602082018084528a905260ff891692820192909252606081018790526080810186905260019060a0016020604051602081039080840390855afa1580156149e4573d6000803e3d6000fd5b5050604051601f1901519150506001600160a01b038116614a1057506000925060019150829050614a1a565b9250600091508190505b9450945094915050565b828054828255906000526020600020908101928215614a5f579160200282015b82811115614a5f578251825591602001919060010190614a44565b50614a6b929150614a90565b5090565b5080546000825560030290600052602060002090810190610c9e9190614aa5565b5b80821115614a6b5760008155600101614a91565b80821115614a6b57805462ffffff19168155600060018201819055614acd6002830182614ad6565b50600301614aa5565b5080546000825590600052602060002090810190610c9e9190614a90565b60ff81168114610c9e57600080fd5b600060208284031215614b1557600080fd5b81356147fd81614af4565b600060608284031215614b3257600080fd5b50919050565b60008083601f840112614b4a57600080fd5b5081356001600160401b03811115614b6157600080fd5b602083019150836020828501011115614b7957600080fd5b9250929050565b600080600060808486031215614b9557600080fd5b614b9f8585614b20565b925060608401356001600160401b03811115614bba57600080fd5b614bc686828701614b38565b9497909650939450505050565b80356001600160a01b0381168114613b8c57600080fd5b600080600060408486031215614bff57600080fd5b614c0884614bd3565b925060208401356001600160401b03811115614bba57600080fd5b600060208284031215614c3557600080fd5b5035919050565b634e487b7160e01b600052604160045260246000fd5b604080519081016001600160401b0381118282101715614c7457614c74614c3c565b60405290565b604051606081016001600160401b0381118282101715614c7457614c74614c3c565b60405160e081016001600160401b0381118282101715614c7457614c74614c3c565b604051601f8201601f191681016001600160401b0381118282101715614ce657614ce6614c3c565b604052919050565b80356001600160401b0381168114613b8c57600080fd5b803563ffffffff81168114613b8c57600080fd5b803561ffff81168114613b8c57600080fd5b80358015158114613b8c57600080fd5b60006001600160401b03821115614d5457614d54614c3c565b5060051b60200190565b6000614d71614d6c84614d3b565b614cbe565b838152905060208101600584901b830185811115614d8e57600080fd5b835b81811015614ead5780356001600160401b03811115614dae57600080fd5b85018088036080811215614dc157600080fd5b614dc9614c52565b6060821215614dd757600080fd5b614ddf614c7a565b9150614dea83614d19565b82526020830135614dfa81614af4565b6020830152604083810135908301529081526060820135906001600160401b03821115614e2657600080fd5b818301925089601f840112614e3a57600080fd5b82359150614e4a614d6c83614d3b565b8083825260208201915060208460051b86010193508b841115614e6c57600080fd5b6020850194505b83851015614e8e578435825260209485019490910190614e73565b8060208401525050808652505050602083019250602081019050614d90565b5050509392505050565b600082601f830112614ec857600080fd5b6147fd83833560208501614d5e565b600060e08284031215614ee957600080fd5b614ef1614c9c565b9050614efc82614cee565b8152614f0a60208301614d05565b6020820152614f1b60408301614d05565b6040820152614f2c60608301614d19565b6060820152614f3d60808301614bd3565b6080820152614f4e60a08301614d2b565b60a082015260c08201356001600160401b03811115614f6c57600080fd5b614f7884828501614eb7565b60c08301525092915050565b600060208284031215614f9657600080fd5b81356001600160401b03811115614fac57600080fd5b61471784828501614ed7565b60005b83811015614fd3578181015183820152602001614fbb565b50506000910152565b60008151808452614ff4816020860160208601614fb8565b601f01601f19169290920160200192915050565b6020815260006147fd6020830184614fdc565b60006020828403121561502d57600080fd5b6147fd82614bd3565b60008060006060848603121561504b57600080fd5b61505484614cee565b925061506260208501614bd3565b929592945050506040919091013590565b815161ffff16815260208083015160ff16908201526040808301519082015260608101613827565b60006001600160401b038211156150b4576150b4614c3c565b50601f01601f191660200190565b600082601f8301126150d357600080fd5b81356150e1614d6c8261509b565b8181528460208386010111156150f657600080fd5b816020850160208301376000918101602001919091529392505050565b60008060006060848603121561512857600080fd5b83356001600160401b0381111561513e57600080fd5b61514a868287016150c2565b93505060208401356001600160401b0381111561516657600080fd5b615172868287016150c2565b92505061518160408501614cee565b90509250925092565b6000806040838503121561519d57600080fd5b82356001600160401b038111156151b357600080fd5b6151bf85828601614ed7565b92505060208301356001600160401b038111156151db57600080fd5b6151e7858286016150c2565b9150509250929050565b6000806040838503121561520457600080fd5b61520d83614cee565b915061521b60208401614bd3565b90509250929050565b60008060006040848603121561523957600080fd5b83356001600160401b0381111561524f57600080fd5b840160e08187031215614c0857600080fd5b6000806040838503121561527457600080fd5b61527d83614bd3565b9150602083013561528d81614af4565b809150509250929050565b634e487b7160e01b600052602160045260246000fd5b60208101600383106152d057634e487b7160e01b600052602160045260246000fd5b91905290565b600080600080600060a086880312156152ee57600080fd5b6152f88787614b20565b945060608601356001600160401b0381111561531357600080fd5b61531f88828901614b38565b90955093505060808601356001600160401b0381111561533e57600080fd5b61534a88828901614b38565b969995985093965092949392505050565b60008060008060008060a0878903121561537457600080fd5b61537d87614bd3565b9550602087013561538d81614af4565b945061539b60408801614d19565b93506060870135925060808701356001600160401b038111156153bd57600080fd5b8701601f810189136153ce57600080fd5b80356001600160401b038111156153e457600080fd5b8960208260051b84010111156153f957600080fd5b60208201935080925050509295509295509295565b60006020828403121561542057600080fd5b6147fd82614cee565b60006020828403121561543b57600080fd5b6147fd82614d19565b634e487b7160e01b600052603260045260246000fd5b634e487b7160e01b600052601160045260246000fd5b6001600160401b0382811682821603908111156138275761382761545a565b600081518084526020840193506020830160005b828110156154c15781518652602095860195909101906001016154a3565b5093949350505050565b6154f1828251805161ffff16825260208082015160ff1690830152604090810151910152565b6000602082015160806060850152614717608085018261548f565b600082825180855260208501945060208160051b8301016020850160005b8381101561555c57601f198584030188526155468383516154cb565b602098890198909350919091019060010161552a565b50909695505050505050565b6101008152600f6101008201527f4572647374616c6c42616c616e636500000000000000000000000000000000006101208201526001600160401b038816602082015263ffffffff8716604082015263ffffffff8616606082015261ffff851660808201526001600160a01b03841660a08201526155ea60c082018415159052565b61014060e0820152600061560261014083018461550c565b9998505050505050505050565b808201808211156138275761382761545a565b6001600160401b0381811683821601908111156138275761382761545a565b60006020828403121561565357600080fd5b6147fd82614d2b565b60006138273683614ed7565b6000808335601e1984360301811261567f57600080fd5b8301803591506001600160401b0382111561569957600080fd5b6020019150600581901b3603821315614b7957600080fd5b60006147fd368484614d5e565b6000602082840312156156d057600080fd5b6147fd82614d05565b63ffffffff81811683821601908111156138275761382761545a565b600063ffffffff821663ffffffff81036157115761571161545a565b60010192915050565b81835260007f07ffffffffffffffffffffffffffffffffffffffffffffffffffffffffffffff83111561574c57600080fd5b8260051b80836020870137939093016020019392505050565b81835281816020850137506000828201602090810191909152601f909101601f19169091010190565b63ffffffff88811682528716602082015260a0604082018190528101859052600060c0600587901b830181019083018883607e1936839003015b8a82101561588d5786850360bf1901845282358181126157e757600080fd5b8c0161ffff6157f582614d19565b168652602081013561580681614af4565b60ff16602087015260408181013590870152606081013536829003601e1901811261583057600080fd5b016020810190356001600160401b0381111561584b57600080fd5b8060051b360382131561585d57600080fd5b6080606088015261587260808801828461571a565b965050506020830192506020840193506001820191506157c8565b50505050851515606084015282810360808401526158ac818587615765565b9a9950505050505050505050565b60ff81811683821601908111156138275761382761545a565b6001600160a01b0384168152604060208201526000611342604083018486615765565b6020815260006147fd60208301846154cb565b60006020828403121561591b57600080fd5b81516001600160401b0381111561593157600080fd5b8201601f8101841361594257600080fd5b8051615950614d6c8261509b565b81815285602083850101111561596557600080fd5b611342826020830160208601614fb8565b60006020828403121561598857600080fd5b81516147fd81614af4565b8481526080602082015260006159ac6080830186614fdc565b82810360408401526159be8186614fdc565b91505060ff8316606083015295945050505050565b8481526080602082015260006159ec6080830186614fdc565b82810360408401526159fe8186614fdc565b90508281036060840152615a128185614fdc565b979650505050505050565b818103818111156138275761382761545a565b634e487b7160e01b600052603160045260246000fd5b600060ff821660ff81036157115761571161545a565b600060ff821680615a6f57615a6f61545a565b6000190192915050565b60006001600160401b03821680615a6f57615a6f61545a565b600082615aaf57634e487b7160e01b600052601260045260246000fd5b500490565b600060018201615ac657615ac661545a565b5060010190565b61ffff851681528360208201526001600160a01b0383166040820152608060608201526000615aff608083018461548f565b9695505050505050565b6000825161ffff815116835260ff60208201511660208401526040810151604084015250606082016020840151818151839150602083019350600092505b808310156141dd5783518252602082019150602084019350600183019250615b47565b6020815260006147fd602083018461550c565b60ff82811682821603908111156138275761382761545a56fea4248ceb280c6f9303d3ba87af96d45c3b0c834338095ab6350dbe86d38c9fc5a2646970667358221220b64ec44b4a77420eb77f4835e76b64fe0f5f9083ad95f3bd63f69df2a8fb63b764736f6c634300081b0033",
  "linkReferences": {},
  "deployedLinkReferences": {}
}