{
  "_format": "hh-sol-artifact-1",
  "contractName": "Erdstall",
  "sourceName": "contracts/Erdstall.sol",
  "abi": [
    {
      "inputs": [
        {
          "internalType": "address",
          "name": "_tee",
          "type": "address"
        },
        {
          "internalType": "uint64",
          "name": "_epochDuration",
          "type": "uint64"
        },
        {
          "internalType": "uint16",
          "name": "_chainID",
          "type": "uint16"
        }
      ],
      "stateMutability": "nonpayable",
      "type": "constructor"
    },
    {
      "inputs": [],
      "name": "AlreadyWithdrawn",
      "type": "error"
    },
    {
      "inputs": [],
      "name": "CallerHasAlreadyChallengedThisEpoch",
      "type": "error"
    },
    {
      "inputs": [],
      "name": "CallerHasNoFrozenDeposits",
      "type": "error"
    },
    {
      "inputs": [],
      "name": "CallerIsNotTokenHolder",
      "type": "error"
    },
    {
      "inputs": [],
      "name": "CallerMustHaveValuesToChallenge",
      "type": "error"
    },
    {
      "inputs": [],
      "name": "EmptyBalanceProof",
      "type": "error"
    },
    {
      "inputs": [],
      "name": "ErdstallIsFrozen",
      "type": "error"
    },
    {
      "inputs": [],
      "name": "ExitProofInChallengeBalanceProof",
      "type": "error"
    },
    {
      "inputs": [],
      "name": "HasOpenChallenges",
      "type": "error"
    },
    {
      "inputs": [],
      "name": "InvalidSignature",
      "type": "error"
    },
    {
      "inputs": [],
      "name": "NoChallengeRegistered",
      "type": "error"
    },
    {
      "inputs": [],
      "name": "NoExitProof",
      "type": "error"
    },
    {
      "inputs": [],
      "name": "NoOpenChallenges",
      "type": "error"
    },
    {
      "inputs": [],
      "name": "PendingFreeze",
      "type": "error"
    },
    {
      "inputs": [],
      "name": "RegisteredTokenTypeMismatch",
      "type": "error"
    },
    {
      "inputs": [],
      "name": "TokenTypeNotRegistered",
      "type": "error"
    },
    {
      "inputs": [],
      "name": "TooEarly",
      "type": "error"
    },
    {
      "inputs": [],
      "name": "WithdrawTooEarlyEpochNotYetSealed",
      "type": "error"
    },
    {
      "inputs": [],
      "name": "WrongBalanceProofEpochForChallenge",
      "type": "error"
    },
    {
      "inputs": [],
      "name": "WrongChain",
      "type": "error"
    },
    {
      "inputs": [],
      "name": "WrongEpoch",
      "type": "error"
    },
    {
      "inputs": [],
      "name": "WrongSender",
      "type": "error"
    },
    {
      "anonymous": false,
      "inputs": [
        {
          "indexed": true,
          "internalType": "uint64",
          "name": "epoch",
          "type": "uint64"
        },
        {
          "indexed": true,
          "internalType": "address",
          "name": "account",
          "type": "address"
        },
        {
          "components": [
            {
              "components": [
                {
                  "internalType": "uint16",
                  "name": "origin",
                  "type": "uint16"
                },
                {
                  "internalType": "uint8",
                  "name": "assetType",
                  "type": "uint8"
                },
                {
                  "internalType": "bytes32",
                  "name": "localID",
                  "type": "bytes32"
                }
              ],
              "internalType": "struct Erdstall.Asset",
              "name": "asset",
              "type": "tuple"
            },
            {
              "internalType": "uint256[]",
              "name": "value",
              "type": "uint256[]"
            }
          ],
          "indexed": false,
          "internalType": "struct Erdstall.TokenValue[]",
          "name": "tokens",
          "type": "tuple[]"
        },
        {
          "indexed": false,
          "internalType": "bytes",
          "name": "sig",
          "type": "bytes"
        }
      ],
      "name": "ChallengeResponded",
      "type": "event"
    },
    {
      "anonymous": false,
      "inputs": [
        {
          "indexed": true,
          "internalType": "uint64",
          "name": "epoch",
          "type": "uint64"
        },
        {
          "indexed": true,
          "internalType": "address",
          "name": "account",
          "type": "address"
        }
      ],
      "name": "Challenged",
      "type": "event"
    },
    {
      "anonymous": false,
      "inputs": [
        {
          "indexed": true,
          "internalType": "uint64",
          "name": "epoch",
          "type": "uint64"
        },
        {
          "indexed": true,
          "internalType": "address",
          "name": "account",
          "type": "address"
        },
        {
          "components": [
            {
              "components": [
                {
                  "internalType": "uint16",
                  "name": "origin",
                  "type": "uint16"
                },
                {
                  "internalType": "uint8",
                  "name": "assetType",
                  "type": "uint8"
                },
                {
                  "internalType": "bytes32",
                  "name": "localID",
                  "type": "bytes32"
                }
              ],
              "internalType": "struct Erdstall.Asset",
              "name": "asset",
              "type": "tuple"
            },
            {
              "internalType": "uint256[]",
              "name": "value",
              "type": "uint256[]"
            }
          ],
          "indexed": false,
          "internalType": "struct Erdstall.TokenValue",
          "name": "value",
          "type": "tuple"
        }
      ],
      "name": "Deposited",
      "type": "event"
    },
    {
      "anonymous": false,
      "inputs": [
        {
          "indexed": true,
          "internalType": "uint64",
          "name": "epoch",
          "type": "uint64"
        }
      ],
      "name": "Frozen",
      "type": "event"
    },
    {
      "anonymous": false,
      "inputs": [
        {
          "indexed": true,
          "internalType": "address",
          "name": "previousOwner",
          "type": "address"
        },
        {
          "indexed": true,
          "internalType": "address",
          "name": "newOwner",
          "type": "address"
        }
      ],
      "name": "OwnershipTransferred",
      "type": "event"
    },
    {
      "anonymous": false,
      "inputs": [
        {
          "indexed": false,
          "internalType": "uint8",
          "name": "assetType",
          "type": "uint8"
        },
        {
          "indexed": false,
          "internalType": "address",
          "name": "tokenHolder",
          "type": "address"
        }
      ],
      "name": "TokenTypeRegistered",
      "type": "event"
    },
    {
      "anonymous": false,
      "inputs": [
        {
          "indexed": true,
          "internalType": "uint64",
          "name": "epoch",
          "type": "uint64"
        },
        {
          "indexed": true,
          "internalType": "address",
          "name": "account",
          "type": "address"
        },
        {
          "components": [
            {
              "components": [
                {
                  "internalType": "uint16",
                  "name": "origin",
                  "type": "uint16"
                },
                {
                  "internalType": "uint8",
                  "name": "assetType",
                  "type": "uint8"
                },
                {
                  "internalType": "bytes32",
                  "name": "localID",
                  "type": "bytes32"
                }
              ],
              "internalType": "struct Erdstall.Asset",
              "name": "asset",
              "type": "tuple"
            },
            {
              "internalType": "uint256[]",
              "name": "value",
              "type": "uint256[]"
            }
          ],
          "indexed": true,
          "internalType": "struct Erdstall.TokenValue",
          "name": "token",
          "type": "tuple"
        },
        {
          "indexed": false,
          "internalType": "bytes",
          "name": "error",
          "type": "bytes"
        }
      ],
      "name": "WithdrawalException",
      "type": "event"
    },
    {
      "anonymous": false,
      "inputs": [
        {
          "indexed": true,
          "internalType": "uint64",
          "name": "epoch",
          "type": "uint64"
        },
        {
          "indexed": true,
          "internalType": "address",
          "name": "account",
          "type": "address"
        },
        {
          "components": [
            {
              "components": [
                {
                  "internalType": "uint16",
                  "name": "origin",
                  "type": "uint16"
                },
                {
                  "internalType": "uint8",
                  "name": "assetType",
                  "type": "uint8"
                },
                {
                  "internalType": "bytes32",
                  "name": "localID",
                  "type": "bytes32"
                }
              ],
              "internalType": "struct Erdstall.Asset",
              "name": "asset",
              "type": "tuple"
            },
            {
              "internalType": "uint256[]",
              "name": "value",
              "type": "uint256[]"
            }
          ],
          "indexed": false,
          "internalType": "struct Erdstall.TokenValue[]",
          "name": "tokens",
          "type": "tuple[]"
        }
      ],
      "name": "Withdrawn",
      "type": "event"
    },
    {
      "inputs": [],
      "name": "bigBangTime",
      "outputs": [
        {
          "internalType": "uint256",
          "name": "",
          "type": "uint256"
        }
      ],
      "stateMutability": "view",
      "type": "function"
    },
    {
      "inputs": [],
      "name": "chainID",
      "outputs": [
        {
          "internalType": "uint16",
          "name": "",
          "type": "uint16"
        }
      ],
      "stateMutability": "view",
      "type": "function"
    },
    {
      "inputs": [
        {
          "components": [
            {
              "internalType": "uint64",
              "name": "epoch",
              "type": "uint64"
            },
            {
              "internalType": "uint16",
              "name": "chain",
              "type": "uint16"
            },
            {
              "internalType": "address",
              "name": "account",
              "type": "address"
            },
            {
              "internalType": "bool",
              "name": "exit",
              "type": "bool"
            },
            {
              "components": [
                {
                  "components": [
                    {
                      "internalType": "uint16",
                      "name": "origin",
                      "type": "uint16"
                    },
                    {
                      "internalType": "uint8",
                      "name": "assetType",
                      "type": "uint8"
                    },
                    {
                      "internalType": "bytes32",
                      "name": "localID",
                      "type": "bytes32"
                    }
                  ],
                  "internalType": "struct Erdstall.Asset",
                  "name": "asset",
                  "type": "tuple"
                },
                {
                  "internalType": "uint256[]",
                  "name": "value",
                  "type": "uint256[]"
                }
              ],
              "internalType": "struct Erdstall.TokenValue[]",
              "name": "tokens",
              "type": "tuple[]"
            }
          ],
          "internalType": "struct Erdstall.Balance",
          "name": "balance",
          "type": "tuple"
        },
        {
          "internalType": "bytes",
          "name": "sig",
          "type": "bytes"
        }
      ],
      "name": "challenge",
      "outputs": [],
      "stateMutability": "nonpayable",
      "type": "function"
    },
    {
      "inputs": [],
      "name": "challengeDeposit",
      "outputs": [],
      "stateMutability": "nonpayable",
      "type": "function"
    },
    {
      "inputs": [
        {
          "internalType": "uint64",
          "name": "",
          "type": "uint64"
        },
        {
          "internalType": "address",
          "name": "",
          "type": "address"
        }
      ],
      "name": "challenges",
      "outputs": [
        {
          "internalType": "bool",
          "name": "",
          "type": "bool"
        }
      ],
      "stateMutability": "view",
      "type": "function"
    },
    {
      "inputs": [],
      "name": "deployBlockNum",
      "outputs": [
        {
          "internalType": "uint64",
          "name": "",
          "type": "uint64"
        }
      ],
      "stateMutability": "view",
      "type": "function"
    },
    {
      "inputs": [
        {
          "internalType": "address",
          "name": "depositor",
          "type": "address"
        },
        {
          "internalType": "uint8",
          "name": "assetType",
          "type": "uint8"
        },
        {
          "internalType": "uint16",
          "name": "origin",
          "type": "uint16"
        },
        {
          "internalType": "bytes32",
          "name": "token",
          "type": "bytes32"
        },
        {
          "internalType": "uint256[]",
          "name": "value",
          "type": "uint256[]"
        }
      ],
      "name": "deposit",
      "outputs": [],
      "stateMutability": "nonpayable",
      "type": "function"
    },
    {
      "inputs": [
        {
          "internalType": "uint64",
          "name": "",
          "type": "uint64"
        },
        {
          "internalType": "address",
          "name": "",
          "type": "address"
        },
        {
          "internalType": "uint256",
          "name": "",
          "type": "uint256"
        }
      ],
      "name": "deposits",
      "outputs": [
        {
          "components": [
            {
              "internalType": "uint16",
              "name": "origin",
              "type": "uint16"
            },
            {
              "internalType": "uint8",
              "name": "assetType",
              "type": "uint8"
            },
            {
              "internalType": "bytes32",
              "name": "localID",
              "type": "bytes32"
            }
          ],
          "internalType": "struct Erdstall.Asset",
          "name": "asset",
          "type": "tuple"
        }
      ],
      "stateMutability": "view",
      "type": "function"
    },
    {
      "inputs": [
        {
          "components": [
            {
              "internalType": "uint64",
              "name": "epoch",
              "type": "uint64"
            },
            {
              "internalType": "uint16",
              "name": "chain",
              "type": "uint16"
            },
            {
              "internalType": "address",
              "name": "account",
              "type": "address"
            },
            {
              "internalType": "bool",
              "name": "exit",
              "type": "bool"
            },
            {
              "components": [
                {
                  "components": [
                    {
                      "internalType": "uint16",
                      "name": "origin",
                      "type": "uint16"
                    },
                    {
                      "internalType": "uint8",
                      "name": "assetType",
                      "type": "uint8"
                    },
                    {
                      "internalType": "bytes32",
                      "name": "localID",
                      "type": "bytes32"
                    }
                  ],
                  "internalType": "struct Erdstall.Asset",
                  "name": "asset",
                  "type": "tuple"
                },
                {
                  "internalType": "uint256[]",
                  "name": "value",
                  "type": "uint256[]"
                }
              ],
              "internalType": "struct Erdstall.TokenValue[]",
              "name": "tokens",
              "type": "tuple[]"
            }
          ],
          "internalType": "struct Erdstall.Balance",
          "name": "balance",
          "type": "tuple"
        }
      ],
      "name": "encodeBalanceProof",
      "outputs": [
        {
          "internalType": "bytes",
          "name": "",
          "type": "bytes"
        }
      ],
      "stateMutability": "view",
      "type": "function"
    },
    {
      "inputs": [],
      "name": "ensureFrozen",
      "outputs": [],
      "stateMutability": "nonpayable",
      "type": "function"
    },
    {
      "inputs": [],
      "name": "epochDuration",
      "outputs": [
        {
          "internalType": "uint64",
          "name": "",
          "type": "uint64"
        }
      ],
      "stateMutability": "view",
      "type": "function"
    },
    {
      "inputs": [],
      "name": "frozenEpoch",
      "outputs": [
        {
          "internalType": "uint64",
          "name": "",
          "type": "uint64"
        }
      ],
      "stateMutability": "view",
      "type": "function"
    },
    {
      "inputs": [
        {
          "internalType": "address",
          "name": "",
          "type": "address"
        }
      ],
      "name": "holderTypes",
      "outputs": [
        {
          "internalType": "uint8",
          "name": "",
          "type": "uint8"
        }
      ],
      "stateMutability": "view",
      "type": "function"
    },
    {
      "inputs": [
        {
          "internalType": "uint64",
          "name": "",
          "type": "uint64"
        }
      ],
      "name": "numChallenges",
      "outputs": [
        {
          "internalType": "uint256",
          "name": "",
          "type": "uint256"
        }
      ],
      "stateMutability": "view",
      "type": "function"
    },
    {
      "inputs": [],
      "name": "owner",
      "outputs": [
        {
          "internalType": "address",
          "name": "",
          "type": "address"
        }
      ],
      "stateMutability": "view",
      "type": "function"
    },
    {
      "inputs": [
        {
          "internalType": "address",
          "name": "holder",
          "type": "address"
        },
        {
          "internalType": "uint8",
          "name": "localTokenType",
          "type": "uint8"
        }
      ],
      "name": "registerTokenType",
      "outputs": [],
      "stateMutability": "nonpayable",
      "type": "function"
    },
    {
      "inputs": [],
      "name": "renounceOwnership",
      "outputs": [],
      "stateMutability": "nonpayable",
      "type": "function"
    },
    {
      "inputs": [
        {
          "components": [
            {
              "internalType": "uint64",
              "name": "epoch",
              "type": "uint64"
            },
            {
              "internalType": "uint16",
              "name": "chain",
              "type": "uint16"
            },
            {
              "internalType": "address",
              "name": "account",
              "type": "address"
            },
            {
              "internalType": "bool",
              "name": "exit",
              "type": "bool"
            },
            {
              "components": [
                {
                  "components": [
                    {
                      "internalType": "uint16",
                      "name": "origin",
                      "type": "uint16"
                    },
                    {
                      "internalType": "uint8",
                      "name": "assetType",
                      "type": "uint8"
                    },
                    {
                      "internalType": "bytes32",
                      "name": "localID",
                      "type": "bytes32"
                    }
                  ],
                  "internalType": "struct Erdstall.Asset",
                  "name": "asset",
                  "type": "tuple"
                },
                {
                  "internalType": "uint256[]",
                  "name": "value",
                  "type": "uint256[]"
                }
              ],
              "internalType": "struct Erdstall.TokenValue[]",
              "name": "tokens",
              "type": "tuple[]"
            }
          ],
          "internalType": "struct Erdstall.Balance",
          "name": "balance",
          "type": "tuple"
        },
        {
          "internalType": "bytes",
          "name": "sig",
          "type": "bytes"
        }
      ],
      "name": "respondChallenge",
      "outputs": [],
      "stateMutability": "nonpayable",
      "type": "function"
    },
    {
      "inputs": [],
      "name": "tee",
      "outputs": [
        {
          "internalType": "address",
          "name": "",
          "type": "address"
        }
      ],
      "stateMutability": "view",
      "type": "function"
    },
    {
      "inputs": [
        {
          "internalType": "uint8",
          "name": "",
          "type": "uint8"
        }
      ],
      "name": "tokenHolders",
      "outputs": [
        {
          "internalType": "contract TokenHolder",
          "name": "",
          "type": "address"
        }
      ],
      "stateMutability": "view",
      "type": "function"
    },
    {
      "inputs": [
        {
          "internalType": "address",
          "name": "newOwner",
          "type": "address"
        }
      ],
      "name": "transferOwnership",
      "outputs": [],
      "stateMutability": "nonpayable",
      "type": "function"
    },
    {
      "inputs": [
        {
          "components": [
            {
              "internalType": "uint64",
              "name": "epoch",
              "type": "uint64"
            },
            {
              "internalType": "uint16",
              "name": "chain",
              "type": "uint16"
            },
            {
              "internalType": "address",
              "name": "account",
              "type": "address"
            },
            {
              "internalType": "bool",
              "name": "exit",
              "type": "bool"
            },
            {
              "components": [
                {
                  "components": [
                    {
                      "internalType": "uint16",
                      "name": "origin",
                      "type": "uint16"
                    },
                    {
                      "internalType": "uint8",
                      "name": "assetType",
                      "type": "uint8"
                    },
                    {
                      "internalType": "bytes32",
                      "name": "localID",
                      "type": "bytes32"
                    }
                  ],
                  "internalType": "struct Erdstall.Asset",
                  "name": "asset",
                  "type": "tuple"
                },
                {
                  "internalType": "uint256[]",
                  "name": "value",
                  "type": "uint256[]"
                }
              ],
              "internalType": "struct Erdstall.TokenValue[]",
              "name": "tokens",
              "type": "tuple[]"
            }
          ],
          "internalType": "struct Erdstall.Balance",
          "name": "balance",
          "type": "tuple"
        },
        {
          "internalType": "bytes",
          "name": "sig",
          "type": "bytes"
        }
      ],
      "name": "verifyBalance",
      "outputs": [],
      "stateMutability": "view",
      "type": "function"
    },
    {
      "inputs": [
        {
          "components": [
            {
              "internalType": "uint64",
              "name": "epoch",
              "type": "uint64"
            },
            {
              "internalType": "uint16",
              "name": "chain",
              "type": "uint16"
            },
            {
              "internalType": "address",
              "name": "account",
              "type": "address"
            },
            {
              "internalType": "bool",
              "name": "exit",
              "type": "bool"
            },
            {
              "components": [
                {
                  "components": [
                    {
                      "internalType": "uint16",
                      "name": "origin",
                      "type": "uint16"
                    },
                    {
                      "internalType": "uint8",
                      "name": "assetType",
                      "type": "uint8"
                    },
                    {
                      "internalType": "bytes32",
                      "name": "localID",
                      "type": "bytes32"
                    }
                  ],
                  "internalType": "struct Erdstall.Asset",
                  "name": "asset",
                  "type": "tuple"
                },
                {
                  "internalType": "uint256[]",
                  "name": "value",
                  "type": "uint256[]"
                }
              ],
              "internalType": "struct Erdstall.TokenValue[]",
              "name": "tokens",
              "type": "tuple[]"
            }
          ],
          "internalType": "struct Erdstall.Balance",
          "name": "balance",
          "type": "tuple"
        },
        {
          "internalType": "bytes",
          "name": "sig",
          "type": "bytes"
        }
      ],
      "name": "withdraw",
      "outputs": [],
      "stateMutability": "nonpayable",
      "type": "function"
    },
    {
      "inputs": [
        {
          "components": [
            {
              "internalType": "uint64",
              "name": "epoch",
              "type": "uint64"
            },
            {
              "internalType": "uint16",
              "name": "chain",
              "type": "uint16"
            },
            {
              "internalType": "address",
              "name": "account",
              "type": "address"
            },
            {
              "internalType": "bool",
              "name": "exit",
              "type": "bool"
            },
            {
              "components": [
                {
                  "components": [
                    {
                      "internalType": "uint16",
                      "name": "origin",
                      "type": "uint16"
                    },
                    {
                      "internalType": "uint8",
                      "name": "assetType",
                      "type": "uint8"
                    },
                    {
                      "internalType": "bytes32",
                      "name": "localID",
                      "type": "bytes32"
                    }
                  ],
                  "internalType": "struct Erdstall.Asset",
                  "name": "asset",
                  "type": "tuple"
                },
                {
                  "internalType": "uint256[]",
                  "name": "value",
                  "type": "uint256[]"
                }
              ],
              "internalType": "struct Erdstall.TokenValue[]",
              "name": "tokens",
              "type": "tuple[]"
            }
          ],
          "internalType": "struct Erdstall.Balance",
          "name": "balance",
          "type": "tuple"
        },
        {
          "internalType": "bytes",
          "name": "sig",
          "type": "bytes"
        }
      ],
      "name": "withdrawFrozen",
      "outputs": [],
      "stateMutability": "nonpayable",
      "type": "function"
    },
    {
      "inputs": [],
      "name": "withdrawFrozenDeposit",
      "outputs": [],
      "stateMutability": "nonpayable",
      "type": "function"
    },
    {
      "inputs": [
        {
          "internalType": "uint64",
          "name": "",
          "type": "uint64"
        },
        {
          "internalType": "address",
          "name": "",
          "type": "address"
        }
      ],
      "name": "withdrawn",
      "outputs": [
        {
          "internalType": "bool",
          "name": "",
          "type": "bool"
        }
      ],
      "stateMutability": "view",
      "type": "function"
    }
  ],
  "bytecode": "0x610120604052600780546001600160401b0319166002600160401b031790553480156200002b57600080fd5b50604051620039e2380380620039e28339810160408190526200004e91620000f2565b6200005933620000a2565b60609290921b6001600160601b0319166080524360c090811b6001600160c01b031990811660a05242825291901b1660e05260f01b6001600160f01b0319166101005262000162565b600080546001600160a01b038381166001600160a01b0319831681178455604051919092169283917f8be0079c531659141344cd1fd0a4f28419497f9722a3daafe3b4186f6b6457e09190a35050565b6000806000606084860312156200010857600080fd5b83516001600160a01b03811681146200012057600080fd5b60208501519093506001600160401b03811681146200013e57600080fd5b604085015190925061ffff811681146200015757600080fd5b809150509250925092565b60805160601c60a05160c01c60c05160e05160c01c6101005160f01c6137f7620001eb60003960008181610429015281816107cb01528181610a1a01528181610e150152818161133f015261257e0152600081816102db0152611b4e0152600081816103f40152611b730152600061032f01526000818161035e015261161401526137f76000f3fe608060405234801561001057600080fd5b50600436106101ae5760003560e01c8063715018a6116100ee578063ba48747311610097578063dd3409ee11610071578063dd3409ee146104a4578063e83fd411146104b7578063f2910773146104ca578063f2fde38b146104ea57600080fd5b8063ba4874731461045e578063bfd93a2714610471578063d34c9d361461048457600080fd5b8063a33a0540116100c8578063a33a0540146103c1578063aa0f8787146103ef578063adc879e91461042457600080fd5b8063715018a61461039357806384d984321461039b5780638da5cb5b146103a357600080fd5b80634e9051341161015b5780636463287711610135578063646328771461032a57806364c38ddd1461035157806367eeb62b1461035957806370be9fa31461038057600080fd5b80634e905134146102b65780634ff0876a146102d6578063585db72a1461031657600080fd5b80633aa4ac0b1161018c5780633aa4ac0b1461025b578063496df9c61461026e5780634a9527a81461028157600080fd5b8063072f8cca146101b35780630d13fd7b14610213578063234c49a01461021d575b600080fd5b6101e96101c1366004612f92565b60026020526000908152604090205473ffffffffffffffffffffffffffffffffffffffff1681565b60405173ffffffffffffffffffffffffffffffffffffffff90911681526020015b60405180910390f35b61021b6104fd565b005b61024b61022b366004612f2c565b600560209081526000928352604080842090915290825290205460ff1681565b604051901515815260200161020a565b61021b610269366004612d45565b6105ef565b61021b61027c366004612d45565b610954565b6102a461028f366004612c2c565b60016020526000908152604090205460ff1681565b60405160ff909116815260200161020a565b6102c96102c4366004612f56565b610b0d565b60405161020a91906133ef565b6102fd7f000000000000000000000000000000000000000000000000000000000000000081565b60405167ffffffffffffffff909116815260200161020a565b6007546102fd9067ffffffffffffffff1681565b6102fd7f000000000000000000000000000000000000000000000000000000000000000081565b61021b610b81565b6101e97f000000000000000000000000000000000000000000000000000000000000000081565b61021b61038e366004612d45565b610ccd565b61021b610f86565b61021b610f9a565b60005473ffffffffffffffffffffffffffffffffffffffff166101e9565b61024b6103cf366004612f2c565b600460209081526000928352604080842090915290825290205460ff1681565b6104167f000000000000000000000000000000000000000000000000000000000000000081565b60405190815260200161020a565b61044b7f000000000000000000000000000000000000000000000000000000000000000081565b60405161ffff909116815260200161020a565b61021b61046c366004612c47565b611056565b61021b61047f366004612d45565b6111ac565b610497610492366004612de4565b6115c0565b60405161020a91906132ea565b61021b6104b2366004612e21565b611605565b61021b6104c5366004612c7a565b61166e565b6104166104d8366004612f11565b60066020526000908152604090205481565b61021b6104f8366004612c2c565b611a88565b61051b60075467ffffffffffffffff1667fffffffffffffffe141590565b15610552576040517fb29ebf1400000000000000000000000000000000000000000000000000000000815260040160405180910390fd5b600061055c611b41565b905060038167ffffffffffffffff16106105e25767ffffffffffffffff7ffffffffffffffffffffffffffffffffffffffffffffffffffffffffffffffffd820116600090815260066020526040902054156105e2576040517e5be66700000000000000000000000000000000000000000000000000000000815260040160405180910390fd5b6105ec6000611ba7565b50565b61060d60075467ffffffffffffffff1667fffffffffffffffe141590565b15610644576040517fb29ebf1400000000000000000000000000000000000000000000000000000000815260040160405180910390fd5b600061064e611b41565b905060038167ffffffffffffffff16106106d45767ffffffffffffffff7ffffffffffffffffffffffffffffffffffffffffffffffffffffffffffffffffd820116600090815260066020526040902054156106d4576040517e5be66700000000000000000000000000000000000000000000000000000000815260040160405180910390fd5b60006106de611b41565b905060028167ffffffffffffffff16106107655767ffffffffffffffff7ffffffffffffffffffffffffffffffffffffffffffffffffffffffffffffffffe82011660009081526006602052604090205415610765576040517f89cac7c100000000000000000000000000000000000000000000000000000000815260040160405180910390fd5b61076d611d2b565b67ffffffffffffffff166107846020870187612f11565b67ffffffffffffffff1611156107c6576040517fe6e64ebc00000000000000000000000000000000000000000000000000000000815260040160405180910390fd5b61ffff7f0000000000000000000000000000000000000000000000000000000000000000166107fb6040870160208801612ef6565b61ffff1614610836576040517f10dfc03300000000000000000000000000000000000000000000000000000000815260040160405180910390fd5b336108476060870160408801612c2c565b73ffffffffffffffffffffffffffffffffffffffff1614610894576040517f4e6a565c00000000000000000000000000000000000000000000000000000000815260040160405180910390fd5b6108a46080860160608701612d2a565b6108da576040517fa5736a8100000000000000000000000000000000000000000000000000000000815260040160405180910390fd5b6109226108e68661368b565b85858080601f01602080910402602001604051908101604052809392919081815260200183838082843760009201919091525061160592505050565b61094d6109326020870187612f11565b61093f6080880188613473565b6109489161367e565b611da4565b5050505050565b61095c610b81565b3361096d6060850160408601612c2c565b73ffffffffffffffffffffffffffffffffffffffff16146109ba576040517f4e6a565c00000000000000000000000000000000000000000000000000000000815260040160405180910390fd5b60075467ffffffffffffffff166109d46020850185612f11565b67ffffffffffffffff1614610a15576040517f254f6ab200000000000000000000000000000000000000000000000000000000815260040160405180910390fd5b61ffff7f000000000000000000000000000000000000000000000000000000000000000016610a4a6040850160208601612ef6565b61ffff1614610a85576040517f10dfc03300000000000000000000000000000000000000000000000000000000815260040160405180910390fd5b610acd610a918461368b565b83838080601f01602080910402602001604051908101604052809392919081815260200183838082843760009201919091525061160592505050565b6000610aed610adf6080860186613473565b610ae89161367e565b61206a565b600754909150610b079067ffffffffffffffff1682611da4565b50505050565b60036020528260005260406000206020528160005260406000208181548110610b3557600080fd5b6000918252602091829020604080516060810182526003909302909101805461ffff8116845260ff62010000909104169383019390935260019092015491810191909152925083915050565b610b9f60075467ffffffffffffffff1667fffffffffffffffe141590565b15610ba657565b6000610bb0611b41565b905060048167ffffffffffffffff161015610bf7576040517f085de62500000000000000000000000000000000000000000000000000000000815260040160405180910390fd5b6000610c04600383613655565b67ffffffffffffffff8116600090815260066020526040902054909150610c57576040517fbf1d9a6600000000000000000000000000000000000000000000000000000000815260040160405180910390fd5b6000610c64600183613655565b600780547fffffffffffffffffffffffffffffffffffffffffffffffff00000000000000001667ffffffffffffffff8316908117909155604051919250907f5e20151a99b0432a9ac06d33b91b77d3134ce0638cc70d7df042947ca48a2caf90600090a2505050565b610ceb60075467ffffffffffffffff1667fffffffffffffffe141590565b15610d22576040517fb29ebf1400000000000000000000000000000000000000000000000000000000815260040160405180910390fd5b6000610d2c611b41565b905060038167ffffffffffffffff1610610db25767ffffffffffffffff7ffffffffffffffffffffffffffffffffffffffffffffffffffffffffffffffffd82011660009081526006602052604090205415610db2576040517e5be66700000000000000000000000000000000000000000000000000000000815260040160405180910390fd5b33610dc36060860160408701612c2c565b73ffffffffffffffffffffffffffffffffffffffff1614610e10576040517f4e6a565c00000000000000000000000000000000000000000000000000000000815260040160405180910390fd5b61ffff7f000000000000000000000000000000000000000000000000000000000000000016610e456040860160208701612ef6565b61ffff1614610e80576040517f10dfc03300000000000000000000000000000000000000000000000000000000815260040160405180910390fd5b610e88611d2b565b67ffffffffffffffff16610e9f6020860186612f11565b67ffffffffffffffff1614610ee0576040517f4b19579400000000000000000000000000000000000000000000000000000000815260040160405180910390fd5b610ef06080850160608601612d2a565b15610f27576040517f7efd34f300000000000000000000000000000000000000000000000000000000815260040160405180910390fd5b610f6f610f338561368b565b84848080601f01602080910402602001604051908101604052809392919081815260200183838082843760009201919091525061160592505050565b610b07610f7f6080860186613473565b9050611ba7565b610f8e6123e6565b610f986000612467565b565b610fa2610b81565b604080516000808252602082019092526110019082610ffb565b6040805160a08101825260009181018281526060808301849052608083019390935281526020810191909152815260200190600190039081610fbc5790505b5061206a565b905080516000141561103f576040517f52e45e7e00000000000000000000000000000000000000000000000000000000815260040160405180910390fd5b6007546105ec9067ffffffffffffffff1682611da4565b61105e6123e6565b73ffffffffffffffffffffffffffffffffffffffff821660009081526001602052604090205460ff1680156110db576110988260016135de565b60ff168160ff16146110d6576040517fc081a4b800000000000000000000000000000000000000000000000000000000815260040160405180910390fd5b505050565b6110e68260016135de565b73ffffffffffffffffffffffffffffffffffffffff8416600081815260016020908152604080832080547fffffffffffffffffffffffffffffffffffffffffffffffffffffffffffffff001660ff968716179055938616808352600282529184902080547fffffffffffffffffffffffff0000000000000000000000000000000000000000168417905583519182528101919091527fa67714b04395227af4e4053e2f5b91c09833fa91968bef5e1e3190437ac329c5910160405180910390a1505b5050565b6111ca60075467ffffffffffffffff1667fffffffffffffffe141590565b15611201576040517fb29ebf1400000000000000000000000000000000000000000000000000000000815260040160405180910390fd5b600061120b611b41565b905060038167ffffffffffffffff16106112915767ffffffffffffffff7ffffffffffffffffffffffffffffffffffffffffffffffffffffffffffffffffd82011660009081526006602052604090205415611291576040517e5be66700000000000000000000000000000000000000000000000000000000815260040160405180910390fd5b6000600261129d611b41565b6112a79190613655565b905067ffffffffffffffff81166112c16020870187612f11565b67ffffffffffffffff161415801561130357506112df8160016135b2565b67ffffffffffffffff166112f66020870187612f11565b67ffffffffffffffff1614155b1561133a576040517f254f6ab200000000000000000000000000000000000000000000000000000000815260040160405180910390fd5b61ffff7f00000000000000000000000000000000000000000000000000000000000000001661136f6040870160208801612ef6565b61ffff16146113aa576040517f10dfc03300000000000000000000000000000000000000000000000000000000815260040160405180910390fd5b6113ba6080860160608701612d2a565b6113f0576040517fa5736a8100000000000000000000000000000000000000000000000000000000815260040160405180910390fd5b6113fc6108e68661368b565b67ffffffffffffffff811660009081526005602052604080822091906114289060608901908901612c2c565b73ffffffffffffffffffffffffffffffffffffffff16815260208101919091526040016000205460ff16611488576040517f0ce63e0600000000000000000000000000000000000000000000000000000000815260040160405180910390fd5b67ffffffffffffffff81166000908152600560205260408082209082906114b59060608a01908a01612c2c565b73ffffffffffffffffffffffffffffffffffffffff1681526020808201929092526040908101600090812080547fffffffffffffffffffffffffffffffffffffffffffffffffffffffffffffff00169415159490941790935567ffffffffffffffff841683526006909152812080549161152e83613697565b9091555061154490506060860160408701612c2c565b73ffffffffffffffffffffffffffffffffffffffff166115676020870187612f11565b67ffffffffffffffff167f2f5fd61b94d08253760e0bf33c2073a8ae2fb313b91ae7dc7418cfbbb5f2bdbd61159f6080890189613473565b88886040516115b1949392919061317b565b60405180910390a35050505050565b6060816000015182602001518360400151846060015185608001516040516020016115ef95949392919061335d565b6040516020818303038152906040529050919050565b611638611611836115c0565b827f00000000000000000000000000000000000000000000000000000000000000006124dc565b6111a8576040517f8baa579f00000000000000000000000000000000000000000000000000000000815260040160405180910390fd5b3360009081526001602052604090205460ff166116b7576040517f0c4abd2a00000000000000000000000000000000000000000000000000000000815260040160405180910390fd5b6116d560075467ffffffffffffffff1667fffffffffffffffe141590565b1561170c576040517fb29ebf1400000000000000000000000000000000000000000000000000000000815260040160405180910390fd5b6000611716611b41565b905060038167ffffffffffffffff161061179c5767ffffffffffffffff7ffffffffffffffffffffffffffffffffffffffffffffffffffffffffffffffffd8201166000908152600660205260409020541561179c576040517e5be66700000000000000000000000000000000000000000000000000000000815260040160405180910390fd5b60006117a6611b41565b905060028167ffffffffffffffff161061182d5767ffffffffffffffff7ffffffffffffffffffffffffffffffffffffffffffffffffffffffffffffffffe8201166000908152600660205260409020541561182d576040517f89cac7c100000000000000000000000000000000000000000000000000000000815260040160405180910390fd5b6000611837611b41565b60ff891660009081526002602052604090205490915073ffffffffffffffffffffffffffffffffffffffff166118a25760ff8816600090815260026020526040902080547fffffffffffffffffffffffff000000000000000000000000000000000000000016331790555b6000604051806040016040528060405180606001604052808b61ffff1681526020018c60ff1681526020018a8152508152602001878780806020026020016040519081016040528093929190818152602001838360200280828437600081840152601f19601f820116905080830192505050505050508152509050600360008367ffffffffffffffff1667ffffffffffffffff16815260200190815260200160002060008b73ffffffffffffffffffffffffffffffffffffffff1673ffffffffffffffffffffffffffffffffffffffff16815260200190815260200160002081908060018154018082558091505060019003906000526020600020906003020160009091909190915060008201518160000160008201518160000160006101000a81548161ffff021916908361ffff16021790555060208201518160000160026101000a81548160ff021916908360ff1602179055506040820151816001015550506020820151816002019080519060200190611a2092919061294c565b5050508973ffffffffffffffffffffffffffffffffffffffff168267ffffffffffffffff167feb3100c7367bb9282fc3c80cba98d82025422adc0f72a4e137d0acc3757f849283604051611a749190613417565b60405180910390a350505050505050505050565b611a906123e6565b73ffffffffffffffffffffffffffffffffffffffff8116611b38576040517f08c379a000000000000000000000000000000000000000000000000000000000815260206004820152602660248201527f4f776e61626c653a206e6577206f776e657220697320746865207a65726f206160448201527f646472657373000000000000000000000000000000000000000000000000000060648201526084015b60405180910390fd5b6105ec81612467565b600067ffffffffffffffff7f000000000000000000000000000000000000000000000000000000000000000016611b987f00000000000000000000000000000000000000000000000000000000000000004261363e565b611ba29190613603565b905090565b60006001611bb3611b41565b611bbd9190613655565b67ffffffffffffffff8116600090815260056020908152604080832033845290915290205490915060ff1615611c1f576040517f860ec9c300000000000000000000000000000000000000000000000000000000815260040160405180910390fd5b67ffffffffffffffff81166000908152600360209081526040808320338452909152812054611c4e908461359a565b905080611c87576040517f2660a46d00000000000000000000000000000000000000000000000000000000815260040160405180910390fd5b67ffffffffffffffff82166000818152600560209081526040808320338452825280832080547fffffffffffffffffffffffffffffffffffffffffffffffffffffffffffffff0016600117905592825260069052908120805491611cea836136cc565b9091555050604051339067ffffffffffffffff8416907f9f71686e9e2eed0a0a99340b1c3b230369f255b1d452130cead54f8308654dfd90600090a3505050565b600080611d36611b41565b905060028167ffffffffffffffff161015611d7d576040517f085de62500000000000000000000000000000000000000000000000000000000815260040160405180910390fd5b7ffffffffffffffffffffffffffffffffffffffffffffffffffffffffffffffffe01919050565b67ffffffffffffffff8216600090815260046020908152604080832033845290915290205460ff1615611e03576040517f6507689f00000000000000000000000000000000000000000000000000000000815260040160405180910390fd5b67ffffffffffffffff82166000908152600460209081526040808320338452909152902080547fffffffffffffffffffffffffffffffffffffffffffffffffffffffffffffff001660011790558051611e88576040517feae9756900000000000000000000000000000000000000000000000000000000815260040160405180910390fd5b60005b815181101561200c576000828281518110611ea857611ea8613763565b602002602001015190506000611ec18260000151612572565b82518051604091820151602086015192517fd1beaffa00000000000000000000000000000000000000000000000000000000815293945073ffffffffffffffffffffffffffffffffffffffff85169363d1beaffa93611f2793929133919060040161342a565b600060405180830381600087803b158015611f4157600080fd5b505af1925050508015611f52575060015b611ff7573d808015611f80576040519150601f19603f3d011682016040523d82523d6000602084013e611f85565b606091505b5082604051611f949190613116565b60405180910390203373ffffffffffffffffffffffffffffffffffffffff168767ffffffffffffffff167f17c878afc06be2054e373e11d19bd490c8a7957085244d6154d1c9f7f7799d6684604051611fed91906132ea565b60405180910390a4505b50508080612004906136cc565b915050611e8b565b503373ffffffffffffffffffffffffffffffffffffffff168267ffffffffffffffff167fc28beb9414af60e5f13561f08a5f1b5719d8bd778c3159c33c9cf261d7fb89848360405161205e91906132d7565b60405180910390a35050565b600754606090600090600390829061208d9067ffffffffffffffff1660016135b2565b67ffffffffffffffff90811682526020808301939093526040918201600090812033825290935290822060075490935060039183916120ce911660026135b2565b67ffffffffffffffff168152602080820192909252604090810160009081203382529092528120805484548751929450909161210a919061359a565b612114919061359a565b67ffffffffffffffff81111561212c5761212c613792565b60405190808252806020026020018201604052801561218957816020015b6040805160a0810182526000918101828152606080830184905260808301939093528152602081019190915281526020019060019003908161214a5790505b50905060005b85518110156121e2578581815181106121aa576121aa613763565b60200260200101518282815181106121c4576121c4613763565b602002602001018190525080806121da906136cc565b91505061218f565b5060005b83548110156122d95783818154811061220157612201613763565b60009182526020918290206040805160a081018252600393909302909101805461ffff81168484019081526201000090910460ff16606085015260018201546080850152835260028101805483518187028101870190945280845293949193858301939283018282801561229457602002820191906000526020600020905b815481526020019060010190808311612280575b505050505081525050828751836122ab919061359a565b815181106122bb576122bb613763565b602002602001018190525080806122d1906136cc565b9150506121e6565b5060005b82548110156123dd578281815481106122f8576122f8613763565b60009182526020918290206040805160a081018252600393909302909101805461ffff81168484019081526201000090910460ff16606085015260018201546080850152835260028101805483518187028101870190945280845293949193858301939283018282801561238b57602002820191906000526020600020905b815481526020019060010190808311612377575b505050919092525050855488518592506123a5908561359a565b6123af919061359a565b815181106123bf576123bf613763565b602002602001018190525080806123d5906136cc565b9150506122dd565b50949350505050565b60005473ffffffffffffffffffffffffffffffffffffffff163314610f98576040517f08c379a000000000000000000000000000000000000000000000000000000000815260206004820181905260248201527f4f776e61626c653a2063616c6c6572206973206e6f7420746865206f776e65726044820152606401611b2f565b6000805473ffffffffffffffffffffffffffffffffffffffff8381167fffffffffffffffffffffffff0000000000000000000000000000000000000000831681178455604051919092169283917f8be0079c531659141344cd1fd0a4f28419497f9722a3daafe3b4186f6b6457e09190a35050565b60008061253d85805190602001206040517f19457468657265756d205369676e6564204d6573736167653a0a3332000000006020820152603c8101829052600090605c01604051602081830303815290604052805190602001209050919050565b9050600061254b828661263a565b73ffffffffffffffffffffffffffffffffffffffff90811690851614925050509392505050565b600080826020015190507f000000000000000000000000000000000000000000000000000000000000000061ffff16836000015161ffff161480156125bc5750602083015160ff16155b80156125ca57506040830151155b156125d3575060025b60ff811660009081526002602052604090205473ffffffffffffffffffffffffffffffffffffffff1680612633576040517fc9adea7a00000000000000000000000000000000000000000000000000000000815260040160405180910390fd5b9392505050565b60008060006126498585612660565b91509150612656816126a6565b5090505b92915050565b6000808251604114156126975760208301516040840151606085015160001a61268b8782858561285d565b9450945050505061269f565b506000905060025b9250929050565b60008160048111156126ba576126ba613734565b14156126c35750565b60018160048111156126d7576126d7613734565b141561273f576040517f08c379a000000000000000000000000000000000000000000000000000000000815260206004820152601860248201527f45434453413a20696e76616c6964207369676e617475726500000000000000006044820152606401611b2f565b600281600481111561275357612753613734565b14156127bb576040517f08c379a000000000000000000000000000000000000000000000000000000000815260206004820152601f60248201527f45434453413a20696e76616c6964207369676e6174757265206c656e677468006044820152606401611b2f565b60038160048111156127cf576127cf613734565b14156105ec576040517f08c379a000000000000000000000000000000000000000000000000000000000815260206004820152602260248201527f45434453413a20696e76616c6964207369676e6174757265202773272076616c60448201527f75650000000000000000000000000000000000000000000000000000000000006064820152608401611b2f565b6000807f7fffffffffffffffffffffffffffffff5d576e7357a4501ddfe92f46681b20a08311156128945750600090506003612943565b6040805160008082526020820180845289905260ff881692820192909252606081018690526080810185905260019060a0016020604051602081039080840390855afa1580156128e8573d6000803e3d6000fd5b50506040517fffffffffffffffffffffffffffffffffffffffffffffffffffffffffffffffe0015191505073ffffffffffffffffffffffffffffffffffffffff811661293c57600060019250925050612943565b9150600090505b94509492505050565b828054828255906000526020600020908101928215612987579160200282015b8281111561298757825182559160200191906001019061296c565b50612993929150612997565b5090565b5b808211156129935760008155600101612998565b60006129bf6129ba84613576565b613527565b838152905060208082019083600586811b82018810156129de57600080fd5b60005b87811015612aef57823567ffffffffffffffff80821115612a0157600080fd5b90880190818b036080811215612a1657600080fd5b612a1e6134db565b606080831215612a2d57600080fd5b612a35613504565b9250612a4085612bf1565b8352612a4d898601612c1b565b838a015260408581013590840152918152908301359082821115612a7057600080fd5b81840193508c601f850112612a8457600080fd5b83359250612a946129ba84613576565b838152888101925084890184881b86018a018f1015612ab257600080fd5b600095505b84861015612ad5578035845260019590950194928901928901612ab7565b5081890152885250505093830193918301916001016129e1565b50505050509392505050565b803573ffffffffffffffffffffffffffffffffffffffff81168114612b1f57600080fd5b919050565b80358015158114612b1f57600080fd5b600060a08284031215612b4657600080fd5b60405160a0810167ffffffffffffffff8282108183111715612b6a57612b6a613792565b81604052829350612b7a85612c03565b8352612b8860208601612bf1565b6020840152612b9960408601612afb565b6040840152612baa60608601612b24565b60608401526080850135915080821115612bc357600080fd5b508301601f81018513612bd557600080fd5b612be4858235602084016129ac565b6080830152505092915050565b803561ffff81168114612b1f57600080fd5b803567ffffffffffffffff81168114612b1f57600080fd5b803560ff81168114612b1f57600080fd5b600060208284031215612c3e57600080fd5b61263382612afb565b60008060408385031215612c5a57600080fd5b612c6383612afb565b9150612c7160208401612c1b565b90509250929050565b60008060008060008060a08789031215612c9357600080fd5b612c9c87612afb565b9550612caa60208801612c1b565b9450612cb860408801612bf1565b935060608701359250608087013567ffffffffffffffff80821115612cdc57600080fd5b818901915089601f830112612cf057600080fd5b813581811115612cff57600080fd5b8a60208260051b8501011115612d1457600080fd5b6020830194508093505050509295509295509295565b600060208284031215612d3c57600080fd5b61263382612b24565b600080600060408486031215612d5a57600080fd5b833567ffffffffffffffff80821115612d7257600080fd5b9085019060a08288031215612d8657600080fd5b90935060208501359080821115612d9c57600080fd5b818601915086601f830112612db057600080fd5b813581811115612dbf57600080fd5b876020828501011115612dd157600080fd5b6020830194508093505050509250925092565b600060208284031215612df657600080fd5b813567ffffffffffffffff811115612e0d57600080fd5b612e1984828501612b34565b949350505050565b60008060408385031215612e3457600080fd5b823567ffffffffffffffff80821115612e4c57600080fd5b612e5886838701612b34565b9350602091508185013581811115612e6f57600080fd5b8501601f81018713612e8057600080fd5b803582811115612e9257612e92613792565b612ec2847fffffffffffffffffffffffffffffffffffffffffffffffffffffffffffffffe0601f84011601613527565b92508083528784828401011115612ed857600080fd5b80848301858501376000848285010152505080925050509250929050565b600060208284031215612f0857600080fd5b61263382612bf1565b600060208284031215612f2357600080fd5b61263382612c03565b60008060408385031215612f3f57600080fd5b612f4883612c03565b9150612c7160208401612afb565b600080600060608486031215612f6b57600080fd5b612f7484612c03565b9250612f8260208501612afb565b9150604084013590509250925092565b600060208284031215612fa457600080fd5b61263382612c1b565b600081518084526020808501808196508360051b8101915082860160005b85811015612ff5578284038952612fe38483516130d5565b98850198935090840190600101612fcb565b5091979650505050505050565b81835260007f07ffffffffffffffffffffffffffffffffffffffffffffffffffffffffffffff83111561303457600080fd5b8260051b8083602087013760009401602001938452509192915050565b600081518084526020808501945080840160005b8381101561308157815187529582019590820190600101613065565b509495945050505050565b8183528181602085013750600060208284010152600060207fffffffffffffffffffffffffffffffffffffffffffffffffffffffffffffffe0601f840116840101905092915050565b6130fb828251805161ffff16825260208082015160ff1690830152604090810151910152565b6000602082015160806060850152612e196080850182613051565b8151805161ffff16825260208082015160ff1681840152604091820151918301919091528083015180516000929182019190839060608601905b808310156131705784518252938301936001929092019190830190613150565b509695505050505050565b60408082528181018590526000906060808401600588811b860183018a865b8b8110156132b3577fffffffffffffffffffffffffffffffffffffffffffffffffffffffffffffffa089840301855281357fffffffffffffffffffffffffffffffffffffffffffffffffffffffffffffff818e36030181126131fb57600080fd5b8d01608061ffff61320b83612bf1565b168552602060ff61321d828501612c1b565b1681870152898301358a870152888301357fffffffffffffffffffffffffffffffffffffffffffffffffffffffffffffffe184360301811261325e57600080fd5b8301803567ffffffffffffffff81111561327757600080fd5b80891b360385131561328857600080fd5b838b89015261329c84890182858501613002565b99830199975050509390930192505060010161319a565b505086810360208801526132c881898b61308c565b9b9a5050505050505050505050565b6020815260006126336020830184612fad565b600060208083528351808285015260005b81811015613317578581018301518582016040015282016132fb565b81811115613329576000604083870101525b50601f017fffffffffffffffffffffffffffffffffffffffffffffffffffffffffffffffe016929092016040019392505050565b60c08152600f60c08201527f4572647374616c6c42616c616e6365000000000000000000000000000000000060e0820152600061010067ffffffffffffffff8816602084015261ffff8716604084015273ffffffffffffffffffffffffffffffffffffffff8616606084015284151560808401528060a08401526133e381840185612fad565b98975050505050505050565b815161ffff16815260208083015160ff1690820152604080830151908201526060810161265a565b60208152600061263360208301846130d5565b61ffff8516815283602082015273ffffffffffffffffffffffffffffffffffffffff831660408201526080606082015260006134696080830184613051565b9695505050505050565b60008083357fffffffffffffffffffffffffffffffffffffffffffffffffffffffffffffffe18436030181126134a857600080fd5b83018035915067ffffffffffffffff8211156134c357600080fd5b6020019150600581901b360382131561269f57600080fd5b6040805190810167ffffffffffffffff811182821017156134fe576134fe613792565b60405290565b6040516060810167ffffffffffffffff811182821017156134fe576134fe613792565b604051601f82017fffffffffffffffffffffffffffffffffffffffffffffffffffffffffffffffe016810167ffffffffffffffff8111828210171561356e5761356e613792565b604052919050565b600067ffffffffffffffff82111561359057613590613792565b5060051b60200190565b600082198211156135ad576135ad613705565b500190565b600067ffffffffffffffff8083168185168083038211156135d5576135d5613705565b01949350505050565b600060ff821660ff84168060ff038211156135fb576135fb613705565b019392505050565b600082613639577f4e487b7100000000000000000000000000000000000000000000000000000000600052601260045260246000fd5b500490565b60008282101561365057613650613705565b500390565b600067ffffffffffffffff8381169083168181101561367657613676613705565b039392505050565b60006126333684846129ac565b600061265a3683612b34565b6000816136a6576136a6613705565b507fffffffffffffffffffffffffffffffffffffffffffffffffffffffffffffffff0190565b60007fffffffffffffffffffffffffffffffffffffffffffffffffffffffffffffffff8214156136fe576136fe613705565b5060010190565b7f4e487b7100000000000000000000000000000000000000000000000000000000600052601160045260246000fd5b7f4e487b7100000000000000000000000000000000000000000000000000000000600052602160045260246000fd5b7f4e487b7100000000000000000000000000000000000000000000000000000000600052603260045260246000fd5b7f4e487b7100000000000000000000000000000000000000000000000000000000600052604160045260246000fdfea26469706673582212206c0824a4aabeb911b232fb42c8e69114c3cf1300833ff352156818c8153ec91c64736f6c63430008060033",
  "linkReferences": {},
  "deployedLinkReferences": {}
}