{
  "_format": "hh-sol-artifact-1",
  "contractName": "Erdstall",
  "sourceName": "contracts/Erdstall.sol",
  "abi": [
    {
      "inputs": [
        {
          "internalType": "address",
          "name": "_tee",
          "type": "address"
        },
        {
          "internalType": "uint64",
          "name": "genesis",
          "type": "uint64"
        },
        {
          "internalType": "uint64",
          "name": "_epochDuration",
          "type": "uint64"
        },
        {
          "internalType": "uint16",
          "name": "_chainID",
          "type": "uint16"
        }
      ],
      "stateMutability": "nonpayable",
      "type": "constructor"
    },
    {
      "inputs": [],
      "name": "AlreadyWithdrawn",
      "type": "error"
    },
    {
      "inputs": [],
      "name": "CallerHasAlreadyChallengedThisEpoch",
      "type": "error"
    },
    {
      "inputs": [],
      "name": "CallerHasNoFrozenDeposits",
      "type": "error"
    },
    {
      "inputs": [],
      "name": "CallerIsNotTokenHolder",
      "type": "error"
    },
    {
      "inputs": [],
      "name": "CallerMustHaveValuesToChallenge",
      "type": "error"
    },
    {
      "inputs": [],
      "name": "ECDSAInvalidSignature",
      "type": "error"
    },
    {
      "inputs": [
        {
          "internalType": "uint256",
          "name": "length",
          "type": "uint256"
        }
      ],
      "name": "ECDSAInvalidSignatureLength",
      "type": "error"
    },
    {
      "inputs": [
        {
          "internalType": "bytes32",
          "name": "s",
          "type": "bytes32"
        }
      ],
      "name": "ECDSAInvalidSignatureS",
      "type": "error"
    },
    {
      "inputs": [],
      "name": "EmptyBalanceProof",
      "type": "error"
    },
    {
      "inputs": [],
      "name": "ErdstallIsFrozen",
      "type": "error"
    },
    {
      "inputs": [],
      "name": "ExitProofInChallengeBalanceProof",
      "type": "error"
    },
    {
      "inputs": [],
      "name": "HasOpenChallenges",
      "type": "error"
    },
    {
      "inputs": [],
      "name": "InvalidSignature",
      "type": "error"
    },
    {
      "inputs": [],
      "name": "NoChallengeRegistered",
      "type": "error"
    },
    {
      "inputs": [],
      "name": "NoExitProof",
      "type": "error"
    },
    {
      "inputs": [],
      "name": "NoOpenChallenges",
      "type": "error"
    },
    {
      "inputs": [],
      "name": "NotImplemented",
      "type": "error"
    },
    {
      "inputs": [
        {
          "internalType": "address",
          "name": "owner",
          "type": "address"
        }
      ],
      "name": "OwnableInvalidOwner",
      "type": "error"
    },
    {
      "inputs": [
        {
          "internalType": "address",
          "name": "account",
          "type": "address"
        }
      ],
      "name": "OwnableUnauthorizedAccount",
      "type": "error"
    },
    {
      "inputs": [],
      "name": "PendingFreeze",
      "type": "error"
    },
    {
      "inputs": [],
      "name": "RegisteredTokenTypeMismatch",
      "type": "error"
    },
    {
      "inputs": [],
      "name": "TokenTypeNotRegistered",
      "type": "error"
    },
    {
      "inputs": [],
      "name": "TooEarly",
      "type": "error"
    },
    {
      "inputs": [],
      "name": "WithdrawTooEarlyEpochNotYetSealed",
      "type": "error"
    },
    {
      "inputs": [],
      "name": "WrongBalanceChunk",
      "type": "error"
    },
    {
      "inputs": [],
      "name": "WrongBalanceProofEpochForChallenge",
      "type": "error"
    },
    {
      "inputs": [],
      "name": "WrongChain",
      "type": "error"
    },
    {
      "inputs": [],
      "name": "WrongEpoch",
      "type": "error"
    },
    {
      "inputs": [],
      "name": "WrongSender",
      "type": "error"
    },
    {
      "anonymous": false,
      "inputs": [
        {
          "indexed": true,
          "internalType": "uint64",
          "name": "epoch",
          "type": "uint64"
        },
        {
          "indexed": true,
          "internalType": "address",
          "name": "account",
          "type": "address"
        },
        {
          "indexed": false,
          "internalType": "uint32",
          "name": "id",
          "type": "uint32"
        },
        {
          "indexed": false,
          "internalType": "uint32",
          "name": "count",
          "type": "uint32"
        },
        {
          "components": [
            {
              "components": [
                {
                  "internalType": "uint16",
                  "name": "origin",
                  "type": "uint16"
                },
                {
                  "internalType": "uint8",
                  "name": "assetType",
                  "type": "uint8"
                },
                {
                  "internalType": "bytes32",
                  "name": "localID",
                  "type": "bytes32"
                }
              ],
              "internalType": "struct Erdstall.Asset",
              "name": "asset",
              "type": "tuple"
            },
            {
              "internalType": "uint256[]",
              "name": "value",
              "type": "uint256[]"
            }
          ],
          "indexed": false,
          "internalType": "struct Erdstall.TokenValue[]",
          "name": "tokens",
          "type": "tuple[]"
        },
        {
          "indexed": false,
          "internalType": "bool",
          "name": "exit",
          "type": "bool"
        },
        {
          "indexed": false,
          "internalType": "bytes",
          "name": "sig",
          "type": "bytes"
        }
      ],
      "name": "ChallengeResponded",
      "type": "event"
    },
    {
      "anonymous": false,
      "inputs": [
        {
          "indexed": true,
          "internalType": "uint64",
          "name": "epoch",
          "type": "uint64"
        },
        {
          "indexed": true,
          "internalType": "address",
          "name": "account",
          "type": "address"
        }
      ],
      "name": "Challenged",
      "type": "event"
    },
    {
      "anonymous": false,
      "inputs": [
        {
          "indexed": true,
          "internalType": "uint64",
          "name": "epoch",
          "type": "uint64"
        },
        {
          "indexed": true,
          "internalType": "address",
          "name": "account",
          "type": "address"
        },
        {
          "components": [
            {
              "components": [
                {
                  "internalType": "uint16",
                  "name": "origin",
                  "type": "uint16"
                },
                {
                  "internalType": "uint8",
                  "name": "assetType",
                  "type": "uint8"
                },
                {
                  "internalType": "bytes32",
                  "name": "localID",
                  "type": "bytes32"
                }
              ],
              "internalType": "struct Erdstall.Asset",
              "name": "asset",
              "type": "tuple"
            },
            {
              "internalType": "uint256[]",
              "name": "value",
              "type": "uint256[]"
            }
          ],
          "indexed": false,
          "internalType": "struct Erdstall.TokenValue",
          "name": "value",
          "type": "tuple"
        }
      ],
      "name": "Deposited",
      "type": "event"
    },
    {
      "anonymous": false,
      "inputs": [
        {
          "indexed": false,
          "internalType": "bytes32",
          "name": "localID",
          "type": "bytes32"
        },
        {
          "indexed": false,
          "internalType": "string",
          "name": "name",
          "type": "string"
        },
        {
          "indexed": false,
          "internalType": "string",
          "name": "symbol",
          "type": "string"
        },
        {
          "indexed": false,
          "internalType": "uint8",
          "name": "decimals",
          "type": "uint8"
        }
      ],
      "name": "FirstTimeFungible",
      "type": "event"
    },
    {
      "anonymous": false,
      "inputs": [
        {
          "indexed": false,
          "internalType": "bytes32",
          "name": "localID",
          "type": "bytes32"
        },
        {
          "indexed": false,
          "internalType": "string",
          "name": "name",
          "type": "string"
        },
        {
          "indexed": false,
          "internalType": "string",
          "name": "symbol",
          "type": "string"
        },
        {
          "indexed": false,
          "internalType": "string",
          "name": "sampleURI",
          "type": "string"
        }
      ],
      "name": "FirstTimeNFT",
      "type": "event"
    },
    {
      "anonymous": false,
      "inputs": [
        {
          "indexed": true,
          "internalType": "uint64",
          "name": "epoch",
          "type": "uint64"
        }
      ],
      "name": "Frozen",
      "type": "event"
    },
    {
      "anonymous": false,
      "inputs": [
        {
          "indexed": true,
          "internalType": "address",
          "name": "previousOwner",
          "type": "address"
        },
        {
          "indexed": true,
          "internalType": "address",
          "name": "newOwner",
          "type": "address"
        }
      ],
      "name": "OwnershipTransferred",
      "type": "event"
    },
    {
      "anonymous": false,
      "inputs": [
        {
          "indexed": false,
          "internalType": "uint8",
          "name": "assetType",
          "type": "uint8"
        },
        {
          "indexed": false,
          "internalType": "address",
          "name": "tokenHolder",
          "type": "address"
        }
      ],
      "name": "TokenTypeRegistered",
      "type": "event"
    },
    {
      "anonymous": false,
      "inputs": [
        {
          "indexed": true,
          "internalType": "uint64",
          "name": "epoch",
          "type": "uint64"
        },
        {
          "indexed": true,
          "internalType": "address",
          "name": "account",
          "type": "address"
        },
        {
          "components": [
            {
              "components": [
                {
                  "internalType": "uint16",
                  "name": "origin",
                  "type": "uint16"
                },
                {
                  "internalType": "uint8",
                  "name": "assetType",
                  "type": "uint8"
                },
                {
                  "internalType": "bytes32",
                  "name": "localID",
                  "type": "bytes32"
                }
              ],
              "internalType": "struct Erdstall.Asset",
              "name": "asset",
              "type": "tuple"
            },
            {
              "internalType": "uint256[]",
              "name": "value",
              "type": "uint256[]"
            }
          ],
          "indexed": true,
          "internalType": "struct Erdstall.TokenValue",
          "name": "token",
          "type": "tuple"
        },
        {
          "indexed": false,
          "internalType": "bytes",
          "name": "error",
          "type": "bytes"
        }
      ],
      "name": "WithdrawalException",
      "type": "event"
    },
    {
      "anonymous": false,
      "inputs": [
        {
          "indexed": true,
          "internalType": "uint64",
          "name": "epoch",
          "type": "uint64"
        },
        {
          "indexed": true,
          "internalType": "address",
          "name": "account",
          "type": "address"
        },
        {
          "components": [
            {
              "components": [
                {
                  "internalType": "uint16",
                  "name": "origin",
                  "type": "uint16"
                },
                {
                  "internalType": "uint8",
                  "name": "assetType",
                  "type": "uint8"
                },
                {
                  "internalType": "bytes32",
                  "name": "localID",
                  "type": "bytes32"
                }
              ],
              "internalType": "struct Erdstall.Asset",
              "name": "asset",
              "type": "tuple"
            },
            {
              "internalType": "uint256[]",
              "name": "value",
              "type": "uint256[]"
            }
          ],
          "indexed": false,
          "internalType": "struct Erdstall.TokenValue[]",
          "name": "tokens",
          "type": "tuple[]"
        }
      ],
      "name": "Withdrawn",
      "type": "event"
    },
    {
      "anonymous": false,
      "inputs": [
        {
          "indexed": true,
          "internalType": "uint64",
          "name": "epoch",
          "type": "uint64"
        },
        {
          "indexed": true,
          "internalType": "address",
          "name": "account",
          "type": "address"
        }
      ],
      "name": "ZeroResponded",
      "type": "event"
    },
    {
      "inputs": [],
      "name": "bigBangTime",
      "outputs": [
        {
          "internalType": "uint256",
          "name": "",
          "type": "uint256"
        }
      ],
      "stateMutability": "view",
      "type": "function"
    },
    {
      "inputs": [],
      "name": "chainID",
      "outputs": [
        {
          "internalType": "uint16",
          "name": "",
          "type": "uint16"
        }
      ],
      "stateMutability": "view",
      "type": "function"
    },
    {
      "inputs": [],
      "name": "challenge",
      "outputs": [],
      "stateMutability": "nonpayable",
      "type": "function"
    },
    {
      "inputs": [
        {
          "internalType": "uint64",
          "name": "",
          "type": "uint64"
        },
        {
          "internalType": "address",
          "name": "",
          "type": "address"
        }
      ],
      "name": "challenges",
      "outputs": [
        {
          "internalType": "uint32",
          "name": "",
          "type": "uint32"
        }
      ],
      "stateMutability": "view",
      "type": "function"
    },
    {
      "inputs": [],
      "name": "deployBlockNum",
      "outputs": [
        {
          "internalType": "uint64",
          "name": "",
          "type": "uint64"
        }
      ],
      "stateMutability": "view",
      "type": "function"
    },
    {
      "inputs": [
        {
          "internalType": "address",
          "name": "depositor",
          "type": "address"
        },
        {
          "internalType": "uint8",
          "name": "assetType",
          "type": "uint8"
        },
        {
          "internalType": "uint16",
          "name": "origin",
          "type": "uint16"
        },
        {
          "internalType": "bytes32",
          "name": "token",
          "type": "bytes32"
        },
        {
          "internalType": "uint256[]",
          "name": "value",
          "type": "uint256[]"
        }
      ],
      "name": "deposit",
      "outputs": [],
      "stateMutability": "nonpayable",
      "type": "function"
    },
    {
      "inputs": [
        {
          "internalType": "uint64",
          "name": "",
          "type": "uint64"
        },
        {
          "internalType": "address",
          "name": "",
          "type": "address"
        },
        {
          "internalType": "uint256",
          "name": "",
          "type": "uint256"
        }
      ],
      "name": "deposits",
      "outputs": [
        {
          "components": [
            {
              "internalType": "uint16",
              "name": "origin",
              "type": "uint16"
            },
            {
              "internalType": "uint8",
              "name": "assetType",
              "type": "uint8"
            },
            {
              "internalType": "bytes32",
              "name": "localID",
              "type": "bytes32"
            }
          ],
          "internalType": "struct Erdstall.Asset",
          "name": "asset",
          "type": "tuple"
        }
      ],
      "stateMutability": "view",
      "type": "function"
    },
    {
      "inputs": [
        {
          "components": [
            {
              "internalType": "uint64",
              "name": "epoch",
              "type": "uint64"
            },
            {
              "internalType": "uint32",
              "name": "id",
              "type": "uint32"
            },
            {
              "internalType": "uint32",
              "name": "count",
              "type": "uint32"
            },
            {
              "internalType": "uint16",
              "name": "chain",
              "type": "uint16"
            },
            {
              "internalType": "address",
              "name": "account",
              "type": "address"
            },
            {
              "internalType": "bool",
              "name": "exit",
              "type": "bool"
            },
            {
              "components": [
                {
                  "components": [
                    {
                      "internalType": "uint16",
                      "name": "origin",
                      "type": "uint16"
                    },
                    {
                      "internalType": "uint8",
                      "name": "assetType",
                      "type": "uint8"
                    },
                    {
                      "internalType": "bytes32",
                      "name": "localID",
                      "type": "bytes32"
                    }
                  ],
                  "internalType": "struct Erdstall.Asset",
                  "name": "asset",
                  "type": "tuple"
                },
                {
                  "internalType": "uint256[]",
                  "name": "value",
                  "type": "uint256[]"
                }
              ],
              "internalType": "struct Erdstall.TokenValue[]",
              "name": "tokens",
              "type": "tuple[]"
            }
          ],
          "internalType": "struct Erdstall.BalanceChunk",
          "name": "balance",
          "type": "tuple"
        }
      ],
      "name": "encodeBalanceProof",
      "outputs": [
        {
          "internalType": "bytes",
          "name": "",
          "type": "bytes"
        }
      ],
      "stateMutability": "pure",
      "type": "function"
    },
    {
      "inputs": [],
      "name": "ensureFrozen",
      "outputs": [],
      "stateMutability": "nonpayable",
      "type": "function"
    },
    {
      "inputs": [],
      "name": "epochDuration",
      "outputs": [
        {
          "internalType": "uint64",
          "name": "",
          "type": "uint64"
        }
      ],
      "stateMutability": "view",
      "type": "function"
    },
    {
      "inputs": [],
      "name": "frozenEpoch",
      "outputs": [
        {
          "internalType": "uint64",
          "name": "",
          "type": "uint64"
        }
      ],
      "stateMutability": "view",
      "type": "function"
    },
    {
      "inputs": [
        {
          "internalType": "address",
          "name": "",
          "type": "address"
        }
      ],
      "name": "holderTypes",
      "outputs": [
        {
          "internalType": "uint8",
          "name": "",
          "type": "uint8"
        }
      ],
      "stateMutability": "view",
      "type": "function"
    },
    {
      "inputs": [
        {
          "internalType": "address",
          "name": "",
          "type": "address"
        }
      ],
      "name": "metadataWasHandled",
      "outputs": [
        {
          "internalType": "bool",
          "name": "",
          "type": "bool"
        }
      ],
      "stateMutability": "view",
      "type": "function"
    },
    {
      "inputs": [
        {
          "internalType": "uint64",
          "name": "",
          "type": "uint64"
        }
      ],
      "name": "numChallenges",
      "outputs": [
        {
          "internalType": "uint256",
          "name": "",
          "type": "uint256"
        }
      ],
      "stateMutability": "view",
      "type": "function"
    },
    {
      "inputs": [],
      "name": "owner",
      "outputs": [
        {
          "internalType": "address",
          "name": "",
          "type": "address"
        }
      ],
      "stateMutability": "view",
      "type": "function"
    },
    {
      "inputs": [
        {
          "internalType": "address",
          "name": "holder",
          "type": "address"
        },
        {
          "internalType": "uint8",
          "name": "localTokenType",
          "type": "uint8"
        }
      ],
      "name": "registerTokenType",
      "outputs": [],
      "stateMutability": "nonpayable",
      "type": "function"
    },
    {
      "inputs": [],
      "name": "renounceOwnership",
      "outputs": [],
      "stateMutability": "nonpayable",
      "type": "function"
    },
    {
      "inputs": [
        {
          "components": [
            {
              "internalType": "uint64",
              "name": "epoch",
              "type": "uint64"
            },
            {
              "internalType": "uint32",
              "name": "id",
              "type": "uint32"
            },
            {
              "internalType": "uint32",
              "name": "count",
              "type": "uint32"
            },
            {
              "internalType": "uint16",
              "name": "chain",
              "type": "uint16"
            },
            {
              "internalType": "address",
              "name": "account",
              "type": "address"
            },
            {
              "internalType": "bool",
              "name": "exit",
              "type": "bool"
            },
            {
              "components": [
                {
                  "components": [
                    {
                      "internalType": "uint16",
                      "name": "origin",
                      "type": "uint16"
                    },
                    {
                      "internalType": "uint8",
                      "name": "assetType",
                      "type": "uint8"
                    },
                    {
                      "internalType": "bytes32",
                      "name": "localID",
                      "type": "bytes32"
                    }
                  ],
                  "internalType": "struct Erdstall.Asset",
                  "name": "asset",
                  "type": "tuple"
                },
                {
                  "internalType": "uint256[]",
                  "name": "value",
                  "type": "uint256[]"
                }
              ],
              "internalType": "struct Erdstall.TokenValue[]",
              "name": "tokens",
              "type": "tuple[]"
            }
          ],
          "internalType": "struct Erdstall.BalanceChunk",
          "name": "balance",
          "type": "tuple"
        },
        {
          "internalType": "bytes",
          "name": "sig",
          "type": "bytes"
        }
      ],
      "name": "respondChallenge",
      "outputs": [],
      "stateMutability": "nonpayable",
      "type": "function"
    },
    {
      "inputs": [
        {
          "components": [
            {
              "internalType": "uint64",
              "name": "epoch",
              "type": "uint64"
            },
            {
              "internalType": "uint16",
              "name": "chain",
              "type": "uint16"
            },
            {
              "internalType": "address",
              "name": "account",
              "type": "address"
            }
          ],
          "internalType": "struct Erdstall.ZeroBalanceProof",
          "name": "proof",
          "type": "tuple"
        },
        {
          "internalType": "bytes",
          "name": "sig",
          "type": "bytes"
        }
      ],
      "name": "respondZero",
      "outputs": [],
      "stateMutability": "nonpayable",
      "type": "function"
    },
    {
      "inputs": [
        {
          "components": [
            {
              "internalType": "uint16",
              "name": "chain",
              "type": "uint16"
            },
            {
              "internalType": "uint64",
              "name": "block",
              "type": "uint64"
            },
            {
              "internalType": "uint64",
              "name": "epoch",
              "type": "uint64"
            }
          ],
          "internalType": "struct Erdstall.FreezeProof",
          "name": "proof",
          "type": "tuple"
        },
        {
          "internalType": "bytes",
          "name": "sig",
          "type": "bytes"
        },
        {
          "internalType": "bytes",
          "name": "certificate",
          "type": "bytes"
        }
      ],
      "name": "submitFreezeProof",
      "outputs": [],
      "stateMutability": "nonpayable",
      "type": "function"
    },
    {
      "inputs": [],
      "name": "tee",
      "outputs": [
        {
          "internalType": "address",
          "name": "",
          "type": "address"
        }
      ],
      "stateMutability": "view",
      "type": "function"
    },
    {
      "inputs": [
        {
          "internalType": "uint8",
          "name": "",
          "type": "uint8"
        }
      ],
      "name": "tokenHolders",
      "outputs": [
        {
          "internalType": "contract TokenHolder",
          "name": "",
          "type": "address"
        }
      ],
      "stateMutability": "view",
      "type": "function"
    },
    {
      "inputs": [
        {
          "internalType": "address",
          "name": "newOwner",
          "type": "address"
        }
      ],
      "name": "transferOwnership",
      "outputs": [],
      "stateMutability": "nonpayable",
      "type": "function"
    },
    {
      "inputs": [
        {
          "components": [
            {
              "internalType": "uint64",
              "name": "epoch",
              "type": "uint64"
            },
            {
              "internalType": "uint32",
              "name": "id",
              "type": "uint32"
            },
            {
              "internalType": "uint32",
              "name": "count",
              "type": "uint32"
            },
            {
              "internalType": "uint16",
              "name": "chain",
              "type": "uint16"
            },
            {
              "internalType": "address",
              "name": "account",
              "type": "address"
            },
            {
              "internalType": "bool",
              "name": "exit",
              "type": "bool"
            },
            {
              "components": [
                {
                  "components": [
                    {
                      "internalType": "uint16",
                      "name": "origin",
                      "type": "uint16"
                    },
                    {
                      "internalType": "uint8",
                      "name": "assetType",
                      "type": "uint8"
                    },
                    {
                      "internalType": "bytes32",
                      "name": "localID",
                      "type": "bytes32"
                    }
                  ],
                  "internalType": "struct Erdstall.Asset",
                  "name": "asset",
                  "type": "tuple"
                },
                {
                  "internalType": "uint256[]",
                  "name": "value",
                  "type": "uint256[]"
                }
              ],
              "internalType": "struct Erdstall.TokenValue[]",
              "name": "tokens",
              "type": "tuple[]"
            }
          ],
          "internalType": "struct Erdstall.BalanceChunk",
          "name": "balance",
          "type": "tuple"
        },
        {
          "internalType": "bytes",
          "name": "sig",
          "type": "bytes"
        }
      ],
      "name": "verifyBalance",
      "outputs": [],
      "stateMutability": "view",
      "type": "function"
    },
    {
      "inputs": [
        {
          "internalType": "address",
          "name": "lightClient",
          "type": "address"
        },
        {
          "internalType": "bytes",
          "name": "certificate",
          "type": "bytes"
        }
      ],
      "name": "verifyLightClientCert",
      "outputs": [],
      "stateMutability": "view",
      "type": "function"
    },
    {
      "inputs": [
        {
          "internalType": "bytes",
          "name": "abiCode",
          "type": "bytes"
        },
        {
          "internalType": "bytes",
          "name": "sig",
          "type": "bytes"
        }
      ],
      "name": "verifyTeeSig",
      "outputs": [
        {
          "internalType": "bool",
          "name": "",
          "type": "bool"
        }
      ],
      "stateMutability": "view",
      "type": "function"
    },
    {
      "inputs": [
        {
          "components": [
            {
              "internalType": "uint64",
              "name": "epoch",
              "type": "uint64"
            },
            {
              "internalType": "uint32",
              "name": "id",
              "type": "uint32"
            },
            {
              "internalType": "uint32",
              "name": "count",
              "type": "uint32"
            },
            {
              "internalType": "uint16",
              "name": "chain",
              "type": "uint16"
            },
            {
              "internalType": "address",
              "name": "account",
              "type": "address"
            },
            {
              "internalType": "bool",
              "name": "exit",
              "type": "bool"
            },
            {
              "components": [
                {
                  "components": [
                    {
                      "internalType": "uint16",
                      "name": "origin",
                      "type": "uint16"
                    },
                    {
                      "internalType": "uint8",
                      "name": "assetType",
                      "type": "uint8"
                    },
                    {
                      "internalType": "bytes32",
                      "name": "localID",
                      "type": "bytes32"
                    }
                  ],
                  "internalType": "struct Erdstall.Asset",
                  "name": "asset",
                  "type": "tuple"
                },
                {
                  "internalType": "uint256[]",
                  "name": "value",
                  "type": "uint256[]"
                }
              ],
              "internalType": "struct Erdstall.TokenValue[]",
              "name": "tokens",
              "type": "tuple[]"
            }
          ],
          "internalType": "struct Erdstall.BalanceChunk",
          "name": "balance",
          "type": "tuple"
        },
        {
          "internalType": "bytes",
          "name": "sig",
          "type": "bytes"
        }
      ],
      "name": "withdraw",
      "outputs": [],
      "stateMutability": "nonpayable",
      "type": "function"
    },
    {
      "inputs": [
        {
          "components": [
            {
              "internalType": "uint64",
              "name": "epoch",
              "type": "uint64"
            },
            {
              "internalType": "uint32",
              "name": "id",
              "type": "uint32"
            },
            {
              "internalType": "uint32",
              "name": "count",
              "type": "uint32"
            },
            {
              "internalType": "uint16",
              "name": "chain",
              "type": "uint16"
            },
            {
              "internalType": "address",
              "name": "account",
              "type": "address"
            },
            {
              "internalType": "bool",
              "name": "exit",
              "type": "bool"
            },
            {
              "components": [
                {
                  "components": [
                    {
                      "internalType": "uint16",
                      "name": "origin",
                      "type": "uint16"
                    },
                    {
                      "internalType": "uint8",
                      "name": "assetType",
                      "type": "uint8"
                    },
                    {
                      "internalType": "bytes32",
                      "name": "localID",
                      "type": "bytes32"
                    }
                  ],
                  "internalType": "struct Erdstall.Asset",
                  "name": "asset",
                  "type": "tuple"
                },
                {
                  "internalType": "uint256[]",
                  "name": "value",
                  "type": "uint256[]"
                }
              ],
              "internalType": "struct Erdstall.TokenValue[]",
              "name": "tokens",
              "type": "tuple[]"
            }
          ],
          "internalType": "struct Erdstall.BalanceChunk",
          "name": "balance",
          "type": "tuple"
        },
        {
          "internalType": "bytes",
          "name": "sig",
          "type": "bytes"
        }
      ],
      "name": "withdrawFrozen",
      "outputs": [],
      "stateMutability": "nonpayable",
      "type": "function"
    },
    {
      "inputs": [],
      "name": "withdrawFrozenDeposit",
      "outputs": [],
      "stateMutability": "nonpayable",
      "type": "function"
    },
    {
      "inputs": [
        {
          "internalType": "uint64",
          "name": "",
          "type": "uint64"
        },
        {
          "internalType": "address",
          "name": "",
          "type": "address"
        }
      ],
      "name": "withdrawn",
      "outputs": [
        {
          "internalType": "bool",
          "name": "",
          "type": "bool"
        }
      ],
      "stateMutability": "view",
      "type": "function"
    }
  ],
  "bytecode": "0x610120604052600780546001600160401b0319166002600160401b031790553480156200002b57600080fd5b50604051620049d0380380620049d08339810160408190526200004e9162000122565b33806200007557604051631e4fbdf760e01b81526000600482015260240160405180910390fd5b6200008081620000b5565b506001600160a01b039093166080526001600160401b0343811660a05291821660c0521660e05261ffff166101005262000194565b600080546001600160a01b038381166001600160a01b0319831681178455604051919092169283917f8be0079c531659141344cd1fd0a4f28419497f9722a3daafe3b4186f6b6457e09190a35050565b80516001600160401b03811681146200011d57600080fd5b919050565b600080600080608085870312156200013957600080fd5b84516001600160a01b03811681146200015157600080fd5b9350620001616020860162000105565b9250620001716040860162000105565b9150606085015161ffff811681146200018957600080fd5b939692955090935050565b60805160a05160c05160e051610100516147b862000218600039600081816104e10152818161084c01528181610f60015281816111bc015281816114c0015281816120840152613226015260008181610327015261264b01526000818161049901526126700152600061037b0152600081816103aa0152610e0c01526147b86000f3fe608060405234801561001057600080fd5b50600436106101da5760003560e01c80638c2d176811610104578063adc879e9116100a2578063d306a7b011610071578063d306a7b014610544578063e83fd41114610557578063f29107731461056a578063f2fde38b1461058a57600080fd5b8063adc879e9146104dc578063b05f620714610516578063ba48747314610529578063d2ef73981461053c57600080fd5b8063a33a0540116100de578063a33a054014610443578063a53d2a5414610471578063aa0f878714610494578063ab4f4bce146104c957600080fd5b80638c2d1768146103ef5780638da5cb5b146104125780639be210251461043057600080fd5b80634ff0876a1161017c57806367eeb62b1161014b57806367eeb62b146103a5578063715018a6146103cc5780637aca9c69146103d457806384d98432146103e757600080fd5b80634ff0876a14610322578063585db72a14610362578063646328771461037657806364c38ddd1461039d57600080fd5b8063234c49a0116101b8578063234c49a014610274578063495c41c0146102ba5780634a9527a8146102cd5780634e9051341461030257600080fd5b8063072f8cca146101df5780630a8a0c7e1461023f57806310fb107514610254575b600080fd5b6102156101ed366004613634565b60026020526000908152604090205473ffffffffffffffffffffffffffffffffffffffff1681565b60405173ffffffffffffffffffffffffffffffffffffffff90911681526020015b60405180910390f35b61025261024d3660046136c3565b61059d565b005b610267610262366004613a71565b610679565b6040516102369190613af6565b6102a5610282366004613b09565b600560209081526000928352604080842090915290825290205463ffffffff1681565b60405163ffffffff9091168152602001610236565b6102526102c8366004613b54565b6106ca565b6102f06102db366004613b8f565b60016020526000908152604090205460ff1681565b60405160ff9091168152602001610236565b610315610310366004613baa565b610af1565b6040516102369190613be6565b6103497f000000000000000000000000000000000000000000000000000000000000000081565b60405167ffffffffffffffff9091168152602001610236565b6007546103499067ffffffffffffffff1681565b6103497f000000000000000000000000000000000000000000000000000000000000000081565b610252610b65565b6102157f000000000000000000000000000000000000000000000000000000000000000081565b610252610ce5565b6102526103e2366004613c87565b610cf9565b610252610d45565b6104026103fd366004613ceb565b610e03565b6040519015158152602001610236565b60005473ffffffffffffffffffffffffffffffffffffffff16610215565b61025261043e366004613d22565b610e39565b610402610451366004613b09565b600460209081526000928352604080842090915290825290205460ff1681565b61040261047f366004613b8f565b60086020526000908152604090205460ff1681565b6104bb7f000000000000000000000000000000000000000000000000000000000000000081565b604051908152602001610236565b6102526104d7366004613d22565b611053565b6105037f000000000000000000000000000000000000000000000000000000000000000081565b60405161ffff9091168152602001610236565b610252610524366004613d22565b61133e565b610252610537366004613d86565b61180d565b61025261195d565b610252610552366004613dbd565b611a68565b610252610565366004613e3f565b611ce5565b6104bb610578366004613ef1565b60066020526000908152604090205481565b610252610598366004613b8f565b6125d8565b6040805160208101829052601760608201527f4572647374616c6c4c69676874436c69656e7443657274000000000000000000608082015273ffffffffffffffffffffffffffffffffffffffff85169181019190915261063e9060a00160408051601f198184030181526020601f860181900481028401810190925284835291908590859081908401838280828437600092019190915250610e0392505050565b610674576040517f8baa579f00000000000000000000000000000000000000000000000000000000815260040160405180910390fd5b505050565b6060816000015182602001518360400151846060015185608001518660a001518760c001516040516020016106b49796959493929190613fe3565b6040516020818303038152906040529050919050565b6106e860075467ffffffffffffffff1667fffffffffffffffe141590565b1561071f576040517fb29ebf1400000000000000000000000000000000000000000000000000000000815260040160405180910390fd5b600061072961263e565b90506107366001806140be565b6107419060016140be565b67ffffffffffffffff168167ffffffffffffffff16106107cd5767ffffffffffffffff7ffffffffffffffffffffffffffffffffffffffffffffffffffffffffffffffffd820116600090815260066020526040902054156107cd576040517e5be66700000000000000000000000000000000000000000000000000000000815260040160405180910390fd5b60006107da6001806140be565b6107e261263e565b6107ec91906140e6565b905067ffffffffffffffff81166108066020870187613ef1565b67ffffffffffffffff1614610847576040517f254f6ab200000000000000000000000000000000000000000000000000000000815260040160405180910390fd5b61ffff7f00000000000000000000000000000000000000000000000000000000000000001661087c6040870160208801614107565b61ffff16146108b7576040517f10dfc03300000000000000000000000000000000000000000000000000000000815260040160405180910390fd5b6109a86108c76020870187613ef1565b6108d76040880160208901614107565b6108e76060890160408a01613b8f565b6040516020016109649392919060808082526010908201527f5a65726f42616c616e636550726f6f660000000000000000000000000000000060a082015267ffffffffffffffff93909316602084015261ffff91909116604083015273ffffffffffffffffffffffffffffffffffffffff16606082015260c00190565b60408051601f198184030181526020601f880181900481028401810190925286835291908790879081908401838280828437600092019190915250610e0392505050565b6109de576040517f8baa579f00000000000000000000000000000000000000000000000000000000815260040160405180910390fd5b67ffffffffffffffff81166000908152600560205260408082209190610a0a9060608901908901613b8f565b73ffffffffffffffffffffffffffffffffffffffff1681526020808201929092526040908101600090812080547fffffffffffffffffffffffffffffffffffffffffffffffffffffffff0000000016905567ffffffffffffffff8416815260069092528120805491610a7b83614122565b90915550610a9190506060860160408701613b8f565b73ffffffffffffffffffffffffffffffffffffffff16610ab46020870187613ef1565b67ffffffffffffffff167f30436af0322d2ca90ab0328d09dd29efadf838a340775b73caf1e2a6894a886f60405160405180910390a35050505050565b60036020528260005260406000206020528160005260406000208181548110610b1957600080fd5b6000918252602091829020604080516060810182526003909302909101805461ffff8116845260ff62010000909104169383019390935260019092015491810191909152925083915050565b610b8360075467ffffffffffffffff1667fffffffffffffffe141590565b15610b8a57565b6000610b9461263e565b9050610ba16001806140be565b610bac9060016140be565b67ffffffffffffffff168167ffffffffffffffff161015610bf9576040517f085de62500000000000000000000000000000000000000000000000000000000815260040160405180910390fd5b6000610c066001806140be565b610c119060016140be565b610c1b90836140e6565b67ffffffffffffffff811660009081526006602052604081205491925003610c6f576040517fbf1d9a6600000000000000000000000000000000000000000000000000000000815260040160405180910390fd5b6000610c7c6001836140e6565b600780547fffffffffffffffffffffffffffffffffffffffffffffffff00000000000000001667ffffffffffffffff8316908117909155604051919250907f5e20151a99b0432a9ac06d33b91b77d3134ce0638cc70d7df042947ca48a2caf90600090a2505050565b610ced6126a4565b610cf760006126f7565b565b610d0b610d0583610679565b82610e03565b610d41576040517f8baa579f00000000000000000000000000000000000000000000000000000000815260040160405180910390fd5b5050565b610d4d610b65565b60408051600080825260208201909252610dac9082610da6565b6040805160a08101825260009181018281526060808301849052608083019390935281526020810191909152815260200190600190039081610d675790505b5061276c565b90508051600003610de9576040517f52e45e7e00000000000000000000000000000000000000000000000000000000815260040160405180910390fd5b600754610e009067ffffffffffffffff1682612ceb565b50565b6000610e3083837f0000000000000000000000000000000000000000000000000000000000000000612fa8565b90505b92915050565b610e41610b65565b610e49613012565b67ffffffffffffffff16610e606020850185613ef1565b67ffffffffffffffff161115610ea2576040517f085de62500000000000000000000000000000000000000000000000000000000815260040160405180910390fd5b33610eb360a0850160808601613b8f565b73ffffffffffffffffffffffffffffffffffffffff1614610f00576040517f4e6a565c00000000000000000000000000000000000000000000000000000000815260040160405180910390fd5b60075467ffffffffffffffff16610f1a6020850185613ef1565b67ffffffffffffffff1614610f5b576040517f254f6ab200000000000000000000000000000000000000000000000000000000815260040160405180910390fd5b61ffff7f000000000000000000000000000000000000000000000000000000000000000016610f906080850160608601614107565b61ffff1614610fcb576040517f10dfc03300000000000000000000000000000000000000000000000000000000815260040160405180910390fd5b611013610fd784614157565b83838080601f016020809104026020016040519081016040528093929190818152602001838380828437600092019190915250610cf992505050565b600061103361102560c0860186614163565b61102e916141cb565b61276c565b60075490915061104d9067ffffffffffffffff1682612ceb565b50505050565b61107160075467ffffffffffffffff1667fffffffffffffffe141590565b156110a8576040517fb29ebf1400000000000000000000000000000000000000000000000000000000815260040160405180910390fd5b60006110b261263e565b90506110bf6001806140be565b6110ca9060016140be565b67ffffffffffffffff168167ffffffffffffffff16106111565767ffffffffffffffff7ffffffffffffffffffffffffffffffffffffffffffffffffffffffffffffffffd82011660009081526006602052604090205415611156576040517e5be66700000000000000000000000000000000000000000000000000000000815260040160405180910390fd5b61115e613012565b67ffffffffffffffff166111756020860186613ef1565b67ffffffffffffffff1611156111b7576040517fe6e64ebc00000000000000000000000000000000000000000000000000000000815260040160405180910390fd5b61ffff7f0000000000000000000000000000000000000000000000000000000000000000166111ec6080860160608701614107565b61ffff1614611227576040517f10dfc03300000000000000000000000000000000000000000000000000000000815260040160405180910390fd5b3361123860a0860160808701613b8f565b73ffffffffffffffffffffffffffffffffffffffff1614611285576040517f4e6a565c00000000000000000000000000000000000000000000000000000000815260040160405180910390fd5b61129560c0850160a086016141d8565b6112cb576040517fa5736a8100000000000000000000000000000000000000000000000000000000815260040160405180910390fd5b6113136112d785614157565b84848080601f016020809104026020016040519081016040528093929190818152602001838380828437600092019190915250610cf992505050565b61104d6113236020860186613ef1565b61133060c0870187614163565b611339916141cb565b612ceb565b61135c60075467ffffffffffffffff1667fffffffffffffffe141590565b15611393576040517fb29ebf1400000000000000000000000000000000000000000000000000000000815260040160405180910390fd5b600061139d61263e565b90506113aa6001806140be565b6113b59060016140be565b67ffffffffffffffff168167ffffffffffffffff16106114415767ffffffffffffffff7ffffffffffffffffffffffffffffffffffffffffffffffffffffffffffffffffd82011660009081526006602052604090205415611441576040517e5be66700000000000000000000000000000000000000000000000000000000815260040160405180910390fd5b600061144e6001806140be565b61145661263e565b61146091906140e6565b905067ffffffffffffffff811661147a6020870187613ef1565b67ffffffffffffffff16146114bb576040517f254f6ab200000000000000000000000000000000000000000000000000000000815260040160405180910390fd5b61ffff7f0000000000000000000000000000000000000000000000000000000000000000166114f06080870160608801614107565b61ffff161461152b576040517f10dfc03300000000000000000000000000000000000000000000000000000000815260040160405180910390fd5b67ffffffffffffffff811660009081526005602052604081208161155560a0890160808a01613b8f565b73ffffffffffffffffffffffffffffffffffffffff168152602081019190915260400160009081205463ffffffff1691508190036115bf576040517f0ce63e0600000000000000000000000000000000000000000000000000000000815260040160405180910390fd5b63ffffffff81166115d660408801602089016141f3565b6115e190600161420e565b63ffffffff161461161e576040517f38ee6b3700000000000000000000000000000000000000000000000000000000815260040160405180910390fd5b61166661162a87614157565b86868080601f016020809104026020016040519081016040528093929190818152602001838380828437600092019190915250610cf992505050565b61167660608701604088016141f3565b63ffffffff168163ffffffff16036116bb5767ffffffffffffffff821660009081526006602052604081208054916116ad83614122565b9190505550600090506116c9565b806116c58161422b565b9150505b67ffffffffffffffff8216600090815260056020526040812082916116f460a08a0160808b01613b8f565b73ffffffffffffffffffffffffffffffffffffffff168152602081019190915260400160002080547fffffffffffffffffffffffffffffffffffffffffffffffffffffffff000000001663ffffffff9290921691909117905561175d60a0870160808801613b8f565b73ffffffffffffffffffffffffffffffffffffffff166117806020880188613ef1565b67ffffffffffffffff167f5c48277659215aaf0facef5d08697306e1cd011dcdb5e7455f5d4c31d3dcddbc6117bb60408a0160208b016141f3565b6117cb60608b0160408c016141f3565b6117d860c08c018c614163565b6117e860c08e0160a08f016141d8565b8c8c6040516117fd97969594939291906142c4565b60405180910390a3505050505050565b6118156126a4565b73ffffffffffffffffffffffffffffffffffffffff821660009081526001602052604090205460ff16801561188d5761184f826001614450565b60ff168160ff1614610674576040517fc081a4b800000000000000000000000000000000000000000000000000000000815260040160405180910390fd5b611898826001614450565b73ffffffffffffffffffffffffffffffffffffffff8416600081815260016020908152604080832080547fffffffffffffffffffffffffffffffffffffffffffffffffffffffffffffff001660ff968716179055938616808352600282529184902080547fffffffffffffffffffffffff0000000000000000000000000000000000000000168417905583519182528101919091527fa67714b04395227af4e4053e2f5b91c09833fa91968bef5e1e3190437ac329c5910160405180910390a1505050565b61197b60075467ffffffffffffffff1667fffffffffffffffe141590565b156119b2576040517fb29ebf1400000000000000000000000000000000000000000000000000000000815260040160405180910390fd5b60006119bc61263e565b90506119c96001806140be565b6119d49060016140be565b67ffffffffffffffff168167ffffffffffffffff1610611a605767ffffffffffffffff7ffffffffffffffffffffffffffffffffffffffffffffffffffffffffffffffffd82011660009081526006602052604090205415611a60576040517e5be66700000000000000000000000000000000000000000000000000000000815260040160405180910390fd5b610e006130b4565b611a736001806140be565b611a7e9060016140be565b611a899060016140be565b611a996060870160408801613ef1565b611aa391906140be565b67ffffffffffffffff16611ab561263e565b67ffffffffffffffff1614611af6576040517f254f6ab200000000000000000000000000000000000000000000000000000000815260040160405180910390fd5b30630a8a0c7e611bd7611b0c6020890189614107565b611b1c60408a0160208b01613ef1565b611b2c60608b0160408c01613ef1565b604051602001611b939392919060808082526013908201527f4572647374616c6c467265657a6550726f6f660000000000000000000000000060a082015261ffff93909316602084015267ffffffffffffffff918216604084015216606082015260c00190565b60408051601f198184030181526020601f8a01819004810284018101909252888352919089908990819084018382808284376000920191909152506131d192505050565b84846040518463ffffffff1660e01b8152600401611bf793929190614469565b60006040518083038186803b158015611c0f57600080fd5b505afa158015611c23573d6000803e3d6000fd5b50611c38925050506060860160408701613ef1565b60075467ffffffffffffffff908116911614611cde57611c5e6060860160408701613ef1565b600780547fffffffffffffffffffffffffffffffffffffffffffffffff00000000000000001667ffffffffffffffff92909216919091179055611ca76060860160408701613ef1565b67ffffffffffffffff167f5e20151a99b0432a9ac06d33b91b77d3134ce0638cc70d7df042947ca48a2caf60405160405180910390a25b5050505050565b3360009081526001602052604081205460ff169003611d30576040517f0c4abd2a00000000000000000000000000000000000000000000000000000000815260040160405180910390fd5b611d4e60075467ffffffffffffffff1667fffffffffffffffe141590565b15611d85576040517fb29ebf1400000000000000000000000000000000000000000000000000000000815260040160405180910390fd5b6000611d8f61263e565b9050611d9c6001806140be565b611da79060016140be565b67ffffffffffffffff168167ffffffffffffffff1610611e335767ffffffffffffffff7ffffffffffffffffffffffffffffffffffffffffffffffffffffffffffffffffd82011660009081526006602052604090205415611e33576040517e5be66700000000000000000000000000000000000000000000000000000000815260040160405180910390fd5b6000611e3d61263e565b60ff881660009081526002602052604090205490915073ffffffffffffffffffffffffffffffffffffffff16611ea85760ff8716600090815260026020526040902080547fffffffffffffffffffffffff000000000000000000000000000000000000000016331790555b6000604051806040016040528060405180606001604052808a61ffff1681526020018b60ff168152602001898152508152602001868680806020026020016040519081016040528093929190818152602001838360200280828437600081840152601f19601f820116905080830192505050505050508152509050600360008367ffffffffffffffff1667ffffffffffffffff16815260200190815260200160002060008a73ffffffffffffffffffffffffffffffffffffffff1673ffffffffffffffffffffffffffffffffffffffff16815260200190815260200160002081908060018154018082558091505060019003906000526020600020906003020160009091909190915060008201518160000160008201518160000160006101000a81548161ffff021916908361ffff16021790555060208201518160000160026101000a81548160ff021916908360ff1602179055506040820151816001015550506020820151816002019080519060200190612026929190613539565b5050508873ffffffffffffffffffffffffffffffffffffffff168267ffffffffffffffff167feb3100c7367bb9282fc3c80cba98d82025422adc0f72a4e137d0acc3757f84928360405161207a91906144a2565b60405180910390a37f000000000000000000000000000000000000000000000000000000000000000061ffff168761ffff16146120b85750506125cf565b73ffffffffffffffffffffffffffffffffffffffff8616600090815260086020526040902054869060ff166125cb5773ffffffffffffffffffffffffffffffffffffffff8116600081815260086020526040902080547fffffffffffffffffffffffffffffffffffffffffffffffffffffffffffffff001660011790556121e557604080518881526080602082018190526005908201527f457468657200000000000000000000000000000000000000000000000000000060a082015260c08183018190526003908201527f455448000000000000000000000000000000000000000000000000000000000060e08201526012606082015290517fb1e1d22424bcf87c08b3dab1ba6e7b5fdfbae1cebde669d3ac99811cdba3ccc0918190036101000190a15050506125cf565b60608173ffffffffffffffffffffffffffffffffffffffff166306fdde036040518163ffffffff1660e01b8152600401600060405180830381865afa92505050801561225357506040513d6000823e601f3d908101601f1916820160405261225091908101906144b5565b60015b61229f573d808015612281576040519150601f19603f3d011682016040523d82523d6000602084013e612286565b606091505b50604051806020016040528060008152509150506122a2565b90505b60608273ffffffffffffffffffffffffffffffffffffffff166395d89b416040518163ffffffff1660e01b8152600401600060405180830381865afa92505050801561231057506040513d6000823e601f3d908101601f1916820160405261230d91908101906144b5565b60015b61235c573d80801561233e576040519150601f19603f3d011682016040523d82523d6000602084013e612343565b606091505b506040518060200160405280600081525091505061235f565b90505b60ff8b166124545760008373ffffffffffffffffffffffffffffffffffffffff1663313ce5676040518163ffffffff1660e01b8152600401602060405180830381865afa9250505080156123d0575060408051601f3d908101601f191682019092526123cd91810190614523565b60015b61240e573d8080156123fe576040519150601f19603f3d011682016040523d82523d6000602084013e612403565b606091505b506000915050612411565b90505b7fb1e1d22424bcf87c08b3dab1ba6e7b5fdfbae1cebde669d3ac99811cdba3ccc08a8484846040516124469493929190614540565b60405180910390a1506125c8565b7fffffffffffffffffffffffffffffffffffffffffffffffffffffffffffffffff60ff8c16016125965760608373ffffffffffffffffffffffffffffffffffffffff1663c87b56dd8a8a60008181106124af576124af614580565b905060200201356040518263ffffffff1660e01b81526004016124d491815260200190565b600060405180830381865afa92505050801561251257506040513d6000823e601f3d908101601f1916820160405261250f91908101906144b5565b60015b61255e573d808015612540576040519150601f19603f3d011682016040523d82523d6000602084013e612545565b606091505b5060405180602001604052806000815250915050612561565b90505b7f59a3797aef1d99d386b9b3e9b8aff1f784aba7b9e43435540cb12727d38e7fc08a84848460405161244694939291906145af565b6040517fd623472500000000000000000000000000000000000000000000000000000000815260040160405180910390fd5b50505b5050505b50505050505050565b6125e06126a4565b73ffffffffffffffffffffffffffffffffffffffff8116612635576040517f1e4fbdf7000000000000000000000000000000000000000000000000000000008152600060048201526024015b60405180910390fd5b610e00816126f7565b600067ffffffffffffffff7f0000000000000000000000000000000000000000000000000000000000000000166126957f0000000000000000000000000000000000000000000000000000000000000000426145f9565b61269f919061460c565b905090565b60005473ffffffffffffffffffffffffffffffffffffffff163314610cf7576040517f118cdaa700000000000000000000000000000000000000000000000000000000815233600482015260240161262c565b6000805473ffffffffffffffffffffffffffffffffffffffff8381167fffffffffffffffffffffffff0000000000000000000000000000000000000000831681178455604051919092169283917f8be0079c531659141344cd1fd0a4f28419497f9722a3daafe3b4186f6b6457e09190a35050565b600754606090600090600390829061278f9067ffffffffffffffff1660016140be565b67ffffffffffffffff90811682526020808301939093526040918201600090812033825290935290822060075490935060039183916127d0911660026140be565b67ffffffffffffffff90811682526020808301939093526040918201600090812033825290935290822060075490935060039183916128109116836140be565b67ffffffffffffffff16815260208082019290925260409081016000908120338252909252812080548454865489519395509192909161284f91614647565b6128599190614647565b6128639190614647565b67ffffffffffffffff81111561287b5761287b613716565b6040519080825280602002602001820160405280156128d857816020015b6040805160a081018252600091810182815260608083018490526080830193909352815260208101919091528152602001906001900390816128995790505b5090506000805b8751811015612933578781815181106128fa576128fa614580565b602002602001015183838061290e9061465a565b94508151811061292057612920614580565b60209081029190910101526001016128df565b5060005b8554811015612a1f5785818154811061295257612952614580565b60009182526020918290206040805160a081018252600393909302909101805461ffff81168484019081526201000090910460ff1660608501526001820154608085015283526002810180548351818702810187019094528084529394919385830193928301828280156129e557602002820191906000526020600020905b8154815260200190600101908083116129d1575b5050505050815250508383806129fa9061465a565b945081518110612a0c57612a0c614580565b6020908102919091010152600101612937565b5060005b8454811015612b0b57848181548110612a3e57612a3e614580565b60009182526020918290206040805160a081018252600393909302909101805461ffff81168484019081526201000090910460ff166060850152600182015460808501528352600281018054835181870281018701909452808452939491938583019392830182828015612ad157602002820191906000526020600020905b815481526020019060010190808311612abd575b505050505081525050838380612ae69061465a565b945081518110612af857612af8614580565b6020908102919091010152600101612a23565b5060005b8354811015612bf757838181548110612b2a57612b2a614580565b60009182526020918290206040805160a081018252600393909302909101805461ffff81168484019081526201000090910460ff166060850152600182015460808501528352600281018054835181870281018701909452808452939491938583019392830182828015612bbd57602002820191906000526020600020905b815481526020019060010190808311612ba9575b505050505081525050838380612bd29061465a565b945081518110612be457612be4614580565b6020908102919091010152600101612b0f565b50600754600390600090612c169067ffffffffffffffff1660016140be565b67ffffffffffffffff168152602080820192909252604090810160009081203382529092528120612c4691613584565b600754600390600090612c649067ffffffffffffffff1660026140be565b67ffffffffffffffff168152602080820192909252604090810160009081203382529092528120612c9491613584565b600754600390600090612cb19067ffffffffffffffff16836140be565b67ffffffffffffffff168152602080820192909252604090810160009081203382529092528120612ce191613584565b5095945050505050565b67ffffffffffffffff8216600090815260046020908152604080832033845290915290205460ff1615612d4a576040517f6507689f00000000000000000000000000000000000000000000000000000000815260040160405180910390fd5b67ffffffffffffffff82166000908152600460209081526040808320338452909152812080547fffffffffffffffffffffffffffffffffffffffffffffffffffffffffffffff0016600117905581519003612dd1576040517feae9756900000000000000000000000000000000000000000000000000000000815260040160405180910390fd5b60005b8151811015612f4a576000828281518110612df157612df1614580565b602002602001015190506000612e0a826000015161321a565b82518051604091820151602086015192517fd1beaffa00000000000000000000000000000000000000000000000000000000815293945073ffffffffffffffffffffffffffffffffffffffff85169363d1beaffa93612e70939291339190600401614692565b600060405180830381600087803b158015612e8a57600080fd5b505af1925050508015612e9b575060015b612f40573d808015612ec9576040519150601f19603f3d011682016040523d82523d6000602084013e612ece565b606091505b5082604051612edd91906146db565b60405180910390203373ffffffffffffffffffffffffffffffffffffffff168767ffffffffffffffff167f17c878afc06be2054e373e11d19bd490c8a7957085244d6154d1c9f7f7799d6684604051612f369190613af6565b60405180910390a4505b5050600101612dd4565b503373ffffffffffffffffffffffffffffffffffffffff168267ffffffffffffffff167fc28beb9414af60e5f13561f08a5f1b5719d8bd778c3159c33c9cf261d7fb898483604051612f9c9190614740565b60405180910390a35050565b825160208401207f19457468657265756d205369676e6564204d6573736167653a0a3332000000006000908152601c91909152603c81206000612feb82866132e2565b73ffffffffffffffffffffffffffffffffffffffff90811690851614925050509392505050565b60008061301d61263e565b905061302a6001806140be565b6130359060016140be565b6130409060016140be565b67ffffffffffffffff168167ffffffffffffffff16101561308d576040517f085de62500000000000000000000000000000000000000000000000000000000815260040160405180910390fd5b7ffffffffffffffffffffffffffffffffffffffffffffffffffffffffffffffffc01919050565b600060016130c061263e565b6130ca91906140e6565b67ffffffffffffffff8116600090815260056020908152604080832033845290915290205490915063ffffffff161561312f576040517f860ec9c300000000000000000000000000000000000000000000000000000000815260040160405180910390fd5b67ffffffffffffffff81166000818152600560209081526040808320338452825280832080547fffffffffffffffffffffffffffffffffffffffffffffffffffffffff00000000166001179055928252600690529081208054916131928361465a565b9091555050604051339067ffffffffffffffff8316907f9f71686e9e2eed0a0a99340b1c3b230369f255b1d452130cead54f8308654dfd90600090a350565b815160208301207f19457468657265756d205369676e6564204d6573736167653a0a3332000000006000908152601c91909152603c812061321281846132e2565b949350505050565b600080826020015190507f000000000000000000000000000000000000000000000000000000000000000061ffff16836000015161ffff161480156132645750602083015160ff16155b801561327257506040830151155b1561327b575060025b60ff811660009081526002602052604090205473ffffffffffffffffffffffffffffffffffffffff16806132db576040517fc9adea7a00000000000000000000000000000000000000000000000000000000815260040160405180910390fd5b9392505050565b6000806000806132f2868661330c565b9250925092506133028282613359565b5090949350505050565b600080600083516041036133465760208401516040850151606086015160001a6133388882858561345d565b955095509550505050613352565b50508151600091506002905b9250925092565b600082600381111561336d5761336d614753565b03613376575050565b600182600381111561338a5761338a614753565b036133c1576040517ff645eedf00000000000000000000000000000000000000000000000000000000815260040160405180910390fd5b60028260038111156133d5576133d5614753565b0361340f576040517ffce698f70000000000000000000000000000000000000000000000000000000081526004810182905260240161262c565b600382600381111561342357613423614753565b03610d41576040517fd78bce0c0000000000000000000000000000000000000000000000000000000081526004810182905260240161262c565b600080807f7fffffffffffffffffffffffffffffff5d576e7357a4501ddfe92f46681b20a0841115613498575060009150600390508261352f565b604080516000808252602082018084528a905260ff891692820192909252606081018790526080810186905260019060a0016020604051602081039080840390855afa1580156134ec573d6000803e3d6000fd5b5050604051601f19015191505073ffffffffffffffffffffffffffffffffffffffff81166135255750600092506001915082905061352f565b9250600091508190505b9450945094915050565b828054828255906000526020600020908101928215613574579160200282015b82811115613574578251825591602001919060010190613559565b506135809291506135a5565b5090565b5080546000825560030290600052602060002090810190610e0091906135ba565b5b8082111561358057600081556001016135a6565b808211156135805780547fffffffffffffffffffffffffffffffffffffffffffffffffffffffffff0000001681556000600182018190556135fe6002830182613607565b506003016135ba565b5080546000825590600052602060002090810190610e0091906135a5565b60ff81168114610e0057600080fd5b60006020828403121561364657600080fd5b81356132db81613625565b803573ffffffffffffffffffffffffffffffffffffffff8116811461367557600080fd5b919050565b60008083601f84011261368c57600080fd5b50813567ffffffffffffffff8111156136a457600080fd5b6020830191508360208285010111156136bc57600080fd5b9250929050565b6000806000604084860312156136d857600080fd5b6136e184613651565b9250602084013567ffffffffffffffff8111156136fd57600080fd5b6137098682870161367a565b9497909650939450505050565b7f4e487b7100000000000000000000000000000000000000000000000000000000600052604160045260246000fd5b6040805190810167ffffffffffffffff8111828210171561376857613768613716565b60405290565b6040516060810167ffffffffffffffff8111828210171561376857613768613716565b60405160e0810167ffffffffffffffff8111828210171561376857613768613716565b604051601f8201601f1916810167ffffffffffffffff811182821017156137dd576137dd613716565b604052919050565b803567ffffffffffffffff8116811461367557600080fd5b803563ffffffff8116811461367557600080fd5b803561ffff8116811461367557600080fd5b8035801515811461367557600080fd5b600067ffffffffffffffff82111561384d5761384d613716565b5060051b60200190565b600061386a61386584613833565b6137b4565b8381529050602080820190600585811b85018781111561388957600080fd5b855b8181101561399757803567ffffffffffffffff808211156138ac5760008081fd5b90880190818b0360808112156138c25760008081fd5b6138ca613745565b6060808312156138da5760008081fd5b6138e261376e565b92506138ed85613811565b8352888501356138fc81613625565b838a0152604085810135908401529181529083013590828211156139205760008081fd5b81840193508c601f85011261393757600092508283fd5b8335925061394761386584613833565b83815292871b840188019288810192508d8411156139655760008081fd5b938801935b838510156139835784358352938801939188019161396a565b81890152885250505093830193830161388b565b50505050509392505050565b600082601f8301126139b457600080fd5b610e3083833560208501613857565b600060e082840312156139d557600080fd5b6139dd613791565b90506139e8826137e5565b81526139f6602083016137fd565b6020820152613a07604083016137fd565b6040820152613a1860608301613811565b6060820152613a2960808301613651565b6080820152613a3a60a08301613823565b60a082015260c082013567ffffffffffffffff811115613a5957600080fd5b613a65848285016139a3565b60c08301525092915050565b600060208284031215613a8357600080fd5b813567ffffffffffffffff811115613a9a57600080fd5b613212848285016139c3565b60005b83811015613ac1578181015183820152602001613aa9565b50506000910152565b60008151808452613ae2816020860160208601613aa6565b601f01601f19169290920160200192915050565b602081526000610e306020830184613aca565b60008060408385031215613b1c57600080fd5b613b25836137e5565b9150613b3360208401613651565b90509250929050565b600060608284031215613b4e57600080fd5b50919050565b600080600060808486031215613b6957600080fd5b613b738585613b3c565b9250606084013567ffffffffffffffff8111156136fd57600080fd5b600060208284031215613ba157600080fd5b610e3082613651565b600080600060608486031215613bbf57600080fd5b613bc8846137e5565b9250613bd660208501613651565b9150604084013590509250925092565b815161ffff16815260208083015160ff16908201526040808301519082015260608101610e33565b600067ffffffffffffffff821115613c2857613c28613716565b50601f01601f191660200190565b600082601f830112613c4757600080fd5b8135613c5561386582613c0e565b818152846020838601011115613c6a57600080fd5b816020850160208301376000918101602001919091529392505050565b60008060408385031215613c9a57600080fd5b823567ffffffffffffffff80821115613cb257600080fd5b613cbe868387016139c3565b93506020850135915080821115613cd457600080fd5b50613ce185828601613c36565b9150509250929050565b60008060408385031215613cfe57600080fd5b823567ffffffffffffffff80821115613d1657600080fd5b613cbe86838701613c36565b600080600060408486031215613d3757600080fd5b833567ffffffffffffffff80821115613d4f57600080fd5b9085019060e08288031215613d6357600080fd5b90935060208501359080821115613d7957600080fd5b506137098682870161367a565b60008060408385031215613d9957600080fd5b613da283613651565b91506020830135613db281613625565b809150509250929050565b600080600080600060a08688031215613dd557600080fd5b613ddf8787613b3c565b9450606086013567ffffffffffffffff80821115613dfc57600080fd5b613e0889838a0161367a565b90965094506080880135915080821115613e2157600080fd5b50613e2e8882890161367a565b969995985093965092949392505050565b60008060008060008060a08789031215613e5857600080fd5b613e6187613651565b95506020870135613e7181613625565b9450613e7f60408801613811565b935060608701359250608087013567ffffffffffffffff80821115613ea357600080fd5b818901915089601f830112613eb757600080fd5b813581811115613ec657600080fd5b8a60208260051b8501011115613edb57600080fd5b6020830194508093505050509295509295509295565b600060208284031215613f0357600080fd5b610e30826137e5565b60008151808452602080850194506020840160005b83811015613f3d57815187529582019590820190600101613f21565b509495945050505050565b613f6e828251805161ffff16825260208082015160ff1690830152604090810151910152565b60006020820151608060608501526132126080850182613f0c565b60008282518085526020808601955060208260051b8401016020860160005b84811015613fd657601f19868403018952613fc4838351613f48565b98840198925090830190600101613fa8565b5090979650505050505050565b610100808252600f908201527f4572647374616c6c42616c616e6365000000000000000000000000000000000061012082015267ffffffffffffffff8816602082015263ffffffff87811660408301528616606082015261ffff8516608082015273ffffffffffffffffffffffffffffffffffffffff841660a082015282151560c082015261014060e0820181905260009061408181840185613f89565b9a9950505050505050505050565b7f4e487b7100000000000000000000000000000000000000000000000000000000600052601160045260246000fd5b67ffffffffffffffff8181168382160190808211156140df576140df61408f565b5092915050565b67ffffffffffffffff8281168282160390808211156140df576140df61408f565b60006020828403121561411957600080fd5b610e3082613811565b6000816141315761413161408f565b507fffffffffffffffffffffffffffffffffffffffffffffffffffffffffffffffff0190565b6000610e3336836139c3565b60008083357fffffffffffffffffffffffffffffffffffffffffffffffffffffffffffffffe184360301811261419857600080fd5b83018035915067ffffffffffffffff8211156141b357600080fd5b6020019150600581901b36038213156136bc57600080fd5b6000610e30368484613857565b6000602082840312156141ea57600080fd5b610e3082613823565b60006020828403121561420557600080fd5b610e30826137fd565b63ffffffff8181168382160190808211156140df576140df61408f565b600063ffffffff8083168181036142445761424461408f565b6001019392505050565b81835260007f07ffffffffffffffffffffffffffffffffffffffffffffffffffffffffffffff83111561428057600080fd5b8260051b80836020870137939093016020019392505050565b818352818160208501375060006020828401015260006020601f19601f840116840101905092915050565b600060a0820163ffffffff808b1684526020818b16818601526040915060a060408601528289845260c0860190506005935060c08a60051b8701018b60005b8c811015614421577fffffffffffffffffffffffffffffffffffffffffffffffffffffffffffffff4089840301845281357fffffffffffffffffffffffffffffffffffffffffffffffffffffffffffffff818f360301811261436457600080fd5b8e01608061ffff61437483613811565b1685528682013561438481613625565b60ff16858801528188013588860152606080830135368490037fffffffffffffffffffffffffffffffffffffffffffffffffffffffffffffffe10181126143ca57600080fd5b90920187810192903567ffffffffffffffff8111156143e857600080fd5b808b1b36038413156143f957600080fd5b828288015261440b838801828661424e565b9789019796505050928601925050600101614303565b50508915156060880152868103608088015261443e81898b614299565b9e9d5050505050505050505050505050565b60ff8181168382160190811115610e3357610e3361408f565b73ffffffffffffffffffffffffffffffffffffffff84168152604060208201526000614499604083018486614299565b95945050505050565b602081526000610e306020830184613f48565b6000602082840312156144c757600080fd5b815167ffffffffffffffff8111156144de57600080fd5b8201601f810184136144ef57600080fd5b80516144fd61386582613c0e565b81815285602083850101111561451257600080fd5b614499826020830160208601613aa6565b60006020828403121561453557600080fd5b81516132db81613625565b8481526080602082015260006145596080830186613aca565b828103604084015261456b8186613aca565b91505060ff8316606083015295945050505050565b7f4e487b7100000000000000000000000000000000000000000000000000000000600052603260045260246000fd5b8481526080602082015260006145c86080830186613aca565b82810360408401526145da8186613aca565b905082810360608401526145ee8185613aca565b979650505050505050565b81810381811115610e3357610e3361408f565b600082614642577f4e487b7100000000000000000000000000000000000000000000000000000000600052601260045260246000fd5b500490565b80820180821115610e3357610e3361408f565b60007fffffffffffffffffffffffffffffffffffffffffffffffffffffffffffffffff820361468b5761468b61408f565b5060010190565b61ffff8516815283602082015273ffffffffffffffffffffffffffffffffffffffff831660408201526080606082015260006146d16080830184613f0c565b9695505050505050565b8151805161ffff16825260208082015160ff1681840152604091820151918301919091528083015180516000929182019190839060608601905b808310156147355784518252938301936001929092019190830190614715565b509695505050505050565b602081526000610e306020830184613f89565b7f4e487b7100000000000000000000000000000000000000000000000000000000600052602160045260246000fdfea2646970667358221220afe9a346116c0a25ce08a1c292f40b1e5f3ae97f35aa74777565ce6d307694b764736f6c63430008180033",
  "linkReferences": {},
  "deployedLinkReferences": {}
}