{
  "_format": "hh-sol-artifact-1",
  "contractName": "ETHHolder",
  "sourceName": "contracts/ETHHolder.sol",
  "abi": [
    {
      "inputs": [
        {
          "internalType": "address",
          "name": "erdstall",
          "type": "address"
        },
        {
          "internalType": "uint16",
          "name": "_chainID",
          "type": "uint16"
        }
      ],
      "stateMutability": "nonpayable",
      "type": "constructor"
    },
    {
      "inputs": [],
      "name": "CallerIsNotErdstall",
      "type": "error"
    },
    {
      "inputs": [],
      "name": "EmptyDeposit",
      "type": "error"
    },
    {
      "inputs": [],
      "name": "FailedCall",
      "type": "error"
    },
    {
      "inputs": [
        {
          "internalType": "uint256",
          "name": "balance",
          "type": "uint256"
        },
        {
          "internalType": "uint256",
          "name": "needed",
          "type": "uint256"
        }
      ],
      "name": "InsufficientBalance",
      "type": "error"
    },
    {
      "inputs": [],
      "name": "NotTheOriginChain",
      "type": "error"
    },
    {
      "inputs": [],
      "name": "WrongLocalID",
      "type": "error"
    },
    {
      "inputs": [],
      "name": "chainID",
      "outputs": [
        {
          "internalType": "uint16",
          "name": "",
          "type": "uint16"
        }
      ],
      "stateMutability": "view",
      "type": "function"
    },
    {
      "inputs": [],
      "name": "deposit",
      "outputs": [],
      "stateMutability": "payable",
      "type": "function"
    },
    {
      "inputs": [],
      "name": "erdstall",
      "outputs": [
        {
          "internalType": "contract Erdstall",
          "name": "",
          "type": "address"
        }
      ],
      "stateMutability": "view",
      "type": "function"
    },
    {
      "inputs": [
        {
          "internalType": "uint16",
          "name": "origin",
          "type": "uint16"
        },
        {
          "internalType": "bytes32",
          "name": "localID",
          "type": "bytes32"
        },
        {
          "internalType": "address",
          "name": "recipient",
          "type": "address"
        },
        {
          "internalType": "uint256[]",
          "name": "value",
          "type": "uint256[]"
        }
      ],
      "name": "transfer",
      "outputs": [],
      "stateMutability": "nonpayable",
      "type": "function"
    }
  ],
  "bytecode": "0x60c060405234801561001057600080fd5b506040516106d73803806106d783398101604081905261002f91610049565b6001600160a01b0390911660805261ffff1660a052610096565b6000806040838503121561005c57600080fd5b82516001600160a01b038116811461007357600080fd5b602084015190925061ffff8116811461008b57600080fd5b809150509250929050565b60805160a0516106026100d56000396000818160a7015281816101e301526102e10152600081816056015281816101b1015261024f01526106026000f3fe60806040526004361061003f5760003560e01c8063411f925c14610044578063adc879e914610095578063d0e30db0146100dc578063d1beaffa146100e6575b600080fd5b34801561005057600080fd5b506100787f000000000000000000000000000000000000000000000000000000000000000081565b6040516001600160a01b0390911681526020015b60405180910390f35b3480156100a157600080fd5b506100c97f000000000000000000000000000000000000000000000000000000000000000081565b60405161ffff909116815260200161008c565b6100e4610106565b005b3480156100f257600080fd5b506100e4610101366004610472565b610244565b34600003610140576040517f95b66fe900000000000000000000000000000000000000000000000000000000815260040160405180910390fd5b60408051600180825281830190925260009160208083019080368337019050509050348160008151811061017657610176610529565b60209081029190910101526040517fe83fd4110000000000000000000000000000000000000000000000000000000081526001600160a01b037f0000000000000000000000000000000000000000000000000000000000000000169063e83fd4119061020f9033906000907f00000000000000000000000000000000000000000000000000000000000000009082908890600401610558565b600060405180830381600087803b15801561022957600080fd5b505af115801561023d573d6000803e3d6000fd5b5050505050565b336001600160a01b037f000000000000000000000000000000000000000000000000000000000000000016146102a6576040517f164cbd7d00000000000000000000000000000000000000000000000000000000815260040160405180910390fd5b8380156102df576040517f4bf479af00000000000000000000000000000000000000000000000000000000815260040160405180910390fd5b7f000000000000000000000000000000000000000000000000000000000000000061ffff168661ffff1614610340576040517f57b7cbfa00000000000000000000000000000000000000000000000000000000815260040160405180910390fd5b6103758383600081811061035657610356610529565b90506020020135856001600160a01b031661037d90919063ffffffff16565b505050505050565b804710156103c4576040517fcf4791810000000000000000000000000000000000000000000000000000000081524760048201526024810182905260440160405180910390fd5b600080836001600160a01b03168360405160006040518083038185875af1925050503d8060008114610412576040519150601f19603f3d011682016040523d82523d6000602084013e610417565b606091505b50915091508161042a5761042a81610430565b50505050565b8051156104405780518082602001fd5b6040517fd6bda27500000000000000000000000000000000000000000000000000000000815260040160405180910390fd5b60008060008060006080868803121561048a57600080fd5b853561ffff8116811461049c57600080fd5b94506020860135935060408601356001600160a01b03811681146104bf57600080fd5b9250606086013567ffffffffffffffff8111156104db57600080fd5b8601601f810188136104ec57600080fd5b803567ffffffffffffffff81111561050357600080fd5b8860208260051b840101111561051857600080fd5b959894975092955050506020019190565b7f4e487b7100000000000000000000000000000000000000000000000000000000600052603260045260246000fd5b600060a082016001600160a01b038816835260ff8716602084015261ffff8616604084015284606084015260a0608084015280845180835260c08501915060208601925060005b818110156105bd57835183526020938401939092019160010161059f565b5090999850505050505050505056fea264697066735822122063e66f26ae757c1aee87d3ed446ca6a2712f62bc6ed14ee98def7a1d9fcf04e864736f6c634300081b0033",
  "linkReferences": {},
  "deployedLinkReferences": {}
}