{
  "_format": "hh-sol-artifact-1",
  "contractName": "ETHHolder",
  "sourceName": "contracts/ETHHolder.sol",
  "abi": [
    {
      "inputs": [
        {
          "internalType": "address",
          "name": "erdstall",
          "type": "address"
        },
        {
          "internalType": "uint16",
          "name": "_chainID",
          "type": "uint16"
        }
      ],
      "stateMutability": "nonpayable",
      "type": "constructor"
    },
    {
      "inputs": [],
      "name": "CallerIsNotErdstall",
      "type": "error"
    },
    {
      "inputs": [],
      "name": "EmptyDeposit",
      "type": "error"
    },
    {
      "inputs": [],
      "name": "NotTheOriginChain",
      "type": "error"
    },
    {
      "inputs": [],
      "name": "WrongLocalID",
      "type": "error"
    },
    {
      "inputs": [],
      "name": "chainID",
      "outputs": [
        {
          "internalType": "uint16",
          "name": "",
          "type": "uint16"
        }
      ],
      "stateMutability": "view",
      "type": "function"
    },
    {
      "inputs": [],
      "name": "deposit",
      "outputs": [],
      "stateMutability": "payable",
      "type": "function"
    },
    {
      "inputs": [],
      "name": "erdstall",
      "outputs": [
        {
          "internalType": "contract Erdstall",
          "name": "",
          "type": "address"
        }
      ],
      "stateMutability": "view",
      "type": "function"
    },
    {
      "inputs": [
        {
          "internalType": "uint16",
          "name": "origin",
          "type": "uint16"
        },
        {
          "internalType": "bytes32",
          "name": "localID",
          "type": "bytes32"
        },
        {
          "internalType": "address",
          "name": "recipient",
          "type": "address"
        },
        {
          "internalType": "uint256[]",
          "name": "value",
          "type": "uint256[]"
        }
      ],
      "name": "transfer",
      "outputs": [],
      "stateMutability": "nonpayable",
      "type": "function"
    }
  ],
  "bytecode": "0x60c060405234801561001057600080fd5b506040516107a23803806107a283398101604081905261002f91610057565b60609190911b6001600160601b03191660805260f01b6001600160f01b03191660a0526100a4565b6000806040838503121561006a57600080fd5b82516001600160a01b038116811461008157600080fd5b602084015190925061ffff8116811461009957600080fd5b809150509250929050565b60805160601c60a05160f01c6106b96100e96000396000818160b4015281816101fa01526103050152600081816056015281816101c8015261027301526106b96000f3fe60806040526004361061003f5760003560e01c8063411f925c14610044578063adc879e9146100a2578063d0e30db0146100e9578063d1beaffa146100f3575b600080fd5b34801561005057600080fd5b506100787f000000000000000000000000000000000000000000000000000000000000000081565b60405173ffffffffffffffffffffffffffffffffffffffff90911681526020015b60405180910390f35b3480156100ae57600080fd5b506100d67f000000000000000000000000000000000000000000000000000000000000000081565b60405161ffff9091168152602001610099565b6100f1610113565b005b3480156100ff57600080fd5b506100f161010e366004610512565b61025b565b3461014a576040517f95b66fe900000000000000000000000000000000000000000000000000000000815260040160405180910390fd5b60408051600180825281830190925260009160208083019080368337019050509050348160008151811061018057610180610654565b60209081029190910101526040517fe83fd41100000000000000000000000000000000000000000000000000000000815273ffffffffffffffffffffffffffffffffffffffff7f0000000000000000000000000000000000000000000000000000000000000000169063e83fd411906102269033906000907f000000000000000000000000000000000000000000000000000000000000000090829088906004016105d4565b600060405180830381600087803b15801561024057600080fd5b505af1158015610254573d6000803e3d6000fd5b5050505050565b3373ffffffffffffffffffffffffffffffffffffffff7f000000000000000000000000000000000000000000000000000000000000000016146102ca576040517f164cbd7d00000000000000000000000000000000000000000000000000000000815260040160405180910390fd5b838015610303576040517f4bf479af00000000000000000000000000000000000000000000000000000000815260040160405180910390fd5b7f000000000000000000000000000000000000000000000000000000000000000061ffff168661ffff1614610364576040517f57b7cbfa00000000000000000000000000000000000000000000000000000000815260040160405180910390fd5b6103a68383600081811061037a5761037a610654565b905060200201358573ffffffffffffffffffffffffffffffffffffffff166103ae90919063ffffffff16565b505050505050565b8047101561041d576040517f08c379a000000000000000000000000000000000000000000000000000000000815260206004820152601d60248201527f416464726573733a20696e73756666696369656e742062616c616e636500000060448201526064015b60405180910390fd5b60008273ffffffffffffffffffffffffffffffffffffffff168260405160006040518083038185875af1925050503d8060008114610477576040519150601f19603f3d011682016040523d82523d6000602084013e61047c565b606091505b505090508061050d576040517f08c379a000000000000000000000000000000000000000000000000000000000815260206004820152603a60248201527f416464726573733a20756e61626c6520746f2073656e642076616c75652c207260448201527f6563697069656e74206d617920686176652072657665727465640000000000006064820152608401610414565b505050565b60008060008060006080868803121561052a57600080fd5b853561ffff8116811461053c57600080fd5b945060208601359350604086013573ffffffffffffffffffffffffffffffffffffffff8116811461056c57600080fd5b9250606086013567ffffffffffffffff8082111561058957600080fd5b818801915088601f83011261059d57600080fd5b8135818111156105ac57600080fd5b8960208260051b85010111156105c157600080fd5b9699959850939650602001949392505050565b600060a0820173ffffffffffffffffffffffffffffffffffffffff88168352602060ff88168185015261ffff8716604085015285606085015260a0608085015281855180845260c086019150828701935060005b8181101561064457845183529383019391830191600101610628565b50909a9950505050505050505050565b7f4e487b7100000000000000000000000000000000000000000000000000000000600052603260045260246000fdfea2646970667358221220bfa4f1ca784018ea9b830f602589940bc450f50455919b2707c62b63428eb20764736f6c63430008060033",
  "linkReferences": {},
  "deployedLinkReferences": {}
}