{
  "_format": "hh-sol-artifact-1",
  "contractName": "ForeignAsset",
  "sourceName": "contracts/ForeignAsset.sol",
  "abi": [
    {
      "inputs": [],
      "stateMutability": "nonpayable",
      "type": "constructor"
    },
    {
      "inputs": [],
      "name": "holder",
      "outputs": [
        {
          "internalType": "address",
          "name": "",
          "type": "address"
        }
      ],
      "stateMutability": "view",
      "type": "function"
    }
  ],
  "bytecode": "0x6080604052348015600f57600080fd5b506000805460ff1916600117905560b080602a6000396000f3fe6080604052348015600f57600080fd5b506004361060285760003560e01c8063e534155d14602d575b600080fd5b600054605190610100900473ffffffffffffffffffffffffffffffffffffffff1681565b60405173ffffffffffffffffffffffffffffffffffffffff909116815260200160405180910390f3fea26469706673582212208e5851c859659d554d266e8fb3c53d843a8229dba50f29c3b03a98b623ddc42c64736f6c634300081b0033",
  "linkReferences": {},
  "deployedLinkReferences": {}
}