{
  "_format": "hh-sol-artifact-1",
  "contractName": "ForeignERC20",
  "sourceName": "contracts/ForeignERC20.sol",
  "abi": [
    {
      "anonymous": false,
      "inputs": [
        {
          "indexed": true,
          "internalType": "address",
          "name": "owner",
          "type": "address"
        },
        {
          "indexed": true,
          "internalType": "address",
          "name": "spender",
          "type": "address"
        },
        {
          "indexed": false,
          "internalType": "uint256",
          "name": "value",
          "type": "uint256"
        }
      ],
      "name": "Approval",
      "type": "event"
    },
    {
      "anonymous": false,
      "inputs": [
        {
          "indexed": true,
          "internalType": "address",
          "name": "from",
          "type": "address"
        },
        {
          "indexed": true,
          "internalType": "address",
          "name": "to",
          "type": "address"
        },
        {
          "indexed": false,
          "internalType": "uint256",
          "name": "value",
          "type": "uint256"
        }
      ],
      "name": "Transfer",
      "type": "event"
    },
    {
      "inputs": [
        {
          "internalType": "address",
          "name": "owner",
          "type": "address"
        },
        {
          "internalType": "address",
          "name": "spender",
          "type": "address"
        }
      ],
      "name": "allowance",
      "outputs": [
        {
          "internalType": "uint256",
          "name": "",
          "type": "uint256"
        }
      ],
      "stateMutability": "view",
      "type": "function"
    },
    {
      "inputs": [
        {
          "internalType": "address",
          "name": "spender",
          "type": "address"
        },
        {
          "internalType": "uint256",
          "name": "amount",
          "type": "uint256"
        }
      ],
      "name": "approve",
      "outputs": [
        {
          "internalType": "bool",
          "name": "",
          "type": "bool"
        }
      ],
      "stateMutability": "nonpayable",
      "type": "function"
    },
    {
      "inputs": [
        {
          "internalType": "address",
          "name": "account",
          "type": "address"
        }
      ],
      "name": "balanceOf",
      "outputs": [
        {
          "internalType": "uint256",
          "name": "",
          "type": "uint256"
        }
      ],
      "stateMutability": "view",
      "type": "function"
    },
    {
      "inputs": [
        {
          "internalType": "address",
          "name": "account",
          "type": "address"
        },
        {
          "internalType": "uint256",
          "name": "amount",
          "type": "uint256"
        }
      ],
      "name": "burn",
      "outputs": [],
      "stateMutability": "nonpayable",
      "type": "function"
    },
    {
      "inputs": [],
      "name": "decimals",
      "outputs": [
        {
          "internalType": "uint8",
          "name": "",
          "type": "uint8"
        }
      ],
      "stateMutability": "view",
      "type": "function"
    },
    {
      "inputs": [
        {
          "internalType": "address",
          "name": "spender",
          "type": "address"
        },
        {
          "internalType": "uint256",
          "name": "subtractedValue",
          "type": "uint256"
        }
      ],
      "name": "decreaseAllowance",
      "outputs": [
        {
          "internalType": "bool",
          "name": "",
          "type": "bool"
        }
      ],
      "stateMutability": "nonpayable",
      "type": "function"
    },
    {
      "inputs": [],
      "name": "holder",
      "outputs": [
        {
          "internalType": "address",
          "name": "",
          "type": "address"
        }
      ],
      "stateMutability": "view",
      "type": "function"
    },
    {
      "inputs": [
        {
          "internalType": "address",
          "name": "spender",
          "type": "address"
        },
        {
          "internalType": "uint256",
          "name": "addedValue",
          "type": "uint256"
        }
      ],
      "name": "increaseAllowance",
      "outputs": [
        {
          "internalType": "bool",
          "name": "",
          "type": "bool"
        }
      ],
      "stateMutability": "nonpayable",
      "type": "function"
    },
    {
      "inputs": [
        {
          "internalType": "string",
          "name": "name_",
          "type": "string"
        },
        {
          "internalType": "string",
          "name": "symbol_",
          "type": "string"
        },
        {
          "internalType": "uint8",
          "name": "decimals_",
          "type": "uint8"
        }
      ],
      "name": "init",
      "outputs": [],
      "stateMutability": "nonpayable",
      "type": "function"
    },
    {
      "inputs": [
        {
          "internalType": "address",
          "name": "account",
          "type": "address"
        },
        {
          "internalType": "uint256",
          "name": "amount",
          "type": "uint256"
        }
      ],
      "name": "mint",
      "outputs": [],
      "stateMutability": "nonpayable",
      "type": "function"
    },
    {
      "inputs": [],
      "name": "name",
      "outputs": [
        {
          "internalType": "string",
          "name": "",
          "type": "string"
        }
      ],
      "stateMutability": "view",
      "type": "function"
    },
    {
      "inputs": [],
      "name": "symbol",
      "outputs": [
        {
          "internalType": "string",
          "name": "",
          "type": "string"
        }
      ],
      "stateMutability": "view",
      "type": "function"
    },
    {
      "inputs": [],
      "name": "totalSupply",
      "outputs": [
        {
          "internalType": "uint256",
          "name": "",
          "type": "uint256"
        }
      ],
      "stateMutability": "view",
      "type": "function"
    },
    {
      "inputs": [
        {
          "internalType": "address",
          "name": "to",
          "type": "address"
        },
        {
          "internalType": "uint256",
          "name": "amount",
          "type": "uint256"
        }
      ],
      "name": "transfer",
      "outputs": [
        {
          "internalType": "bool",
          "name": "",
          "type": "bool"
        }
      ],
      "stateMutability": "nonpayable",
      "type": "function"
    },
    {
      "inputs": [
        {
          "internalType": "address",
          "name": "from",
          "type": "address"
        },
        {
          "internalType": "address",
          "name": "to",
          "type": "address"
        },
        {
          "internalType": "uint256",
          "name": "amount",
          "type": "uint256"
        }
      ],
      "name": "transferFrom",
      "outputs": [
        {
          "internalType": "bool",
          "name": "",
          "type": "bool"
        }
      ],
      "stateMutability": "nonpayable",
      "type": "function"
    }
  ],
  "bytecode": "0x60806040523480156200001157600080fd5b50604080516020808201835260008083528351918201909352828152825460ff191660011790925590600462000048838262000105565b50600562000057828262000105565b505050620001d1565b634e487b7160e01b600052604160045260246000fd5b600181811c908216806200008b57607f821691505b602082108103620000ac57634e487b7160e01b600052602260045260246000fd5b50919050565b601f8211156200010057600081815260208120601f850160051c81016020861015620000db5750805b601f850160051c820191505b81811015620000fc57828155600101620000e7565b5050505b505050565b81516001600160401b0381111562000121576200012162000060565b620001398162000132845462000076565b84620000b2565b602080601f831160018114620001715760008415620001585750858301515b600019600386901b1c1916600185901b178555620000fc565b600085815260208120601f198616915b82811015620001a25788860151825594840194600190910190840162000181565b5085821015620001c15787850151600019600388901b60f8161c191681555b5050505050600190811b01905550565b6112f280620001e16000396000f3fe608060405234801561001057600080fd5b50600436106100f55760003560e01c806370a0823111610097578063a9059cbb11610066578063a9059cbb14610201578063dd62ed3e14610214578063e534155d1461025a578063f57b0182146102a457600080fd5b806370a082311461019d57806395d89b41146101d35780639dc29fac146101db578063a457c2d7146101ee57600080fd5b806323b872dd116100d357806323b872dd1461014d578063313ce56714610160578063395093511461017557806340c10f191461018857600080fd5b806306fdde03146100fa578063095ea7b31461011857806318160ddd1461013b575b600080fd5b6101026102b7565b60405161010f9190610e75565b60405180910390f35b61012b610126366004610f0a565b610349565b604051901515815260200161010f565b6003545b60405190815260200161010f565b61012b61015b366004610f34565b610363565b60085460405160ff909116815260200161010f565b61012b610183366004610f0a565b610387565b61019b610196366004610f0a565b6103d3565b005b61013f6101ab366004610f70565b73ffffffffffffffffffffffffffffffffffffffff1660009081526001602052604090205490565b6101026104a4565b61019b6101e9366004610f0a565b6104b3565b61012b6101fc366004610f0a565b61057b565b61012b61020f366004610f0a565b610632565b61013f610222366004610f92565b73ffffffffffffffffffffffffffffffffffffffff918216600090815260026020908152604080832093909416825291909152205490565b60005461027f90610100900473ffffffffffffffffffffffffffffffffffffffff1681565b60405173ffffffffffffffffffffffffffffffffffffffff909116815260200161010f565b61019b6102b236600461100e565b610640565b6060600680546102c690611098565b80601f01602080910402602001604051908101604052809291908181526020018280546102f290611098565b801561033f5780601f106103145761010080835404028352916020019161033f565b820191906000526020600020905b81548152906001019060200180831161032257829003601f168201915b5050505050905090565b6000336103578185856106b0565b60019150505b92915050565b600033610371858285610830565b61037c8585856108ed565b506001949350505050565b33600081815260026020908152604080832073ffffffffffffffffffffffffffffffffffffffff8716845290915281205490919061035790829086906103ce9087906110eb565b6106b0565b60005460ff1661042a5760405162461bcd60e51b815260206004820152600f60248201527f4e6f7420696e697469616c697a6564000000000000000000000000000000000060448201526064015b60405180910390fd5b600054610100900473ffffffffffffffffffffffffffffffffffffffff1633146104965760405162461bcd60e51b815260206004820152601360248201527f4f6e6c7920686f6c64657220616c6c6f776564000000000000000000000000006044820152606401610421565b6104a08282610b15565b5050565b6060600780546102c690611098565b60005460ff166105055760405162461bcd60e51b815260206004820152600f60248201527f4e6f7420696e697469616c697a656400000000000000000000000000000000006044820152606401610421565b600054610100900473ffffffffffffffffffffffffffffffffffffffff1633146105715760405162461bcd60e51b815260206004820152601360248201527f4f6e6c7920686f6c64657220616c6c6f776564000000000000000000000000006044820152606401610421565b6104a08282610bf0565b33600081815260026020908152604080832073ffffffffffffffffffffffffffffffffffffffff87168452909152812054909190838110156106255760405162461bcd60e51b815260206004820152602560248201527f45524332303a2064656372656173656420616c6c6f77616e63652062656c6f7760448201527f207a65726f0000000000000000000000000000000000000000000000000000006064820152608401610421565b61037c82868684036106b0565b6000336103578185856108ed565b60005460ff16156106935760405162461bcd60e51b815260206004820152601360248201527f416c726561647920496e697469616c697a6564000000000000000000000000006044820152606401610421565b61069c33610d7f565b6106a98585858585610e21565b5050505050565b73ffffffffffffffffffffffffffffffffffffffff83166107385760405162461bcd60e51b8152602060048201526024808201527f45524332303a20617070726f76652066726f6d20746865207a65726f2061646460448201527f72657373000000000000000000000000000000000000000000000000000000006064820152608401610421565b73ffffffffffffffffffffffffffffffffffffffff82166107c15760405162461bcd60e51b815260206004820152602260248201527f45524332303a20617070726f766520746f20746865207a65726f20616464726560448201527f73730000000000000000000000000000000000000000000000000000000000006064820152608401610421565b73ffffffffffffffffffffffffffffffffffffffff83811660008181526002602090815260408083209487168084529482529182902085905590518481527f8c5be1e5ebec7d5bd14f71427d1e84f3dd0314c0f7b2291e5b200ac8c7c3b92591015b60405180910390a3505050565b73ffffffffffffffffffffffffffffffffffffffff8381166000908152600260209081526040808320938616835292905220547fffffffffffffffffffffffffffffffffffffffffffffffffffffffffffffffff81146108e757818110156108da5760405162461bcd60e51b815260206004820152601d60248201527f45524332303a20696e73756666696369656e7420616c6c6f77616e63650000006044820152606401610421565b6108e784848484036106b0565b50505050565b73ffffffffffffffffffffffffffffffffffffffff83166109765760405162461bcd60e51b815260206004820152602560248201527f45524332303a207472616e736665722066726f6d20746865207a65726f20616460448201527f64726573730000000000000000000000000000000000000000000000000000006064820152608401610421565b73ffffffffffffffffffffffffffffffffffffffff82166109ff5760405162461bcd60e51b815260206004820152602360248201527f45524332303a207472616e7366657220746f20746865207a65726f206164647260448201527f65737300000000000000000000000000000000000000000000000000000000006064820152608401610421565b73ffffffffffffffffffffffffffffffffffffffff831660009081526001602052604090205481811015610a9b5760405162461bcd60e51b815260206004820152602660248201527f45524332303a207472616e7366657220616d6f756e742065786365656473206260448201527f616c616e636500000000000000000000000000000000000000000000000000006064820152608401610421565b73ffffffffffffffffffffffffffffffffffffffff80851660008181526001602052604080822086860390559286168082529083902080548601905591517fddf252ad1be2c89b69c2b068fc378daa952ba7f163c4a11628f55a4df523b3ef90610b089086815260200190565b60405180910390a36108e7565b73ffffffffffffffffffffffffffffffffffffffff8216610b785760405162461bcd60e51b815260206004820152601f60248201527f45524332303a206d696e7420746f20746865207a65726f2061646472657373006044820152606401610421565b8060036000828254610b8a91906110eb565b909155505073ffffffffffffffffffffffffffffffffffffffff82166000818152600160209081526040808320805486019055518481527fddf252ad1be2c89b69c2b068fc378daa952ba7f163c4a11628f55a4df523b3ef910160405180910390a35050565b73ffffffffffffffffffffffffffffffffffffffff8216610c795760405162461bcd60e51b815260206004820152602160248201527f45524332303a206275726e2066726f6d20746865207a65726f2061646472657360448201527f73000000000000000000000000000000000000000000000000000000000000006064820152608401610421565b73ffffffffffffffffffffffffffffffffffffffff821660009081526001602052604090205481811015610d155760405162461bcd60e51b815260206004820152602260248201527f45524332303a206275726e20616d6f756e7420657863656564732062616c616e60448201527f63650000000000000000000000000000000000000000000000000000000000006064820152608401610421565b73ffffffffffffffffffffffffffffffffffffffff831660008181526001602090815260408083208686039055600380548790039055518581529192917fddf252ad1be2c89b69c2b068fc378daa952ba7f163c4a11628f55a4df523b3ef9101610823565b505050565b60005460ff1615610dd25760405162461bcd60e51b815260206004820152601360248201527f416c726561647920496e697469616c697a6564000000000000000000000000006044820152606401610421565b6000805473ffffffffffffffffffffffffffffffffffffffff909216610100027fffffffffffffffffffffff000000000000000000000000000000000000000000909216919091176001179055565b6006610e2e8587836111a2565b506007610e3c8385836111a2565b50600880547fffffffffffffffffffffffffffffffffffffffffffffffffffffffffffffff001660ff9290921691909117905550505050565b600060208083528351808285015260005b81811015610ea257858101830151858201604001528201610e86565b5060006040828601015260407fffffffffffffffffffffffffffffffffffffffffffffffffffffffffffffffe0601f8301168501019250505092915050565b803573ffffffffffffffffffffffffffffffffffffffff81168114610f0557600080fd5b919050565b60008060408385031215610f1d57600080fd5b610f2683610ee1565b946020939093013593505050565b600080600060608486031215610f4957600080fd5b610f5284610ee1565b9250610f6060208501610ee1565b9150604084013590509250925092565b600060208284031215610f8257600080fd5b610f8b82610ee1565b9392505050565b60008060408385031215610fa557600080fd5b610fae83610ee1565b9150610fbc60208401610ee1565b90509250929050565b60008083601f840112610fd757600080fd5b50813567ffffffffffffffff811115610fef57600080fd5b60208301915083602082850101111561100757600080fd5b9250929050565b60008060008060006060868803121561102657600080fd5b853567ffffffffffffffff8082111561103e57600080fd5b61104a89838a01610fc5565b9097509550602088013591508082111561106357600080fd5b5061107088828901610fc5565b909450925050604086013560ff8116811461108a57600080fd5b809150509295509295909350565b600181811c908216806110ac57607f821691505b6020821081036110e5577f4e487b7100000000000000000000000000000000000000000000000000000000600052602260045260246000fd5b50919050565b8082018082111561035d577f4e487b7100000000000000000000000000000000000000000000000000000000600052601160045260246000fd5b7f4e487b7100000000000000000000000000000000000000000000000000000000600052604160045260246000fd5b601f821115610d7a57600081815260208120601f850160051c8101602086101561117b5750805b601f850160051c820191505b8181101561119a57828155600101611187565b505050505050565b67ffffffffffffffff8311156111ba576111ba611125565b6111ce836111c88354611098565b83611154565b6000601f84116001811461122057600085156111ea5750838201355b7fffffffffffffffffffffffffffffffffffffffffffffffffffffffffffffffff600387901b1c1916600186901b1783556106a9565b6000838152602090207fffffffffffffffffffffffffffffffffffffffffffffffffffffffffffffffe0861690835b8281101561126f578685013582556020948501946001909201910161124f565b50868210156112aa577fffffffffffffffffffffffffffffffffffffffffffffffffffffffffffffffff60f88860031b161c19848701351681555b505060018560011b018355505050505056fea2646970667358221220ecf15058986881d132c96718101084391ddf36d91aa001e48993f2e2c2549cc764736f6c63430008130033",
  "linkReferences": {},
  "deployedLinkReferences": {}
}