{
  "_format": "hh-sol-artifact-1",
  "contractName": "ForeignERC721",
  "sourceName": "contracts/ForeignERC721.sol",
  "abi": [
    {
      "inputs": [
        {
          "internalType": "address",
          "name": "sender",
          "type": "address"
        },
        {
          "internalType": "uint256",
          "name": "tokenId",
          "type": "uint256"
        },
        {
          "internalType": "address",
          "name": "owner",
          "type": "address"
        }
      ],
      "name": "ERC721IncorrectOwner",
      "type": "error"
    },
    {
      "inputs": [
        {
          "internalType": "address",
          "name": "operator",
          "type": "address"
        },
        {
          "internalType": "uint256",
          "name": "tokenId",
          "type": "uint256"
        }
      ],
      "name": "ERC721InsufficientApproval",
      "type": "error"
    },
    {
      "inputs": [
        {
          "internalType": "address",
          "name": "approver",
          "type": "address"
        }
      ],
      "name": "ERC721InvalidApprover",
      "type": "error"
    },
    {
      "inputs": [
        {
          "internalType": "address",
          "name": "operator",
          "type": "address"
        }
      ],
      "name": "ERC721InvalidOperator",
      "type": "error"
    },
    {
      "inputs": [
        {
          "internalType": "address",
          "name": "owner",
          "type": "address"
        }
      ],
      "name": "ERC721InvalidOwner",
      "type": "error"
    },
    {
      "inputs": [
        {
          "internalType": "address",
          "name": "receiver",
          "type": "address"
        }
      ],
      "name": "ERC721InvalidReceiver",
      "type": "error"
    },
    {
      "inputs": [
        {
          "internalType": "address",
          "name": "sender",
          "type": "address"
        }
      ],
      "name": "ERC721InvalidSender",
      "type": "error"
    },
    {
      "inputs": [
        {
          "internalType": "uint256",
          "name": "tokenId",
          "type": "uint256"
        }
      ],
      "name": "ERC721NonexistentToken",
      "type": "error"
    },
    {
      "anonymous": false,
      "inputs": [
        {
          "indexed": true,
          "internalType": "address",
          "name": "owner",
          "type": "address"
        },
        {
          "indexed": true,
          "internalType": "address",
          "name": "approved",
          "type": "address"
        },
        {
          "indexed": true,
          "internalType": "uint256",
          "name": "tokenId",
          "type": "uint256"
        }
      ],
      "name": "Approval",
      "type": "event"
    },
    {
      "anonymous": false,
      "inputs": [
        {
          "indexed": true,
          "internalType": "address",
          "name": "owner",
          "type": "address"
        },
        {
          "indexed": true,
          "internalType": "address",
          "name": "operator",
          "type": "address"
        },
        {
          "indexed": false,
          "internalType": "bool",
          "name": "approved",
          "type": "bool"
        }
      ],
      "name": "ApprovalForAll",
      "type": "event"
    },
    {
      "anonymous": false,
      "inputs": [
        {
          "indexed": false,
          "internalType": "uint256",
          "name": "_fromTokenId",
          "type": "uint256"
        },
        {
          "indexed": false,
          "internalType": "uint256",
          "name": "_toTokenId",
          "type": "uint256"
        }
      ],
      "name": "BatchMetadataUpdate",
      "type": "event"
    },
    {
      "anonymous": false,
      "inputs": [
        {
          "indexed": false,
          "internalType": "uint256",
          "name": "_tokenId",
          "type": "uint256"
        }
      ],
      "name": "MetadataUpdate",
      "type": "event"
    },
    {
      "anonymous": false,
      "inputs": [
        {
          "indexed": true,
          "internalType": "address",
          "name": "from",
          "type": "address"
        },
        {
          "indexed": true,
          "internalType": "address",
          "name": "to",
          "type": "address"
        },
        {
          "indexed": true,
          "internalType": "uint256",
          "name": "tokenId",
          "type": "uint256"
        }
      ],
      "name": "Transfer",
      "type": "event"
    },
    {
      "inputs": [
        {
          "internalType": "address",
          "name": "to",
          "type": "address"
        },
        {
          "internalType": "uint256",
          "name": "tokenId",
          "type": "uint256"
        }
      ],
      "name": "approve",
      "outputs": [],
      "stateMutability": "nonpayable",
      "type": "function"
    },
    {
      "inputs": [
        {
          "internalType": "address",
          "name": "owner",
          "type": "address"
        }
      ],
      "name": "balanceOf",
      "outputs": [
        {
          "internalType": "uint256",
          "name": "",
          "type": "uint256"
        }
      ],
      "stateMutability": "view",
      "type": "function"
    },
    {
      "inputs": [
        {
          "internalType": "address",
          "name": "account",
          "type": "address"
        },
        {
          "internalType": "uint256[]",
          "name": "ids",
          "type": "uint256[]"
        }
      ],
      "name": "bulkBurn",
      "outputs": [],
      "stateMutability": "nonpayable",
      "type": "function"
    },
    {
      "inputs": [
        {
          "internalType": "address",
          "name": "account",
          "type": "address"
        },
        {
          "internalType": "uint256[]",
          "name": "ids",
          "type": "uint256[]"
        }
      ],
      "name": "bulkMint",
      "outputs": [],
      "stateMutability": "nonpayable",
      "type": "function"
    },
    {
      "inputs": [
        {
          "internalType": "uint256",
          "name": "tokenId",
          "type": "uint256"
        }
      ],
      "name": "getApproved",
      "outputs": [
        {
          "internalType": "address",
          "name": "",
          "type": "address"
        }
      ],
      "stateMutability": "view",
      "type": "function"
    },
    {
      "inputs": [],
      "name": "holder",
      "outputs": [
        {
          "internalType": "address",
          "name": "",
          "type": "address"
        }
      ],
      "stateMutability": "view",
      "type": "function"
    },
    {
      "inputs": [],
      "name": "init",
      "outputs": [],
      "stateMutability": "nonpayable",
      "type": "function"
    },
    {
      "inputs": [
        {
          "internalType": "address",
          "name": "owner",
          "type": "address"
        },
        {
          "internalType": "address",
          "name": "operator",
          "type": "address"
        }
      ],
      "name": "isApprovedForAll",
      "outputs": [
        {
          "internalType": "bool",
          "name": "",
          "type": "bool"
        }
      ],
      "stateMutability": "view",
      "type": "function"
    },
    {
      "inputs": [],
      "name": "name",
      "outputs": [
        {
          "internalType": "string",
          "name": "",
          "type": "string"
        }
      ],
      "stateMutability": "view",
      "type": "function"
    },
    {
      "inputs": [
        {
          "internalType": "uint256",
          "name": "tokenId",
          "type": "uint256"
        }
      ],
      "name": "ownerOf",
      "outputs": [
        {
          "internalType": "address",
          "name": "",
          "type": "address"
        }
      ],
      "stateMutability": "view",
      "type": "function"
    },
    {
      "inputs": [
        {
          "internalType": "address",
          "name": "from",
          "type": "address"
        },
        {
          "internalType": "address",
          "name": "to",
          "type": "address"
        },
        {
          "internalType": "uint256",
          "name": "tokenId",
          "type": "uint256"
        }
      ],
      "name": "safeTransferFrom",
      "outputs": [],
      "stateMutability": "nonpayable",
      "type": "function"
    },
    {
      "inputs": [
        {
          "internalType": "address",
          "name": "from",
          "type": "address"
        },
        {
          "internalType": "address",
          "name": "to",
          "type": "address"
        },
        {
          "internalType": "uint256",
          "name": "tokenId",
          "type": "uint256"
        },
        {
          "internalType": "bytes",
          "name": "data",
          "type": "bytes"
        }
      ],
      "name": "safeTransferFrom",
      "outputs": [],
      "stateMutability": "nonpayable",
      "type": "function"
    },
    {
      "inputs": [
        {
          "internalType": "address",
          "name": "operator",
          "type": "address"
        },
        {
          "internalType": "bool",
          "name": "approved",
          "type": "bool"
        }
      ],
      "name": "setApprovalForAll",
      "outputs": [],
      "stateMutability": "nonpayable",
      "type": "function"
    },
    {
      "inputs": [
        {
          "internalType": "uint256",
          "name": "id",
          "type": "uint256"
        },
        {
          "internalType": "string",
          "name": "uri",
          "type": "string"
        }
      ],
      "name": "setCustomURI",
      "outputs": [],
      "stateMutability": "nonpayable",
      "type": "function"
    },
    {
      "inputs": [
        {
          "internalType": "string",
          "name": "name_",
          "type": "string"
        },
        {
          "internalType": "string",
          "name": "symbol_",
          "type": "string"
        },
        {
          "internalType": "string",
          "name": "baseURI_",
          "type": "string"
        }
      ],
      "name": "setMetadata",
      "outputs": [],
      "stateMutability": "nonpayable",
      "type": "function"
    },
    {
      "inputs": [
        {
          "internalType": "bytes4",
          "name": "interfaceId",
          "type": "bytes4"
        }
      ],
      "name": "supportsInterface",
      "outputs": [
        {
          "internalType": "bool",
          "name": "",
          "type": "bool"
        }
      ],
      "stateMutability": "view",
      "type": "function"
    },
    {
      "inputs": [],
      "name": "symbol",
      "outputs": [
        {
          "internalType": "string",
          "name": "",
          "type": "string"
        }
      ],
      "stateMutability": "view",
      "type": "function"
    },
    {
      "inputs": [
        {
          "internalType": "uint256",
          "name": "tokenId",
          "type": "uint256"
        }
      ],
      "name": "tokenURI",
      "outputs": [
        {
          "internalType": "string",
          "name": "",
          "type": "string"
        }
      ],
      "stateMutability": "view",
      "type": "function"
    },
    {
      "inputs": [
        {
          "internalType": "address",
          "name": "from",
          "type": "address"
        },
        {
          "internalType": "address",
          "name": "to",
          "type": "address"
        },
        {
          "internalType": "uint256",
          "name": "tokenId",
          "type": "uint256"
        }
      ],
      "name": "transferFrom",
      "outputs": [],
      "stateMutability": "nonpayable",
      "type": "function"
    }
  ],
  "bytecode": "0x60806040523480156200001157600080fd5b50604080516020808201835260008083528351918201909352828152825460ff19166001908117909355909162000049838262000108565b50600262000058828262000108565b505050620001d4565b634e487b7160e01b600052604160045260246000fd5b600181811c908216806200008c57607f821691505b602082108103620000ad57634e487b7160e01b600052602260045260246000fd5b50919050565b601f82111562000103576000816000526020600020601f850160051c81016020861015620000de5750805b601f850160051c820191505b81811015620000ff57828155600101620000ea565b5050505b505050565b81516001600160401b0381111562000124576200012462000061565b6200013c8162000135845462000077565b84620000b3565b602080601f8311600181146200017457600084156200015b5750858301515b600019600386901b1c1916600185901b178555620000ff565b600085815260208120601f198616915b82811015620001a55788860151825594840194600190910190840162000184565b5085821015620001c45787850151600019600388901b60f8161c191681555b5050505050600190811b01905550565b611f7280620001e46000396000f3fe608060405234801561001057600080fd5b50600436106101515760003560e01c806370a08231116100cd578063b88d4fde11610081578063e1c7392a11610066578063e1c7392a146102ba578063e534155d146102c2578063e985e9c5146102da57600080fd5b8063b88d4fde14610294578063c87b56dd146102a757600080fd5b806395d89b41116100b257806395d89b4114610266578063a184e9a51461026e578063a22cb4651461028157600080fd5b806370a08231146102325780638a3a4c7c1461025357600080fd5b8063095ea7b3116101245780633adf80b4116101095780633adf80b4146101f957806342842e0e1461020c5780636352211e1461021f57600080fd5b8063095ea7b3146101d357806323b872dd146101e657600080fd5b806301ffc9a71461015657806306fdde031461017e578063081812fc146101935780630890d80c146101be575b600080fd5b6101696101643660046117b2565b610316565b60405190151581526020015b60405180910390f35b610186610373565b6040516101759190611844565b6101a66101a1366004611857565b610454565b6040516001600160a01b039091168152602001610175565b6101d16101cc3660046118b9565b61047d565b005b6101d16101e136600461196f565b61057d565b6101d16101f4366004611999565b61058c565b6101d16102073660046119d5565b610649565b6101d161021a366004611999565b61073e565b6101a661022d366004611857565b610759565b610245610240366004611a21565b610764565b604051908152602001610175565b6101d1610261366004611a3c565b6107c5565b6101866108e2565b6101d161027c366004611a3c565b610940565b6101d161028f366004611ac2565b610a5a565b6101d16102a2366004611b2d565b610a65565b6101866102b5366004611857565b610a7c565b6101d1610b99565b6000546101a69061010090046001600160a01b031681565b6101696102e8366004611c27565b6001600160a01b03918216600090815260066020908152604080832093909416825291909152205460ff1690565b600061032182610c11565b8061036d57507f49064906000000000000000000000000000000000000000000000000000000007fffffffff000000000000000000000000000000000000000000000000000000008316145b92915050565b606060006007805461038490611c5a565b9050111561041c576007805461039990611c5a565b80601f01602080910402602001604051908101604052809291908181526020018280546103c590611c5a565b80156104125780601f106103e757610100808354040283529160200191610412565b820191906000526020600020905b8154815290600101906020018083116103f557829003601f168201915b5050505050905090565b5060408051808201909152601681527f57696c6463617264204272696467656420546f6b656e00000000000000000000602082015290565b600061045f82610cf4565b506000828152600560205260409020546001600160a01b031661036d565b60005460ff166104ee576040517f08c379a000000000000000000000000000000000000000000000000000000000815260206004820152600f60248201527f4e6f7420696e697469616c697a6564000000000000000000000000000000000060448201526064015b60405180910390fd5b60005461010090046001600160a01b03163314610567576040517f08c379a000000000000000000000000000000000000000000000000000000000815260206004820152601360248201527f4f6e6c7920686f6c64657220616c6c6f7765640000000000000000000000000060448201526064016104e5565b610575868686868686610d46565b505050505050565b610588828233610dd1565b5050565b6001600160a01b0382166105cf576040517f64a0ae92000000000000000000000000000000000000000000000000000000008152600060048201526024016104e5565b60006105dc838333610dde565b9050836001600160a01b0316816001600160a01b031614610643576040517f64283d7b0000000000000000000000000000000000000000000000000000000081526001600160a01b03808616600483015260248201849052821660448201526064016104e5565b50505050565b60005460ff166106b5576040517f08c379a000000000000000000000000000000000000000000000000000000000815260206004820152600f60248201527f4e6f7420696e697469616c697a6564000000000000000000000000000000000060448201526064016104e5565b60005461010090046001600160a01b0316331461072e576040517f08c379a000000000000000000000000000000000000000000000000000000000815260206004820152601360248201527f4f6e6c7920686f6c64657220616c6c6f7765640000000000000000000000000060448201526064016104e5565b610739838383610f0d565b505050565b61073983838360405180602001604052806000815250610a65565b600061036d82610cf4565b60006001600160a01b0382166107a9576040517f89c62b64000000000000000000000000000000000000000000000000000000008152600060048201526024016104e5565b506001600160a01b031660009081526004602052604090205490565b60005460ff16610831576040517f08c379a000000000000000000000000000000000000000000000000000000000815260206004820152600f60248201527f4e6f7420696e697469616c697a6564000000000000000000000000000000000060448201526064016104e5565b60005461010090046001600160a01b031633146108aa576040517f08c379a000000000000000000000000000000000000000000000000000000000815260206004820152601360248201527f4f6e6c7920686f6c64657220616c6c6f7765640000000000000000000000000060448201526064016104e5565b60005b81811015610643576108d960008484848181106108cc576108cc611cad565b9050602002013586610dde565b506001016108ad565b60606000600880546108f390611c5a565b90501115610908576008805461039990611c5a565b5060408051808201909152600481527f4341524400000000000000000000000000000000000000000000000000000000602082015290565b60005460ff166109ac576040517f08c379a000000000000000000000000000000000000000000000000000000000815260206004820152600f60248201527f4e6f7420696e697469616c697a6564000000000000000000000000000000000060448201526064016104e5565b60005461010090046001600160a01b03163314610a25576040517f08c379a000000000000000000000000000000000000000000000000000000000815260206004820152601360248201527f4f6e6c7920686f6c64657220616c6c6f7765640000000000000000000000000060448201526064016104e5565b60005b8181101561064357610a5284848484818110610a4657610a46611cad565b90506020020135610f5f565b600101610a28565b610588338383610f79565b610a7084848461058c565b6106438484848461104f565b6060610a8782610cf4565b506000828152600a6020526040902080548190610aa390611c5a565b159050610b3c57808054610ab690611c5a565b80601f0160208091040260200160405190810160405280929190818152602001828054610ae290611c5a565b8015610b2f5780601f10610b0457610100808354040283529160200191610b2f565b820191906000526020600020905b815481529060010190602001808311610b1257829003601f168201915b5050505050915050919050565b50600060098054610b4c90611c5a565b905011610b68576040518060200160405280600081525061036d565b6009610b7383611212565b604051602001610b84929190611cdc565b60405160208183030381529060405292915050565b60005460ff1615610c06576040517f08c379a000000000000000000000000000000000000000000000000000000000815260206004820152601360248201527f416c726561647920496e697469616c697a65640000000000000000000000000060448201526064016104e5565b610c0f336112d0565b565b60007fffffffff0000000000000000000000000000000000000000000000000000000082167f80ac58cd000000000000000000000000000000000000000000000000000000001480610ca457507fffffffff0000000000000000000000000000000000000000000000000000000082167f5b5e139f00000000000000000000000000000000000000000000000000000000145b8061036d57507f01ffc9a7000000000000000000000000000000000000000000000000000000007fffffffff0000000000000000000000000000000000000000000000000000000083161461036d565b6000818152600360205260408120546001600160a01b03168061036d576040517f7e273289000000000000000000000000000000000000000000000000000000008152600481018490526024016104e5565b6007610d53868883611dc9565b506008610d61848683611dc9565b506009610d6f828483611dc9565b5060408051600081527fffffffffffffffffffffffffffffffffffffffffffffffffffffffffffffffff60208201527f6bd5c950a8d8df17f772f5af37cb3655737899cbf903264b9795592da439661c910160405180910390a1505050505050565b610739838383600161137f565b6000828152600360205260408120546001600160a01b0390811690831615610e0b57610e0b8184866114d5565b6001600160a01b03811615610e6757610e2860008560008061137f565b6001600160a01b038116600090815260046020526040902080547fffffffffffffffffffffffffffffffffffffffffffffffffffffffffffffffff0190555b6001600160a01b03851615610e96576001600160a01b0385166000908152600460205260409020805460010190555b60008481526003602052604080822080547fffffffffffffffffffffffff0000000000000000000000000000000000000000166001600160a01b0389811691821790925591518793918516917fddf252ad1be2c89b69c2b068fc378daa952ba7f163c4a11628f55a4df523b3ef91a4949350505050565b6000838152600a60205260409020610f26828483611dc9565b506040518381527ff8e1a15aba9398e019f0b49df1a4fde98ee17ae345cb5f6b5e2c27f5033e8ce79060200160405180910390a1505050565b61058882826040518060200160405280600081525061156b565b6001600160a01b038216610fc4576040517f5b08ba180000000000000000000000000000000000000000000000000000000081526001600160a01b03831660048201526024016104e5565b6001600160a01b0383811660008181526006602090815260408083209487168084529482529182902080547fffffffffffffffffffffffffffffffffffffffffffffffffffffffffffffff001686151590811790915591519182527f17307eab39ab6107e8899845ad3d59bd9653f200f220920489ca2b5937696c31910160405180910390a3505050565b6001600160a01b0383163b15610643576040517f150b7a020000000000000000000000000000000000000000000000000000000081526001600160a01b0384169063150b7a02906110aa903390889087908790600401611ee3565b6020604051808303816000875af1925050508015611103575060408051601f3d9081017fffffffffffffffffffffffffffffffffffffffffffffffffffffffffffffffe016820190925261110091810190611f1f565b60015b611185573d808015611131576040519150601f19603f3d011682016040523d82523d6000602084013e611136565b606091505b50805160000361117d576040517f64a0ae920000000000000000000000000000000000000000000000000000000081526001600160a01b03851660048201526024016104e5565b805181602001fd5b7fffffffff0000000000000000000000000000000000000000000000000000000081167f150b7a02000000000000000000000000000000000000000000000000000000001461120b576040517f64a0ae920000000000000000000000000000000000000000000000000000000081526001600160a01b03851660048201526024016104e5565b5050505050565b6060600061121f83611582565b600101905060008167ffffffffffffffff81111561123f5761123f611afe565b6040519080825280601f01601f191660200182016040528015611269576020820181803683370190505b5090508181016020015b7fffffffffffffffffffffffffffffffffffffffffffffffffffffffffffffffff017f3031323334353637383961626364656600000000000000000000000000000000600a86061a8153600a850494508461127357509392505050565b60005460ff161561133d576040517f08c379a000000000000000000000000000000000000000000000000000000000815260206004820152601360248201527f416c726561647920496e697469616c697a65640000000000000000000000000060448201526064016104e5565b600080546001600160a01b03909216610100027fffffffffffffffffffffff000000000000000000000000000000000000000000909216919091176001179055565b808061139357506001600160a01b03821615155b1561148d5760006113a384610cf4565b90506001600160a01b038316158015906113cf5750826001600160a01b0316816001600160a01b031614155b801561140157506001600160a01b0380821660009081526006602090815260408083209387168352929052205460ff16155b15611443576040517fa9fbf51f0000000000000000000000000000000000000000000000000000000081526001600160a01b03841660048201526024016104e5565b811561148b5783856001600160a01b0316826001600160a01b03167f8c5be1e5ebec7d5bd14f71427d1e84f3dd0314c0f7b2291e5b200ac8c7c3b92560405160405180910390a45b505b5050600090815260056020526040902080547fffffffffffffffffffffffff0000000000000000000000000000000000000000166001600160a01b0392909216919091179055565b6114e0838383611664565b610739576001600160a01b038316611527576040517f7e273289000000000000000000000000000000000000000000000000000000008152600481018290526024016104e5565b6040517f177e802f0000000000000000000000000000000000000000000000000000000081526001600160a01b0383166004820152602481018290526044016104e5565b61157583836116ea565b610739600084848461104f565b6000807a184f03e93ff9f4daa797ed6e38ed64bf6a1f01000000000000000083106115cb577a184f03e93ff9f4daa797ed6e38ed64bf6a1f010000000000000000830492506040015b6d04ee2d6d415b85acef810000000083106115f7576d04ee2d6d415b85acef8100000000830492506020015b662386f26fc10000831061161557662386f26fc10000830492506010015b6305f5e100831061162d576305f5e100830492506008015b612710831061164157612710830492506004015b60648310611653576064830492506002015b600a831061036d5760010192915050565b60006001600160a01b038316158015906116e25750826001600160a01b0316846001600160a01b031614806116be57506001600160a01b0380851660009081526006602090815260408083209387168352929052205460ff165b806116e257506000828152600560205260409020546001600160a01b038481169116145b949350505050565b6001600160a01b03821661172d576040517f64a0ae92000000000000000000000000000000000000000000000000000000008152600060048201526024016104e5565b600061173b83836000610dde565b90506001600160a01b03811615610739576040517f73c6ac6e000000000000000000000000000000000000000000000000000000008152600060048201526024016104e5565b7fffffffff00000000000000000000000000000000000000000000000000000000811681146117af57600080fd5b50565b6000602082840312156117c457600080fd5b81356117cf81611781565b9392505050565b60005b838110156117f15781810151838201526020016117d9565b50506000910152565b600081518084526118128160208601602086016117d6565b601f017fffffffffffffffffffffffffffffffffffffffffffffffffffffffffffffffe0169290920160200192915050565b6020815260006117cf60208301846117fa565b60006020828403121561186957600080fd5b5035919050565b60008083601f84011261188257600080fd5b50813567ffffffffffffffff81111561189a57600080fd5b6020830191508360208285010111156118b257600080fd5b9250929050565b600080600080600080606087890312156118d257600080fd5b863567ffffffffffffffff808211156118ea57600080fd5b6118f68a838b01611870565b9098509650602089013591508082111561190f57600080fd5b61191b8a838b01611870565b9096509450604089013591508082111561193457600080fd5b5061194189828a01611870565b979a9699509497509295939492505050565b80356001600160a01b038116811461196a57600080fd5b919050565b6000806040838503121561198257600080fd5b61198b83611953565b946020939093013593505050565b6000806000606084860312156119ae57600080fd5b6119b784611953565b92506119c560208501611953565b9150604084013590509250925092565b6000806000604084860312156119ea57600080fd5b83359250602084013567ffffffffffffffff811115611a0857600080fd5b611a1486828701611870565b9497909650939450505050565b600060208284031215611a3357600080fd5b6117cf82611953565b600080600060408486031215611a5157600080fd5b611a5a84611953565b9250602084013567ffffffffffffffff80821115611a7757600080fd5b818601915086601f830112611a8b57600080fd5b813581811115611a9a57600080fd5b8760208260051b8501011115611aaf57600080fd5b6020830194508093505050509250925092565b60008060408385031215611ad557600080fd5b611ade83611953565b915060208301358015158114611af357600080fd5b809150509250929050565b7f4e487b7100000000000000000000000000000000000000000000000000000000600052604160045260246000fd5b60008060008060808587031215611b4357600080fd5b611b4c85611953565b9350611b5a60208601611953565b925060408501359150606085013567ffffffffffffffff80821115611b7e57600080fd5b818701915087601f830112611b9257600080fd5b813581811115611ba457611ba4611afe565b604051601f82017fffffffffffffffffffffffffffffffffffffffffffffffffffffffffffffffe0908116603f01168101908382118183101715611bea57611bea611afe565b816040528281528a6020848701011115611c0357600080fd5b82602086016020830137600060208483010152809550505050505092959194509250565b60008060408385031215611c3a57600080fd5b611c4383611953565b9150611c5160208401611953565b90509250929050565b600181811c90821680611c6e57607f821691505b602082108103611ca7577f4e487b7100000000000000000000000000000000000000000000000000000000600052602260045260246000fd5b50919050565b7f4e487b7100000000000000000000000000000000000000000000000000000000600052603260045260246000fd5b6000808454611cea81611c5a565b60018281168015611d025760018114611d3557611d64565b7fffffffffffffffffffffffffffffffffffffffffffffffffffffffffffffff0084168752821515830287019450611d64565b8860005260208060002060005b85811015611d5b5781548a820152908401908201611d42565b50505082870194505b505050508351611d788183602088016117d6565b01949350505050565b601f821115610739576000816000526020600020601f850160051c81016020861015611daa5750805b601f850160051c820191505b8181101561057557828155600101611db6565b67ffffffffffffffff831115611de157611de1611afe565b611df583611def8354611c5a565b83611d81565b6000601f841160018114611e475760008515611e115750838201355b7fffffffffffffffffffffffffffffffffffffffffffffffffffffffffffffffff600387901b1c1916600186901b17835561120b565b6000838152602090207fffffffffffffffffffffffffffffffffffffffffffffffffffffffffffffffe0861690835b82811015611e965786850135825560209485019460019092019101611e76565b5086821015611ed1577fffffffffffffffffffffffffffffffffffffffffffffffffffffffffffffffff60f88860031b161c19848701351681555b505060018560011b0183555050505050565b60006001600160a01b03808716835280861660208401525083604083015260806060830152611f1560808301846117fa565b9695505050505050565b600060208284031215611f3157600080fd5b81516117cf8161178156fea26469706673582212201e7f83dc6ef4a547ea375801c720a0f0f9b3b3389a9227661743a1306adb142c64736f6c63430008180033",
  "linkReferences": {},
  "deployedLinkReferences": {}
}