{
  "_format": "hh-sol-artifact-1",
  "contractName": "ForeignERC721",
  "sourceName": "contracts/ForeignERC721.sol",
  "abi": [
    {
      "anonymous": false,
      "inputs": [
        {
          "indexed": true,
          "internalType": "address",
          "name": "owner",
          "type": "address"
        },
        {
          "indexed": true,
          "internalType": "address",
          "name": "approved",
          "type": "address"
        },
        {
          "indexed": true,
          "internalType": "uint256",
          "name": "tokenId",
          "type": "uint256"
        }
      ],
      "name": "Approval",
      "type": "event"
    },
    {
      "anonymous": false,
      "inputs": [
        {
          "indexed": true,
          "internalType": "address",
          "name": "owner",
          "type": "address"
        },
        {
          "indexed": true,
          "internalType": "address",
          "name": "operator",
          "type": "address"
        },
        {
          "indexed": false,
          "internalType": "bool",
          "name": "approved",
          "type": "bool"
        }
      ],
      "name": "ApprovalForAll",
      "type": "event"
    },
    {
      "anonymous": false,
      "inputs": [
        {
          "indexed": true,
          "internalType": "address",
          "name": "from",
          "type": "address"
        },
        {
          "indexed": true,
          "internalType": "address",
          "name": "to",
          "type": "address"
        },
        {
          "indexed": true,
          "internalType": "uint256",
          "name": "tokenId",
          "type": "uint256"
        }
      ],
      "name": "Transfer",
      "type": "event"
    },
    {
      "inputs": [
        {
          "internalType": "address",
          "name": "to",
          "type": "address"
        },
        {
          "internalType": "uint256",
          "name": "tokenId",
          "type": "uint256"
        }
      ],
      "name": "approve",
      "outputs": [],
      "stateMutability": "nonpayable",
      "type": "function"
    },
    {
      "inputs": [
        {
          "internalType": "address",
          "name": "owner",
          "type": "address"
        }
      ],
      "name": "balanceOf",
      "outputs": [
        {
          "internalType": "uint256",
          "name": "",
          "type": "uint256"
        }
      ],
      "stateMutability": "view",
      "type": "function"
    },
    {
      "inputs": [
        {
          "internalType": "address",
          "name": "account",
          "type": "address"
        },
        {
          "internalType": "uint256[]",
          "name": "ids",
          "type": "uint256[]"
        }
      ],
      "name": "bulkBurn",
      "outputs": [],
      "stateMutability": "nonpayable",
      "type": "function"
    },
    {
      "inputs": [
        {
          "internalType": "address",
          "name": "account",
          "type": "address"
        },
        {
          "internalType": "uint256[]",
          "name": "ids",
          "type": "uint256[]"
        }
      ],
      "name": "bulkMint",
      "outputs": [],
      "stateMutability": "nonpayable",
      "type": "function"
    },
    {
      "inputs": [
        {
          "internalType": "uint256",
          "name": "tokenId",
          "type": "uint256"
        }
      ],
      "name": "getApproved",
      "outputs": [
        {
          "internalType": "address",
          "name": "",
          "type": "address"
        }
      ],
      "stateMutability": "view",
      "type": "function"
    },
    {
      "inputs": [],
      "name": "holder",
      "outputs": [
        {
          "internalType": "address",
          "name": "",
          "type": "address"
        }
      ],
      "stateMutability": "view",
      "type": "function"
    },
    {
      "inputs": [
        {
          "internalType": "string",
          "name": "name_",
          "type": "string"
        },
        {
          "internalType": "string",
          "name": "symbol_",
          "type": "string"
        },
        {
          "internalType": "string",
          "name": "baseURI_",
          "type": "string"
        }
      ],
      "name": "init",
      "outputs": [],
      "stateMutability": "nonpayable",
      "type": "function"
    },
    {
      "inputs": [
        {
          "internalType": "address",
          "name": "owner",
          "type": "address"
        },
        {
          "internalType": "address",
          "name": "operator",
          "type": "address"
        }
      ],
      "name": "isApprovedForAll",
      "outputs": [
        {
          "internalType": "bool",
          "name": "",
          "type": "bool"
        }
      ],
      "stateMutability": "view",
      "type": "function"
    },
    {
      "inputs": [],
      "name": "name",
      "outputs": [
        {
          "internalType": "string",
          "name": "",
          "type": "string"
        }
      ],
      "stateMutability": "view",
      "type": "function"
    },
    {
      "inputs": [
        {
          "internalType": "uint256",
          "name": "tokenId",
          "type": "uint256"
        }
      ],
      "name": "ownerOf",
      "outputs": [
        {
          "internalType": "address",
          "name": "",
          "type": "address"
        }
      ],
      "stateMutability": "view",
      "type": "function"
    },
    {
      "inputs": [
        {
          "internalType": "address",
          "name": "from",
          "type": "address"
        },
        {
          "internalType": "address",
          "name": "to",
          "type": "address"
        },
        {
          "internalType": "uint256",
          "name": "tokenId",
          "type": "uint256"
        }
      ],
      "name": "safeTransferFrom",
      "outputs": [],
      "stateMutability": "nonpayable",
      "type": "function"
    },
    {
      "inputs": [
        {
          "internalType": "address",
          "name": "from",
          "type": "address"
        },
        {
          "internalType": "address",
          "name": "to",
          "type": "address"
        },
        {
          "internalType": "uint256",
          "name": "tokenId",
          "type": "uint256"
        },
        {
          "internalType": "bytes",
          "name": "data",
          "type": "bytes"
        }
      ],
      "name": "safeTransferFrom",
      "outputs": [],
      "stateMutability": "nonpayable",
      "type": "function"
    },
    {
      "inputs": [
        {
          "internalType": "address",
          "name": "operator",
          "type": "address"
        },
        {
          "internalType": "bool",
          "name": "approved",
          "type": "bool"
        }
      ],
      "name": "setApprovalForAll",
      "outputs": [],
      "stateMutability": "nonpayable",
      "type": "function"
    },
    {
      "inputs": [
        {
          "internalType": "bytes4",
          "name": "interfaceId",
          "type": "bytes4"
        }
      ],
      "name": "supportsInterface",
      "outputs": [
        {
          "internalType": "bool",
          "name": "",
          "type": "bool"
        }
      ],
      "stateMutability": "view",
      "type": "function"
    },
    {
      "inputs": [],
      "name": "symbol",
      "outputs": [
        {
          "internalType": "string",
          "name": "",
          "type": "string"
        }
      ],
      "stateMutability": "view",
      "type": "function"
    },
    {
      "inputs": [
        {
          "internalType": "uint256",
          "name": "tokenId",
          "type": "uint256"
        }
      ],
      "name": "tokenURI",
      "outputs": [
        {
          "internalType": "string",
          "name": "",
          "type": "string"
        }
      ],
      "stateMutability": "view",
      "type": "function"
    },
    {
      "inputs": [
        {
          "internalType": "address",
          "name": "from",
          "type": "address"
        },
        {
          "internalType": "address",
          "name": "to",
          "type": "address"
        },
        {
          "internalType": "uint256",
          "name": "tokenId",
          "type": "uint256"
        }
      ],
      "name": "transferFrom",
      "outputs": [],
      "stateMutability": "nonpayable",
      "type": "function"
    }
  ],
  "bytecode": "0x60806040523480156200001157600080fd5b5060408051602080820180845260008084528451928301909452838252835460ff191660019081179094558251929391926200004f9291906200006e565b508051620000659060029060208401906200006e565b50505062000151565b8280546200007c9062000114565b90600052602060002090601f016020900481019282620000a05760008555620000eb565b82601f10620000bb57805160ff1916838001178555620000eb565b82800160010185558215620000eb579182015b82811115620000eb578251825591602001919060010190620000ce565b50620000f9929150620000fd565b5090565b5b80821115620000f95760008155600101620000fe565b600181811c908216806200012957607f821691505b602082108114156200014b57634e487b7160e01b600052602260045260246000fd5b50919050565b61204280620001616000396000f3fe608060405234801561001057600080fd5b506004361061011b5760003560e01c806370a08231116100b2578063a22cb46511610081578063c87b56dd11610066578063c87b56dd1461026b578063e534155d1461027e578063e985e9c5146102a357600080fd5b8063a22cb46514610245578063b88d4fde1461025857600080fd5b806370a08231146101f65780638a3a4c7c1461021757806395d89b411461022a578063a184e9a51461023257600080fd5b806323b872dd116100ee57806323b872dd146101aa57806341e461a0146101bd57806342842e0e146101d05780636352211e146101e357600080fd5b806301ffc9a71461012057806306fdde0314610148578063081812fc1461015d578063095ea7b314610195575b600080fd5b61013361012e366004611cde565b6102ec565b60405190151581526020015b60405180910390f35b6101506103d1565b60405161013f9190611e8d565b61017061016b366004611db2565b610463565b60405173ffffffffffffffffffffffffffffffffffffffff909116815260200161013f565b6101a86101a3366004611cb4565b610497565b005b6101a86101b8366004611abc565b6105f5565b6101a86101cb366004611d18565b61067c565b6101a86101de366004611abc565b6106ee565b6101706101f1366004611db2565b610709565b610209610204366004611a6e565b61077b565b60405190815260200161013f565b6101a8610225366004611bf2565b61082f565b61015061095c565b6101a8610240366004611bf2565b61096b565b6101a8610253366004611c78565b610a68565b6101a8610266366004611af8565b610a77565b610150610279366004611db2565b610aff565b60005461017090610100900473ffffffffffffffffffffffffffffffffffffffff1681565b6101336102b1366004611a89565b73ffffffffffffffffffffffffffffffffffffffff918216600090815260066020908152604080832093909416825291909152205460ff1690565b60007fffffffff0000000000000000000000000000000000000000000000000000000082167f80ac58cd00000000000000000000000000000000000000000000000000000000148061037f57507fffffffff0000000000000000000000000000000000000000000000000000000082167f5b5e139f00000000000000000000000000000000000000000000000000000000145b806103cb57507f01ffc9a7000000000000000000000000000000000000000000000000000000007fffffffff000000000000000000000000000000000000000000000000000000008316145b92915050565b6060600780546103e090611ecc565b80601f016020809104026020016040519081016040528092919081815260200182805461040c90611ecc565b80156104595780601f1061042e57610100808354040283529160200191610459565b820191906000526020600020905b81548152906001019060200180831161043c57829003601f168201915b5050505050905090565b600061046e82610b66565b5060009081526005602052604090205473ffffffffffffffffffffffffffffffffffffffff1690565b60006104a282610709565b90508073ffffffffffffffffffffffffffffffffffffffff168373ffffffffffffffffffffffffffffffffffffffff16141561054b5760405162461bcd60e51b815260206004820152602160248201527f4552433732313a20617070726f76616c20746f2063757272656e74206f776e6560448201527f720000000000000000000000000000000000000000000000000000000000000060648201526084015b60405180910390fd5b3373ffffffffffffffffffffffffffffffffffffffff82161480610574575061057481336102b1565b6105e65760405162461bcd60e51b815260206004820152603d60248201527f4552433732313a20617070726f76652063616c6c6572206973206e6f7420746f60448201527f6b656e206f776e6572206f7220617070726f76656420666f7220616c6c0000006064820152608401610542565b6105f08383610bda565b505050565b6105ff3382610c7a565b6106715760405162461bcd60e51b815260206004820152602d60248201527f4552433732313a2063616c6c6572206973206e6f7420746f6b656e206f776e6560448201527f72206f7220617070726f766564000000000000000000000000000000000000006064820152608401610542565b6105f0838383610d3a565b60005460ff16156106cf5760405162461bcd60e51b815260206004820152601360248201527f416c726561647920496e697469616c697a6564000000000000000000000000006044820152606401610542565b6106d833610fe7565b6106e6868686868686611089565b505050505050565b6105f083838360405180602001604052806000815250610a77565b60008181526003602052604081205473ffffffffffffffffffffffffffffffffffffffff16806103cb5760405162461bcd60e51b815260206004820152601860248201527f4552433732313a20696e76616c696420746f6b656e20494400000000000000006044820152606401610542565b600073ffffffffffffffffffffffffffffffffffffffff82166108065760405162461bcd60e51b815260206004820152602960248201527f4552433732313a2061646472657373207a65726f206973206e6f74206120766160448201527f6c6964206f776e657200000000000000000000000000000000000000000000006064820152608401610542565b5073ffffffffffffffffffffffffffffffffffffffff1660009081526004602052604090205490565b60005460ff166108815760405162461bcd60e51b815260206004820152600f60248201527f4e6f7420696e697469616c697a656400000000000000000000000000000000006044820152606401610542565b600054610100900473ffffffffffffffffffffffffffffffffffffffff1633146108ed5760405162461bcd60e51b815260206004820152601360248201527f4f6e6c7920686f6c64657220616c6c6f776564000000000000000000000000006044820152606401610542565b60005b818110156109565761091a8484848481811061090e5761090e611f80565b90506020020135610c7a565b61092357600080fd5b61094483838381811061093857610938611f80565b905060200201356110b8565b8061094e81611f20565b9150506108f0565b50505050565b6060600880546103e090611ecc565b60005460ff166109bd5760405162461bcd60e51b815260206004820152600f60248201527f4e6f7420696e697469616c697a656400000000000000000000000000000000006044820152606401610542565b600054610100900473ffffffffffffffffffffffffffffffffffffffff163314610a295760405162461bcd60e51b815260206004820152601360248201527f4f6e6c7920686f6c64657220616c6c6f776564000000000000000000000000006044820152606401610542565b60005b8181101561095657610a5684848484818110610a4a57610a4a611f80565b90506020020135611190565b80610a6081611f20565b915050610a2c565b610a733383836111aa565b5050565b610a813383610c7a565b610af35760405162461bcd60e51b815260206004820152602d60248201527f4552433732313a2063616c6c6572206973206e6f7420746f6b656e206f776e6560448201527f72206f7220617070726f766564000000000000000000000000000000000000006064820152608401610542565b610956848484846112be565b6060610b0a82610b66565b6000610b14611347565b90506000815111610b345760405180602001604052806000815250610b5f565b80610b3e84611356565b604051602001610b4f929190611e15565b6040516020818303038152906040525b9392505050565b60008181526003602052604090205473ffffffffffffffffffffffffffffffffffffffff16610bd75760405162461bcd60e51b815260206004820152601860248201527f4552433732313a20696e76616c696420746f6b656e20494400000000000000006044820152606401610542565b50565b600081815260056020526040902080547fffffffffffffffffffffffff00000000000000000000000000000000000000001673ffffffffffffffffffffffffffffffffffffffff84169081179091558190610c3482610709565b73ffffffffffffffffffffffffffffffffffffffff167f8c5be1e5ebec7d5bd14f71427d1e84f3dd0314c0f7b2291e5b200ac8c7c3b92560405160405180910390a45050565b600080610c8683610709565b90508073ffffffffffffffffffffffffffffffffffffffff168473ffffffffffffffffffffffffffffffffffffffff161480610cf4575073ffffffffffffffffffffffffffffffffffffffff80821660009081526006602090815260408083209388168352929052205460ff165b80610d3257508373ffffffffffffffffffffffffffffffffffffffff16610d1a84610463565b73ffffffffffffffffffffffffffffffffffffffff16145b949350505050565b8273ffffffffffffffffffffffffffffffffffffffff16610d5a82610709565b73ffffffffffffffffffffffffffffffffffffffff1614610de35760405162461bcd60e51b815260206004820152602560248201527f4552433732313a207472616e736665722066726f6d20696e636f72726563742060448201527f6f776e65720000000000000000000000000000000000000000000000000000006064820152608401610542565b73ffffffffffffffffffffffffffffffffffffffff8216610e6b5760405162461bcd60e51b8152602060048201526024808201527f4552433732313a207472616e7366657220746f20746865207a65726f2061646460448201527f72657373000000000000000000000000000000000000000000000000000000006064820152608401610542565b8273ffffffffffffffffffffffffffffffffffffffff16610e8b82610709565b73ffffffffffffffffffffffffffffffffffffffff1614610f145760405162461bcd60e51b815260206004820152602560248201527f4552433732313a207472616e736665722066726f6d20696e636f72726563742060448201527f6f776e65720000000000000000000000000000000000000000000000000000006064820152608401610542565b600081815260056020908152604080832080547fffffffffffffffffffffffff000000000000000000000000000000000000000090811690915573ffffffffffffffffffffffffffffffffffffffff8781168086526004855283862080547fffffffffffffffffffffffffffffffffffffffffffffffffffffffffffffffff01905590871680865283862080546001019055868652600390945282852080549092168417909155905184937fddf252ad1be2c89b69c2b068fc378daa952ba7f163c4a11628f55a4df523b3ef91a4505050565b60005460ff161561103a5760405162461bcd60e51b815260206004820152601360248201527f416c726561647920496e697469616c697a6564000000000000000000000000006044820152606401610542565b6000805473ffffffffffffffffffffffffffffffffffffffff909216610100027fffffffffffffffffffffff000000000000000000000000000000000000000000909216919091176001179055565b61109560078787611945565b506110a260088585611945565b506110af60098383611945565b50505050505050565b60006110c382610709565b90506110ce82610709565b600083815260056020908152604080832080547fffffffffffffffffffffffff000000000000000000000000000000000000000090811690915573ffffffffffffffffffffffffffffffffffffffff85168085526004845282852080547fffffffffffffffffffffffffffffffffffffffffffffffffffffffffffffffff0190558785526003909352818420805490911690555192935084927fddf252ad1be2c89b69c2b068fc378daa952ba7f163c4a11628f55a4df523b3ef908390a45050565b610a7382826040518060200160405280600081525061141e565b8173ffffffffffffffffffffffffffffffffffffffff168373ffffffffffffffffffffffffffffffffffffffff1614156112265760405162461bcd60e51b815260206004820152601960248201527f4552433732313a20617070726f766520746f2063616c6c6572000000000000006044820152606401610542565b73ffffffffffffffffffffffffffffffffffffffff83811660008181526006602090815260408083209487168084529482529182902080547fffffffffffffffffffffffffffffffffffffffffffffffffffffffffffffff001686151590811790915591519182527f17307eab39ab6107e8899845ad3d59bd9653f200f220920489ca2b5937696c31910160405180910390a3505050565b6112c9848484610d3a565b6112d5848484846114a7565b6109565760405162461bcd60e51b815260206004820152603260248201527f4552433732313a207472616e7366657220746f206e6f6e20455243373231526560448201527f63656976657220696d706c656d656e74657200000000000000000000000000006064820152608401610542565b6060600980546103e090611ecc565b606060006113638361168c565b600101905060008167ffffffffffffffff81111561138357611383611faf565b6040519080825280601f01601f1916602001820160405280156113ad576020820181803683370190505b5090508181016020015b7fffffffffffffffffffffffffffffffffffffffffffffffffffffffffffffffff017f3031323334353637383961626364656600000000000000000000000000000000600a86061a8153600a850494508461141157611416565b6113b7565b509392505050565b611428838361176e565b61143560008484846114a7565b6105f05760405162461bcd60e51b815260206004820152603260248201527f4552433732313a207472616e7366657220746f206e6f6e20455243373231526560448201527f63656976657220696d706c656d656e74657200000000000000000000000000006064820152608401610542565b600073ffffffffffffffffffffffffffffffffffffffff84163b15611681576040517f150b7a0200000000000000000000000000000000000000000000000000000000815273ffffffffffffffffffffffffffffffffffffffff85169063150b7a029061151e903390899088908890600401611e44565b602060405180830381600087803b15801561153857600080fd5b505af1925050508015611586575060408051601f3d9081017fffffffffffffffffffffffffffffffffffffffffffffffffffffffffffffffe016820190925261158391810190611cfb565b60015b611636573d8080156115b4576040519150601f19603f3d011682016040523d82523d6000602084013e6115b9565b606091505b50805161162e5760405162461bcd60e51b815260206004820152603260248201527f4552433732313a207472616e7366657220746f206e6f6e20455243373231526560448201527f63656976657220696d706c656d656e74657200000000000000000000000000006064820152608401610542565b805181602001fd5b7fffffffff00000000000000000000000000000000000000000000000000000000167f150b7a0200000000000000000000000000000000000000000000000000000000149050610d32565b506001949350505050565b6000807a184f03e93ff9f4daa797ed6e38ed64bf6a1f01000000000000000083106116d5577a184f03e93ff9f4daa797ed6e38ed64bf6a1f010000000000000000830492506040015b6d04ee2d6d415b85acef81000000008310611701576d04ee2d6d415b85acef8100000000830492506020015b662386f26fc10000831061171f57662386f26fc10000830492506010015b6305f5e1008310611737576305f5e100830492506008015b612710831061174b57612710830492506004015b6064831061175d576064830492506002015b600a83106103cb5760010192915050565b73ffffffffffffffffffffffffffffffffffffffff82166117d15760405162461bcd60e51b815260206004820181905260248201527f4552433732313a206d696e7420746f20746865207a65726f20616464726573736044820152606401610542565b60008181526003602052604090205473ffffffffffffffffffffffffffffffffffffffff16156118435760405162461bcd60e51b815260206004820152601c60248201527f4552433732313a20746f6b656e20616c7265616479206d696e746564000000006044820152606401610542565b60008181526003602052604090205473ffffffffffffffffffffffffffffffffffffffff16156118b55760405162461bcd60e51b815260206004820152601c60248201527f4552433732313a20746f6b656e20616c7265616479206d696e746564000000006044820152606401610542565b73ffffffffffffffffffffffffffffffffffffffff8216600081815260046020908152604080832080546001019055848352600390915280822080547fffffffffffffffffffffffff0000000000000000000000000000000000000000168417905551839291907fddf252ad1be2c89b69c2b068fc378daa952ba7f163c4a11628f55a4df523b3ef908290a45050565b82805461195190611ecc565b90600052602060002090601f01602090048101928261197357600085556119d7565b82601f106119aa578280017fffffffffffffffffffffffffffffffffffffffffffffffffffffffffffffff008235161785556119d7565b828001600101855582156119d7579182015b828111156119d75782358255916020019190600101906119bc565b506119e39291506119e7565b5090565b5b808211156119e357600081556001016119e8565b803573ffffffffffffffffffffffffffffffffffffffff81168114611a2057600080fd5b919050565b60008083601f840112611a3757600080fd5b50813567ffffffffffffffff811115611a4f57600080fd5b602083019150836020828501011115611a6757600080fd5b9250929050565b600060208284031215611a8057600080fd5b610b5f826119fc565b60008060408385031215611a9c57600080fd5b611aa5836119fc565b9150611ab3602084016119fc565b90509250929050565b600080600060608486031215611ad157600080fd5b611ada846119fc565b9250611ae8602085016119fc565b9150604084013590509250925092565b60008060008060808587031215611b0e57600080fd5b611b17856119fc565b9350611b25602086016119fc565b925060408501359150606085013567ffffffffffffffff80821115611b4957600080fd5b818701915087601f830112611b5d57600080fd5b813581811115611b6f57611b6f611faf565b604051601f82017fffffffffffffffffffffffffffffffffffffffffffffffffffffffffffffffe0908116603f01168101908382118183101715611bb557611bb5611faf565b816040528281528a6020848701011115611bce57600080fd5b82602086016020830137600060208483010152809550505050505092959194509250565b600080600060408486031215611c0757600080fd5b611c10846119fc565b9250602084013567ffffffffffffffff80821115611c2d57600080fd5b818601915086601f830112611c4157600080fd5b813581811115611c5057600080fd5b8760208260051b8501011115611c6557600080fd5b6020830194508093505050509250925092565b60008060408385031215611c8b57600080fd5b611c94836119fc565b915060208301358015158114611ca957600080fd5b809150509250929050565b60008060408385031215611cc757600080fd5b611cd0836119fc565b946020939093013593505050565b600060208284031215611cf057600080fd5b8135610b5f81611fde565b600060208284031215611d0d57600080fd5b8151610b5f81611fde565b60008060008060008060608789031215611d3157600080fd5b863567ffffffffffffffff80821115611d4957600080fd5b611d558a838b01611a25565b90985096506020890135915080821115611d6e57600080fd5b611d7a8a838b01611a25565b90965094506040890135915080821115611d9357600080fd5b50611da089828a01611a25565b979a9699509497509295939492505050565b600060208284031215611dc457600080fd5b5035919050565b60008151808452611de3816020860160208601611ea0565b601f017fffffffffffffffffffffffffffffffffffffffffffffffffffffffffffffffe0169290920160200192915050565b60008351611e27818460208801611ea0565b835190830190611e3b818360208801611ea0565b01949350505050565b600073ffffffffffffffffffffffffffffffffffffffff808716835280861660208401525083604083015260806060830152611e836080830184611dcb565b9695505050505050565b602081526000610b5f6020830184611dcb565b60005b83811015611ebb578181015183820152602001611ea3565b838111156109565750506000910152565b600181811c90821680611ee057607f821691505b60208210811415611f1a577f4e487b7100000000000000000000000000000000000000000000000000000000600052602260045260246000fd5b50919050565b60007fffffffffffffffffffffffffffffffffffffffffffffffffffffffffffffffff821415611f79577f4e487b7100000000000000000000000000000000000000000000000000000000600052601160045260246000fd5b5060010190565b7f4e487b7100000000000000000000000000000000000000000000000000000000600052603260045260246000fd5b7f4e487b7100000000000000000000000000000000000000000000000000000000600052604160045260246000fd5b7fffffffff0000000000000000000000000000000000000000000000000000000081168114610bd757600080fdfea26469706673582212207cf6a70530099d6c98bb96879bbc43b516d920b8eaa512176de0e2e56db4ec8764736f6c63430008060033",
  "linkReferences": {},
  "deployedLinkReferences": {}
}