{
  "_format": "hh-sol-artifact-1",
  "contractName": "ForeignERC20",
  "sourceName": "contracts/ForeignERC20.sol",
  "abi": [
    {
      "inputs": [
        {
          "internalType": "address",
          "name": "spender",
          "type": "address"
        },
        {
          "internalType": "uint256",
          "name": "allowance",
          "type": "uint256"
        },
        {
          "internalType": "uint256",
          "name": "needed",
          "type": "uint256"
        }
      ],
      "name": "ERC20InsufficientAllowance",
      "type": "error"
    },
    {
      "inputs": [
        {
          "internalType": "address",
          "name": "sender",
          "type": "address"
        },
        {
          "internalType": "uint256",
          "name": "balance",
          "type": "uint256"
        },
        {
          "internalType": "uint256",
          "name": "needed",
          "type": "uint256"
        }
      ],
      "name": "ERC20InsufficientBalance",
      "type": "error"
    },
    {
      "inputs": [
        {
          "internalType": "address",
          "name": "approver",
          "type": "address"
        }
      ],
      "name": "ERC20InvalidApprover",
      "type": "error"
    },
    {
      "inputs": [
        {
          "internalType": "address",
          "name": "receiver",
          "type": "address"
        }
      ],
      "name": "ERC20InvalidReceiver",
      "type": "error"
    },
    {
      "inputs": [
        {
          "internalType": "address",
          "name": "sender",
          "type": "address"
        }
      ],
      "name": "ERC20InvalidSender",
      "type": "error"
    },
    {
      "inputs": [
        {
          "internalType": "address",
          "name": "spender",
          "type": "address"
        }
      ],
      "name": "ERC20InvalidSpender",
      "type": "error"
    },
    {
      "anonymous": false,
      "inputs": [
        {
          "indexed": true,
          "internalType": "address",
          "name": "owner",
          "type": "address"
        },
        {
          "indexed": true,
          "internalType": "address",
          "name": "spender",
          "type": "address"
        },
        {
          "indexed": false,
          "internalType": "uint256",
          "name": "value",
          "type": "uint256"
        }
      ],
      "name": "Approval",
      "type": "event"
    },
    {
      "anonymous": false,
      "inputs": [
        {
          "indexed": true,
          "internalType": "address",
          "name": "from",
          "type": "address"
        },
        {
          "indexed": true,
          "internalType": "address",
          "name": "to",
          "type": "address"
        },
        {
          "indexed": false,
          "internalType": "uint256",
          "name": "value",
          "type": "uint256"
        }
      ],
      "name": "Transfer",
      "type": "event"
    },
    {
      "inputs": [
        {
          "internalType": "address",
          "name": "owner",
          "type": "address"
        },
        {
          "internalType": "address",
          "name": "spender",
          "type": "address"
        }
      ],
      "name": "allowance",
      "outputs": [
        {
          "internalType": "uint256",
          "name": "",
          "type": "uint256"
        }
      ],
      "stateMutability": "view",
      "type": "function"
    },
    {
      "inputs": [
        {
          "internalType": "address",
          "name": "spender",
          "type": "address"
        },
        {
          "internalType": "uint256",
          "name": "value",
          "type": "uint256"
        }
      ],
      "name": "approve",
      "outputs": [
        {
          "internalType": "bool",
          "name": "",
          "type": "bool"
        }
      ],
      "stateMutability": "nonpayable",
      "type": "function"
    },
    {
      "inputs": [
        {
          "internalType": "address",
          "name": "account",
          "type": "address"
        }
      ],
      "name": "balanceOf",
      "outputs": [
        {
          "internalType": "uint256",
          "name": "",
          "type": "uint256"
        }
      ],
      "stateMutability": "view",
      "type": "function"
    },
    {
      "inputs": [
        {
          "internalType": "address",
          "name": "account",
          "type": "address"
        },
        {
          "internalType": "uint256",
          "name": "amount",
          "type": "uint256"
        }
      ],
      "name": "burn",
      "outputs": [],
      "stateMutability": "nonpayable",
      "type": "function"
    },
    {
      "inputs": [],
      "name": "decimals",
      "outputs": [
        {
          "internalType": "uint8",
          "name": "",
          "type": "uint8"
        }
      ],
      "stateMutability": "view",
      "type": "function"
    },
    {
      "inputs": [],
      "name": "holder",
      "outputs": [
        {
          "internalType": "address",
          "name": "",
          "type": "address"
        }
      ],
      "stateMutability": "view",
      "type": "function"
    },
    {
      "inputs": [],
      "name": "init",
      "outputs": [],
      "stateMutability": "nonpayable",
      "type": "function"
    },
    {
      "inputs": [
        {
          "internalType": "string",
          "name": "name_",
          "type": "string"
        },
        {
          "internalType": "string",
          "name": "symbol_",
          "type": "string"
        },
        {
          "internalType": "uint8",
          "name": "decimals_",
          "type": "uint8"
        }
      ],
      "name": "initMetadata",
      "outputs": [],
      "stateMutability": "nonpayable",
      "type": "function"
    },
    {
      "inputs": [
        {
          "internalType": "address",
          "name": "account",
          "type": "address"
        },
        {
          "internalType": "uint256",
          "name": "amount",
          "type": "uint256"
        }
      ],
      "name": "mint",
      "outputs": [],
      "stateMutability": "nonpayable",
      "type": "function"
    },
    {
      "inputs": [],
      "name": "name",
      "outputs": [
        {
          "internalType": "string",
          "name": "",
          "type": "string"
        }
      ],
      "stateMutability": "view",
      "type": "function"
    },
    {
      "inputs": [],
      "name": "symbol",
      "outputs": [
        {
          "internalType": "string",
          "name": "",
          "type": "string"
        }
      ],
      "stateMutability": "view",
      "type": "function"
    },
    {
      "inputs": [],
      "name": "totalSupply",
      "outputs": [
        {
          "internalType": "uint256",
          "name": "",
          "type": "uint256"
        }
      ],
      "stateMutability": "view",
      "type": "function"
    },
    {
      "inputs": [
        {
          "internalType": "address",
          "name": "to",
          "type": "address"
        },
        {
          "internalType": "uint256",
          "name": "value",
          "type": "uint256"
        }
      ],
      "name": "transfer",
      "outputs": [
        {
          "internalType": "bool",
          "name": "",
          "type": "bool"
        }
      ],
      "stateMutability": "nonpayable",
      "type": "function"
    },
    {
      "inputs": [
        {
          "internalType": "address",
          "name": "from",
          "type": "address"
        },
        {
          "internalType": "address",
          "name": "to",
          "type": "address"
        },
        {
          "internalType": "uint256",
          "name": "value",
          "type": "uint256"
        }
      ],
      "name": "transferFrom",
      "outputs": [
        {
          "internalType": "bool",
          "name": "",
          "type": "bool"
        }
      ],
      "stateMutability": "nonpayable",
      "type": "function"
    }
  ],
  "bytecode": "0x60806040523480156200001157600080fd5b50604080516020808201835260008083528351918201909352828152825460ff191660011790925590600462000048838262000107565b50600562000057828262000107565b505050620001d3565b634e487b7160e01b600052604160045260246000fd5b600181811c908216806200008b57607f821691505b602082108103620000ac57634e487b7160e01b600052602260045260246000fd5b50919050565b601f82111562000102576000816000526020600020601f850160051c81016020861015620000dd5750805b601f850160051c820191505b81811015620000fe57828155600101620000e9565b5050505b505050565b81516001600160401b0381111562000123576200012362000060565b6200013b8162000134845462000076565b84620000b2565b602080601f8311600181146200017357600084156200015a5750858301515b600019600386901b1c1916600185901b178555620000fe565b600085815260208120601f198616915b82811015620001a45788860151825594840194600190910190840162000183565b5085821015620001c35787850151600019600388901b60f8161c191681555b5050505050600190811b01905550565b61123d80620001e36000396000f3fe608060405234801561001057600080fd5b50600436106100ea5760003560e01c806395d89b411161008c578063a9059cbb11610066578063a9059cbb146101e8578063dd62ed3e146101fb578063e1c7392a14610241578063e534155d1461024957600080fd5b806395d89b41146101ba5780639dc29fac146101c25780639eee6484146101d557600080fd5b806323b872dd116100c857806323b872dd14610142578063313ce5671461015557806340c10f191461016f57806370a082311461018457600080fd5b806306fdde03146100ef578063095ea7b31461010d57806318160ddd14610130575b600080fd5b6100f7610293565b6040516101049190610dbd565b60405180910390f35b61012061011b366004610e53565b610335565b6040519015158152602001610104565b6003545b604051908152602001610104565b610120610150366004610e7d565b61034f565b61015d610373565b60405160ff9091168152602001610104565b61018261017d366004610e53565b61038f565b005b610134610192366004610eb9565b73ffffffffffffffffffffffffffffffffffffffff1660009081526001602052604090205490565b6100f7610494565b6101826101d0366004610e53565b6104b3565b6101826101e3366004610f24565b6105af565b6101206101f6366004610e53565b6106b5565b610134610209366004610fae565b73ffffffffffffffffffffffffffffffffffffffff918216600090815260026020908152604080832093909416825291909152205490565b6101826106c3565b60005461026e90610100900473ffffffffffffffffffffffffffffffffffffffff1681565b60405173ffffffffffffffffffffffffffffffffffffffff9091168152602001610104565b60065460609060ff166102a557600080fd5b600780546102b290610fe1565b80601f01602080910402602001604051908101604052809291908181526020018280546102de90610fe1565b801561032b5780601f106103005761010080835404028352916020019161032b565b820191906000526020600020905b81548152906001019060200180831161030e57829003601f168201915b5050505050905090565b60003361034381858561073b565b60019150505b92915050565b60003361035d85828561074d565b61036885858561081c565b506001949350505050565b60065460009060ff1661038557600080fd5b5060095460ff1690565b60005460ff16610400576040517f08c379a000000000000000000000000000000000000000000000000000000000815260206004820152600f60248201527f4e6f7420696e697469616c697a6564000000000000000000000000000000000060448201526064015b60405180910390fd5b600054610100900473ffffffffffffffffffffffffffffffffffffffff163314610486576040517f08c379a000000000000000000000000000000000000000000000000000000000815260206004820152601360248201527f4f6e6c7920686f6c64657220616c6c6f7765640000000000000000000000000060448201526064016103f7565b61049082826108c7565b5050565b60065460609060ff166104a657600080fd5b600880546102b290610fe1565b60005460ff1661051f576040517f08c379a000000000000000000000000000000000000000000000000000000000815260206004820152600f60248201527f4e6f7420696e697469616c697a6564000000000000000000000000000000000060448201526064016103f7565b600054610100900473ffffffffffffffffffffffffffffffffffffffff1633146105a5576040517f08c379a000000000000000000000000000000000000000000000000000000000815260206004820152601360248201527f4f6e6c7920686f6c64657220616c6c6f7765640000000000000000000000000060448201526064016103f7565b6104908282610923565b60005460ff1661061b576040517f08c379a000000000000000000000000000000000000000000000000000000000815260206004820152600f60248201527f4e6f7420696e697469616c697a6564000000000000000000000000000000000060448201526064016103f7565b600054610100900473ffffffffffffffffffffffffffffffffffffffff1633146106a1576040517f08c379a000000000000000000000000000000000000000000000000000000000815260206004820152601360248201527f4f6e6c7920686f6c64657220616c6c6f7765640000000000000000000000000060448201526064016103f7565b6106ae858585858561097f565b5050505050565b60003361034381858561081c565b60005460ff1615610730576040517f08c379a000000000000000000000000000000000000000000000000000000000815260206004820152601360248201527f416c726561647920496e697469616c697a65640000000000000000000000000060448201526064016103f7565b61073933610a0e565b565b6107488383836001610aca565b505050565b73ffffffffffffffffffffffffffffffffffffffff8381166000908152600260209081526040808320938616835292905220547fffffffffffffffffffffffffffffffffffffffffffffffffffffffffffffffff81146108165781811015610807576040517ffb8f41b200000000000000000000000000000000000000000000000000000000815273ffffffffffffffffffffffffffffffffffffffff8416600482015260248101829052604481018390526064016103f7565b61081684848484036000610aca565b50505050565b73ffffffffffffffffffffffffffffffffffffffff831661086c576040517f96c6fd1e000000000000000000000000000000000000000000000000000000008152600060048201526024016103f7565b73ffffffffffffffffffffffffffffffffffffffff82166108bc576040517fec442f05000000000000000000000000000000000000000000000000000000008152600060048201526024016103f7565b610748838383610c12565b73ffffffffffffffffffffffffffffffffffffffff8216610917576040517fec442f05000000000000000000000000000000000000000000000000000000008152600060048201526024016103f7565b61049060008383610c12565b73ffffffffffffffffffffffffffffffffffffffff8216610973576040517f96c6fd1e000000000000000000000000000000000000000000000000000000008152600060048201526024016103f7565b61049082600083610c12565b60065460ff161561098f57600080fd5b600680547fffffffffffffffffffffffffffffffffffffffffffffffffffffffffffffff0016600117905560076109c78587836110b3565b5060086109d58385836110b3565b50600980547fffffffffffffffffffffffffffffffffffffffffffffffffffffffffffffff001660ff9290921691909117905550505050565b60005460ff1615610a7b576040517f08c379a000000000000000000000000000000000000000000000000000000000815260206004820152601360248201527f416c726561647920496e697469616c697a65640000000000000000000000000060448201526064016103f7565b6000805473ffffffffffffffffffffffffffffffffffffffff909216610100027fffffffffffffffffffffff000000000000000000000000000000000000000000909216919091176001179055565b73ffffffffffffffffffffffffffffffffffffffff8416610b1a576040517fe602df05000000000000000000000000000000000000000000000000000000008152600060048201526024016103f7565b73ffffffffffffffffffffffffffffffffffffffff8316610b6a576040517f94280d62000000000000000000000000000000000000000000000000000000008152600060048201526024016103f7565b73ffffffffffffffffffffffffffffffffffffffff80851660009081526002602090815260408083209387168352929052208290558015610816578273ffffffffffffffffffffffffffffffffffffffff168473ffffffffffffffffffffffffffffffffffffffff167f8c5be1e5ebec7d5bd14f71427d1e84f3dd0314c0f7b2291e5b200ac8c7c3b92584604051610c0491815260200190565b60405180910390a350505050565b73ffffffffffffffffffffffffffffffffffffffff8316610c4a578060036000828254610c3f91906111cd565b90915550610cfc9050565b73ffffffffffffffffffffffffffffffffffffffff831660009081526001602052604090205481811015610cd0576040517fe450d38c00000000000000000000000000000000000000000000000000000000815273ffffffffffffffffffffffffffffffffffffffff8516600482015260248101829052604481018390526064016103f7565b73ffffffffffffffffffffffffffffffffffffffff841660009081526001602052604090209082900390555b73ffffffffffffffffffffffffffffffffffffffff8216610d2557600380548290039055610d51565b73ffffffffffffffffffffffffffffffffffffffff821660009081526001602052604090208054820190555b8173ffffffffffffffffffffffffffffffffffffffff168373ffffffffffffffffffffffffffffffffffffffff167fddf252ad1be2c89b69c2b068fc378daa952ba7f163c4a11628f55a4df523b3ef83604051610db091815260200190565b60405180910390a3505050565b60006020808352835180602085015260005b81811015610deb57858101830151858201604001528201610dcf565b5060006040828601015260407fffffffffffffffffffffffffffffffffffffffffffffffffffffffffffffffe0601f8301168501019250505092915050565b803573ffffffffffffffffffffffffffffffffffffffff81168114610e4e57600080fd5b919050565b60008060408385031215610e6657600080fd5b610e6f83610e2a565b946020939093013593505050565b600080600060608486031215610e9257600080fd5b610e9b84610e2a565b9250610ea960208501610e2a565b9150604084013590509250925092565b600060208284031215610ecb57600080fd5b610ed482610e2a565b9392505050565b60008083601f840112610eed57600080fd5b50813567ffffffffffffffff811115610f0557600080fd5b602083019150836020828501011115610f1d57600080fd5b9250929050565b600080600080600060608688031215610f3c57600080fd5b853567ffffffffffffffff80821115610f5457600080fd5b610f6089838a01610edb565b90975095506020880135915080821115610f7957600080fd5b50610f8688828901610edb565b909450925050604086013560ff81168114610fa057600080fd5b809150509295509295909350565b60008060408385031215610fc157600080fd5b610fca83610e2a565b9150610fd860208401610e2a565b90509250929050565b600181811c90821680610ff557607f821691505b60208210810361102e577f4e487b7100000000000000000000000000000000000000000000000000000000600052602260045260246000fd5b50919050565b7f4e487b7100000000000000000000000000000000000000000000000000000000600052604160045260246000fd5b601f821115610748576000816000526020600020601f850160051c8101602086101561108c5750805b601f850160051c820191505b818110156110ab57828155600101611098565b505050505050565b67ffffffffffffffff8311156110cb576110cb611034565b6110df836110d98354610fe1565b83611063565b6000601f84116001811461113157600085156110fb5750838201355b7fffffffffffffffffffffffffffffffffffffffffffffffffffffffffffffffff600387901b1c1916600186901b1783556106ae565b6000838152602090207fffffffffffffffffffffffffffffffffffffffffffffffffffffffffffffffe0861690835b828110156111805786850135825560209485019460019092019101611160565b50868210156111bb577fffffffffffffffffffffffffffffffffffffffffffffffffffffffffffffffff60f88860031b161c19848701351681555b505060018560011b0183555050505050565b80820180821115610349577f4e487b7100000000000000000000000000000000000000000000000000000000600052601160045260246000fdfea264697066735822122049b2d5a853193b348af03bb31b0cb2525ea3a6559b19db0c0c3fe22d343973a564736f6c63430008180033",
  "linkReferences": {},
  "deployedLinkReferences": {}
}